{
  "contractName": "AddressSet",
  "abi": [
    {
      "constant": false,
      "inputs": [],
      "name": "renounceOwnership",
      "outputs": [],
      "payable": false,
      "stateMutability": "nonpayable",
      "type": "function"
    },
    {
      "constant": true,
      "inputs": [],
      "name": "owner",
      "outputs": [
        {
          "name": "",
          "type": "address"
        }
      ],
      "payable": false,
      "stateMutability": "view",
      "type": "function"
    },
    {
      "constant": false,
      "inputs": [
        {
          "name": "_newOwner",
          "type": "address"
        }
      ],
      "name": "transferOwnership",
      "outputs": [],
      "payable": false,
      "stateMutability": "nonpayable",
      "type": "function"
    },
    {
      "anonymous": false,
      "inputs": [
        {
          "indexed": true,
          "name": "previousOwner",
          "type": "address"
        }
      ],
      "name": "OwnershipRenounced",
      "type": "event"
    },
    {
      "anonymous": false,
      "inputs": [
        {
          "indexed": true,
          "name": "previousOwner",
          "type": "address"
        },
        {
          "indexed": true,
          "name": "newOwner",
          "type": "address"
        }
      ],
      "name": "OwnershipTransferred",
      "type": "event"
    },
    {
      "constant": false,
      "inputs": [
        {
          "name": "_addr",
          "type": "address"
        }
      ],
      "name": "add",
      "outputs": [
        {
          "name": "",
          "type": "bool"
        }
      ],
      "payable": false,
      "stateMutability": "nonpayable",
      "type": "function"
    },
    {
      "constant": true,
      "inputs": [
        {
          "name": "_addr",
          "type": "address"
        }
      ],
      "name": "contains",
      "outputs": [
        {
          "name": "",
          "type": "bool"
        }
      ],
      "payable": false,
      "stateMutability": "view",
      "type": "function"
    },
    {
      "constant": true,
      "inputs": [
        {
          "name": "_index",
          "type": "uint256"
        }
      ],
      "name": "elementAt",
      "outputs": [
        {
          "name": "",
          "type": "address"
        }
      ],
      "payable": false,
      "stateMutability": "view",
      "type": "function"
    },
    {
      "constant": true,
      "inputs": [],
      "name": "getTheNumberOfElements",
      "outputs": [
        {
          "name": "",
          "type": "uint256"
        }
      ],
      "payable": false,
      "stateMutability": "view",
      "type": "function"
    }
  ],
  "bytecode": "0x608060405260008054600160a060020a031916331790556103ff806100256000396000f3006080604052600436106100825763ffffffff7c01000000000000000000000000000000000000000000000000000000006000350416630870188e81146100875780630a3b0a4f146100ae5780635dbe47e8146100e35780635fab6f8214610104578063715018a6146101385780638da5cb5b1461014f578063f2fde38b14610164575b600080fd5b34801561009357600080fd5b5061009c610185565b60408051918252519081900360200190f35b3480156100ba57600080fd5b506100cf600160a060020a03600435166101a4565b604080519115158252519081900360200190f35b3480156100ef57600080fd5b506100cf600160a060020a036004351661024b565b34801561011057600080fd5b5061011c600435610269565b60408051600160a060020a039092168252519081900360200190f35b34801561014457600080fd5b5061014d6102b8565b005b34801561015b57600080fd5b5061011c610324565b34801561017057600080fd5b5061014d600160a060020a0360043516610333565b60008054600160a060020a0316331461019d57600080fd5b5060025490565b60008054600160a060020a031633146101bc57600080fd5b6101c58261024b565b156101d257506000610246565b50600160a060020a03811660008181526001602081905260408220805460ff19168217905560028054808301825592527f405787fa12a823e0f2b7631cc41b3ba8828b3321ca811111fa75cd3aa3bb5ace909101805473ffffffffffffffffffffffffffffffffffffffff19169092179091555b919050565b600160a060020a031660009081526001602052604090205460ff1690565b60008054600160a060020a0316331461028157600080fd5b600254821061028f57600080fd5b600280548390811061029d57fe5b600091825260209091200154600160a060020a031692915050565b600054600160a060020a031633146102cf57600080fd5b60008054604051600160a060020a03909116917ff8df31144d9c2f0f6b59d69b8b98abd5459d07f2742c4df920b25aae33c6482091a26000805473ffffffffffffffffffffffffffffffffffffffff19169055565b600054600160a060020a031681565b600054600160a060020a0316331461034a57600080fd5b61035381610356565b50565b600160a060020a038116151561036b57600080fd5b60008054604051600160a060020a03808516939216917f8be0079c531659141344cd1fd0a4f28419497f9722a3daafe3b4186f6b6457e091a36000805473ffffffffffffffffffffffffffffffffffffffff1916600160a060020a03929092169190911790555600a165627a7a723058206c1788a50fdd549257423488f39e4d4680d1683d01e915a35e3a878ad806871f0029",
  "source": "pragma solidity ^0.4.24;\n\nimport \"../zeppelin/contracts/ownership/Ownable.sol\";\n\n\n/**\n * @title Address Set.\n * @dev This contract allows to store addresses in a set and\n * owner can run a loop through all elements.\n **/\ncontract AddressSet is Ownable {\n  mapping(address => bool) exist;\n  address[] elements;\n\n  /**\n   * @dev Adds a new address to the set.\n   * @param _addr Address to add.\n   * @return True if succeed, otherwise false.\n   */\n  function add(address _addr) onlyOwner public returns (bool) {\n    if (contains(_addr)) {\n      return false;\n    }\n\n    exist[_addr] = true;\n    elements.push(_addr);\n    return true;\n  }\n\n  /**\n   * @dev Checks whether the set contains a specified address or not.\n   * @param _addr Address to check.\n   * @return True if the address exists in the set, otherwise false.\n   */\n  function contains(address _addr) public view returns (bool) {\n    return exist[_addr];\n  }\n\n  /**\n   * @dev Gets an element at a specified index in the set.\n   * @param _index Index.\n   * @return A relevant address.\n   */\n  function elementAt(uint256 _index) onlyOwner public view returns (address) {\n    require(_index < elements.length);\n\n    return elements[_index];\n  }\n\n  /**\n   * @dev Gets the number of elements in the set.\n   * @return The number of elements.\n   */\n  function getTheNumberOfElements() onlyOwner public view returns (uint256) {\n    return elements.length;\n  }\n}\n",
  "sourcePath": "/home/namtq/MyWorkSpace/SamIO/contracts/utils/AddressSet.sol",
  "compiler": {
    "name": "solc",
    "version": "0.4.24+commit.e67f0147.Emscripten.clang"
  },
  "schemaVersion": "2.0.1",
  "updatedAt": "2018-10-12T01:39:19.112Z"
}