{
  "contractName": "AssetInfo",
  "abi": [
    {
      "constant": true,
      "inputs": [],
      "name": "varDocsLink",
      "outputs": [
        {
          "name": "",
          "type": "string"
        }
      ],
      "payable": false,
      "stateMutability": "view",
      "type": "function"
    },
    {
      "constant": false,
      "inputs": [],
      "name": "renounceOwnership",
      "outputs": [],
      "payable": false,
      "stateMutability": "nonpayable",
      "type": "function"
    },
    {
      "constant": true,
      "inputs": [],
      "name": "registry",
      "outputs": [
        {
          "name": "",
          "type": "address"
        }
      ],
      "payable": false,
      "stateMutability": "view",
      "type": "function"
    },
    {
      "constant": true,
      "inputs": [],
      "name": "owner",
      "outputs": [
        {
          "name": "",
          "type": "address"
        }
      ],
      "payable": false,
      "stateMutability": "view",
      "type": "function"
    },
    {
      "constant": true,
      "inputs": [],
      "name": "fixedDocsLink",
      "outputs": [
        {
          "name": "",
          "type": "string"
        }
      ],
      "payable": false,
      "stateMutability": "view",
      "type": "function"
    },
    {
      "constant": false,
      "inputs": [
        {
          "name": "_registry",
          "type": "address"
        }
      ],
      "name": "setRegistry",
      "outputs": [],
      "payable": false,
      "stateMutability": "nonpayable",
      "type": "function"
    },
    {
      "constant": false,
      "inputs": [
        {
          "name": "_newOwner",
          "type": "address"
        }
      ],
      "name": "transferOwnership",
      "outputs": [],
      "payable": false,
      "stateMutability": "nonpayable",
      "type": "function"
    },
    {
      "constant": true,
      "inputs": [
        {
          "name": "_operator",
          "type": "address"
        }
      ],
      "name": "isManager",
      "outputs": [
        {
          "name": "",
          "type": "bool"
        }
      ],
      "payable": false,
      "stateMutability": "view",
      "type": "function"
    },
    {
      "inputs": [
        {
          "name": "_fixedDocsLink",
          "type": "string"
        },
        {
          "name": "_varDocsLink",
          "type": "string"
        }
      ],
      "payable": false,
      "stateMutability": "nonpayable",
      "type": "constructor"
    },
    {
      "anonymous": false,
      "inputs": [
        {
          "indexed": false,
          "name": "token",
          "type": "address"
        },
        {
          "indexed": false,
          "name": "oldLink",
          "type": "string"
        },
        {
          "indexed": false,
          "name": "newLink",
          "type": "string"
        }
      ],
      "name": "UpdateRunningDocuments",
      "type": "event"
    },
    {
      "anonymous": false,
      "inputs": [
        {
          "indexed": true,
          "name": "registry",
          "type": "address"
        }
      ],
      "name": "SetRegistry",
      "type": "event"
    },
    {
      "anonymous": false,
      "inputs": [
        {
          "indexed": true,
          "name": "previousOwner",
          "type": "address"
        }
      ],
      "name": "OwnershipRenounced",
      "type": "event"
    },
    {
      "anonymous": false,
      "inputs": [
        {
          "indexed": true,
          "name": "previousOwner",
          "type": "address"
        },
        {
          "indexed": true,
          "name": "newOwner",
          "type": "address"
        }
      ],
      "name": "OwnershipTransferred",
      "type": "event"
    },
    {
      "constant": false,
      "inputs": [
        {
          "name": "_link",
          "type": "string"
        }
      ],
      "name": "changeRunningDocuments",
      "outputs": [],
      "payable": false,
      "stateMutability": "nonpayable",
      "type": "function"
    }
  ],
  "bytecode": "0x608060405234801561001057600080fd5b506040516109f53803806109f583398101604052805160208083015160008054600160a060020a0319163317905591830180519093929092019161005a9160029190850190610076565b50805161006e906003906020840190610076565b505050610111565b828054600181600116156101000203166002900490600052602060002090601f016020900481019282601f106100b757805160ff19168380011785556100e4565b828001600101855582156100e4579182015b828111156100e45782518255916020019190600101906100c9565b506100f09291506100f4565b5090565b61010e91905b808211156100f057600081556001016100fa565b90565b6108d5806101206000396000f3006080604052600436106100985763ffffffff7c01000000000000000000000000000000000000000000000000000000006000350416634b7ebc59811461009d578063533bde8314610127578063715018a6146101825780637b103999146101975780638da5cb5b146101c85780639650b1e5146101dd578063a91ee0dc146101f2578063f2fde38b14610213578063f3ae241514610234575b600080fd5b3480156100a957600080fd5b506100b2610269565b6040805160208082528351818301528351919283929083019185019080838360005b838110156100ec5781810151838201526020016100d4565b50505050905090810190601f1680156101195780820380516001836020036101000a031916815260200191505b509250505060405180910390f35b34801561013357600080fd5b506040805160206004803580820135601f81018490048402850184019095528484526101809436949293602493928401919081908401838280828437509497506102f79650505050505050565b005b34801561018e57600080fd5b50610180610576565b3480156101a357600080fd5b506101ac6105e2565b60408051600160a060020a039092168252519081900360200190f35b3480156101d457600080fd5b506101ac6105f1565b3480156101e957600080fd5b506100b2610600565b3480156101fe57600080fd5b50610180600160a060020a0360043516610658565b34801561021f57600080fd5b50610180600160a060020a03600435166106cc565b34801561024057600080fd5b50610255600160a060020a03600435166106ef565b604080519115158252519081900360200190f35b6003805460408051602060026001851615610100026000190190941693909304601f810184900484028201840190925281815292918301828280156102ef5780601f106102c4576101008083540402835291602001916102ef565b820191906000526020600020905b8154815290600101906020018083116102d257829003601f168201915b505050505081565b6001546040517f1ca451a30000000000000000000000000000000000000000000000000000000081523360048201818152606093600160a060020a031692631ca451a392916000916024018260ff16815260200192505050602060405180830381600087803b15801561036957600080fd5b505af115801561037d573d6000803e3d6000fd5b505050506040513d602081101561039357600080fd5b505115156103a057600080fd5b6003805460408051602060026001851615610100026000190190941693909304601f810184900484028201840190925281815292918301828280156104265780601f106103fb57610100808354040283529160200191610426565b820191906000526020600020905b81548152906001019060200180831161040957829003601f168201915b505085519394506104429360039350602087019250905061080e565b507fa3def007e27da3e14a191178bb44f77d314ebee191a34694c9d289a713e29369308260036040518084600160a060020a0316600160a060020a031681526020018060200180602001838103835285818151815260200191508051906020019080838360005b838110156104c15781810151838201526020016104a9565b50505050905090810190601f1680156104ee5780820380516001836020036101000a031916815260200191505b508381038252845460026000196101006001841615020190911604808252602090910190859080156105615780601f1061053657610100808354040283529160200191610561565b820191906000526020600020905b81548152906001019060200180831161054457829003601f168201915b50509550505050505060405180910390a15050565b600054600160a060020a0316331461058d57600080fd5b60008054604051600160a060020a03909116917ff8df31144d9c2f0f6b59d69b8b98abd5459d07f2742c4df920b25aae33c6482091a26000805473ffffffffffffffffffffffffffffffffffffffff19169055565b600154600160a060020a031681565b600054600160a060020a031681565b6002805460408051602060018416156101000260001901909316849004601f810184900484028201840190925281815292918301828280156102ef5780601f106102c4576101008083540402835291602001916102ef565b600054600160a060020a0316331461066f57600080fd5b6001805473ffffffffffffffffffffffffffffffffffffffff1916600160a060020a0383811691909117918290556040519116907f278c70ced5f3e0e5eeb385b5ff9cb735748ba00a625147e66065ed48fc1562cd90600090a250565b600054600160a060020a031633146106e357600080fd5b6106ec81610791565b50565b600154604080517f1ca451a3000000000000000000000000000000000000000000000000000000008152600160a060020a038481166004830152600060248301819052925192931691631ca451a39160448082019260209290919082900301818787803b15801561075f57600080fd5b505af1158015610773573d6000803e3d6000fd5b505050506040513d602081101561078957600080fd5b505192915050565b600160a060020a03811615156107a657600080fd5b60008054604051600160a060020a03808516939216917f8be0079c531659141344cd1fd0a4f28419497f9722a3daafe3b4186f6b6457e091a36000805473ffffffffffffffffffffffffffffffffffffffff1916600160a060020a0392909216919091179055565b828054600181600116156101000203166002900490600052602060002090601f016020900481019282601f1061084f57805160ff191683800117855561087c565b8280016001018555821561087c579182015b8281111561087c578251825591602001919060010190610861565b5061088892915061088c565b5090565b6108a691905b808211156108885760008155600101610892565b905600a165627a7a72305820b1decf11c6f683f0cf1c6903261e652a06f0bef6c5444cb2565f4a5a6bccf8520029",
  "source": "pragma solidity ^0.4.24;\n\nimport \"./access/Manageable.sol\";\n\n\n/**\n * @title Asset information.\n * @dev Stores information about a specified real asset.\n */\ncontract AssetInfo is Manageable {\n  string public fixedDocsLink;\n  string public varDocsLink;\n\n  /**\n   * Event for updated running documents logging.\n   * @param token Token associated with this asset.\n   * @param oldLink Old link.\n   * @param newLink New link.\n   */\n  event UpdateRunningDocuments(\n    address token,\n    string oldLink,\n    string newLink\n  );\n\n  /**\n   * @param _fixedDocsLink A link to a zip file containing fixed legal documents of the asset.\n   * @param _varDocsLink A link to a zip file containing running documents of the asset.\n   */\n  constructor(string _fixedDocsLink, string _varDocsLink) public {\n    fixedDocsLink = _fixedDocsLink;\n    varDocsLink = _varDocsLink;\n  }\n\n  /**\n   * @dev Updates information about where to find new running documents of this asset.\n   * @param _link A link to a zip file containing running documents of the asset.\n   */\n  function changeRunningDocuments(string _link) public onlyManager {\n    string memory _old = varDocsLink;\n    varDocsLink = _link;\n\n    emit UpdateRunningDocuments(this, _old, varDocsLink);\n  }\n}\n",
  "sourcePath": "/home/namtq/Trainning/git/SamIO/contracts/AssetInfo.sol",
  "compiler": {
    "name": "solc",
    "version": "0.4.24+commit.e67f0147.Emscripten.clang"
  },
  "schemaVersion": "2.0.1",
  "updatedAt": "2018-10-08T06:54:58.828Z"
}