{
  "contractName": "BalanceSheet",
  "abi": [
    {
      "constant": false,
      "inputs": [],
      "name": "cancelOwnershipTransfer",
      "outputs": [],
      "payable": false,
      "stateMutability": "nonpayable",
      "type": "function"
    },
    {
      "constant": false,
      "inputs": [],
      "name": "claimOwnership",
      "outputs": [],
      "payable": false,
      "stateMutability": "nonpayable",
      "type": "function"
    },
    {
      "constant": false,
      "inputs": [],
      "name": "renounceOwnership",
      "outputs": [],
      "payable": false,
      "stateMutability": "nonpayable",
      "type": "function"
    },
    {
      "constant": true,
      "inputs": [],
      "name": "owner",
      "outputs": [
        {
          "name": "",
          "type": "address"
        }
      ],
      "payable": false,
      "stateMutability": "view",
      "type": "function"
    },
    {
      "constant": true,
      "inputs": [],
      "name": "pendingOwner",
      "outputs": [
        {
          "name": "",
          "type": "address"
        }
      ],
      "payable": false,
      "stateMutability": "view",
      "type": "function"
    },
    {
      "constant": false,
      "inputs": [
        {
          "name": "newOwner",
          "type": "address"
        }
      ],
      "name": "transferOwnership",
      "outputs": [],
      "payable": false,
      "stateMutability": "nonpayable",
      "type": "function"
    },
    {
      "anonymous": false,
      "inputs": [
        {
          "indexed": true,
          "name": "previousOwner",
          "type": "address"
        }
      ],
      "name": "OwnershipRenounced",
      "type": "event"
    },
    {
      "anonymous": false,
      "inputs": [
        {
          "indexed": true,
          "name": "previousOwner",
          "type": "address"
        },
        {
          "indexed": true,
          "name": "newOwner",
          "type": "address"
        }
      ],
      "name": "OwnershipTransferred",
      "type": "event"
    },
    {
      "constant": true,
      "inputs": [
        {
          "name": "_owner",
          "type": "address"
        }
      ],
      "name": "balanceOf",
      "outputs": [
        {
          "name": "",
          "type": "uint256"
        }
      ],
      "payable": false,
      "stateMutability": "view",
      "type": "function"
    },
    {
      "constant": false,
      "inputs": [
        {
          "name": "_addr",
          "type": "address"
        },
        {
          "name": "_value",
          "type": "uint256"
        }
      ],
      "name": "addBalance",
      "outputs": [],
      "payable": false,
      "stateMutability": "nonpayable",
      "type": "function"
    },
    {
      "constant": false,
      "inputs": [
        {
          "name": "_addr",
          "type": "address"
        },
        {
          "name": "_value",
          "type": "uint256"
        }
      ],
      "name": "subBalance",
      "outputs": [],
      "payable": false,
      "stateMutability": "nonpayable",
      "type": "function"
    },
    {
      "constant": false,
      "inputs": [
        {
          "name": "_addr",
          "type": "address"
        },
        {
          "name": "_value",
          "type": "uint256"
        }
      ],
      "name": "setBalance",
      "outputs": [],
      "payable": false,
      "stateMutability": "nonpayable",
      "type": "function"
    }
  ],
  "bytecode": "0x608060405260008054600160a060020a031916331790556104ce806100256000396000f3006080604052600436106100a35763ffffffff7c010000000000000000000000000000000000000000000000000000000060003504166321e5383a81146100a857806323452b9c146100ce5780634e71e0c8146100e357806370a08231146100f8578063715018a61461012b5780638da5cb5b14610140578063cf8eeb7e14610171578063e30443bc14610195578063e30c3978146101b9578063f2fde38b146101ce575b600080fd5b3480156100b457600080fd5b506100cc600160a060020a03600435166024356101ef565b005b3480156100da57600080fd5b506100cc61024f565b3480156100ef57600080fd5b506100cc610297565b34801561010457600080fd5b50610119600160a060020a036004351661031f565b60408051918252519081900360200190f35b34801561013757600080fd5b506100cc61033a565b34801561014c57600080fd5b506101556103a6565b60408051600160a060020a039092168252519081900360200190f35b34801561017d57600080fd5b506100cc600160a060020a03600435166024356103b5565b3480156101a157600080fd5b506100cc600160a060020a03600435166024356103f5565b3480156101c557600080fd5b50610155610428565b3480156101da57600080fd5b506100cc600160a060020a0360043516610437565b600054600160a060020a0316331461020657600080fd5b600160a060020a03821660009081526002602052604090205461022f908263ffffffff61047d16565b600160a060020a0390921660009081526002602052604090209190915550565b600054600160a060020a0316331461026657600080fd5b6000546001805473ffffffffffffffffffffffffffffffffffffffff1916600160a060020a03909216919091179055565b600154600160a060020a031633146102ae57600080fd5b60015460008054604051600160a060020a0393841693909116917f8be0079c531659141344cd1fd0a4f28419497f9722a3daafe3b4186f6b6457e091a3600180546000805473ffffffffffffffffffffffffffffffffffffffff19908116600160a060020a03841617909155169055565b600160a060020a031660009081526002602052604090205490565b600054600160a060020a0316331461035157600080fd5b60008054604051600160a060020a03909116917ff8df31144d9c2f0f6b59d69b8b98abd5459d07f2742c4df920b25aae33c6482091a26000805473ffffffffffffffffffffffffffffffffffffffff19169055565b600054600160a060020a031681565b600054600160a060020a031633146103cc57600080fd5b600160a060020a03821660009081526002602052604090205461022f908263ffffffff61049016565b600054600160a060020a0316331461040c57600080fd5b600160a060020a03909116600090815260026020526040902055565b600154600160a060020a031681565b600054600160a060020a0316331461044e57600080fd5b6001805473ffffffffffffffffffffffffffffffffffffffff1916600160a060020a0392909216919091179055565b8181018281101561048a57fe5b92915050565b60008282111561049c57fe5b509003905600a165627a7a723058204394ef6e6fc91909d27f374f996f6261fa5db671fc6024206c5e83e20aea1ee40029",
  "source": "pragma solidity ^0.4.24;\n\nimport \"../zeppelin/contracts/math/SafeMath.sol\";\n\nimport \"../ownership/ClaimableEx.sol\";\n\n\n// A wrapper around the balances mapping.\ncontract BalanceSheet is ClaimableEx {\n  using SafeMath for uint256;\n\n  mapping (address => uint256) private balances;\n\n  /**\n  * @dev Gets the balance of the specified address.\n  * @param _owner The address to query the the balance of.\n  * @return An uint256 representing the amount owned by the passed address.\n  */\n  function balanceOf(address _owner) public view returns (uint256) {\n    return balances[_owner];\n  }\n\n  function addBalance(address _addr, uint256 _value) public onlyOwner {\n    balances[_addr] = balances[_addr].add(_value);\n  }\n\n  function subBalance(address _addr, uint256 _value) public onlyOwner {\n    balances[_addr] = balances[_addr].sub(_value);\n  }\n\n  function setBalance(address _addr, uint256 _value) public onlyOwner {\n    balances[_addr] = _value;\n  }\n}\n",
  "sourcePath": "/home/namtq/Anlab/SamuraiX/contracts/base-token/BalanceSheet.sol",
  "compiler": {
    "name": "solc",
    "version": "0.4.24+commit.e67f0147.Emscripten.clang"
  },
  "schemaVersion": "2.0.1",
  "updatedAt": "2018-10-03T01:42:25.402Z"
}