{
  "contractName": "BurnableExToken",
  "abi": [
    {
      "constant": true,
      "inputs": [],
      "name": "mintingFinished",
      "outputs": [
        {
          "name": "",
          "type": "bool"
        }
      ],
      "payable": false,
      "stateMutability": "view",
      "type": "function"
    },
    {
      "constant": false,
      "inputs": [
        {
          "name": "_spender",
          "type": "address"
        },
        {
          "name": "_value",
          "type": "uint256"
        }
      ],
      "name": "approve",
      "outputs": [
        {
          "name": "",
          "type": "bool"
        }
      ],
      "payable": false,
      "stateMutability": "nonpayable",
      "type": "function"
    },
    {
      "constant": false,
      "inputs": [
        {
          "name": "_token",
          "type": "address"
        }
      ],
      "name": "reclaimToken",
      "outputs": [],
      "payable": false,
      "stateMutability": "nonpayable",
      "type": "function"
    },
    {
      "constant": true,
      "inputs": [],
      "name": "totalSupply",
      "outputs": [
        {
          "name": "",
          "type": "uint256"
        }
      ],
      "payable": false,
      "stateMutability": "view",
      "type": "function"
    },
    {
      "constant": false,
      "inputs": [],
      "name": "cancelOwnershipTransfer",
      "outputs": [],
      "payable": false,
      "stateMutability": "nonpayable",
      "type": "function"
    },
    {
      "constant": false,
      "inputs": [
        {
          "name": "_from",
          "type": "address"
        },
        {
          "name": "_to",
          "type": "address"
        },
        {
          "name": "_value",
          "type": "uint256"
        }
      ],
      "name": "transferFrom",
      "outputs": [
        {
          "name": "",
          "type": "bool"
        }
      ],
      "payable": false,
      "stateMutability": "nonpayable",
      "type": "function"
    },
    {
      "constant": false,
      "inputs": [
        {
          "name": "_contractAddr",
          "type": "address"
        }
      ],
      "name": "reclaimContract",
      "outputs": [],
      "payable": false,
      "stateMutability": "nonpayable",
      "type": "function"
    },
    {
      "constant": false,
      "inputs": [
        {
          "name": "_to",
          "type": "address"
        },
        {
          "name": "_amount",
          "type": "uint256"
        }
      ],
      "name": "mint",
      "outputs": [
        {
          "name": "",
          "type": "bool"
        }
      ],
      "payable": false,
      "stateMutability": "nonpayable",
      "type": "function"
    },
    {
      "constant": false,
      "inputs": [],
      "name": "claimOwnership",
      "outputs": [],
      "payable": false,
      "stateMutability": "nonpayable",
      "type": "function"
    },
    {
      "constant": false,
      "inputs": [
        {
          "name": "_sheet",
          "type": "address"
        }
      ],
      "name": "setBalanceSheet",
      "outputs": [
        {
          "name": "",
          "type": "bool"
        }
      ],
      "payable": false,
      "stateMutability": "nonpayable",
      "type": "function"
    },
    {
      "constant": false,
      "inputs": [
        {
          "name": "_spender",
          "type": "address"
        },
        {
          "name": "_subtractedValue",
          "type": "uint256"
        }
      ],
      "name": "decreaseApproval",
      "outputs": [
        {
          "name": "",
          "type": "bool"
        }
      ],
      "payable": false,
      "stateMutability": "nonpayable",
      "type": "function"
    },
    {
      "constant": true,
      "inputs": [],
      "name": "getTheNumberOfHolders",
      "outputs": [
        {
          "name": "",
          "type": "uint256"
        }
      ],
      "payable": false,
      "stateMutability": "view",
      "type": "function"
    },
    {
      "constant": true,
      "inputs": [
        {
          "name": "_owner",
          "type": "address"
        }
      ],
      "name": "balanceOf",
      "outputs": [
        {
          "name": "balance",
          "type": "uint256"
        }
      ],
      "payable": false,
      "stateMutability": "view",
      "type": "function"
    },
    {
      "constant": false,
      "inputs": [],
      "name": "renounceOwnership",
      "outputs": [],
      "payable": false,
      "stateMutability": "nonpayable",
      "type": "function"
    },
    {
      "constant": false,
      "inputs": [
        {
          "name": "_value",
          "type": "uint256"
        },
        {
          "name": "_note",
          "type": "string"
        }
      ],
      "name": "burn",
      "outputs": [
        {
          "name": "",
          "type": "bool"
        }
      ],
      "payable": false,
      "stateMutability": "nonpayable",
      "type": "function"
    },
    {
      "constant": true,
      "inputs": [],
      "name": "registry",
      "outputs": [
        {
          "name": "",
          "type": "address"
        }
      ],
      "payable": false,
      "stateMutability": "view",
      "type": "function"
    },
    {
      "constant": false,
      "inputs": [],
      "name": "finishMinting",
      "outputs": [
        {
          "name": "",
          "type": "bool"
        }
      ],
      "payable": false,
      "stateMutability": "nonpayable",
      "type": "function"
    },
    {
      "constant": false,
      "inputs": [
        {
          "name": "token",
          "type": "address"
        },
        {
          "name": "_to",
          "type": "address"
        }
      ],
      "name": "reclaimToken",
      "outputs": [],
      "payable": false,
      "stateMutability": "nonpayable",
      "type": "function"
    },
    {
      "constant": true,
      "inputs": [],
      "name": "owner",
      "outputs": [
        {
          "name": "",
          "type": "address"
        }
      ],
      "payable": false,
      "stateMutability": "view",
      "type": "function"
    },
    {
      "constant": false,
      "inputs": [
        {
          "name": "_to",
          "type": "address"
        }
      ],
      "name": "reclaimEther",
      "outputs": [],
      "payable": false,
      "stateMutability": "nonpayable",
      "type": "function"
    },
    {
      "constant": false,
      "inputs": [],
      "name": "reclaimEther",
      "outputs": [],
      "payable": false,
      "stateMutability": "nonpayable",
      "type": "function"
    },
    {
      "constant": false,
      "inputs": [
        {
          "name": "_to",
          "type": "address"
        },
        {
          "name": "_value",
          "type": "uint256"
        }
      ],
      "name": "transfer",
      "outputs": [
        {
          "name": "",
          "type": "bool"
        }
      ],
      "payable": false,
      "stateMutability": "nonpayable",
      "type": "function"
    },
    {
      "constant": false,
      "inputs": [
        {
          "name": "_registry",
          "type": "address"
        }
      ],
      "name": "setRegistry",
      "outputs": [],
      "payable": false,
      "stateMutability": "nonpayable",
      "type": "function"
    },
    {
      "constant": true,
      "inputs": [
        {
          "name": "_from",
          "type": "address"
        },
        {
          "name": "_value",
          "type": "uint256"
        },
        {
          "name": "_data",
          "type": "bytes"
        }
      ],
      "name": "tokenFallback",
      "outputs": [],
      "payable": false,
      "stateMutability": "pure",
      "type": "function"
    },
    {
      "constant": false,
      "inputs": [
        {
          "name": "_spender",
          "type": "address"
        },
        {
          "name": "_addedValue",
          "type": "uint256"
        }
      ],
      "name": "increaseApproval",
      "outputs": [
        {
          "name": "",
          "type": "bool"
        }
      ],
      "payable": false,
      "stateMutability": "nonpayable",
      "type": "function"
    },
    {
      "constant": true,
      "inputs": [
        {
          "name": "_owner",
          "type": "address"
        },
        {
          "name": "_spender",
          "type": "address"
        }
      ],
      "name": "allowance",
      "outputs": [
        {
          "name": "",
          "type": "uint256"
        }
      ],
      "payable": false,
      "stateMutability": "view",
      "type": "function"
    },
    {
      "constant": true,
      "inputs": [],
      "name": "pendingOwner",
      "outputs": [
        {
          "name": "",
          "type": "address"
        }
      ],
      "payable": false,
      "stateMutability": "view",
      "type": "function"
    },
    {
      "constant": true,
      "inputs": [
        {
          "name": "_index",
          "type": "uint256"
        }
      ],
      "name": "getHolder",
      "outputs": [
        {
          "name": "",
          "type": "address"
        }
      ],
      "payable": false,
      "stateMutability": "view",
      "type": "function"
    },
    {
      "constant": false,
      "inputs": [
        {
          "name": "newOwner",
          "type": "address"
        }
      ],
      "name": "transferOwnership",
      "outputs": [],
      "payable": false,
      "stateMutability": "nonpayable",
      "type": "function"
    },
    {
      "constant": true,
      "inputs": [
        {
          "name": "_operator",
          "type": "address"
        }
      ],
      "name": "isManager",
      "outputs": [
        {
          "name": "",
          "type": "bool"
        }
      ],
      "payable": false,
      "stateMutability": "view",
      "type": "function"
    },
    {
      "payable": false,
      "stateMutability": "nonpayable",
      "type": "fallback"
    },
    {
      "anonymous": false,
      "inputs": [
        {
          "indexed": true,
          "name": "to",
          "type": "address"
        },
        {
          "indexed": false,
          "name": "value",
          "type": "uint256"
        }
      ],
      "name": "Mint",
      "type": "event"
    },
    {
      "anonymous": false,
      "inputs": [],
      "name": "MintFinished",
      "type": "event"
    },
    {
      "anonymous": false,
      "inputs": [
        {
          "indexed": true,
          "name": "burner",
          "type": "address"
        },
        {
          "indexed": false,
          "name": "value",
          "type": "uint256"
        },
        {
          "indexed": false,
          "name": "note",
          "type": "string"
        }
      ],
      "name": "Burn",
      "type": "event"
    },
    {
      "anonymous": false,
      "inputs": [
        {
          "indexed": true,
          "name": "sheet",
          "type": "address"
        }
      ],
      "name": "BalanceSheetSet",
      "type": "event"
    },
    {
      "anonymous": false,
      "inputs": [
        {
          "indexed": true,
          "name": "owner",
          "type": "address"
        },
        {
          "indexed": true,
          "name": "spender",
          "type": "address"
        },
        {
          "indexed": false,
          "name": "value",
          "type": "uint256"
        }
      ],
      "name": "Approval",
      "type": "event"
    },
    {
      "anonymous": false,
      "inputs": [
        {
          "indexed": true,
          "name": "from",
          "type": "address"
        },
        {
          "indexed": true,
          "name": "to",
          "type": "address"
        },
        {
          "indexed": false,
          "name": "value",
          "type": "uint256"
        }
      ],
      "name": "Transfer",
      "type": "event"
    },
    {
      "anonymous": false,
      "inputs": [
        {
          "indexed": true,
          "name": "registry",
          "type": "address"
        }
      ],
      "name": "SetRegistry",
      "type": "event"
    },
    {
      "anonymous": false,
      "inputs": [
        {
          "indexed": true,
          "name": "previousOwner",
          "type": "address"
        }
      ],
      "name": "OwnershipRenounced",
      "type": "event"
    },
    {
      "anonymous": false,
      "inputs": [
        {
          "indexed": true,
          "name": "previousOwner",
          "type": "address"
        },
        {
          "indexed": true,
          "name": "newOwner",
          "type": "address"
        }
      ],
      "name": "OwnershipTransferred",
      "type": "event"
    },
    {
      "constant": false,
      "inputs": [
        {
          "name": "_note",
          "type": "string"
        }
      ],
      "name": "burnAll",
      "outputs": [],
      "payable": false,
      "stateMutability": "nonpayable",
      "type": "function"
    }
  ],
  "bytecode": "0x60806040526006805460ff1916905560008054600160a060020a03191633179055341561002b57600080fd5b6000600355610038610080565b604051809103906000f080158015610054573d6000803e3d6000fd5b50600660016101000a815481600160a060020a030219169083600160a060020a03160217905550610090565b60405161042480611cae83390190565b611c0f8061009f6000396000f3006080604052600436106101715763ffffffff60e060020a60003504166305d2035b8114610180578063095ea7b3146101a957806317ffc320146101cd57806318160ddd146101f057806323452b9c1461021757806323b872dd1461022c5780632aed7f3f1461025657806340c10f19146102775780634e71e0c81461029b57806354f78dad146102b057806366188463146102d157806366ab910a146102f557806370a082311461030a578063715018a61461032b5780637641e6f3146103405780637945b1291461039e5780637b103999146103be5780637d64bcb4146103ef57806388ee39cc146104045780638da5cb5b1461042b5780639a6a30a4146104405780639f727c2714610461578063a9059cbb14610476578063a91ee0dc1461049a578063c0ee0b8a146104bb578063d73dd623146104ec578063dd62ed3e14610510578063e30c397814610537578063e8a96b461461054c578063f2fde38b14610564578063f3ae241514610585575b34801561017d57600080fd5b50005b34801561018c57600080fd5b506101956105a6565b604080519115158252519081900360200190f35b3480156101b557600080fd5b50610195600160a060020a03600435166024356105af565b3480156101d957600080fd5b506101ee600160a060020a03600435166105c5565b005b3480156101fc57600080fd5b50610205610691565b60408051918252519081900360200190f35b34801561022357600080fd5b506101ee610697565b34801561023857600080fd5b50610195600160a060020a03600435811690602435166044356106df565b34801561026257600080fd5b506101ee600160a060020a0360043516610700565b34801561028357600080fd5b50610195600160a060020a036004351660243561079a565b3480156102a757600080fd5b506101ee610878565b3480156102bc57600080fd5b50610195600160a060020a0360043516610900565b3480156102dd57600080fd5b50610195600160a060020a03600435166024356109eb565b34801561030157600080fd5b506102056109f8565b34801561031657600080fd5b50610205600160a060020a0360043516610aa7565b34801561033757600080fd5b506101ee610b46565b34801561034c57600080fd5b5060408051602060046024803582810135601f8101859004850286018501909652858552610195958335953695604494919390910191908190840183828082843750949750610bb29650505050505050565b3480156103aa57600080fd5b506101ee6004803560248101910135610bbf565b3480156103ca57600080fd5b506103d3610ce9565b60408051600160a060020a039092168252519081900360200190f35b3480156103fb57600080fd5b50610195610cf8565b34801561041057600080fd5b506101ee600160a060020a0360043581169060243516610d5c565b34801561043757600080fd5b506103d3610e22565b34801561044c57600080fd5b506101ee600160a060020a0360043516610e31565b34801561046d57600080fd5b506101ee610e7e565b34801561048257600080fd5b50610195600160a060020a0360043516602435610ed3565b3480156104a657600080fd5b506101ee600160a060020a0360043516610ef2565b3480156104c757600080fd5b506101ee60048035600160a060020a0316906024803591604435918201910135610f66565b3480156104f857600080fd5b50610195600160a060020a0360043516602435610f6b565b34801561051c57600080fd5b50610205600160a060020a0360043581169060243516610f78565b34801561054357600080fd5b506103d3610fa3565b34801561055857600080fd5b506103d3600435610fb2565b34801561057057600080fd5b506101ee600160a060020a036004351661103b565b34801561059157600080fd5b50610195600160a060020a0360043516611081565b60065460ff1681565b60006105bc8383336110f1565b50600192915050565b60008054600160a060020a031633146105dd57600080fd5b604080517f70a082310000000000000000000000000000000000000000000000000000000081523060048201529051600160a060020a038416916370a082319160248083019260209291908290030181600087803b15801561063e57600080fd5b505af1158015610652573d6000803e3d6000fd5b505050506040513d602081101561066857600080fd5b505160005490915061068d90600160a060020a0384811691168363ffffffff61115316565b5050565b60035490565b600054600160a060020a031633146106ae57600080fd5b6000546002805473ffffffffffffffffffffffffffffffffffffffff1916600160a060020a03909216919091179055565b60006106ea836111ed565b6106f5848484611325565b506001949350505050565b60008054600160a060020a0316331461071857600080fd5b5060008054604080517ff2fde38b000000000000000000000000000000000000000000000000000000008152600160a060020a039283166004820152905184939284169263f2fde38b926024808201939182900301818387803b15801561077e57600080fd5b505af1158015610792573d6000803e3d6000fd5b505050505050565b600080548190600160a060020a031633146107b457600080fd5b60065460ff16156107c457600080fd5b6107ce8484611333565b9050801561087157600654604080517f0a3b0a4f000000000000000000000000000000000000000000000000000000008152600160a060020a038781166004830152915161010090930490911691630a3b0a4f916024808201926020929091908290030181600087803b15801561084457600080fd5b505af1158015610858573d6000803e3d6000fd5b505050506040513d602081101561086e57600080fd5b50505b9392505050565b600254600160a060020a0316331461088f57600080fd5b60025460008054604051600160a060020a0393841693909116917f8be0079c531659141344cd1fd0a4f28419497f9722a3daafe3b4186f6b6457e091a3600280546000805473ffffffffffffffffffffffffffffffffffffffff19908116600160a060020a03841617909155169055565b60008054600160a060020a0316331461091857600080fd5b6004805473ffffffffffffffffffffffffffffffffffffffff1916600160a060020a0384811691909117808355604080517f4e71e0c800000000000000000000000000000000000000000000000000000000815290519190921692634e71e0c89280820192600092909182900301818387803b15801561099757600080fd5b505af11580156109ab573d6000803e3d6000fd5b5050604051600160a060020a03851692507fa89fb8ab3845cb6919c98b54ca0d8f398df48c64ae04ed309cd7b130539badd49150600090a2506001919050565b60006105bc8383336113ad565b6000610a0333611081565b80610a185750600054600160a060020a031633145b1515610a2357600080fd5b600660019054906101000a9004600160a060020a0316600160a060020a0316630870188e6040518163ffffffff1660e060020a028152600401602060405180830381600087803b158015610a7657600080fd5b505af1158015610a8a573d6000803e3d6000fd5b505050506040513d6020811015610aa057600080fd5b5051905090565b60048054604080517f70a08231000000000000000000000000000000000000000000000000000000008152600160a060020a03858116948201949094529051600093909216916370a082319160248082019260209290919082900301818787803b158015610b1457600080fd5b505af1158015610b28573d6000803e3d6000fd5b505050506040513d6020811015610b3e57600080fd5b505192915050565b600054600160a060020a03163314610b5d57600080fd5b60008054604051600160a060020a03909116917ff8df31144d9c2f0f6b59d69b8b98abd5459d07f2742c4df920b25aae33c6482091a26000805473ffffffffffffffffffffffffffffffffffffffff19169055565b60006105bc33848461149f565b600154604080517f1ca451a300000000000000000000000000000000000000000000000000000000815233600482015260006024820181905291519192839283928392600160a060020a031691631ca451a39160448082019260209290919082900301818787803b158015610c3357600080fd5b505af1158015610c47573d6000803e3d6000fd5b505050506040513d6020811015610c5d57600080fd5b50511515610c6a57600080fd5b610c726109f8565b9350600092505b8383101561079257610c8a83610fb2565b9150610c9582610aa7565b9050801515610ca357610cde565b610cde828288888080601f0160208091040260200160405190810160405280939291908181526020018383808284375061149f945050505050565b826001019250610c79565b600154600160a060020a031681565b60008054600160a060020a03163314610d1057600080fd5b60065460ff1615610d2057600080fd5b6006805460ff191660011790556040517fae5184fba832cb2b1f702aca6117b8d265eaf03ad33eb133f19dde0f5920fa0890600090a150600190565b60008054600160a060020a03163314610d7457600080fd5b604080517f70a082310000000000000000000000000000000000000000000000000000000081523060048201529051600160a060020a038516916370a082319160248083019260209291908290030181600087803b158015610dd557600080fd5b505af1158015610de9573d6000803e3d6000fd5b505050506040513d6020811015610dff57600080fd5b50519050610e1d600160a060020a038416838363ffffffff61115316565b505050565b600054600160a060020a031681565b600054600160a060020a03163314610e4857600080fd5b604051600160a060020a03821690303180156108fc02916000818181858888f1935050505015801561068d573d6000803e3d6000fd5b600054600160a060020a03163314610e9557600080fd5b60008054604051600160a060020a0390911691303180156108fc02929091818181858888f19350505050158015610ed0573d6000803e3d6000fd5b50565b6000610ede836111ed565b610ee88383611559565b5060019392505050565b600054600160a060020a03163314610f0957600080fd5b6001805473ffffffffffffffffffffffffffffffffffffffff1916600160a060020a0383811691909117918290556040519116907f278c70ced5f3e0e5eeb385b5ff9cb735748ba00a625147e66065ed48fc1562cd90600090a250565b600080fd5b60006105bc838333611566565b600160a060020a03918216600090815260056020908152604080832093909416825291909152205490565b600254600160a060020a031681565b6000610fbd33611081565b80610fd25750600054600160a060020a031633145b1515610fdd57600080fd5b600660019054906101000a9004600160a060020a0316600160a060020a0316635fab6f82836040518263ffffffff1660e060020a02815260040180828152602001915050602060405180830381600087803b158015610b1457600080fd5b600054600160a060020a0316331461105257600080fd5b6002805473ffffffffffffffffffffffffffffffffffffffff1916600160a060020a0392909216919091179055565b600154604080517f1ca451a3000000000000000000000000000000000000000000000000000000008152600160a060020a038481166004830152600060248301819052925192931691631ca451a39160448082019260209290919082900301818787803b158015610b1457600080fd5b600160a060020a03808216600081815260056020908152604080832094881680845294825291829020869055815186815291517f8c5be1e5ebec7d5bd14f71427d1e84f3dd0314c0f7b2291e5b200ac8c7c3b9259281900390910190a3505050565b82600160a060020a031663a9059cbb83836040518363ffffffff1660e060020a0281526004018083600160a060020a0316600160a060020a0316815260200182815260200192505050602060405180830381600087803b1580156111b657600080fd5b505af11580156111ca573d6000803e3d6000fd5b505050506040513d60208110156111e057600080fd5b50511515610e1d57600080fd5b600654604080517f5dbe47e8000000000000000000000000000000000000000000000000000000008152600160a060020a038481166004830152915161010090930490911691635dbe47e8916024808201926020929091908290030181600087803b15801561125b57600080fd5b505af115801561126f573d6000803e3d6000fd5b505050506040513d602081101561128557600080fd5b50511515610ed057600654604080517f0a3b0a4f000000000000000000000000000000000000000000000000000000008152600160a060020a038481166004830152915161010090930490911691630a3b0a4f916024808201926020929091908290030181600087803b1580156112fb57600080fd5b505af115801561130f573d6000803e3d6000fd5b505050506040513d6020811015610e1d57600080fd5b6000610ee884848433611602565b60008054600160a060020a0316331461134b57600080fd5b60065460ff161561135b57600080fd5b61136583836116ee565b604080518381529051600160a060020a038516917f0f6798a560793a54c3bcfe86a93cde1e73087d944c0ea20544137d4121396885919081900360200190a250600192915050565b600160a060020a0380821660009081526005602090815260408083209387168352929052205480831061140757600160a060020a03808316600090815260056020908152604080832093881683529290529081205561143e565b611417818463ffffffff6117e816565b600160a060020a038084166000908152600560209081526040808320938916835292905220555b600160a060020a0382811660008181526005602090815260408083209489168084529482529182902054825190815291517f8c5be1e5ebec7d5bd14f71427d1e84f3dd0314c0f7b2291e5b200ac8c7c3b9259281900390910190a350505050565b6114a983836117fa565b82600160a060020a03167f47e772fda56eb54ab211642ce5421882c49fc2b7033455982af14588ae4207ff83836040518083815260200180602001828103825283818151815260200191508051906020019080838360005b83811015611519578181015183820152602001611501565b50505050905090810190601f1680156115465780820380516001836020036101000a031916815260200191505b50935050505060405180910390a2505050565b60006105bc338484611955565b600160a060020a0380821660009081526005602090815260408083209387168352929052205461159c908363ffffffff611bd016565b600160a060020a0382811660008181526005602090815260408083209489168084529482529182902085905581519485529051929391927f8c5be1e5ebec7d5bd14f71427d1e84f3dd0314c0f7b2291e5b200ac8c7c3b9259281900390910190a3505050565b600160a060020a0380851660009081526005602090815260408083209385168352929052205480831115611680576040805160e560020a62461bcd02815260206004820181905260248201527f6e6f7420656e6f75676820616c6c6f77616e636520746f207472616e73666572604482015290519081900360640190fd5b600160a060020a038086166000908152600560209081526040808320938616835292905220546116b6908463ffffffff6117e816565b600160a060020a038087166000908152600560209081526040808320938716835292905220556116e7858585611955565b5050505050565b600160a060020a038216151561170357600080fd5b600354611716908263ffffffff611bd016565b60035560048054604080517f21e5383a000000000000000000000000000000000000000000000000000000008152600160a060020a038681169482019490945260248101859052905192909116916321e5383a9160448082019260009290919082900301818387803b15801561178b57600080fd5b505af115801561179f573d6000803e3d6000fd5b5050604080518481529051600160a060020a0386169350600092507fddf252ad1be2c89b69c2b068fc378daa952ba7f163c4a11628f55a4df523b3ef9181900360200190a35050565b6000828211156117f457fe5b50900390565b600160a060020a038216151561180f57600080fd5b61181882610aa7565b81111561186f576040805160e560020a62461bcd02815260206004820152601a60248201527f6e6f7420656e6f7567682062616c616e636520746f206275726e000000000000604482015290519081900360640190fd5b60048054604080517fcf8eeb7e000000000000000000000000000000000000000000000000000000008152600160a060020a0386811694820194909452602481018590529051929091169163cf8eeb7e9160448082019260009290919082900301818387803b1580156118e157600080fd5b505af11580156118f5573d6000803e3d6000fd5b505060035461190d925090508263ffffffff6117e816565b600355604080518281529051600091600160a060020a038516917fddf252ad1be2c89b69c2b068fc378daa952ba7f163c4a11628f55a4df523b3ef9181900360200190a35050565b600160a060020a03821615156119b5576040805160e560020a62461bcd02815260206004820152601860248201527f746f20616464726573732063616e6e6f74206265203078300000000000000000604482015290519081900360640190fd5b600160a060020a0383161515611a15576040805160e560020a62461bcd02815260206004820152601a60248201527f66726f6d20616464726573732063616e6e6f7420626520307830000000000000604482015290519081900360640190fd5b611a1e83610aa7565b811115611a75576040805160e560020a62461bcd02815260206004820152601e60248201527f6e6f7420656e6f7567682062616c616e636520746f207472616e736665720000604482015290519081900360640190fd5b60048054604080517fcf8eeb7e000000000000000000000000000000000000000000000000000000008152600160a060020a0387811694820194909452602481018590529051929091169163cf8eeb7e9160448082019260009290919082900301818387803b158015611ae757600080fd5b505af1158015611afb573d6000803e3d6000fd5b505060048054604080517f21e5383a000000000000000000000000000000000000000000000000000000008152600160a060020a03888116948201949094526024810187905290519290911693506321e5383a925060448082019260009290919082900301818387803b158015611b7157600080fd5b505af1158015611b85573d6000803e3d6000fd5b5050604080518481529051600160a060020a038087169450871692507fddf252ad1be2c89b69c2b068fc378daa952ba7f163c4a11628f55a4df523b3ef9181900360200190a3505050565b81810182811015611bdd57fe5b929150505600a165627a7a72305820775b2625b0570824cf65e77a382739e0ddd7d2801a2dbac68a02df5e142b7c9e0029608060405260008054600160a060020a031916331790556103ff806100256000396000f3006080604052600436106100825763ffffffff7c01000000000000000000000000000000000000000000000000000000006000350416630870188e81146100875780630a3b0a4f146100ae5780635dbe47e8146100e35780635fab6f8214610104578063715018a6146101385780638da5cb5b1461014f578063f2fde38b14610164575b600080fd5b34801561009357600080fd5b5061009c610185565b60408051918252519081900360200190f35b3480156100ba57600080fd5b506100cf600160a060020a03600435166101a4565b604080519115158252519081900360200190f35b3480156100ef57600080fd5b506100cf600160a060020a036004351661024b565b34801561011057600080fd5b5061011c600435610269565b60408051600160a060020a039092168252519081900360200190f35b34801561014457600080fd5b5061014d6102b8565b005b34801561015b57600080fd5b5061011c610324565b34801561017057600080fd5b5061014d600160a060020a0360043516610333565b60008054600160a060020a0316331461019d57600080fd5b5060025490565b60008054600160a060020a031633146101bc57600080fd5b6101c58261024b565b156101d257506000610246565b50600160a060020a03811660008181526001602081905260408220805460ff19168217905560028054808301825592527f405787fa12a823e0f2b7631cc41b3ba8828b3321ca811111fa75cd3aa3bb5ace909101805473ffffffffffffffffffffffffffffffffffffffff19169092179091555b919050565b600160a060020a031660009081526001602052604090205460ff1690565b60008054600160a060020a0316331461028157600080fd5b600254821061028f57600080fd5b600280548390811061029d57fe5b600091825260209091200154600160a060020a031692915050565b600054600160a060020a031633146102cf57600080fd5b60008054604051600160a060020a03909116917ff8df31144d9c2f0f6b59d69b8b98abd5459d07f2742c4df920b25aae33c6482091a26000805473ffffffffffffffffffffffffffffffffffffffff19169055565b600054600160a060020a031681565b600054600160a060020a0316331461034a57600080fd5b61035381610356565b50565b600160a060020a038116151561036b57600080fd5b60008054604051600160a060020a03808516939216917f8be0079c531659141344cd1fd0a4f28419497f9722a3daafe3b4186f6b6457e091a36000805473ffffffffffffffffffffffffffffffffffffffff1916600160a060020a03929092169190911790555600a165627a7a72305820061ce7efb4139f218505a3c91e08c34211134217f030962925ea0631ab67be650029",
  "source": "pragma solidity ^0.4.24;\n\nimport './access/Manageable.sol';\nimport './base-token/BurnableToken.sol';\nimport './TraceableToken.sol';\n\n\n/**\n * @title BurnableExToken.\n * @dev Extension for the BurnableToken contract, to support\n * some manager to enforce burning all tokens of all holders.\n **/\ncontract BurnableExToken is Manageable, BurnableToken, TraceableToken {\n\n  /**\n   * @dev Burns all remaining tokens of all holders.\n   * @param _note a note that the manager can attach.\n   */\n  function burnAll(string _note) external onlyManager {\n    uint256 _holdersCount = getTheNumberOfHolders();\n    for (uint256 _i = 0; _i < _holdersCount; ++_i) {\n      address _holder = getHolder(_i);\n      uint256 _balance = balanceOf(_holder);\n      if (_balance == 0) continue;\n\n      _burn(_holder, _balance, _note);\n    }\n  }\n}\n",
  "sourcePath": "/home/namtq/Anlab/SamuraiX/contracts/BurnableExToken.sol",
  "compiler": {
    "name": "solc",
    "version": "0.4.24+commit.e67f0147.Emscripten.clang"
  },
  "schemaVersion": "2.0.1",
  "updatedAt": "2018-10-08T03:06:05.160Z"
}