{
  "contractName": "CanDelegateToken",
  "abi": [
    {
      "constant": false,
      "inputs": [
        {
          "name": "_spender",
          "type": "address"
        },
        {
          "name": "_value",
          "type": "uint256"
        }
      ],
      "name": "approve",
      "outputs": [
        {
          "name": "",
          "type": "bool"
        }
      ],
      "payable": false,
      "stateMutability": "nonpayable",
      "type": "function"
    },
    {
      "constant": false,
      "inputs": [
        {
          "name": "_token",
          "type": "address"
        }
      ],
      "name": "reclaimToken",
      "outputs": [],
      "payable": false,
      "stateMutability": "nonpayable",
      "type": "function"
    },
    {
      "constant": false,
      "inputs": [],
      "name": "cancelOwnershipTransfer",
      "outputs": [],
      "payable": false,
      "stateMutability": "nonpayable",
      "type": "function"
    },
    {
      "constant": false,
      "inputs": [
        {
          "name": "_from",
          "type": "address"
        },
        {
          "name": "_to",
          "type": "address"
        },
        {
          "name": "_value",
          "type": "uint256"
        }
      ],
      "name": "transferFrom",
      "outputs": [
        {
          "name": "",
          "type": "bool"
        }
      ],
      "payable": false,
      "stateMutability": "nonpayable",
      "type": "function"
    },
    {
      "constant": false,
      "inputs": [
        {
          "name": "_contractAddr",
          "type": "address"
        }
      ],
      "name": "reclaimContract",
      "outputs": [],
      "payable": false,
      "stateMutability": "nonpayable",
      "type": "function"
    },
    {
      "constant": false,
      "inputs": [],
      "name": "claimOwnership",
      "outputs": [],
      "payable": false,
      "stateMutability": "nonpayable",
      "type": "function"
    },
    {
      "constant": false,
      "inputs": [
        {
          "name": "_sheet",
          "type": "address"
        }
      ],
      "name": "setBalanceSheet",
      "outputs": [
        {
          "name": "",
          "type": "bool"
        }
      ],
      "payable": false,
      "stateMutability": "nonpayable",
      "type": "function"
    },
    {
      "constant": false,
      "inputs": [
        {
          "name": "_spender",
          "type": "address"
        },
        {
          "name": "_subtractedValue",
          "type": "uint256"
        }
      ],
      "name": "decreaseApproval",
      "outputs": [
        {
          "name": "",
          "type": "bool"
        }
      ],
      "payable": false,
      "stateMutability": "nonpayable",
      "type": "function"
    },
    {
      "constant": false,
      "inputs": [],
      "name": "renounceOwnership",
      "outputs": [],
      "payable": false,
      "stateMutability": "nonpayable",
      "type": "function"
    },
    {
      "constant": false,
      "inputs": [
        {
          "name": "_value",
          "type": "uint256"
        },
        {
          "name": "_note",
          "type": "string"
        }
      ],
      "name": "burn",
      "outputs": [
        {
          "name": "",
          "type": "bool"
        }
      ],
      "payable": false,
      "stateMutability": "nonpayable",
      "type": "function"
    },
    {
      "constant": false,
      "inputs": [
        {
          "name": "token",
          "type": "address"
        },
        {
          "name": "_to",
          "type": "address"
        }
      ],
      "name": "reclaimToken",
      "outputs": [],
      "payable": false,
      "stateMutability": "nonpayable",
      "type": "function"
    },
    {
      "constant": true,
      "inputs": [],
      "name": "owner",
      "outputs": [
        {
          "name": "",
          "type": "address"
        }
      ],
      "payable": false,
      "stateMutability": "view",
      "type": "function"
    },
    {
      "constant": false,
      "inputs": [
        {
          "name": "_to",
          "type": "address"
        }
      ],
      "name": "reclaimEther",
      "outputs": [],
      "payable": false,
      "stateMutability": "nonpayable",
      "type": "function"
    },
    {
      "constant": false,
      "inputs": [],
      "name": "reclaimEther",
      "outputs": [],
      "payable": false,
      "stateMutability": "nonpayable",
      "type": "function"
    },
    {
      "constant": false,
      "inputs": [
        {
          "name": "_to",
          "type": "address"
        },
        {
          "name": "_value",
          "type": "uint256"
        }
      ],
      "name": "transfer",
      "outputs": [
        {
          "name": "",
          "type": "bool"
        }
      ],
      "payable": false,
      "stateMutability": "nonpayable",
      "type": "function"
    },
    {
      "constant": true,
      "inputs": [
        {
          "name": "_from",
          "type": "address"
        },
        {
          "name": "_value",
          "type": "uint256"
        },
        {
          "name": "_data",
          "type": "bytes"
        }
      ],
      "name": "tokenFallback",
      "outputs": [],
      "payable": false,
      "stateMutability": "pure",
      "type": "function"
    },
    {
      "constant": true,
      "inputs": [],
      "name": "delegate",
      "outputs": [
        {
          "name": "",
          "type": "address"
        }
      ],
      "payable": false,
      "stateMutability": "view",
      "type": "function"
    },
    {
      "constant": false,
      "inputs": [
        {
          "name": "_spender",
          "type": "address"
        },
        {
          "name": "_addedValue",
          "type": "uint256"
        }
      ],
      "name": "increaseApproval",
      "outputs": [
        {
          "name": "",
          "type": "bool"
        }
      ],
      "payable": false,
      "stateMutability": "nonpayable",
      "type": "function"
    },
    {
      "constant": true,
      "inputs": [],
      "name": "pendingOwner",
      "outputs": [
        {
          "name": "",
          "type": "address"
        }
      ],
      "payable": false,
      "stateMutability": "view",
      "type": "function"
    },
    {
      "constant": false,
      "inputs": [
        {
          "name": "newOwner",
          "type": "address"
        }
      ],
      "name": "transferOwnership",
      "outputs": [],
      "payable": false,
      "stateMutability": "nonpayable",
      "type": "function"
    },
    {
      "payable": false,
      "stateMutability": "nonpayable",
      "type": "fallback"
    },
    {
      "anonymous": false,
      "inputs": [
        {
          "indexed": true,
          "name": "newContract",
          "type": "address"
        }
      ],
      "name": "DelegateToNewContract",
      "type": "event"
    },
    {
      "anonymous": false,
      "inputs": [
        {
          "indexed": true,
          "name": "burner",
          "type": "address"
        },
        {
          "indexed": false,
          "name": "value",
          "type": "uint256"
        },
        {
          "indexed": false,
          "name": "note",
          "type": "string"
        }
      ],
      "name": "Burn",
      "type": "event"
    },
    {
      "anonymous": false,
      "inputs": [
        {
          "indexed": true,
          "name": "sheet",
          "type": "address"
        }
      ],
      "name": "BalanceSheetSet",
      "type": "event"
    },
    {
      "anonymous": false,
      "inputs": [
        {
          "indexed": true,
          "name": "owner",
          "type": "address"
        },
        {
          "indexed": true,
          "name": "spender",
          "type": "address"
        },
        {
          "indexed": false,
          "name": "value",
          "type": "uint256"
        }
      ],
      "name": "Approval",
      "type": "event"
    },
    {
      "anonymous": false,
      "inputs": [
        {
          "indexed": true,
          "name": "from",
          "type": "address"
        },
        {
          "indexed": true,
          "name": "to",
          "type": "address"
        },
        {
          "indexed": false,
          "name": "value",
          "type": "uint256"
        }
      ],
      "name": "Transfer",
      "type": "event"
    },
    {
      "anonymous": false,
      "inputs": [
        {
          "indexed": true,
          "name": "previousOwner",
          "type": "address"
        }
      ],
      "name": "OwnershipRenounced",
      "type": "event"
    },
    {
      "anonymous": false,
      "inputs": [
        {
          "indexed": true,
          "name": "previousOwner",
          "type": "address"
        },
        {
          "indexed": true,
          "name": "newOwner",
          "type": "address"
        }
      ],
      "name": "OwnershipTransferred",
      "type": "event"
    },
    {
      "constant": false,
      "inputs": [
        {
          "name": "_newContract",
          "type": "address"
        }
      ],
      "name": "delegateToNewContract",
      "outputs": [],
      "payable": false,
      "stateMutability": "nonpayable",
      "type": "function"
    },
    {
      "constant": true,
      "inputs": [],
      "name": "totalSupply",
      "outputs": [
        {
          "name": "",
          "type": "uint256"
        }
      ],
      "payable": false,
      "stateMutability": "view",
      "type": "function"
    },
    {
      "constant": true,
      "inputs": [
        {
          "name": "_who",
          "type": "address"
        }
      ],
      "name": "balanceOf",
      "outputs": [
        {
          "name": "",
          "type": "uint256"
        }
      ],
      "payable": false,
      "stateMutability": "view",
      "type": "function"
    },
    {
      "constant": true,
      "inputs": [
        {
          "name": "_owner",
          "type": "address"
        },
        {
          "name": "_spender",
          "type": "address"
        }
      ],
      "name": "allowance",
      "outputs": [
        {
          "name": "",
          "type": "uint256"
        }
      ],
      "payable": false,
      "stateMutability": "view",
      "type": "function"
    }
  ],
  "bytecode": "0x608060405260008054600160a060020a03191633179055341561002157600080fd5b6000600255611a63806100356000396000f3006080604052600436106101245763ffffffff60e060020a600035041663095ea7b3811461013357806317ffc3201461016b57806318160ddd1461018e5780631d2d8400146101b557806323452b9c146101d657806323b872dd146101eb5780632aed7f3f146102155780634e71e0c81461023657806354f78dad1461024b578063661884631461026c57806370a0823114610290578063715018a6146102b15780637641e6f3146102c657806388ee39cc146103245780638da5cb5b1461034b5780639a6a30a41461037c5780639f727c271461039d578063a9059cbb146103b2578063c0ee0b8a146103d6578063c89e436114610407578063d73dd6231461041c578063dd62ed3e14610440578063e30c397814610467578063f2fde38b1461047c575b34801561013057600080fd5b50005b34801561013f57600080fd5b50610157600160a060020a036004351660243561049d565b604080519115158252519081900360200190f35b34801561017757600080fd5b5061018c600160a060020a03600435166104b4565b005b34801561019a57600080fd5b506101a3610580565b60408051918252519081900360200190f35b3480156101c157600080fd5b5061018c600160a060020a0360043516610624565b3480156101e257600080fd5b5061018c610698565b3480156101f757600080fd5b50610157600160a060020a03600435811690602435166044356106e0565b34801561022157600080fd5b5061018c600160a060020a03600435166106f8565b34801561024257600080fd5b5061018c610792565b34801561025757600080fd5b50610157600160a060020a036004351661081a565b34801561027857600080fd5b50610157600160a060020a036004351660243561090a565b34801561029c57600080fd5b506101a3600160a060020a0360043516610917565b3480156102bd57600080fd5b5061018c6109d2565b3480156102d257600080fd5b5060408051602060046024803582810135601f8101859004850286018501909652858552610157958335953695604494919390910191908190840183828082843750949750610a3e9650505050505050565b34801561033057600080fd5b5061018c600160a060020a0360043581169060243516610a4b565b34801561035757600080fd5b50610360610b11565b60408051600160a060020a039092168252519081900360200190f35b34801561038857600080fd5b5061018c600160a060020a0360043516610b20565b3480156103a957600080fd5b5061018c610b6d565b3480156103be57600080fd5b50610157600160a060020a0360043516602435610bc2565b3480156103e257600080fd5b5061018c60048035600160a060020a0316906024803591604435918201910135610bcf565b34801561041357600080fd5b50610360610bd4565b34801561042857600080fd5b50610157600160a060020a0360043516602435610be3565b34801561044c57600080fd5b506101a3600160a060020a0360043581169060243516610bf0565b34801561047357600080fd5b50610360610cb4565b34801561048857600080fd5b5061018c600160a060020a0360043516610cc3565b60006104aa838333610d09565b5060015b92915050565b60008054600160a060020a031633146104cc57600080fd5b604080517f70a082310000000000000000000000000000000000000000000000000000000081523060048201529051600160a060020a038416916370a082319160248083019260209291908290030181600087803b15801561052d57600080fd5b505af1158015610541573d6000803e3d6000fd5b505050506040513d602081101561055757600080fd5b505160005490915061057c90600160a060020a0384811691168363ffffffff610dd516565b5050565b600061058a610e38565b151561059f57610598610e49565b9050610621565b600560009054906101000a9004600160a060020a0316600160a060020a03166376e71dd86040518163ffffffff1660e060020a028152600401602060405180830381600087803b1580156105f257600080fd5b505af1158015610606573d6000803e3d6000fd5b505050506040513d602081101561061c57600080fd5b505190505b90565b600054600160a060020a0316331461063b57600080fd5b6005805473ffffffffffffffffffffffffffffffffffffffff1916600160a060020a0383811691909117918290556040519116907f376b7ed8bfb3c86aceee48f830ab5c007b4aa3ea522fb8784caeb5e33d535b4f90600090a250565b600054600160a060020a031633146106af57600080fd5b6000546001805473ffffffffffffffffffffffffffffffffffffffff1916600160a060020a03909216919091179055565b60006106ee84848433610e4f565b5060019392505050565b60008054600160a060020a0316331461071057600080fd5b5060008054604080517ff2fde38b000000000000000000000000000000000000000000000000000000008152600160a060020a039283166004820152905184939284169263f2fde38b926024808201939182900301818387803b15801561077657600080fd5b505af115801561078a573d6000803e3d6000fd5b505050505050565b600154600160a060020a031633146107a957600080fd5b60015460008054604051600160a060020a0393841693909116917f8be0079c531659141344cd1fd0a4f28419497f9722a3daafe3b4186f6b6457e091a3600180546000805473ffffffffffffffffffffffffffffffffffffffff19908116600160a060020a03841617909155169055565b60008054600160a060020a0316331461083257600080fd5b6003805473ffffffffffffffffffffffffffffffffffffffff1916600160a060020a038481169190911791829055604080517f4e71e0c800000000000000000000000000000000000000000000000000000000815290519290911691634e71e0c89160048082019260009290919082900301818387803b1580156108b557600080fd5b505af11580156108c9573d6000803e3d6000fd5b5050604051600160a060020a03851692507fa89fb8ab3845cb6919c98b54ca0d8f398df48c64ae04ed309cd7b130539badd49150600090a25060015b919050565b60006104aa838333610f2a565b6000610921610e38565b15156109375761093082610fba565b9050610905565b600554604080517f43a468c8000000000000000000000000000000000000000000000000000000008152600160a060020a038581166004830152915191909216916343a468c89160248083019260209291908290030181600087803b15801561099f57600080fd5b505af11580156109b3573d6000803e3d6000fd5b505050506040513d60208110156109c957600080fd5b50519050610905565b600054600160a060020a031633146109e957600080fd5b60008054604051600160a060020a03909116917ff8df31144d9c2f0f6b59d69b8b98abd5459d07f2742c4df920b25aae33c6482091a26000805473ffffffffffffffffffffffffffffffffffffffff19169055565b60006104aa338484611057565b60008054600160a060020a03163314610a6357600080fd5b604080517f70a082310000000000000000000000000000000000000000000000000000000081523060048201529051600160a060020a038516916370a082319160248083019260209291908290030181600087803b158015610ac457600080fd5b505af1158015610ad8573d6000803e3d6000fd5b505050506040513d6020811015610aee57600080fd5b50519050610b0c600160a060020a038416838363ffffffff610dd516565b505050565b600054600160a060020a031681565b600054600160a060020a03163314610b3757600080fd5b604051600160a060020a03821690303180156108fc02916000818181858888f1935050505015801561057c573d6000803e3d6000fd5b600054600160a060020a03163314610b8457600080fd5b60008054604051600160a060020a0390911691303180156108fc02929091818181858888f19350505050158015610bbf573d6000803e3d6000fd5b50565b60006104aa33848461116d565b600080fd5b600554600160a060020a031681565b60006104aa8383336111fd565b6000610bfa610e38565b1515610c1157610c0a838361128d565b90506104ae565b600554604080517f09ab8bba000000000000000000000000000000000000000000000000000000008152600160a060020a0386811660048301528581166024830152915191909216916309ab8bba9160448083019260209291908290030181600087803b158015610c8157600080fd5b505af1158015610c95573d6000803e3d6000fd5b505050506040513d6020811015610cab57600080fd5b505190506104ae565b600154600160a060020a031681565b600054600160a060020a03163314610cda57600080fd5b6001805473ffffffffffffffffffffffffffffffffffffffff1916600160a060020a0392909216919091179055565b610d11610e38565b1515610d2757610d228383836112b8565b610b0c565b600554604080517f296f4000000000000000000000000000000000000000000000000000000000008152600160a060020a0386811660048301526024820186905284811660448301529151919092169163296f40009160648083019260209291908290030181600087803b158015610d9e57600080fd5b505af1158015610db2573d6000803e3d6000fd5b505050506040513d6020811015610dc857600080fd5b50511515610b0c57600080fd5b82600160a060020a031663a9059cbb83836040518363ffffffff1660e060020a0281526004018083600160a060020a0316600160a060020a0316815260200182815260200192505050602060405180830381600087803b158015610d9e57600080fd5b600554600160a060020a0316151590565b60025490565b610e57610e38565b1515610e6e57610e698484848461131a565b610f24565b600554604080517f4df6b45d000000000000000000000000000000000000000000000000000000008152600160a060020a038781166004830152868116602483015260448201869052848116606483015291519190921691634df6b45d9160848083019260209291908290030181600087803b158015610eed57600080fd5b505af1158015610f01573d6000803e3d6000fd5b505050506040513d6020811015610f1757600080fd5b50511515610f2457600080fd5b50505050565b610f32610e38565b1515610f4357610d22838383611406565b600554604080517f93d3173a000000000000000000000000000000000000000000000000000000008152600160a060020a038681166004830152602482018690528481166044830152915191909216916393d3173a9160648083019260209291908290030181600087803b158015610d9e57600080fd5b600354604080517f70a08231000000000000000000000000000000000000000000000000000000008152600160a060020a038481166004830152915160009392909216916370a082319160248082019260209290919082900301818787803b15801561102557600080fd5b505af1158015611039573d6000803e3d6000fd5b505050506040513d602081101561104f57600080fd5b505192915050565b61105f610e38565b151561107057610d228383836114f8565b6005546040517f6d85059c000000000000000000000000000000000000000000000000000000008152600160a060020a0385811660048301908152602483018690526060604484019081528551606485015285519290941693636d85059c9388938893889390929091608490910190602085019080838360005b838110156111025781810151838201526020016110ea565b50505050905090810190601f16801561112f5780820380516001836020036101000a031916815260200191505b50945050505050600060405180830381600087803b15801561115057600080fd5b505af1158015611164573d6000803e3d6000fd5b50505050505050565b611175610e38565b151561118657610d228383836115b2565b600554604080517f9cd1a121000000000000000000000000000000000000000000000000000000008152600160a060020a03858116600483015260248201859052868116604483015291519190921691639cd1a1219160648083019260209291908290030181600087803b158015610d9e57600080fd5b611205610e38565b151561121657610d22838383611825565b600554604080517f554249b3000000000000000000000000000000000000000000000000000000008152600160a060020a0386811660048301526024820186905284811660448301529151919092169163554249b39160648083019260209291908290030181600087803b158015610d9e57600080fd5b600160a060020a03918216600090815260046020908152604080832093909416825291909152205490565b600160a060020a03808216600081815260046020908152604080832094881680845294825291829020869055815186815291517f8c5be1e5ebec7d5bd14f71427d1e84f3dd0314c0f7b2291e5b200ac8c7c3b9259281900390910190a3505050565b600160a060020a0380851660009081526004602090815260408083209385168352929052205480831115611398576040805160e560020a62461bcd02815260206004820181905260248201527f6e6f7420656e6f75676820616c6c6f77616e636520746f207472616e73666572604482015290519081900360640190fd5b600160a060020a038086166000908152600460209081526040808320938616835292905220546113ce908463ffffffff6118c116565b600160a060020a038087166000908152600460209081526040808320938716835292905220556113ff85858561116d565b5050505050565b600160a060020a0380821660009081526004602090815260408083209387168352929052205480831061146057600160a060020a038083166000908152600460209081526040808320938816835292905290812055611497565b611470818463ffffffff6118c116565b600160a060020a038084166000908152600460209081526040808320938916835292905220555b600160a060020a0382811660008181526004602090815260408083209489168084529482529182902054825190815291517f8c5be1e5ebec7d5bd14f71427d1e84f3dd0314c0f7b2291e5b200ac8c7c3b9259281900390910190a350505050565b61150283836118d3565b82600160a060020a03167f47e772fda56eb54ab211642ce5421882c49fc2b7033455982af14588ae4207ff83836040518083815260200180602001828103825283818151815260200191508051906020019080838360005b8381101561157257818101518382015260200161155a565b50505050905090810190601f16801561159f5780820380516001836020036101000a031916815260200191505b50935050505060405180910390a2505050565b600160a060020a0382161515611612576040805160e560020a62461bcd02815260206004820152601860248201527f746f20616464726573732063616e6e6f74206265203078300000000000000000604482015290519081900360640190fd5b600160a060020a0383161515611672576040805160e560020a62461bcd02815260206004820152601a60248201527f66726f6d20616464726573732063616e6e6f7420626520307830000000000000604482015290519081900360640190fd5b61167b83610917565b8111156116d2576040805160e560020a62461bcd02815260206004820152601e60248201527f6e6f7420656e6f7567682062616c616e636520746f207472616e736665720000604482015290519081900360640190fd5b600354604080517fcf8eeb7e000000000000000000000000000000000000000000000000000000008152600160a060020a038681166004830152602482018590529151919092169163cf8eeb7e91604480830192600092919082900301818387803b15801561174057600080fd5b505af1158015611754573d6000803e3d6000fd5b5050600354604080517f21e5383a000000000000000000000000000000000000000000000000000000008152600160a060020a0387811660048301526024820187905291519190921693506321e5383a9250604480830192600092919082900301818387803b1580156117c657600080fd5b505af11580156117da573d6000803e3d6000fd5b5050604080518481529051600160a060020a038087169450871692507fddf252ad1be2c89b69c2b068fc378daa952ba7f163c4a11628f55a4df523b3ef9181900360200190a3505050565b600160a060020a0380821660009081526004602090815260408083209387168352929052205461185b908363ffffffff611a2a16565b600160a060020a0382811660008181526004602090815260408083209489168084529482529182902085905581519485529051929391927f8c5be1e5ebec7d5bd14f71427d1e84f3dd0314c0f7b2291e5b200ac8c7c3b9259281900390910190a3505050565b6000828211156118cd57fe5b50900390565b600160a060020a03821615156118e857600080fd5b6118f182610917565b811115611948576040805160e560020a62461bcd02815260206004820152601a60248201527f6e6f7420656e6f7567682062616c616e636520746f206275726e000000000000604482015290519081900360640190fd5b600354604080517fcf8eeb7e000000000000000000000000000000000000000000000000000000008152600160a060020a038581166004830152602482018590529151919092169163cf8eeb7e91604480830192600092919082900301818387803b1580156119b657600080fd5b505af11580156119ca573d6000803e3d6000fd5b50506002546119e2925090508263ffffffff6118c116565b600255604080518281529051600091600160a060020a038516917fddf252ad1be2c89b69c2b068fc378daa952ba7f163c4a11628f55a4df523b3ef9181900360200190a35050565b818101828110156104ae57fe00a165627a7a72305820da5f8ecbd9060e5505e83733fe8e8fb0d522d86b0c1620726a877abca2b8add20029",
  "source": "pragma solidity ^0.4.24;\n\nimport \"../base-token/BurnableToken.sol\";\nimport \"./DelegateBurnable.sol\";\n\n\n// See DelegateBurnable.sol for more on the delegation system.\ncontract CanDelegateToken is BurnableToken {\n  // If this contract needs to be upgraded, the new contract will be stored\n  // in 'delegate' and any BurnableToken calls to this contract will be delegated to that one.\n  DelegateBurnable public delegate;\n\n  event DelegateToNewContract(address indexed newContract);\n\n  // Can undelegate by passing in _newContract = address(0)\n  function delegateToNewContract(\n    DelegateBurnable _newContract\n  )\n    public\n    onlyOwner\n  {\n    delegate = _newContract;\n    emit DelegateToNewContract(delegate);\n  }\n\n  // If a delegate has been designated, all ERC20 calls are forwarded to it\n  function _transfer(address _from, address _to, uint256 _value) internal {\n    if (!_hasDelegate()) {\n      super._transfer(_from, _to, _value);\n    } else {\n      require(delegate.delegateTransfer(_to, _value, _from));\n    }\n  }\n\n  function _transferFrom(\n    address _from,\n    address _to,\n    uint256 _value,\n    address _spender\n  )\n    internal\n  {\n    if (!_hasDelegate()) {\n      super._transferFrom(_from, _to, _value, _spender);\n    } else {\n      require(delegate.delegateTransferFrom(_from, _to, _value, _spender));\n    }\n  }\n\n  function totalSupply() public view returns (uint256) {\n    if (!_hasDelegate()) {\n      return super.totalSupply();\n    } else {\n      return delegate.delegateTotalSupply();\n    }\n  }\n\n  function balanceOf(address _who) public view returns (uint256) {\n    if (!_hasDelegate()) {\n      return super.balanceOf(_who);\n    } else {\n      return delegate.delegateBalanceOf(_who);\n    }\n  }\n\n  function _approve(\n    address _spender,\n    uint256 _value,\n    address _tokenHolder\n  )\n    internal\n  {\n    if (!_hasDelegate()) {\n      super._approve(_spender, _value, _tokenHolder);\n    } else {\n      require(delegate.delegateApprove(_spender, _value, _tokenHolder));\n    }\n  }\n\n  function allowance(\n    address _owner,\n    address _spender\n  )\n    public\n    view\n    returns (uint256)\n  {\n    if (!_hasDelegate()) {\n      return super.allowance(_owner, _spender);\n    } else {\n      return delegate.delegateAllowance(_owner, _spender);\n    }\n  }\n\n  function _increaseApproval(\n    address _spender,\n    uint256 _addedValue,\n    address _tokenHolder\n  )\n    internal\n  {\n    if (!_hasDelegate()) {\n      super._increaseApproval(_spender, _addedValue, _tokenHolder);\n    } else {\n      require(\n        delegate.delegateIncreaseApproval(_spender, _addedValue, _tokenHolder)\n      );\n    }\n  }\n\n  function _decreaseApproval(\n    address _spender,\n    uint256 _subtractedValue,\n    address _tokenHolder\n  )\n    internal\n  {\n    if (!_hasDelegate()) {\n      super._decreaseApproval(_spender, _subtractedValue, _tokenHolder);\n    } else {\n      require(\n        delegate.delegateDecreaseApproval(\n          _spender,\n          _subtractedValue,\n          _tokenHolder)\n      );\n    }\n  }\n\n  function _burn(address _burner, uint256 _value, string _note) internal {\n    if (!_hasDelegate()) {\n      super._burn(_burner, _value, _note);\n    } else {\n      delegate.delegateBurn(_burner, _value , _note);\n    }\n  }\n\n  function _hasDelegate() internal view returns (bool) {\n    return !(delegate == address(0));\n  }\n}\n",
  "sourcePath": "/home/namtq/MyWorkSpace/SamIO/contracts/delegate/CanDelegateToken.sol",
  "compiler": {
    "name": "solc",
    "version": "0.4.24+commit.e67f0147.Emscripten.clang"
  },
  "schemaVersion": "2.0.1",
  "updatedAt": "2018-10-12T01:39:19.101Z"
}