{
  "contractName": "CanReclaimToken",
  "abi": [
    {
      "constant": false,
      "inputs": [],
      "name": "renounceOwnership",
      "outputs": [],
      "payable": false,
      "stateMutability": "nonpayable",
      "type": "function"
    },
    {
      "constant": true,
      "inputs": [],
      "name": "owner",
      "outputs": [
        {
          "name": "",
          "type": "address"
        }
      ],
      "payable": false,
      "stateMutability": "view",
      "type": "function"
    },
    {
      "constant": false,
      "inputs": [
        {
          "name": "_newOwner",
          "type": "address"
        }
      ],
      "name": "transferOwnership",
      "outputs": [],
      "payable": false,
      "stateMutability": "nonpayable",
      "type": "function"
    },
    {
      "anonymous": false,
      "inputs": [
        {
          "indexed": true,
          "name": "previousOwner",
          "type": "address"
        }
      ],
      "name": "OwnershipRenounced",
      "type": "event"
    },
    {
      "anonymous": false,
      "inputs": [
        {
          "indexed": true,
          "name": "previousOwner",
          "type": "address"
        },
        {
          "indexed": true,
          "name": "newOwner",
          "type": "address"
        }
      ],
      "name": "OwnershipTransferred",
      "type": "event"
    },
    {
      "constant": false,
      "inputs": [
        {
          "name": "_token",
          "type": "address"
        }
      ],
      "name": "reclaimToken",
      "outputs": [],
      "payable": false,
      "stateMutability": "nonpayable",
      "type": "function"
    }
  ],
  "bytecode": "0x608060405260008054600160a060020a031916331790556103bb806100256000396000f3006080604052600436106100615763ffffffff7c010000000000000000000000000000000000000000000000000000000060003504166317ffc3208114610066578063715018a6146100895780638da5cb5b1461009e578063f2fde38b146100cf575b600080fd5b34801561007257600080fd5b50610087600160a060020a03600435166100f0565b005b34801561009557600080fd5b506100876101bc565b3480156100aa57600080fd5b506100b3610228565b60408051600160a060020a039092168252519081900360200190f35b3480156100db57600080fd5b50610087600160a060020a0360043516610237565b60008054600160a060020a0316331461010857600080fd5b604080517f70a082310000000000000000000000000000000000000000000000000000000081523060048201529051600160a060020a038416916370a082319160248083019260209291908290030181600087803b15801561016957600080fd5b505af115801561017d573d6000803e3d6000fd5b505050506040513d602081101561019357600080fd5b50516000549091506101b890600160a060020a0384811691168363ffffffff61025a16565b5050565b600054600160a060020a031633146101d357600080fd5b60008054604051600160a060020a03909116917ff8df31144d9c2f0f6b59d69b8b98abd5459d07f2742c4df920b25aae33c6482091a26000805473ffffffffffffffffffffffffffffffffffffffff19169055565b600054600160a060020a031681565b600054600160a060020a0316331461024e57600080fd5b61025781610312565b50565b82600160a060020a031663a9059cbb83836040518363ffffffff167c01000000000000000000000000000000000000000000000000000000000281526004018083600160a060020a0316600160a060020a0316815260200182815260200192505050602060405180830381600087803b1580156102d657600080fd5b505af11580156102ea573d6000803e3d6000fd5b505050506040513d602081101561030057600080fd5b5051151561030d57600080fd5b505050565b600160a060020a038116151561032757600080fd5b60008054604051600160a060020a03808516939216917f8be0079c531659141344cd1fd0a4f28419497f9722a3daafe3b4186f6b6457e091a36000805473ffffffffffffffffffffffffffffffffffffffff1916600160a060020a03929092169190911790555600a165627a7a723058205adc3637b40ee93823d3a385013f5a4f1510aa804d4b0873111b3da36d19a0f70029",
  "source": "pragma solidity ^0.4.24;\n\nimport \"./Ownable.sol\";\nimport \"../token/ERC20/ERC20Basic.sol\";\nimport \"../token/ERC20/SafeERC20.sol\";\n\n\n/**\n * @title Contracts that should be able to recover tokens\n * @author SylTi\n * @dev This allow a contract to recover any ERC20 token received in a contract by transferring the balance to the contract owner.\n * This will prevent any accidental loss of tokens.\n */\ncontract CanReclaimToken is Ownable {\n  using SafeERC20 for ERC20Basic;\n\n  /**\n   * @dev Reclaim all ERC20Basic compatible tokens\n   * @param _token ERC20Basic The address of the token contract\n   */\n  function reclaimToken(ERC20Basic _token) external onlyOwner {\n    uint256 balance = _token.balanceOf(this);\n    _token.safeTransfer(owner, balance);\n  }\n\n}\n",
  "sourcePath": "/home/namtq/Anlab/SamuraiX/contracts/zeppelin/contracts/ownership/CanReclaimToken.sol",
  "compiler": {
    "name": "solc",
    "version": "0.4.24+commit.e67f0147.Emscripten.clang"
  },
  "schemaVersion": "2.0.1",
  "updatedAt": "2018-09-28T03:23:17.544Z"
}