{
  "contractName": "ClaimableEx",
  "abi": [
    {
      "constant": false,
      "inputs": [],
      "name": "claimOwnership",
      "outputs": [],
      "payable": false,
      "stateMutability": "nonpayable",
      "type": "function"
    },
    {
      "constant": false,
      "inputs": [],
      "name": "renounceOwnership",
      "outputs": [],
      "payable": false,
      "stateMutability": "nonpayable",
      "type": "function"
    },
    {
      "constant": true,
      "inputs": [],
      "name": "owner",
      "outputs": [
        {
          "name": "",
          "type": "address"
        }
      ],
      "payable": false,
      "stateMutability": "view",
      "type": "function"
    },
    {
      "constant": true,
      "inputs": [],
      "name": "pendingOwner",
      "outputs": [
        {
          "name": "",
          "type": "address"
        }
      ],
      "payable": false,
      "stateMutability": "view",
      "type": "function"
    },
    {
      "constant": false,
      "inputs": [
        {
          "name": "newOwner",
          "type": "address"
        }
      ],
      "name": "transferOwnership",
      "outputs": [],
      "payable": false,
      "stateMutability": "nonpayable",
      "type": "function"
    },
    {
      "anonymous": false,
      "inputs": [
        {
          "indexed": true,
          "name": "previousOwner",
          "type": "address"
        }
      ],
      "name": "OwnershipRenounced",
      "type": "event"
    },
    {
      "anonymous": false,
      "inputs": [
        {
          "indexed": true,
          "name": "previousOwner",
          "type": "address"
        },
        {
          "indexed": true,
          "name": "newOwner",
          "type": "address"
        }
      ],
      "name": "OwnershipTransferred",
      "type": "event"
    },
    {
      "constant": false,
      "inputs": [],
      "name": "cancelOwnershipTransfer",
      "outputs": [],
      "payable": false,
      "stateMutability": "nonpayable",
      "type": "function"
    }
  ],
  "bytecode": "0x608060405260008054600160a060020a031916331790556102f0806100256000396000f3006080604052600436106100775763ffffffff7c010000000000000000000000000000000000000000000000000000000060003504166323452b9c811461007c5780634e71e0c814610093578063715018a6146100a85780638da5cb5b146100bd578063e30c3978146100ee578063f2fde38b14610103575b600080fd5b34801561008857600080fd5b50610091610124565b005b34801561009f57600080fd5b5061009161016c565b3480156100b457600080fd5b506100916101f4565b3480156100c957600080fd5b506100d2610260565b60408051600160a060020a039092168252519081900360200190f35b3480156100fa57600080fd5b506100d261026f565b34801561010f57600080fd5b50610091600160a060020a036004351661027e565b600054600160a060020a0316331461013b57600080fd5b6000546001805473ffffffffffffffffffffffffffffffffffffffff1916600160a060020a03909216919091179055565b600154600160a060020a0316331461018357600080fd5b60015460008054604051600160a060020a0393841693909116917f8be0079c531659141344cd1fd0a4f28419497f9722a3daafe3b4186f6b6457e091a3600180546000805473ffffffffffffffffffffffffffffffffffffffff19908116600160a060020a03841617909155169055565b600054600160a060020a0316331461020b57600080fd5b60008054604051600160a060020a03909116917ff8df31144d9c2f0f6b59d69b8b98abd5459d07f2742c4df920b25aae33c6482091a26000805473ffffffffffffffffffffffffffffffffffffffff19169055565b600054600160a060020a031681565b600154600160a060020a031681565b600054600160a060020a0316331461029557600080fd5b6001805473ffffffffffffffffffffffffffffffffffffffff1916600160a060020a03929092169190911790555600a165627a7a72305820024182c3df12ae7aab48eff019274ab6fee690edfdd7faf9565adbda1f6fb9340029",
  "source": "pragma solidity ^0.4.24;\n\nimport \"../zeppelin/contracts/ownership/Claimable.sol\";\n\n\n/**\n * @title Claimable Ex\n * @dev Extension for the Claimable contract, where the ownership transfer can be canceled.\n */\ncontract ClaimableEx is Claimable {\n  /*\n   * @dev Cancels the ownership transfer.\n   */\n  function cancelOwnershipTransfer() onlyOwner public {\n    pendingOwner = owner;\n  }\n}\n",
  "sourcePath": "/home/namtq/Anlab/SamuraiX/contracts/ownership/ClaimableEx.sol",
  "compiler": {
    "name": "solc",
    "version": "0.4.24+commit.e67f0147.Emscripten.clang"
  },
  "schemaVersion": "2.0.1",
  "updatedAt": "2018-10-08T03:06:05.185Z"
}