{
  "contractName": "CompliantToken",
  "abi": [
    {
      "constant": false,
      "inputs": [
        {
          "name": "_spender",
          "type": "address"
        },
        {
          "name": "_value",
          "type": "uint256"
        }
      ],
      "name": "approve",
      "outputs": [
        {
          "name": "",
          "type": "bool"
        }
      ],
      "payable": false,
      "stateMutability": "nonpayable",
      "type": "function"
    },
    {
      "constant": false,
      "inputs": [
        {
          "name": "_token",
          "type": "address"
        }
      ],
      "name": "reclaimToken",
      "outputs": [],
      "payable": false,
      "stateMutability": "nonpayable",
      "type": "function"
    },
    {
      "constant": true,
      "inputs": [],
      "name": "totalSupply",
      "outputs": [
        {
          "name": "",
          "type": "uint256"
        }
      ],
      "payable": false,
      "stateMutability": "view",
      "type": "function"
    },
    {
      "constant": false,
      "inputs": [],
      "name": "cancelOwnershipTransfer",
      "outputs": [],
      "payable": false,
      "stateMutability": "nonpayable",
      "type": "function"
    },
    {
      "constant": false,
      "inputs": [
        {
          "name": "_from",
          "type": "address"
        },
        {
          "name": "_to",
          "type": "address"
        },
        {
          "name": "_value",
          "type": "uint256"
        }
      ],
      "name": "transferFrom",
      "outputs": [
        {
          "name": "",
          "type": "bool"
        }
      ],
      "payable": false,
      "stateMutability": "nonpayable",
      "type": "function"
    },
    {
      "constant": false,
      "inputs": [
        {
          "name": "_contractAddr",
          "type": "address"
        }
      ],
      "name": "reclaimContract",
      "outputs": [],
      "payable": false,
      "stateMutability": "nonpayable",
      "type": "function"
    },
    {
      "constant": false,
      "inputs": [],
      "name": "claimOwnership",
      "outputs": [],
      "payable": false,
      "stateMutability": "nonpayable",
      "type": "function"
    },
    {
      "constant": false,
      "inputs": [
        {
          "name": "_sheet",
          "type": "address"
        }
      ],
      "name": "setBalanceSheet",
      "outputs": [
        {
          "name": "",
          "type": "bool"
        }
      ],
      "payable": false,
      "stateMutability": "nonpayable",
      "type": "function"
    },
    {
      "constant": false,
      "inputs": [
        {
          "name": "_spender",
          "type": "address"
        },
        {
          "name": "_subtractedValue",
          "type": "uint256"
        }
      ],
      "name": "decreaseApproval",
      "outputs": [
        {
          "name": "",
          "type": "bool"
        }
      ],
      "payable": false,
      "stateMutability": "nonpayable",
      "type": "function"
    },
    {
      "constant": true,
      "inputs": [
        {
          "name": "_owner",
          "type": "address"
        }
      ],
      "name": "balanceOf",
      "outputs": [
        {
          "name": "balance",
          "type": "uint256"
        }
      ],
      "payable": false,
      "stateMutability": "view",
      "type": "function"
    },
    {
      "constant": false,
      "inputs": [],
      "name": "renounceOwnership",
      "outputs": [],
      "payable": false,
      "stateMutability": "nonpayable",
      "type": "function"
    },
    {
      "constant": true,
      "inputs": [],
      "name": "registry",
      "outputs": [
        {
          "name": "",
          "type": "address"
        }
      ],
      "payable": false,
      "stateMutability": "view",
      "type": "function"
    },
    {
      "constant": false,
      "inputs": [
        {
          "name": "token",
          "type": "address"
        },
        {
          "name": "_to",
          "type": "address"
        }
      ],
      "name": "reclaimToken",
      "outputs": [],
      "payable": false,
      "stateMutability": "nonpayable",
      "type": "function"
    },
    {
      "constant": true,
      "inputs": [],
      "name": "owner",
      "outputs": [
        {
          "name": "",
          "type": "address"
        }
      ],
      "payable": false,
      "stateMutability": "view",
      "type": "function"
    },
    {
      "constant": false,
      "inputs": [
        {
          "name": "_to",
          "type": "address"
        }
      ],
      "name": "reclaimEther",
      "outputs": [],
      "payable": false,
      "stateMutability": "nonpayable",
      "type": "function"
    },
    {
      "constant": false,
      "inputs": [],
      "name": "reclaimEther",
      "outputs": [],
      "payable": false,
      "stateMutability": "nonpayable",
      "type": "function"
    },
    {
      "constant": false,
      "inputs": [
        {
          "name": "_to",
          "type": "address"
        },
        {
          "name": "_value",
          "type": "uint256"
        }
      ],
      "name": "transfer",
      "outputs": [
        {
          "name": "",
          "type": "bool"
        }
      ],
      "payable": false,
      "stateMutability": "nonpayable",
      "type": "function"
    },
    {
      "constant": false,
      "inputs": [
        {
          "name": "_registry",
          "type": "address"
        }
      ],
      "name": "setRegistry",
      "outputs": [],
      "payable": false,
      "stateMutability": "nonpayable",
      "type": "function"
    },
    {
      "constant": true,
      "inputs": [
        {
          "name": "_from",
          "type": "address"
        },
        {
          "name": "_value",
          "type": "uint256"
        },
        {
          "name": "_data",
          "type": "bytes"
        }
      ],
      "name": "tokenFallback",
      "outputs": [],
      "payable": false,
      "stateMutability": "pure",
      "type": "function"
    },
    {
      "constant": false,
      "inputs": [
        {
          "name": "_spender",
          "type": "address"
        },
        {
          "name": "_addedValue",
          "type": "uint256"
        }
      ],
      "name": "increaseApproval",
      "outputs": [
        {
          "name": "",
          "type": "bool"
        }
      ],
      "payable": false,
      "stateMutability": "nonpayable",
      "type": "function"
    },
    {
      "constant": true,
      "inputs": [
        {
          "name": "_owner",
          "type": "address"
        },
        {
          "name": "_spender",
          "type": "address"
        }
      ],
      "name": "allowance",
      "outputs": [
        {
          "name": "",
          "type": "uint256"
        }
      ],
      "payable": false,
      "stateMutability": "view",
      "type": "function"
    },
    {
      "constant": true,
      "inputs": [],
      "name": "pendingOwner",
      "outputs": [
        {
          "name": "",
          "type": "address"
        }
      ],
      "payable": false,
      "stateMutability": "view",
      "type": "function"
    },
    {
      "constant": false,
      "inputs": [
        {
          "name": "newOwner",
          "type": "address"
        }
      ],
      "name": "transferOwnership",
      "outputs": [],
      "payable": false,
      "stateMutability": "nonpayable",
      "type": "function"
    },
    {
      "payable": false,
      "stateMutability": "nonpayable",
      "type": "fallback"
    },
    {
      "anonymous": false,
      "inputs": [
        {
          "indexed": true,
          "name": "sheet",
          "type": "address"
        }
      ],
      "name": "BalanceSheetSet",
      "type": "event"
    },
    {
      "anonymous": false,
      "inputs": [
        {
          "indexed": true,
          "name": "owner",
          "type": "address"
        },
        {
          "indexed": true,
          "name": "spender",
          "type": "address"
        },
        {
          "indexed": false,
          "name": "value",
          "type": "uint256"
        }
      ],
      "name": "Approval",
      "type": "event"
    },
    {
      "anonymous": false,
      "inputs": [
        {
          "indexed": true,
          "name": "from",
          "type": "address"
        },
        {
          "indexed": true,
          "name": "to",
          "type": "address"
        },
        {
          "indexed": false,
          "name": "value",
          "type": "uint256"
        }
      ],
      "name": "Transfer",
      "type": "event"
    },
    {
      "anonymous": false,
      "inputs": [
        {
          "indexed": true,
          "name": "registry",
          "type": "address"
        }
      ],
      "name": "SetRegistry",
      "type": "event"
    },
    {
      "anonymous": false,
      "inputs": [
        {
          "indexed": true,
          "name": "previousOwner",
          "type": "address"
        }
      ],
      "name": "OwnershipRenounced",
      "type": "event"
    },
    {
      "anonymous": false,
      "inputs": [
        {
          "indexed": true,
          "name": "previousOwner",
          "type": "address"
        },
        {
          "indexed": true,
          "name": "newOwner",
          "type": "address"
        }
      ],
      "name": "OwnershipTransferred",
      "type": "event"
    }
  ],
  "bytecode": "0x608060405260008054600160a060020a03191633179055341561002157600080fd5b60006003556113b2806100356000396000f3006080604052600436106101325763ffffffff7c0100000000000000000000000000000000000000000000000000000000600035041663095ea7b3811461014157806317ffc3201461017957806318160ddd1461019c57806323452b9c146101c357806323b872dd146101d85780632aed7f3f146102025780634e71e0c81461022357806354f78dad14610238578063661884631461025957806370a082311461027d578063715018a61461029e5780637b103999146102b357806388ee39cc146102e45780638da5cb5b1461030b5780639a6a30a4146103205780639f727c2714610341578063a9059cbb14610356578063a91ee0dc1461037a578063c0ee0b8a1461039b578063d73dd623146103cc578063dd62ed3e146103f0578063e30c397814610417578063f2fde38b1461042c575b34801561013e57600080fd5b50005b34801561014d57600080fd5b50610165600160a060020a036004351660243561044d565b604080519115158252519081900360200190f35b34801561018557600080fd5b5061019a600160a060020a0360043516610463565b005b3480156101a857600080fd5b506101b161052f565b60408051918252519081900360200190f35b3480156101cf57600080fd5b5061019a610535565b3480156101e457600080fd5b50610165600160a060020a036004358116906024351660443561057d565b34801561020e57600080fd5b5061019a600160a060020a0360043516610595565b34801561022f57600080fd5b5061019a61062f565b34801561024457600080fd5b50610165600160a060020a03600435166106b7565b34801561026557600080fd5b50610165600160a060020a03600435166024356107a2565b34801561028957600080fd5b506101b1600160a060020a03600435166107af565b3480156102aa57600080fd5b5061019a61084e565b3480156102bf57600080fd5b506102c86108ba565b60408051600160a060020a039092168252519081900360200190f35b3480156102f057600080fd5b5061019a600160a060020a03600435811690602435166108c9565b34801561031757600080fd5b506102c861098f565b34801561032c57600080fd5b5061019a600160a060020a036004351661099e565b34801561034d57600080fd5b5061019a6109eb565b34801561036257600080fd5b50610165600160a060020a0360043516602435610a40565b34801561038657600080fd5b5061019a600160a060020a0360043516610a4d565b3480156103a757600080fd5b5061019a60048035600160a060020a0316906024803591604435918201910135610ac1565b3480156103d857600080fd5b50610165600160a060020a0360043516602435610ac6565b3480156103fc57600080fd5b506101b1600160a060020a0360043581169060243516610ad3565b34801561042357600080fd5b506102c8610afe565b34801561043857600080fd5b5061019a600160a060020a0360043516610b0d565b600061045a838333610b53565b50600192915050565b60008054600160a060020a0316331461047b57600080fd5b604080517f70a082310000000000000000000000000000000000000000000000000000000081523060048201529051600160a060020a038416916370a082319160248083019260209291908290030181600087803b1580156104dc57600080fd5b505af11580156104f0573d6000803e3d6000fd5b505050506040513d602081101561050657600080fd5b505160005490915061052b90600160a060020a0384811691168363ffffffff610bb516565b5050565b60035490565b600054600160a060020a0316331461054c57600080fd5b6000546002805473ffffffffffffffffffffffffffffffffffffffff1916600160a060020a03909216919091179055565b600061058b84848433610c68565b5060019392505050565b60008054600160a060020a031633146105ad57600080fd5b5060008054604080517ff2fde38b000000000000000000000000000000000000000000000000000000008152600160a060020a039283166004820152905184939284169263f2fde38b926024808201939182900301818387803b15801561061357600080fd5b505af1158015610627573d6000803e3d6000fd5b505050505050565b600254600160a060020a0316331461064657600080fd5b60025460008054604051600160a060020a0393841693909116917f8be0079c531659141344cd1fd0a4f28419497f9722a3daafe3b4186f6b6457e091a3600280546000805473ffffffffffffffffffffffffffffffffffffffff19908116600160a060020a03841617909155169055565b60008054600160a060020a031633146106cf57600080fd5b6004805473ffffffffffffffffffffffffffffffffffffffff1916600160a060020a0384811691909117808355604080517f4e71e0c800000000000000000000000000000000000000000000000000000000815290519190921692634e71e0c89280820192600092909182900301818387803b15801561074e57600080fd5b505af1158015610762573d6000803e3d6000fd5b5050604051600160a060020a03851692507fa89fb8ab3845cb6919c98b54ca0d8f398df48c64ae04ed309cd7b130539badd49150600090a2506001919050565b600061045a838333610d54565b60048054604080517f70a08231000000000000000000000000000000000000000000000000000000008152600160a060020a03858116948201949094529051600093909216916370a082319160248082019260209290919082900301818787803b15801561081c57600080fd5b505af1158015610830573d6000803e3d6000fd5b505050506040513d602081101561084657600080fd5b505192915050565b600054600160a060020a0316331461086557600080fd5b60008054604051600160a060020a03909116917ff8df31144d9c2f0f6b59d69b8b98abd5459d07f2742c4df920b25aae33c6482091a26000805473ffffffffffffffffffffffffffffffffffffffff19169055565b600154600160a060020a031681565b60008054600160a060020a031633146108e157600080fd5b604080517f70a082310000000000000000000000000000000000000000000000000000000081523060048201529051600160a060020a038516916370a082319160248083019260209291908290030181600087803b15801561094257600080fd5b505af1158015610956573d6000803e3d6000fd5b505050506040513d602081101561096c57600080fd5b5051905061098a600160a060020a038416838363ffffffff610bb516565b505050565b600054600160a060020a031681565b600054600160a060020a031633146109b557600080fd5b604051600160a060020a03821690303180156108fc02916000818181858888f1935050505015801561052b573d6000803e3d6000fd5b600054600160a060020a03163314610a0257600080fd5b60008054604051600160a060020a0390911691303180156108fc02929091818181858888f19350505050158015610a3d573d6000803e3d6000fd5b50565b600061045a338484610e46565b600054600160a060020a03163314610a6457600080fd5b6001805473ffffffffffffffffffffffffffffffffffffffff1916600160a060020a0383811691909117918290556040519116907f278c70ced5f3e0e5eeb385b5ff9cb735748ba00a625147e66065ed48fc1562cd90600090a250565b600080fd5b600061045a83833361104a565b600160a060020a03918216600090815260056020908152604080832093909416825291909152205490565b600254600160a060020a031681565b600054600160a060020a03163314610b2457600080fd5b6002805473ffffffffffffffffffffffffffffffffffffffff1916600160a060020a0392909216919091179055565b600160a060020a03808216600081815260056020908152604080832094881680845294825291829020869055815186815291517f8c5be1e5ebec7d5bd14f71427d1e84f3dd0314c0f7b2291e5b200ac8c7c3b9259281900390910190a3505050565b82600160a060020a031663a9059cbb83836040518363ffffffff167c01000000000000000000000000000000000000000000000000000000000281526004018083600160a060020a0316600160a060020a0316815260200182815260200192505050602060405180830381600087803b158015610c3157600080fd5b505af1158015610c45573d6000803e3d6000fd5b505050506040513d6020811015610c5b57600080fd5b5051151561098a57600080fd5b600160a060020a0380851660009081526005602090815260408083209385168352929052205480831115610ce6576040805160e560020a62461bcd02815260206004820181905260248201527f6e6f7420656e6f75676820616c6c6f77616e636520746f207472616e73666572604482015290519081900360640190fd5b600160a060020a03808616600090815260056020908152604080832093861683529290522054610d1c908463ffffffff6110e616565b600160a060020a03808716600090815260056020908152604080832093871683529290522055610d4d858585610e46565b5050505050565b600160a060020a03808216600090815260056020908152604080832093871683529290522054808310610dae57600160a060020a038083166000908152600560209081526040808320938816835292905290812055610de5565b610dbe818463ffffffff6110e616565b600160a060020a038084166000908152600560209081526040808320938916835292905220555b600160a060020a0382811660008181526005602090815260408083209489168084529482529182902054825190815291517f8c5be1e5ebec7d5bd14f71427d1e84f3dd0314c0f7b2291e5b200ac8c7c3b9259281900390910190a350505050565b600154604080517f1ca451a3000000000000000000000000000000000000000000000000000000008152600160a060020a03868116600483015260026024830152915186939290921691631ca451a3916044808201926020929091908290030181600087803b158015610eb857600080fd5b505af1158015610ecc573d6000803e3d6000fd5b505050506040513d6020811015610ee257600080fd5b505115610eee57600080fd5b600154604080517f1ca451a3000000000000000000000000000000000000000000000000000000008152600160a060020a03868116600483015260026024830152915186939290921691631ca451a3916044808201926020929091908290030181600087803b158015610f6057600080fd5b505af1158015610f74573d6000803e3d6000fd5b505050506040513d6020811015610f8a57600080fd5b505115610f9657600080fd5b600154604080517f1ca451a3000000000000000000000000000000000000000000000000000000008152600160a060020a03878116600483015260036024830152915187939290921691631ca451a3916044808201926020929091908290030181600087803b15801561100857600080fd5b505af115801561101c573d6000803e3d6000fd5b505050506040513d602081101561103257600080fd5b5051151561103f57600080fd5b6106278686866110f8565b600160a060020a03808216600090815260056020908152604080832093871683529290522054611080908363ffffffff61137316565b600160a060020a0382811660008181526005602090815260408083209489168084529482529182902085905581519485529051929391927f8c5be1e5ebec7d5bd14f71427d1e84f3dd0314c0f7b2291e5b200ac8c7c3b9259281900390910190a3505050565b6000828211156110f257fe5b50900390565b600160a060020a0382161515611158576040805160e560020a62461bcd02815260206004820152601860248201527f746f20616464726573732063616e6e6f74206265203078300000000000000000604482015290519081900360640190fd5b600160a060020a03831615156111b8576040805160e560020a62461bcd02815260206004820152601a60248201527f66726f6d20616464726573732063616e6e6f7420626520307830000000000000604482015290519081900360640190fd5b6111c1836107af565b811115611218576040805160e560020a62461bcd02815260206004820152601e60248201527f6e6f7420656e6f7567682062616c616e636520746f207472616e736665720000604482015290519081900360640190fd5b60048054604080517fcf8eeb7e000000000000000000000000000000000000000000000000000000008152600160a060020a0387811694820194909452602481018590529051929091169163cf8eeb7e9160448082019260009290919082900301818387803b15801561128a57600080fd5b505af115801561129e573d6000803e3d6000fd5b505060048054604080517f21e5383a000000000000000000000000000000000000000000000000000000008152600160a060020a03888116948201949094526024810187905290519290911693506321e5383a925060448082019260009290919082900301818387803b15801561131457600080fd5b505af1158015611328573d6000803e3d6000fd5b5050604080518481529051600160a060020a038087169450871692507fddf252ad1be2c89b69c2b068fc378daa952ba7f163c4a11628f55a4df523b3ef9181900360200190a3505050565b8181018281101561138057fe5b929150505600a165627a7a723058200013ea0a0186ddcac385c566b1f2719ee7ca365dbf1664d3577f6fcfd246da940029",
  "source": "pragma solidity ^0.4.24;\n\nimport \"./base-token/StandardToken.sol\";\nimport \"./registry/HasRegistry.sol\";\n\n\ncontract CompliantToken is HasRegistry, StandardToken {\n  // Addresses can also be blacklisted, preventing them from sending or receiving\n  // PAT tokens. This can be used to prevent the use of PAT by bad actors in\n  // accordance with law enforcement.\n\n  modifier onlyIfNotBlacklisted(address _addr) {\n    require(\n      !registry.hasAttribute(\n        _addr,\n        Attribute.AttributeType.IS_BLACKLISTED\n      )\n    );\n    _;\n  }\n\n  modifier onlyIfBlacklisted(address _addr) {\n    require(\n      registry.hasAttribute(\n        _addr,\n        Attribute.AttributeType.IS_BLACKLISTED\n      )\n    );\n    _;\n  }\n\n  modifier onlyIfPassedKYC_AML(address _addr) {\n    require(\n      registry.hasAttribute(\n        _addr,\n        Attribute.AttributeType.HAS_PASSED_KYC_AML\n      )\n    );\n    _;\n  }\n\n  function _mint(\n    address _to,\n    uint256 _value\n  )\n    internal\n    onlyIfPassedKYC_AML(_to)\n    onlyIfNotBlacklisted(_to)\n  {\n    super._mint(_to, _value);\n  }\n\n  // transfer and transferFrom both call this function, so check blacklist here.\n  function _transfer(\n    address _from,\n    address _to,\n    uint256 _value\n  )\n    internal\n    onlyIfNotBlacklisted(_from)\n    onlyIfNotBlacklisted(_to)\n    onlyIfPassedKYC_AML(_to)\n  {\n    super._transfer(_from, _to, _value);\n  }\n}\n",
  "sourcePath": "/home/namtq/Trainning/git/SamIO/contracts/CompliantToken.sol",
  "compiler": {
    "name": "solc",
    "version": "0.4.24+commit.e67f0147.Emscripten.clang"
  },
  "schemaVersion": "2.0.1",
  "updatedAt": "2018-10-08T06:54:58.829Z"
}