{
  "contractName": "CrowdsaleExchangeToken",
  "abi": [
    {
      "constant": true,
      "inputs": [],
      "name": "rate",
      "outputs": [
        {
          "name": "",
          "type": "uint256"
        }
      ],
      "payable": false,
      "stateMutability": "view",
      "type": "function"
    },
    {
      "constant": true,
      "inputs": [],
      "name": "weiRaised",
      "outputs": [
        {
          "name": "",
          "type": "uint256"
        }
      ],
      "payable": false,
      "stateMutability": "view",
      "type": "function"
    },
    {
      "constant": true,
      "inputs": [],
      "name": "wallet",
      "outputs": [
        {
          "name": "",
          "type": "address"
        }
      ],
      "payable": false,
      "stateMutability": "view",
      "type": "function"
    },
    {
      "constant": false,
      "inputs": [
        {
          "name": "_beneficiary",
          "type": "address"
        }
      ],
      "name": "buyTokens",
      "outputs": [],
      "payable": true,
      "stateMutability": "payable",
      "type": "function"
    },
    {
      "constant": true,
      "inputs": [],
      "name": "token",
      "outputs": [
        {
          "name": "",
          "type": "address"
        }
      ],
      "payable": false,
      "stateMutability": "view",
      "type": "function"
    },
    {
      "inputs": [
        {
          "name": "_rate",
          "type": "uint256"
        },
        {
          "name": "_wallet",
          "type": "address"
        },
        {
          "name": "_tokenExchange",
          "type": "address"
        }
      ],
      "payable": false,
      "stateMutability": "nonpayable",
      "type": "constructor"
    },
    {
      "payable": true,
      "stateMutability": "payable",
      "type": "fallback"
    },
    {
      "anonymous": false,
      "inputs": [
        {
          "indexed": true,
          "name": "purchaser",
          "type": "address"
        },
        {
          "indexed": true,
          "name": "beneficiary",
          "type": "address"
        },
        {
          "indexed": false,
          "name": "amount",
          "type": "uint256"
        }
      ],
      "name": "TokenExchange",
      "type": "event"
    },
    {
      "anonymous": false,
      "inputs": [
        {
          "indexed": true,
          "name": "purchaser",
          "type": "address"
        },
        {
          "indexed": true,
          "name": "beneficiary",
          "type": "address"
        },
        {
          "indexed": false,
          "name": "value",
          "type": "uint256"
        },
        {
          "indexed": false,
          "name": "amount",
          "type": "uint256"
        }
      ],
      "name": "TokenPurchase",
      "type": "event"
    },
    {
      "constant": false,
      "inputs": [
        {
          "name": "_beneficiary",
          "type": "address"
        },
        {
          "name": "_amount",
          "type": "uint256"
        }
      ],
      "name": "buyTokensExchange",
      "outputs": [],
      "payable": false,
      "stateMutability": "nonpayable",
      "type": "function"
    }
  ],
  "bytecode": "0x608060405234801561001057600080fd5b506040516060806105e48339810160409081528151602083015191909201518282826000831161003f57600080fd5b600160a060020a038216151561005457600080fd5b600160a060020a038116151561006957600080fd5b60029290925560018054600160a060020a03928316600160a060020a0319918216179091556000805492909316911617815583116100a657600080fd5b600160a060020a03821615156100bb57600080fd5b600160a060020a03811615156100d057600080fd5b60029290925560018054600160a060020a03928316600160a060020a031991821617909155600080549390921692169190911790556104d0806101146000396000f3006080604052600436106100775763ffffffff7c01000000000000000000000000000000000000000000000000000000006000350416632c4e722e81146100825780634042b66f146100a9578063521eb273146100be57806377faf84e146100ef578063ec8ac4d814610113578063fc0c546a14610127575b6100803361013c565b005b34801561008e57600080fd5b506100976101de565b60408051918252519081900360200190f35b3480156100b557600080fd5b506100976101e4565b3480156100ca57600080fd5b506100d36101ea565b60408051600160a060020a039092168252519081900360200190f35b3480156100fb57600080fd5b50610080600160a060020a03600435166024356101f9565b610080600160a060020a036004351661013c565b34801561013357600080fd5b506100d3610307565b3460006101498383610316565b6101528261033b565b600354909150610168908363ffffffff61035816565b6003556101758382610365565b60408051838152602081018390528151600160a060020a0386169233927f623b3804fa71d67900d064613da8f94b9617215ee90799290593e1745087ad18929081900390910190a36101c78383610337565b6101cf61036f565b6101d98383610337565b505050565b60025481565b60035481565b600154600160a060020a031681565b60006102058383610316565b60008054600154604080517f23b872dd000000000000000000000000000000000000000000000000000000008152336004820152600160a060020a03928316602482015260448101879052905191909216926323b872dd92606480820193602093909283900390910190829087803b15801561028057600080fd5b505af1158015610294573d6000803e3d6000fd5b505050506040513d60208110156102aa57600080fd5b506102b690508261033b565b90506102c28382610365565b604080518381529051600160a060020a0385169133917fa70de4d8e1c1e05a1954e9aa2c9ca25a61b5b7b6a9dd314949480cf04c45f4f29181900360200190a3505050565b600054600160a060020a031681565b600160a060020a038216151561032b57600080fd5b80151561033757600080fd5b5050565b6000610352600254836103ab90919063ffffffff16565b92915050565b8181018281101561035257fe5b61033782826103d4565b600154604051600160a060020a03909116903480156108fc02916000818181858888f193505050501580156103a8573d6000803e3d6000fd5b50565b60008215156103bc57506000610352565b508181028183828115156103cc57fe5b041461035257fe5b60005461033790600160a060020a0316838363ffffffff6103f116565b82600160a060020a031663a9059cbb83836040518363ffffffff167c01000000000000000000000000000000000000000000000000000000000281526004018083600160a060020a0316600160a060020a0316815260200182815260200192505050602060405180830381600087803b15801561046d57600080fd5b505af1158015610481573d6000803e3d6000fd5b505050506040513d602081101561049757600080fd5b505115156101d957600080fd00a165627a7a7230582068e2aebb681796e82c0c733ad589934ec502004be2567c4be10dd8aea49a3b040029",
  "source": "import \"./zeppelin/contracts/crowdsale/Crowdsale.sol\";\n\n/*\n**_beneficiary is address of purchaser\n**ERC20 _tokenExchange using for the furture if any token can exchage with PAT token\n**_amont is quantity of token send\n**if we want to check how manny token purchase send to crowdsale, we can use _token.balanceOf(this), because quantity of token is public\n*/\ncontract CrowdsaleExchangeToken is Crowdsale{\n\n  constructor(uint256 _rate, address _wallet, ERC20 _tokenExchange) Crowdsale(_rate, _wallet, _tokenExchange) public {\n    require(_rate > 0);\n    require(_wallet != address(0));\n    require(_tokenExchange != address(0));\n    rate = _rate;\n    wallet = _wallet;\n    token = _tokenExchange;\n  }\n\n  event TokenExchange(\n    address indexed purchaser,\n    address indexed beneficiary,\n    /* uint256 value, */\n    uint256 amount\n    );\n\n    function buyTokensExchange(address _beneficiary, uint256 _amount) public {  // this function use if purchaser want to buy PAT token by RAX tokens\n      _preValidatePurchase(_beneficiary, _amount);\n\n      token.transferFrom( msg.sender, wallet , _amount);\n\n      uint256 tokenAmount = _getTokenAmount(_amount); // getToekenAmount is fucntion check rates and return rate*amount\n      _processPurchase(_beneficiary, tokenAmount); // token Amount will send to _beneficiary address\n\n      emit TokenExchange (\n        msg.sender,\n        _beneficiary,\n       _amount\n        );\n      /* wallet.transfer(_amount); */\n      }\n    }\n",
  "sourcePath": "/home/namtq/Anlab/SamuraiX/contracts/CrowdSaleExchangeToken.sol",
  "compiler": {
    "name": "solc",
    "version": "0.4.24+commit.e67f0147.Emscripten.clang"
  },
  "schemaVersion": "2.0.1",
  "updatedAt": "2018-10-04T01:58:27.737Z"
}