{
  "contractName": "CrowdsaleExchangeToken",
  "abi": [
    {
      "constant": true,
      "inputs": [],
      "name": "PAT",
      "outputs": [
        {
          "name": "",
          "type": "address"
        }
      ],
      "payable": false,
      "stateMutability": "view",
      "type": "function"
    },
    {
      "constant": true,
      "inputs": [],
      "name": "hasClosed",
      "outputs": [
        {
          "name": "",
          "type": "bool"
        }
      ],
      "payable": false,
      "stateMutability": "view",
      "type": "function"
    },
    {
      "constant": true,
      "inputs": [],
      "name": "PATRaised",
      "outputs": [
        {
          "name": "",
          "type": "uint256"
        }
      ],
      "payable": false,
      "stateMutability": "view",
      "type": "function"
    },
    {
      "constant": true,
      "inputs": [],
      "name": "rate",
      "outputs": [
        {
          "name": "",
          "type": "uint256"
        }
      ],
      "payable": false,
      "stateMutability": "view",
      "type": "function"
    },
    {
      "constant": true,
      "inputs": [],
      "name": "goal",
      "outputs": [
        {
          "name": "",
          "type": "uint256"
        }
      ],
      "payable": false,
      "stateMutability": "view",
      "type": "function"
    },
    {
      "constant": true,
      "inputs": [],
      "name": "weiRaised",
      "outputs": [
        {
          "name": "",
          "type": "uint256"
        }
      ],
      "payable": false,
      "stateMutability": "view",
      "type": "function"
    },
    {
      "constant": true,
      "inputs": [],
      "name": "closingTime",
      "outputs": [
        {
          "name": "",
          "type": "uint256"
        }
      ],
      "payable": false,
      "stateMutability": "view",
      "type": "function"
    },
    {
      "constant": false,
      "inputs": [],
      "name": "finalize",
      "outputs": [],
      "payable": false,
      "stateMutability": "nonpayable",
      "type": "function"
    },
    {
      "constant": true,
      "inputs": [],
      "name": "wallet",
      "outputs": [
        {
          "name": "",
          "type": "address"
        }
      ],
      "payable": false,
      "stateMutability": "view",
      "type": "function"
    },
    {
      "constant": false,
      "inputs": [],
      "name": "renounceOwnership",
      "outputs": [],
      "payable": false,
      "stateMutability": "nonpayable",
      "type": "function"
    },
    {
      "constant": true,
      "inputs": [],
      "name": "goalReached",
      "outputs": [
        {
          "name": "",
          "type": "bool"
        }
      ],
      "payable": false,
      "stateMutability": "view",
      "type": "function"
    },
    {
      "constant": true,
      "inputs": [],
      "name": "isFinalized",
      "outputs": [
        {
          "name": "",
          "type": "bool"
        }
      ],
      "payable": false,
      "stateMutability": "view",
      "type": "function"
    },
    {
      "constant": true,
      "inputs": [],
      "name": "owner",
      "outputs": [
        {
          "name": "",
          "type": "address"
        }
      ],
      "payable": false,
      "stateMutability": "view",
      "type": "function"
    },
    {
      "constant": false,
      "inputs": [],
      "name": "claimRefund",
      "outputs": [],
      "payable": false,
      "stateMutability": "nonpayable",
      "type": "function"
    },
    {
      "constant": true,
      "inputs": [],
      "name": "openingTime",
      "outputs": [
        {
          "name": "",
          "type": "uint256"
        }
      ],
      "payable": false,
      "stateMutability": "view",
      "type": "function"
    },
    {
      "constant": true,
      "inputs": [],
      "name": "RAX",
      "outputs": [
        {
          "name": "",
          "type": "address"
        }
      ],
      "payable": false,
      "stateMutability": "view",
      "type": "function"
    },
    {
      "constant": false,
      "inputs": [
        {
          "name": "_beneficiary",
          "type": "address"
        }
      ],
      "name": "buyTokens",
      "outputs": [],
      "payable": true,
      "stateMutability": "payable",
      "type": "function"
    },
    {
      "constant": false,
      "inputs": [
        {
          "name": "_newOwner",
          "type": "address"
        }
      ],
      "name": "transferOwnership",
      "outputs": [],
      "payable": false,
      "stateMutability": "nonpayable",
      "type": "function"
    },
    {
      "constant": true,
      "inputs": [],
      "name": "token",
      "outputs": [
        {
          "name": "",
          "type": "address"
        }
      ],
      "payable": false,
      "stateMutability": "view",
      "type": "function"
    },
    {
      "inputs": [
        {
          "name": "_rate",
          "type": "uint256"
        },
        {
          "name": "_wallet",
          "type": "address"
        },
        {
          "name": "_tokenExchange",
          "type": "address"
        },
        {
          "name": "_RAXtoken",
          "type": "address"
        },
        {
          "name": "_goal",
          "type": "uint256"
        },
        {
          "name": "_openingTime",
          "type": "uint256"
        },
        {
          "name": "_closingTime",
          "type": "uint256"
        }
      ],
      "payable": false,
      "stateMutability": "nonpayable",
      "type": "constructor"
    },
    {
      "payable": true,
      "stateMutability": "payable",
      "type": "fallback"
    },
    {
      "anonymous": false,
      "inputs": [
        {
          "indexed": true,
          "name": "purchaser",
          "type": "address"
        },
        {
          "indexed": true,
          "name": "beneficiary",
          "type": "address"
        },
        {
          "indexed": false,
          "name": "amount",
          "type": "uint256"
        }
      ],
      "name": "TokenExchange",
      "type": "event"
    },
    {
      "anonymous": false,
      "inputs": [],
      "name": "Finalized",
      "type": "event"
    },
    {
      "anonymous": false,
      "inputs": [
        {
          "indexed": true,
          "name": "purchaser",
          "type": "address"
        },
        {
          "indexed": true,
          "name": "beneficiary",
          "type": "address"
        },
        {
          "indexed": false,
          "name": "value",
          "type": "uint256"
        },
        {
          "indexed": false,
          "name": "amount",
          "type": "uint256"
        }
      ],
      "name": "TokenPurchase",
      "type": "event"
    },
    {
      "anonymous": false,
      "inputs": [
        {
          "indexed": true,
          "name": "previousOwner",
          "type": "address"
        }
      ],
      "name": "OwnershipRenounced",
      "type": "event"
    },
    {
      "anonymous": false,
      "inputs": [
        {
          "indexed": true,
          "name": "previousOwner",
          "type": "address"
        },
        {
          "indexed": true,
          "name": "newOwner",
          "type": "address"
        }
      ],
      "name": "OwnershipTransferred",
      "type": "event"
    },
    {
      "constant": false,
      "inputs": [
        {
          "name": "_beneficiary",
          "type": "address"
        }
      ],
      "name": "buyTokensExchange",
      "outputs": [],
      "payable": false,
      "stateMutability": "nonpayable",
      "type": "function"
    }
  ],
  "bytecode": "0x60806040526007805460ff1916905534801561001a57600080fd5b5060405160e08061185983398101604090815281516020830151918301516060840151608085015160a086015160c09096015160008054600160a060020a0319163317815594969394929391928390839083908a908a908a90831161007e57600080fd5b600160a060020a038216151561009357600080fd5b600160a060020a03811615156100a857600080fd5b60039290925560028054600160a060020a03928316600160a060020a03199182161790915560018054929093169116179055428210156100e757600080fd5b818110156100f457600080fd5b505042600581905562093a80016006556000811161011157600080fd5b600254600160a060020a03166101256101f8565b600160a060020a03909116815260405190819003602001906000f080158015610152573d6000803e3d6000fd5b5060098054600160a060020a031916600160a060020a03929092169190911790556008556000871161018357600080fd5b600160a060020a038616151561019857600080fd5b600160a060020a03851615156101ad57600080fd5b50505060039390935560028054600160a060020a0319908116600160a060020a0394851617909155600b8054821692841692909217909155600c805490911691909216179055610208565b604051610a6680610df383390190565b610bdc806102176000396000f3006080604052600436106100f85763ffffffff60e060020a6000350416630121406481146101035780631515bc2b146101345780631f9cc6511461015d5780632c4e722e1461018457806340193883146101995780634042b66f146101ae5780634b6753bc146101c35780634bb278f3146101d8578063521eb273146101ed5780635b676a8614610202578063715018a6146102235780637d3d6522146102385780638d4e40831461024d5780638da5cb5b14610262578063b5545a3c14610277578063b7a8807c1461028c578063e69ca957146102a1578063ec8ac4d8146102b6578063f2fde38b146102ca578063fc0c546a146102eb575b61010133610300565b005b34801561010f57600080fd5b506101186103a2565b60408051600160a060020a039092168252519081900360200190f35b34801561014057600080fd5b506101496103b1565b604080519115158252519081900360200190f35b34801561016957600080fd5b506101726103b9565b60408051918252519081900360200190f35b34801561019057600080fd5b506101726103bf565b3480156101a557600080fd5b506101726103c5565b3480156101ba57600080fd5b506101726103cb565b3480156101cf57600080fd5b506101726103d1565b3480156101e457600080fd5b506101016103d7565b3480156101f957600080fd5b50610118610451565b34801561020e57600080fd5b50610101600160a060020a0360043516610460565b34801561022f57600080fd5b5061010161063a565b34801561024457600080fd5b506101496106a6565b34801561025957600080fd5b506101496106b1565b34801561026e57600080fd5b506101186106ba565b34801561028357600080fd5b506101016106c9565b34801561029857600080fd5b5061017261076b565b3480156102ad57600080fd5b50610118610771565b610101600160a060020a0360043516610300565b3480156102d657600080fd5b50610101600160a060020a0360043516610780565b3480156102f757600080fd5b506101186107a3565b34600061030d83836107b2565b610316826107db565b60045490915061032c908363ffffffff6107f816565b6004556103398382610805565b60408051838152602081018390528151600160a060020a0386169233927f623b3804fa71d67900d064613da8f94b9617215ee90799290593e1745087ad18929081900390910190a361038b8383610636565b61039361080f565b61039d8383610636565b505050565b600b54600160a060020a031681565b600654421190565b600a5481565b60035481565b60085481565b60045481565b60065481565b600054600160a060020a031633146103ee57600080fd5b60075460ff16156103fe57600080fd5b6104066103b1565b151561041157600080fd5b610419610848565b6040517f6823b073d48d6e3a7d385eeb601452d680e74bb46afe3255a7d778f3a9b1768190600090a16007805460ff19166001179055565b600254600160a060020a031681565b600c54604080517fdd62ed3e0000000000000000000000000000000000000000000000000000000081523360048201523060248201529051600092600160a060020a03169163dd62ed3e91604480830192602092919082900301818787803b1580156104cb57600080fd5b505af11580156104df573d6000803e3d6000fd5b505050506040513d60208110156104f557600080fd5b5051600d55610506826103e86107b2565b600c54600254600d54604080517f23b872dd000000000000000000000000000000000000000000000000000000008152336004820152600160a060020a03938416602482015260448101929092525191909216916323b872dd9160648083019260209291908290030181600087803b15801561058157600080fd5b505af1158015610595573d6000803e3d6000fd5b505050506040513d60208110156105ab57600080fd5b5050600d54600a546105c29163ffffffff6107f816565b600a55600d546105d1906107db565b90506105dd8282610805565b600d546040805191825251600160a060020a0384169133917fa70de4d8e1c1e05a1954e9aa2c9ca25a61b5b7b6a9dd314949480cf04c45f4f29181900360200190a3600c54610636908290600160a060020a03166109a2565b5050565b600054600160a060020a0316331461065157600080fd5b60008054604051600160a060020a03909116917ff8df31144d9c2f0f6b59d69b8b98abd5459d07f2742c4df920b25aae33c6482091a26000805473ffffffffffffffffffffffffffffffffffffffff19169055565b600854600454101590565b60075460ff1681565b600054600160a060020a031681565b60075460ff1615156106da57600080fd5b6106e26106a6565b156106ec57600080fd5b600954604080517f51cff8d90000000000000000000000000000000000000000000000000000000081523360048201529051600160a060020a03909216916351cff8d99160248082019260009290919082900301818387803b15801561075157600080fd5b505af1158015610765573d6000803e3d6000fd5b50505050565b60055481565b600c54600160a060020a031681565b600054600160a060020a0316331461079757600080fd5b6107a081610a32565b50565b600154600160a060020a031681565b60055442101580156107c657506006544211155b15156107d157600080fd5b6106368282610aaf565b60006107f260035483610ad090919063ffffffff16565b92915050565b818101828110156107f257fe5b6106368282610af9565b600254604051600160a060020a03909116903480156108fc02916000818181858888f193505050501580156107a0573d6000803e3d6000fd5b6108506106a6565b1561093057600960009054906101000a9004600160a060020a0316600160a060020a03166343d726d66040518163ffffffff1660e060020a028152600401600060405180830381600087803b1580156108a857600080fd5b505af11580156108bc573d6000803e3d6000fd5b50505050600960009054906101000a9004600160a060020a0316600160a060020a0316639af6549a6040518163ffffffff1660e060020a028152600401600060405180830381600087803b15801561091357600080fd5b505af1158015610927573d6000803e3d6000fd5b5050505061099c565b600960009054906101000a9004600160a060020a0316600160a060020a0316638c52dc416040518163ffffffff1660e060020a028152600401600060405180830381600087803b15801561098357600080fd5b505af1158015610997573d6000803e3d6000fd5b505050505b6109a05b565b600954604080517ff45346dc00000000000000000000000000000000000000000000000000000000815233600482015260248101859052600160a060020a0384811660448301529151919092169163f45346dc91606480830192600092919082900301818387803b158015610a1657600080fd5b505af1158015610a2a573d6000803e3d6000fd5b505050505050565b600160a060020a0381161515610a4757600080fd5b60008054604051600160a060020a03808516939216917f8be0079c531659141344cd1fd0a4f28419497f9722a3daafe3b4186f6b6457e091a36000805473ffffffffffffffffffffffffffffffffffffffff1916600160a060020a0392909216919091179055565b600160a060020a0382161515610ac457600080fd5b80151561063657600080fd5b6000821515610ae1575060006107f2565b50818102818382811515610af157fe5b04146107f257fe5b60015461063690600160a060020a0316838363ffffffff610b1616565b82600160a060020a031663a9059cbb83836040518363ffffffff1660e060020a0281526004018083600160a060020a0316600160a060020a0316815260200182815260200192505050602060405180830381600087803b158015610b7957600080fd5b505af1158015610b8d573d6000803e3d6000fd5b505050506040513d6020811015610ba357600080fd5b5051151561039d57600080fd00a165627a7a72305820b9be54d7a97e70fe479540f98b3d81ac1f3d71cb36f208233afc2ed37ebd133e0029608060405234801561001057600080fd5b50604051602080610a66833981016040525160008054600160a060020a03191633179055600160a060020a038116151561004957600080fd5b60048054600160a060020a031916600160a060020a03929092169190911790556003805460a060020a60ff02191690556109de806100886000396000f3006080604052600436106100cf5763ffffffff7c010000000000000000000000000000000000000000000000000000000060003504166338af3eed81146100d457806343d726d61461010557806351cff8d91461011c578063685ca1941461013d578063715018a6146101725780638c52dc41146101875780638da5cb5b1461019c5780639af6549a146101b1578063c19d93fb146101c6578063e3a9db1a146101ff578063f2fde38b14610232578063f340fa0114610253578063f45346dc14610267578063f940e38514610292575b600080fd5b3480156100e057600080fd5b506100e96102b9565b60408051600160a060020a039092168252519081900360200190f35b34801561011157600080fd5b5061011a6102c8565b005b34801561012857600080fd5b5061011a600160a060020a0360043516610363565b34801561014957600080fd5b5061015e600160a060020a0360043516610428565b604080519115158252519081900360200190f35b34801561017e57600080fd5b5061011a61044b565b34801561019357600080fd5b5061011a6104b7565b3480156101a857600080fd5b506100e9610541565b3480156101bd57600080fd5b5061011a610550565b3480156101d257600080fd5b506101db6106b4565b604051808260028111156101eb57fe5b60ff16815260200191505060405180910390f35b34801561020b57600080fd5b50610220600160a060020a03600435166106c4565b60408051918252519081900360200190f35b34801561023e57600080fd5b5061011a600160a060020a03600435166106df565b61011a600160a060020a0360043516610702565b34801561027357600080fd5b5061011a600160a060020a03600435811690602435906044351661079c565b34801561029e57600080fd5b5061011a600160a060020a03600435811690602435166107d0565b600454600160a060020a031681565b600054600160a060020a031633146102df57600080fd5b600060035460a060020a900460ff1660028111156102f957fe5b1461030357600080fd5b6003805474ff00000000000000000000000000000000000000001916740200000000000000000000000000000000000000001790556040517f1cdde67b72a90f19919ac732a437ac2f7a10fc128d28c2a6e525d89ce5cd9d3a90600090a1565b60008054600160a060020a0316331461037b57600080fd5b50600160a060020a03811660009081526001602052604090205430318111156103a057fe5b600160a060020a0382166000818152600160205260408082208290555183156108fc0291849190818181858888f193505050501580156103e4573d6000803e3d6000fd5b50604080518281529051600160a060020a038416917f7084f5476618d8e60b11ef0d7d3f06914655adb8793e28ff7f018d4c76d505d5919081900360200190a25050565b6000600160035460a060020a900460ff16600281111561044457fe5b1492915050565b600054600160a060020a0316331461046257600080fd5b60008054604051600160a060020a03909116917ff8df31144d9c2f0f6b59d69b8b98abd5459d07f2742c4df920b25aae33c6482091a26000805473ffffffffffffffffffffffffffffffffffffffff19169055565b600054600160a060020a031633146104ce57600080fd5b600060035460a060020a900460ff1660028111156104e857fe5b146104f257600080fd5b6003805474ff0000000000000000000000000000000000000000191660a060020a1790556040517f599d8e5a83cffb867d051598c4d70e805d59802d8081c1c7d6dffc5b6aca2b8990600090a1565b600054600160a060020a031681565b600260035460a060020a900460ff16600281111561056a57fe5b1461057457600080fd5b60035460048054604080517f70a08231000000000000000000000000000000000000000000000000000000008152600160a060020a03948516938101849052905192936323b872dd9385939091169183916370a08231916024808201926020929091908290030181600087803b1580156105ed57600080fd5b505af1158015610601573d6000803e3d6000fd5b505050506040513d602081101561061757600080fd5b5051604080517c010000000000000000000000000000000000000000000000000000000063ffffffff8716028152600160a060020a0394851660048201529290931660248301526044820152905160648083019260209291908290030181600087803b15801561068657600080fd5b505af115801561069a573d6000803e3d6000fd5b505050506040513d60208110156106b057600080fd5b5050565b60035460a060020a900460ff1681565b600160a060020a031660009081526002602052604090205490565b600054600160a060020a031633146106f657600080fd5b6106ff816107ed565b50565b60008054600160a060020a0316331461071a57600080fd5b50600160a060020a0381166000908152600160205260409020543490610746908263ffffffff61086a16565b600160a060020a038316600081815260016020908152604091829020939093558051848152905191927f2da466a7b24304f47e87fa2e1e5a81b9831ce54fec19055ce277ca2f39ba42c492918290030190a25050565b600060035460a060020a900460ff1660028111156107b657fe5b146107c057600080fd5b6107cb83838361087d565b505050565b6107d981610428565b15156107e457600080fd5b6106b081610363565b600160a060020a038116151561080257600080fd5b60008054604051600160a060020a03808516939216917f8be0079c531659141344cd1fd0a4f28419497f9722a3daafe3b4186f6b6457e091a36000805473ffffffffffffffffffffffffffffffffffffffff1916600160a060020a0392909216919091179055565b8181018281101561087757fe5b92915050565b600054600160a060020a0316331461089457600080fd5b604080517f23b872dd000000000000000000000000000000000000000000000000000000008152306004820152600160a060020a038581166024830152604482018590529151918316916323b872dd916064808201926020929091908290030181600087803b15801561090657600080fd5b505af115801561091a573d6000803e3d6000fd5b505050506040513d602081101561093057600080fd5b5050600160a060020a03831660009081526002602052604090205461095b908363ffffffff61086a16565b600160a060020a038416600081815260026020908152604091829020939093558051858152905191927f2da466a7b24304f47e87fa2e1e5a81b9831ce54fec19055ce277ca2f39ba42c492918290030190a25050505600a165627a7a723058206fd30cd34cfe81810f36ba3d4d54e5343870a5b49ccc213491fd0710ee90d4580029",
  "source": "import \"./zeppelin/contracts/crowdsale/Crowdsale.sol\";\nimport \"./zeppelin/contracts/crowdsale/price/IncreasingPriceCrowdsale.sol\";\nimport \"./zeppelin/contracts/crowdsale/distribution/RefundableCrowdsaleEx.sol\";\n/*\n**_beneficiary is address of purchaser\n**ERC20 _tokenExchange using for the furture if any token can exchage with PAT token\n**_amont is quantity of token send\n**if we want to check how manny token purchase send to crowdsale, we can use _token.balanceOf(this), because quantity of token is public\n*/\ncontract CrowdsaleExchangeToken is Crowdsale, RefundableCrowdsaleEx{\n  uint256 public PATRaised;\n  ERC20 public PAT;\n  ERC20 public RAX;\n  uint256 _amount ;\n  constructor(uint256 _rate, address _wallet, ERC20 _tokenExchange, ERC20 _RAXtoken ,uint256 _goal, uint256 _openingTime, uint256 _closingTime )\n  RefundableCrowdsaleEx(_goal)\n  TimedCrowdsale( _openingTime, _closingTime)\n  Crowdsale(_rate, _wallet, _tokenExchange) public {\n    require(_rate > 0);\n    require(_wallet != address(0));\n    require(_tokenExchange != address(0));\n    rate = _rate;\n    wallet = _wallet;\n    PAT = _tokenExchange;\n    RAX = _RAXtoken;\n  }\n  event TokenExchange(\n    address indexed purchaser,\n    address indexed beneficiary,\n    /* uint256 value, */\n    uint256 amount\n    );\n\n    function buyTokensExchange(address _beneficiary) public {  // this function use if purchaser want to buy PAT token by RAX tokens\n     _amount = RAX.allowance(msg.sender, address(this));\n\n     _preValidatePurchase(_beneficiary, 1000);\n\n\n      RAX.transferFrom( msg.sender, wallet , _amount);\n     PATRaised = PATRaised.add(_amount);\n\n      uint256 tokenAmount = _getTokenAmount(_amount); // getToekenAmount is fucntion check rates and return rate*amount\n       _processPurchase(_beneficiary, tokenAmount); // token Amount will send to _beneficiary address\n\n      emit TokenExchange (\n        msg.sender,\n        _beneficiary,\n        _amount\n      );\n      _forwardFundsToken(tokenAmount, RAX); \n    }\n}\n",
  "sourcePath": "/home/namtq/Anlab/SamuraiX/contracts/CrowdSaleExchangeToken.sol",
  "compiler": {
    "name": "solc",
    "version": "0.4.24+commit.e67f0147.Emscripten.clang"
  },
  "schemaVersion": "2.0.1",
  "updatedAt": "2018-10-11T03:00:30.693Z"
}