{
  "contractName": "DefaultRegistryAccessManager",
  "abi": [
    {
      "constant": false,
      "inputs": [
        {
          "name": "",
          "type": "address"
        },
        {
          "name": "_attribute",
          "type": "uint8"
        },
        {
          "name": "_operator",
          "type": "address"
        }
      ],
      "name": "confirmWrite",
      "outputs": [
        {
          "name": "",
          "type": "bool"
        }
      ],
      "payable": false,
      "stateMutability": "nonpayable",
      "type": "function"
    }
  ],
  "bytecode": "0x608060405234801561001057600080fd5b50610322806100206000396000f3006080604052600436106100405763ffffffff7c0100000000000000000000000000000000000000000000000000000000600035041663755fe57a8114610045575b600080fd5b34801561005157600080fd5b5061008073ffffffffffffffffffffffffffffffffffffffff60043581169060ff602435169060443516610094565b604080519115158252519081900360200190f35b6000803390508073ffffffffffffffffffffffffffffffffffffffff16638da5cb5b6040518163ffffffff167c0100000000000000000000000000000000000000000000000000000000028152600401602060405180830381600087803b1580156100fe57600080fd5b505af1158015610112573d6000803e3d6000fd5b505050506040513d602081101561012857600080fd5b505173ffffffffffffffffffffffffffffffffffffffff8481169116141561015357600191506102ee565b6040517f1ca451a300000000000000000000000000000000000000000000000000000000815273ffffffffffffffffffffffffffffffffffffffff8481166004830190815290831691631ca451a3918691600091906024018260ff16815260200192505050602060405180830381600087803b1580156101d257600080fd5b505af11580156101e6573d6000803e3d6000fd5b505050506040513d60208110156101fc57600080fd5b50511561021957600184600581111561021157fe5b1491506102ee565b604080517f1ca451a300000000000000000000000000000000000000000000000000000000815273ffffffffffffffffffffffffffffffffffffffff858116600483015260016024830152915191831691631ca451a3916044808201926020929091908290030181600087803b15801561029257600080fd5b505af11580156102a6573d6000803e3d6000fd5b505050506040513d60208110156102bc57600080fd5b5051156102ee5760018460058111156102d157fe5b141580156102eb575060008460058111156102e857fe5b14155b91505b5093925050505600a165627a7a723058207dcd60cf48eb014286ea54e8b6028cefb2192fd0fa7eb675e237a80b60f3faac0029",
  "source": "pragma solidity ^0.4.24;\n\nimport \"../zeppelin/contracts/math/SafeMath.sol\";\n\nimport \"./Registry.sol\";\nimport \"./RegistryAccessManager.sol\";\n\n\ncontract DefaultRegistryAccessManager is RegistryAccessManager {\n  function confirmWrite(\n    address /*_who*/,\n    Attribute.AttributeType _attribute,\n    address _operator\n  )\n    public\n    returns (bool)\n  {\n    Registry _client = Registry(msg.sender);\n    if (_operator == _client.owner()) {\n      return true;\n    } else if (_client.hasAttribute(_operator, Attribute.AttributeType.ROLE_MANAGER)) {\n      return (_attribute == Attribute.AttributeType.ROLE_OPERATOR);\n    } else if (_client.hasAttribute(_operator, Attribute.AttributeType.ROLE_OPERATOR)) {\n      return (_attribute != Attribute.AttributeType.ROLE_OPERATOR &&\n              _attribute != Attribute.AttributeType.ROLE_MANAGER);\n    }\n  }\n}\n",
  "sourcePath": "/home/namtq/Anlab/SamuraiX/contracts/registry/DefaultRegistryAccessManager.sol",
  "compiler": {
    "name": "solc",
    "version": "0.4.24+commit.e67f0147.Emscripten.clang"
  },
  "schemaVersion": "2.0.1",
  "updatedAt": "2018-10-03T01:42:24.601Z"
}