{
  "contractName": "DelegateToken",
  "abi": [
    {
      "constant": false,
      "inputs": [
        {
          "name": "_spender",
          "type": "address"
        },
        {
          "name": "_value",
          "type": "uint256"
        }
      ],
      "name": "approve",
      "outputs": [
        {
          "name": "",
          "type": "bool"
        }
      ],
      "payable": false,
      "stateMutability": "nonpayable",
      "type": "function"
    },
    {
      "constant": false,
      "inputs": [
        {
          "name": "_token",
          "type": "address"
        }
      ],
      "name": "reclaimToken",
      "outputs": [],
      "payable": false,
      "stateMutability": "nonpayable",
      "type": "function"
    },
    {
      "constant": true,
      "inputs": [],
      "name": "totalSupply",
      "outputs": [
        {
          "name": "",
          "type": "uint256"
        }
      ],
      "payable": false,
      "stateMutability": "view",
      "type": "function"
    },
    {
      "constant": false,
      "inputs": [],
      "name": "cancelOwnershipTransfer",
      "outputs": [],
      "payable": false,
      "stateMutability": "nonpayable",
      "type": "function"
    },
    {
      "constant": false,
      "inputs": [
        {
          "name": "_from",
          "type": "address"
        },
        {
          "name": "_to",
          "type": "address"
        },
        {
          "name": "_value",
          "type": "uint256"
        }
      ],
      "name": "transferFrom",
      "outputs": [
        {
          "name": "",
          "type": "bool"
        }
      ],
      "payable": false,
      "stateMutability": "nonpayable",
      "type": "function"
    },
    {
      "constant": true,
      "inputs": [],
      "name": "delegatedFrom",
      "outputs": [
        {
          "name": "",
          "type": "address"
        }
      ],
      "payable": false,
      "stateMutability": "view",
      "type": "function"
    },
    {
      "constant": false,
      "inputs": [
        {
          "name": "_contractAddr",
          "type": "address"
        }
      ],
      "name": "reclaimContract",
      "outputs": [],
      "payable": false,
      "stateMutability": "nonpayable",
      "type": "function"
    },
    {
      "constant": false,
      "inputs": [],
      "name": "claimOwnership",
      "outputs": [],
      "payable": false,
      "stateMutability": "nonpayable",
      "type": "function"
    },
    {
      "constant": false,
      "inputs": [
        {
          "name": "_sheet",
          "type": "address"
        }
      ],
      "name": "setBalanceSheet",
      "outputs": [
        {
          "name": "",
          "type": "bool"
        }
      ],
      "payable": false,
      "stateMutability": "nonpayable",
      "type": "function"
    },
    {
      "constant": false,
      "inputs": [
        {
          "name": "_spender",
          "type": "address"
        },
        {
          "name": "_subtractedValue",
          "type": "uint256"
        }
      ],
      "name": "decreaseApproval",
      "outputs": [
        {
          "name": "",
          "type": "bool"
        }
      ],
      "payable": false,
      "stateMutability": "nonpayable",
      "type": "function"
    },
    {
      "constant": true,
      "inputs": [
        {
          "name": "_owner",
          "type": "address"
        }
      ],
      "name": "balanceOf",
      "outputs": [
        {
          "name": "balance",
          "type": "uint256"
        }
      ],
      "payable": false,
      "stateMutability": "view",
      "type": "function"
    },
    {
      "constant": false,
      "inputs": [],
      "name": "renounceOwnership",
      "outputs": [],
      "payable": false,
      "stateMutability": "nonpayable",
      "type": "function"
    },
    {
      "constant": false,
      "inputs": [
        {
          "name": "_value",
          "type": "uint256"
        },
        {
          "name": "_note",
          "type": "string"
        }
      ],
      "name": "burn",
      "outputs": [
        {
          "name": "",
          "type": "bool"
        }
      ],
      "payable": false,
      "stateMutability": "nonpayable",
      "type": "function"
    },
    {
      "constant": false,
      "inputs": [
        {
          "name": "token",
          "type": "address"
        },
        {
          "name": "_to",
          "type": "address"
        }
      ],
      "name": "reclaimToken",
      "outputs": [],
      "payable": false,
      "stateMutability": "nonpayable",
      "type": "function"
    },
    {
      "constant": true,
      "inputs": [],
      "name": "owner",
      "outputs": [
        {
          "name": "",
          "type": "address"
        }
      ],
      "payable": false,
      "stateMutability": "view",
      "type": "function"
    },
    {
      "constant": false,
      "inputs": [
        {
          "name": "_to",
          "type": "address"
        }
      ],
      "name": "reclaimEther",
      "outputs": [],
      "payable": false,
      "stateMutability": "nonpayable",
      "type": "function"
    },
    {
      "constant": false,
      "inputs": [],
      "name": "reclaimEther",
      "outputs": [],
      "payable": false,
      "stateMutability": "nonpayable",
      "type": "function"
    },
    {
      "constant": false,
      "inputs": [
        {
          "name": "_to",
          "type": "address"
        },
        {
          "name": "_value",
          "type": "uint256"
        }
      ],
      "name": "transfer",
      "outputs": [
        {
          "name": "",
          "type": "bool"
        }
      ],
      "payable": false,
      "stateMutability": "nonpayable",
      "type": "function"
    },
    {
      "constant": true,
      "inputs": [
        {
          "name": "_from",
          "type": "address"
        },
        {
          "name": "_value",
          "type": "uint256"
        },
        {
          "name": "_data",
          "type": "bytes"
        }
      ],
      "name": "tokenFallback",
      "outputs": [],
      "payable": false,
      "stateMutability": "pure",
      "type": "function"
    },
    {
      "constant": false,
      "inputs": [
        {
          "name": "_spender",
          "type": "address"
        },
        {
          "name": "_addedValue",
          "type": "uint256"
        }
      ],
      "name": "increaseApproval",
      "outputs": [
        {
          "name": "",
          "type": "bool"
        }
      ],
      "payable": false,
      "stateMutability": "nonpayable",
      "type": "function"
    },
    {
      "constant": true,
      "inputs": [
        {
          "name": "_owner",
          "type": "address"
        },
        {
          "name": "_spender",
          "type": "address"
        }
      ],
      "name": "allowance",
      "outputs": [
        {
          "name": "",
          "type": "uint256"
        }
      ],
      "payable": false,
      "stateMutability": "view",
      "type": "function"
    },
    {
      "constant": true,
      "inputs": [],
      "name": "pendingOwner",
      "outputs": [
        {
          "name": "",
          "type": "address"
        }
      ],
      "payable": false,
      "stateMutability": "view",
      "type": "function"
    },
    {
      "constant": false,
      "inputs": [
        {
          "name": "newOwner",
          "type": "address"
        }
      ],
      "name": "transferOwnership",
      "outputs": [],
      "payable": false,
      "stateMutability": "nonpayable",
      "type": "function"
    },
    {
      "payable": false,
      "stateMutability": "nonpayable",
      "type": "fallback"
    },
    {
      "anonymous": false,
      "inputs": [
        {
          "indexed": false,
          "name": "addr",
          "type": "address"
        }
      ],
      "name": "DelegatedFromSet",
      "type": "event"
    },
    {
      "anonymous": false,
      "inputs": [
        {
          "indexed": true,
          "name": "burner",
          "type": "address"
        },
        {
          "indexed": false,
          "name": "value",
          "type": "uint256"
        },
        {
          "indexed": false,
          "name": "note",
          "type": "string"
        }
      ],
      "name": "Burn",
      "type": "event"
    },
    {
      "anonymous": false,
      "inputs": [
        {
          "indexed": true,
          "name": "sheet",
          "type": "address"
        }
      ],
      "name": "BalanceSheetSet",
      "type": "event"
    },
    {
      "anonymous": false,
      "inputs": [
        {
          "indexed": true,
          "name": "owner",
          "type": "address"
        },
        {
          "indexed": true,
          "name": "spender",
          "type": "address"
        },
        {
          "indexed": false,
          "name": "value",
          "type": "uint256"
        }
      ],
      "name": "Approval",
      "type": "event"
    },
    {
      "anonymous": false,
      "inputs": [
        {
          "indexed": true,
          "name": "from",
          "type": "address"
        },
        {
          "indexed": true,
          "name": "to",
          "type": "address"
        },
        {
          "indexed": false,
          "name": "value",
          "type": "uint256"
        }
      ],
      "name": "Transfer",
      "type": "event"
    },
    {
      "anonymous": false,
      "inputs": [
        {
          "indexed": true,
          "name": "previousOwner",
          "type": "address"
        }
      ],
      "name": "OwnershipRenounced",
      "type": "event"
    },
    {
      "anonymous": false,
      "inputs": [
        {
          "indexed": true,
          "name": "previousOwner",
          "type": "address"
        },
        {
          "indexed": true,
          "name": "newOwner",
          "type": "address"
        }
      ],
      "name": "OwnershipTransferred",
      "type": "event"
    },
    {
      "constant": false,
      "inputs": [
        {
          "name": "_addr",
          "type": "address"
        }
      ],
      "name": "setDelegatedFrom",
      "outputs": [],
      "payable": false,
      "stateMutability": "nonpayable",
      "type": "function"
    },
    {
      "constant": true,
      "inputs": [],
      "name": "delegateTotalSupply",
      "outputs": [
        {
          "name": "",
          "type": "uint256"
        }
      ],
      "payable": false,
      "stateMutability": "view",
      "type": "function"
    },
    {
      "constant": true,
      "inputs": [
        {
          "name": "_who",
          "type": "address"
        }
      ],
      "name": "delegateBalanceOf",
      "outputs": [
        {
          "name": "",
          "type": "uint256"
        }
      ],
      "payable": false,
      "stateMutability": "view",
      "type": "function"
    },
    {
      "constant": false,
      "inputs": [
        {
          "name": "_to",
          "type": "address"
        },
        {
          "name": "_value",
          "type": "uint256"
        },
        {
          "name": "_origSender",
          "type": "address"
        }
      ],
      "name": "delegateTransfer",
      "outputs": [
        {
          "name": "",
          "type": "bool"
        }
      ],
      "payable": false,
      "stateMutability": "nonpayable",
      "type": "function"
    },
    {
      "constant": true,
      "inputs": [
        {
          "name": "_owner",
          "type": "address"
        },
        {
          "name": "_spender",
          "type": "address"
        }
      ],
      "name": "delegateAllowance",
      "outputs": [
        {
          "name": "",
          "type": "uint256"
        }
      ],
      "payable": false,
      "stateMutability": "view",
      "type": "function"
    },
    {
      "constant": false,
      "inputs": [
        {
          "name": "_from",
          "type": "address"
        },
        {
          "name": "_to",
          "type": "address"
        },
        {
          "name": "_value",
          "type": "uint256"
        },
        {
          "name": "_origSender",
          "type": "address"
        }
      ],
      "name": "delegateTransferFrom",
      "outputs": [
        {
          "name": "",
          "type": "bool"
        }
      ],
      "payable": false,
      "stateMutability": "nonpayable",
      "type": "function"
    },
    {
      "constant": false,
      "inputs": [
        {
          "name": "_spender",
          "type": "address"
        },
        {
          "name": "_value",
          "type": "uint256"
        },
        {
          "name": "_origSender",
          "type": "address"
        }
      ],
      "name": "delegateApprove",
      "outputs": [
        {
          "name": "",
          "type": "bool"
        }
      ],
      "payable": false,
      "stateMutability": "nonpayable",
      "type": "function"
    },
    {
      "constant": false,
      "inputs": [
        {
          "name": "_spender",
          "type": "address"
        },
        {
          "name": "_addedValue",
          "type": "uint256"
        },
        {
          "name": "_origSender",
          "type": "address"
        }
      ],
      "name": "delegateIncreaseApproval",
      "outputs": [
        {
          "name": "",
          "type": "bool"
        }
      ],
      "payable": false,
      "stateMutability": "nonpayable",
      "type": "function"
    },
    {
      "constant": false,
      "inputs": [
        {
          "name": "_spender",
          "type": "address"
        },
        {
          "name": "_subtractedValue",
          "type": "uint256"
        },
        {
          "name": "_origSender",
          "type": "address"
        }
      ],
      "name": "delegateDecreaseApproval",
      "outputs": [
        {
          "name": "",
          "type": "bool"
        }
      ],
      "payable": false,
      "stateMutability": "nonpayable",
      "type": "function"
    },
    {
      "constant": false,
      "inputs": [
        {
          "name": "_origSender",
          "type": "address"
        },
        {
          "name": "_value",
          "type": "uint256"
        },
        {
          "name": "_note",
          "type": "string"
        }
      ],
      "name": "delegateBurn",
      "outputs": [],
      "payable": false,
      "stateMutability": "nonpayable",
      "type": "function"
    }
  ],
  "bytecode": "0x608060405260008054600160a060020a03191633179055341561002157600080fd5b6000600255611795806100356000396000f3006080604052600436106101a05763ffffffff7c0100000000000000000000000000000000000000000000000000000000600035041663095ea7b381146101af57806309ab8bba146101e757806317ffc3201461022057806318160ddd1461024357806323452b9c1461025857806323b872dd1461026d57806326fe995114610297578063296f4000146102c85780632aed7f3f146102f357806343a468c8146103145780634df6b45d146103355780634e71e0c81461036657806354f78dad1461037b578063554249b31461039c57806361927adb146103c757806366188463146103e85780636d85059c1461040c57806370a0823114610475578063715018a6146104965780637641e6f3146104ab57806376e71dd81461050957806388ee39cc1461051e5780638da5cb5b1461054557806393d3173a1461055a5780639a6a30a4146105855780639cd1a121146105a65780639f727c27146105d1578063a9059cbb146105e6578063c0ee0b8a1461060a578063d73dd6231461063b578063dd62ed3e1461065f578063e30c397814610686578063f2fde38b1461069b575b3480156101ac57600080fd5b50005b3480156101bb57600080fd5b506101d3600160a060020a03600435166024356106bc565b604080519115158252519081900360200190f35b3480156101f357600080fd5b5061020e600160a060020a03600435811690602435166106d2565b60408051918252519081900360200190f35b34801561022c57600080fd5b50610241600160a060020a03600435166106fd565b005b34801561024f57600080fd5b5061020e6107c9565b34801561026457600080fd5b506102416107cf565b34801561027957600080fd5b506101d3600160a060020a0360043581169060243516604435610817565b3480156102a357600080fd5b506102ac61082f565b60408051600160a060020a039092168252519081900360200190f35b3480156102d457600080fd5b506101d3600160a060020a03600435811690602435906044351661083e565b3480156102ff57600080fd5b50610241600160a060020a0360043516610863565b34801561032057600080fd5b5061020e600160a060020a03600435166108fd565b34801561034157600080fd5b506101d3600160a060020a036004358116906024358116906044359060643516610926565b34801561037257600080fd5b50610241610957565b34801561038757600080fd5b506101d3600160a060020a03600435166109df565b3480156103a857600080fd5b506101d3600160a060020a036004358116906024359060443516610ace565b3480156103d357600080fd5b50610241600160a060020a0360043516610af3565b3480156103f457600080fd5b506101d3600160a060020a0360043516602435610b6b565b34801561041857600080fd5b50604080516020600460443581810135601f8101849004840285018401909552848452610241948235600160a060020a0316946024803595369594606494920191908190840183828082843750949750610b789650505050505050565b34801561048157600080fd5b5061020e600160a060020a0360043516610b9f565b3480156104a257600080fd5b50610241610c3c565b3480156104b757600080fd5b5060408051602060046024803582810135601f81018590048502860185019096528585526101d3958335953695604494919390910191908190840183828082843750949750610ca89650505050505050565b34801561051557600080fd5b5061020e610cb5565b34801561052a57600080fd5b50610241600160a060020a0360043581169060243516610cdc565b34801561055157600080fd5b506102ac610d9d565b34801561056657600080fd5b506101d3600160a060020a036004358116906024359060443516610dac565b34801561059157600080fd5b50610241600160a060020a0360043516610dd1565b3480156105b257600080fd5b506101d3600160a060020a036004358116906024359060443516610e1e565b3480156105dd57600080fd5b50610241610e43565b3480156105f257600080fd5b506101d3600160a060020a0360043516602435610e98565b34801561061657600080fd5b5061024160048035600160a060020a0316906024803591604435918201910135610ea5565b34801561064757600080fd5b506101d3600160a060020a0360043516602435610eaa565b34801561066b57600080fd5b5061020e600160a060020a0360043581169060243516610eb7565b34801561069257600080fd5b506102ac610ee2565b3480156106a757600080fd5b50610241600160a060020a0360043516610ef1565b60006106c9838333610f37565b50600192915050565b600554600090600160a060020a031633146106ec57600080fd5b6106f68383610eb7565b9392505050565b60008054600160a060020a0316331461071557600080fd5b604080517f70a082310000000000000000000000000000000000000000000000000000000081523060048201529051600160a060020a038416916370a082319160248083019260209291908290030181600087803b15801561077657600080fd5b505af115801561078a573d6000803e3d6000fd5b505050506040513d60208110156107a057600080fd5b50516000549091506107c590600160a060020a0384811691168363ffffffff610f9916565b5050565b60025490565b600054600160a060020a031633146107e657600080fd5b6000546001805473ffffffffffffffffffffffffffffffffffffffff1916600160a060020a03909216919091179055565b60006108258484843361104c565b5060019392505050565b600554600160a060020a031681565b600554600090600160a060020a0316331461085857600080fd5b610825848484610f37565b60008054600160a060020a0316331461087b57600080fd5b5060008054604080517ff2fde38b000000000000000000000000000000000000000000000000000000008152600160a060020a039283166004820152905184939284169263f2fde38b926024808201939182900301818387803b1580156108e157600080fd5b505af11580156108f5573d6000803e3d6000fd5b505050505050565b600554600090600160a060020a0316331461091757600080fd5b61092082610b9f565b92915050565b600554600090600160a060020a0316331461094057600080fd5b61094c8585858561104c565b506001949350505050565b600154600160a060020a0316331461096e57600080fd5b60015460008054604051600160a060020a0393841693909116917f8be0079c531659141344cd1fd0a4f28419497f9722a3daafe3b4186f6b6457e091a3600180546000805473ffffffffffffffffffffffffffffffffffffffff19908116600160a060020a03841617909155169055565b60008054600160a060020a031633146109f757600080fd5b6003805473ffffffffffffffffffffffffffffffffffffffff1916600160a060020a038481169190911791829055604080517f4e71e0c800000000000000000000000000000000000000000000000000000000815290519290911691634e71e0c89160048082019260009290919082900301818387803b158015610a7a57600080fd5b505af1158015610a8e573d6000803e3d6000fd5b5050604051600160a060020a03851692507fa89fb8ab3845cb6919c98b54ca0d8f398df48c64ae04ed309cd7b130539badd49150600090a2506001919050565b600554600090600160a060020a03163314610ae857600080fd5b610825848484611138565b600054600160a060020a03163314610b0a57600080fd5b60058054600160a060020a03831673ffffffffffffffffffffffffffffffffffffffff19909116811790915560408051918252517fbfe4d7336d09daa34377f281e09a6cb0ef6312e715b86532ad83969bc22be5f39181900360200190a150565b60006106c98383336111d4565b600554600160a060020a03163314610b8f57600080fd5b610b9a8383836112c6565b505050565b600354604080517f70a08231000000000000000000000000000000000000000000000000000000008152600160a060020a038481166004830152915160009392909216916370a082319160248082019260209290919082900301818787803b158015610c0a57600080fd5b505af1158015610c1e573d6000803e3d6000fd5b505050506040513d6020811015610c3457600080fd5b505192915050565b600054600160a060020a03163314610c5357600080fd5b60008054604051600160a060020a03909116917ff8df31144d9c2f0f6b59d69b8b98abd5459d07f2742c4df920b25aae33c6482091a26000805473ffffffffffffffffffffffffffffffffffffffff19169055565b60006106c93384846112c6565b600554600090600160a060020a03163314610ccf57600080fd5b610cd76107c9565b905090565b60008054600160a060020a03163314610cf457600080fd5b604080517f70a082310000000000000000000000000000000000000000000000000000000081523060048201529051600160a060020a038516916370a082319160248083019260209291908290030181600087803b158015610d5557600080fd5b505af1158015610d69573d6000803e3d6000fd5b505050506040513d6020811015610d7f57600080fd5b50519050610b9a600160a060020a038416838363ffffffff610f9916565b600054600160a060020a031681565b600554600090600160a060020a03163314610dc657600080fd5b6108258484846111d4565b600054600160a060020a03163314610de857600080fd5b604051600160a060020a03821690303180156108fc02916000818181858888f193505050501580156107c5573d6000803e3d6000fd5b600554600090600160a060020a03163314610e3857600080fd5b610825828585611380565b600054600160a060020a03163314610e5a57600080fd5b60008054604051600160a060020a0390911691303180156108fc02929091818181858888f19350505050158015610e95573d6000803e3d6000fd5b50565b60006106c9338484611380565b600080fd5b60006106c9838333611138565b600160a060020a03918216600090815260046020908152604080832093909416825291909152205490565b600154600160a060020a031681565b600054600160a060020a03163314610f0857600080fd5b6001805473ffffffffffffffffffffffffffffffffffffffff1916600160a060020a0392909216919091179055565b600160a060020a03808216600081815260046020908152604080832094881680845294825291829020869055815186815291517f8c5be1e5ebec7d5bd14f71427d1e84f3dd0314c0f7b2291e5b200ac8c7c3b9259281900390910190a3505050565b82600160a060020a031663a9059cbb83836040518363ffffffff167c01000000000000000000000000000000000000000000000000000000000281526004018083600160a060020a0316600160a060020a0316815260200182815260200192505050602060405180830381600087803b15801561101557600080fd5b505af1158015611029573d6000803e3d6000fd5b505050506040513d602081101561103f57600080fd5b50511515610b9a57600080fd5b600160a060020a03808516600090815260046020908152604080832093851683529290522054808311156110ca576040805160e560020a62461bcd02815260206004820181905260248201527f6e6f7420656e6f75676820616c6c6f77616e636520746f207472616e73666572604482015290519081900360640190fd5b600160a060020a03808616600090815260046020908152604080832093861683529290522054611100908463ffffffff6115f316565b600160a060020a03808716600090815260046020908152604080832093871683529290522055611131858585611380565b5050505050565b600160a060020a0380821660009081526004602090815260408083209387168352929052205461116e908363ffffffff61160516565b600160a060020a0382811660008181526004602090815260408083209489168084529482529182902085905581519485529051929391927f8c5be1e5ebec7d5bd14f71427d1e84f3dd0314c0f7b2291e5b200ac8c7c3b9259281900390910190a3505050565b600160a060020a0380821660009081526004602090815260408083209387168352929052205480831061122e57600160a060020a038083166000908152600460209081526040808320938816835292905290812055611265565b61123e818463ffffffff6115f316565b600160a060020a038084166000908152600460209081526040808320938916835292905220555b600160a060020a0382811660008181526004602090815260408083209489168084529482529182902054825190815291517f8c5be1e5ebec7d5bd14f71427d1e84f3dd0314c0f7b2291e5b200ac8c7c3b9259281900390910190a350505050565b6112d08383611612565b82600160a060020a03167f47e772fda56eb54ab211642ce5421882c49fc2b7033455982af14588ae4207ff83836040518083815260200180602001828103825283818151815260200191508051906020019080838360005b83811015611340578181015183820152602001611328565b50505050905090810190601f16801561136d5780820380516001836020036101000a031916815260200191505b50935050505060405180910390a2505050565b600160a060020a03821615156113e0576040805160e560020a62461bcd02815260206004820152601860248201527f746f20616464726573732063616e6e6f74206265203078300000000000000000604482015290519081900360640190fd5b600160a060020a0383161515611440576040805160e560020a62461bcd02815260206004820152601a60248201527f66726f6d20616464726573732063616e6e6f7420626520307830000000000000604482015290519081900360640190fd5b61144983610b9f565b8111156114a0576040805160e560020a62461bcd02815260206004820152601e60248201527f6e6f7420656e6f7567682062616c616e636520746f207472616e736665720000604482015290519081900360640190fd5b600354604080517fcf8eeb7e000000000000000000000000000000000000000000000000000000008152600160a060020a038681166004830152602482018590529151919092169163cf8eeb7e91604480830192600092919082900301818387803b15801561150e57600080fd5b505af1158015611522573d6000803e3d6000fd5b5050600354604080517f21e5383a000000000000000000000000000000000000000000000000000000008152600160a060020a0387811660048301526024820187905291519190921693506321e5383a9250604480830192600092919082900301818387803b15801561159457600080fd5b505af11580156115a8573d6000803e3d6000fd5b5050604080518481529051600160a060020a038087169450871692507fddf252ad1be2c89b69c2b068fc378daa952ba7f163c4a11628f55a4df523b3ef9181900360200190a3505050565b6000828211156115ff57fe5b50900390565b8181018281101561092057fe5b600160a060020a038216151561162757600080fd5b61163082610b9f565b811115611687576040805160e560020a62461bcd02815260206004820152601a60248201527f6e6f7420656e6f7567682062616c616e636520746f206275726e000000000000604482015290519081900360640190fd5b600354604080517fcf8eeb7e000000000000000000000000000000000000000000000000000000008152600160a060020a038581166004830152602482018590529151919092169163cf8eeb7e91604480830192600092919082900301818387803b1580156116f557600080fd5b505af1158015611709573d6000803e3d6000fd5b5050600254611721925090508263ffffffff6115f316565b600255604080518281529051600091600160a060020a038516917fddf252ad1be2c89b69c2b068fc378daa952ba7f163c4a11628f55a4df523b3ef9181900360200190a350505600a165627a7a723058202eff69438ca3be772256e6f5adc14a618ad35b1433682c645139a5678b7b75f10029",
  "source": "pragma solidity ^0.4.24;\n\nimport \"../base-token/BurnableToken.sol\";\nimport \"./DelegateBurnable.sol\";\n\n\n// Treats all delegate functions exactly like the corresponding normal functions,\n// e.g. delegateTransfer is just like transfer. See DelegateBurnable.sol for more on\n// the delegation system.\ncontract DelegateToken is DelegateBurnable, BurnableToken {\n  address public delegatedFrom;\n\n  event DelegatedFromSet(address addr);\n\n  // Only calls from appointed address will be processed\n  modifier onlyMandator() {\n    require(msg.sender == delegatedFrom);\n    _;\n  }\n\n  function setDelegatedFrom(address _addr) public onlyOwner {\n    delegatedFrom = _addr;\n    emit DelegatedFromSet(_addr);\n  }\n\n  // each function delegateX is simply forwarded to function X\n  function delegateTotalSupply(\n  )\n    public\n    onlyMandator\n    view\n    returns (uint256)\n  {\n    return totalSupply();\n  }\n\n  function delegateBalanceOf(\n    address _who\n  )\n    public\n    onlyMandator\n    view\n    returns (uint256)\n  {\n    return balanceOf(_who);\n  }\n\n  function delegateTransfer(\n    address _to,\n    uint256 _value,\n    address _origSender\n  )\n    public\n    onlyMandator\n    returns (bool)\n  {\n    _transfer(_origSender, _to, _value);\n    return true;\n  }\n\n  function delegateAllowance(\n    address _owner,\n    address _spender\n  )\n    public\n    onlyMandator\n    view\n    returns (uint256)\n  {\n    return allowance(_owner, _spender);\n  }\n\n  function delegateTransferFrom(\n    address _from,\n    address _to,\n    uint256 _value,\n    address _origSender\n  )\n    public\n    onlyMandator\n    returns (bool)\n  {\n    _transferFrom(_from, _to, _value, _origSender);\n    return true;\n  }\n\n  function delegateApprove(\n    address _spender,\n    uint256 _value,\n    address _origSender\n  )\n    public\n    onlyMandator\n    returns (bool)\n  {\n    _approve(_spender, _value, _origSender);\n    return true;\n  }\n\n  function delegateIncreaseApproval(\n    address _spender,\n    uint256 _addedValue,\n    address _origSender\n  )\n    public\n    onlyMandator\n    returns (bool)\n  {\n    _increaseApproval(_spender, _addedValue, _origSender);\n    return true;\n  }\n\n  function delegateDecreaseApproval(\n    address _spender,\n    uint256 _subtractedValue,\n    address _origSender\n  )\n    public\n    onlyMandator\n    returns (bool)\n  {\n    _decreaseApproval(_spender, _subtractedValue, _origSender);\n    return true;\n  }\n\n  function delegateBurn(\n    address _origSender,\n    uint256 _value,\n    string _note\n  )\n    public\n    onlyMandator\n  {\n    _burn(_origSender, _value , _note);\n  }\n}\n",
  "sourcePath": "/home/namtq/Anlab/SamuraiX/contracts/delegate/DelegateToken.sol",
  "compiler": {
    "name": "solc",
    "version": "0.4.24+commit.e67f0147.Emscripten.clang"
  },
  "schemaVersion": "2.0.1",
  "updatedAt": "2018-10-08T03:06:05.184Z"
}