{
  "contractName": "EscrowEx",
  "abi": [
    {
      "constant": false,
      "inputs": [],
      "name": "renounceOwnership",
      "outputs": [],
      "payable": false,
      "stateMutability": "nonpayable",
      "type": "function"
    },
    {
      "constant": true,
      "inputs": [],
      "name": "owner",
      "outputs": [
        {
          "name": "",
          "type": "address"
        }
      ],
      "payable": false,
      "stateMutability": "view",
      "type": "function"
    },
    {
      "constant": true,
      "inputs": [
        {
          "name": "_payee",
          "type": "address"
        }
      ],
      "name": "depositsOf",
      "outputs": [
        {
          "name": "",
          "type": "uint256"
        }
      ],
      "payable": false,
      "stateMutability": "view",
      "type": "function"
    },
    {
      "constant": false,
      "inputs": [
        {
          "name": "_newOwner",
          "type": "address"
        }
      ],
      "name": "transferOwnership",
      "outputs": [],
      "payable": false,
      "stateMutability": "nonpayable",
      "type": "function"
    },
    {
      "anonymous": false,
      "inputs": [
        {
          "indexed": true,
          "name": "payee",
          "type": "address"
        },
        {
          "indexed": false,
          "name": "weiAmount",
          "type": "uint256"
        }
      ],
      "name": "Deposited",
      "type": "event"
    },
    {
      "anonymous": false,
      "inputs": [
        {
          "indexed": true,
          "name": "payee",
          "type": "address"
        },
        {
          "indexed": false,
          "name": "weiAmount",
          "type": "uint256"
        }
      ],
      "name": "Withdrawn",
      "type": "event"
    },
    {
      "anonymous": false,
      "inputs": [
        {
          "indexed": true,
          "name": "previousOwner",
          "type": "address"
        }
      ],
      "name": "OwnershipRenounced",
      "type": "event"
    },
    {
      "anonymous": false,
      "inputs": [
        {
          "indexed": true,
          "name": "previousOwner",
          "type": "address"
        },
        {
          "indexed": true,
          "name": "newOwner",
          "type": "address"
        }
      ],
      "name": "OwnershipTransferred",
      "type": "event"
    },
    {
      "constant": false,
      "inputs": [
        {
          "name": "_payee",
          "type": "address"
        },
        {
          "name": "_amount",
          "type": "uint256"
        }
      ],
      "name": "deposit",
      "outputs": [],
      "payable": false,
      "stateMutability": "nonpayable",
      "type": "function"
    },
    {
      "constant": false,
      "inputs": [
        {
          "name": "_payee",
          "type": "address"
        }
      ],
      "name": "deposit",
      "outputs": [],
      "payable": true,
      "stateMutability": "payable",
      "type": "function"
    },
    {
      "constant": false,
      "inputs": [
        {
          "name": "_payee",
          "type": "address"
        }
      ],
      "name": "withdraw",
      "outputs": [],
      "payable": false,
      "stateMutability": "nonpayable",
      "type": "function"
    },
    {
      "constant": false,
      "inputs": [
        {
          "name": "_payee",
          "type": "address"
        },
        {
          "name": "_RAXTokenWallet",
          "type": "address"
        }
      ],
      "name": "withdraw",
      "outputs": [],
      "payable": false,
      "stateMutability": "nonpayable",
      "type": "function"
    }
  ],
  "bytecode": "0x608060405260008054600160a060020a031916331790556106c8806100256000396000f30060806040526004361061008d5763ffffffff7c010000000000000000000000000000000000000000000000000000000060003504166347e7ef24811461009257806351cff8d9146100b8578063715018a6146100d95780638da5cb5b146100ee578063e3a9db1a1461011f578063f2fde38b14610152578063f340fa0114610173578063f940e38514610187575b600080fd5b34801561009e57600080fd5b506100b6600160a060020a03600435166024356101ae565b005b3480156100c457600080fd5b506100b6600160a060020a0360043516610244565b3480156100e557600080fd5b506100b6610309565b3480156100fa57600080fd5b50610103610375565b60408051600160a060020a039092168252519081900360200190f35b34801561012b57600080fd5b50610140600160a060020a0360043516610384565b60408051918252519081900360200190f35b34801561015e57600080fd5b506100b6600160a060020a036004351661039f565b6100b6600160a060020a03600435166103c2565b34801561019357600080fd5b506100b6600160a060020a036004358116906024351661045c565b600054600160a060020a031633146101c557600080fd5b600160a060020a0382166000908152600260205260409020546101ee908263ffffffff61060c16565b600160a060020a038316600081815260026020908152604091829020939093558051848152905191927f2da466a7b24304f47e87fa2e1e5a81b9831ce54fec19055ce277ca2f39ba42c492918290030190a25050565b60008054600160a060020a0316331461025c57600080fd5b50600160a060020a038116600090815260016020526040902054303181111561028157fe5b600160a060020a0382166000818152600160205260408082208290555183156108fc0291849190818181858888f193505050501580156102c5573d6000803e3d6000fd5b50604080518281529051600160a060020a038416917f7084f5476618d8e60b11ef0d7d3f06914655adb8793e28ff7f018d4c76d505d5919081900360200190a25050565b600054600160a060020a0316331461032057600080fd5b60008054604051600160a060020a03909116917ff8df31144d9c2f0f6b59d69b8b98abd5459d07f2742c4df920b25aae33c6482091a26000805473ffffffffffffffffffffffffffffffffffffffff19169055565b600054600160a060020a031681565b600160a060020a031660009081526001602052604090205490565b600054600160a060020a031633146103b657600080fd5b6103bf8161061f565b50565b60008054600160a060020a031633146103da57600080fd5b50600160a060020a0381166000908152600160205260409020543490610406908263ffffffff61060c16565b600160a060020a038316600081815260016020908152604091829020939093558051848152905191927f2da466a7b24304f47e87fa2e1e5a81b9831ce54fec19055ce277ca2f39ba42c492918290030190a25050565b60008054600160a060020a0316331461047457600080fd5b50600160a060020a0380831660009081526002602090815260408083205481517f70a082310000000000000000000000000000000000000000000000000000000081529486166004860181905291519094859492936370a082319360248084019492938390030190829087803b1580156104ed57600080fd5b505af1158015610501573d6000803e3d6000fd5b505050506040513d602081101561051757600080fd5b5051101561052157fe5b600160a060020a03808416600081815260026020908152604080832083905580517fa9059cbb000000000000000000000000000000000000000000000000000000008152600481019490945260248401869052519386169363a9059cbb93604480820194918390030190829087803b15801561059c57600080fd5b505af11580156105b0573d6000803e3d6000fd5b505050506040513d60208110156105c657600080fd5b5050604080518281529051600160a060020a038516917f7084f5476618d8e60b11ef0d7d3f06914655adb8793e28ff7f018d4c76d505d5919081900360200190a2505050565b8181018281101561061957fe5b92915050565b600160a060020a038116151561063457600080fd5b60008054604051600160a060020a03808516939216917f8be0079c531659141344cd1fd0a4f28419497f9722a3daafe3b4186f6b6457e091a36000805473ffffffffffffffffffffffffffffffffffffffff1916600160a060020a03929092169190911790555600a165627a7a72305820b8217531f6a88bf96e9495b067841015ba0cf92a25625ed0d6e06d0416793d5a0029",
  "source": "pragma solidity ^0.4.24;\n\nimport \"./Escrow.sol\";\nimport \"../token/ERC20/ERC20.sol\";\nimport \"../math/SafeMath.sol\";\nimport \"../token/ERC20/SafeERC20.sol\";\n\n\ncontract EscrowEx is Escrow {\n  mapping(address => uint256) private deposits;\n\n  function deposit(address _payee, uint256 _amount) public onlyOwner {\n    deposits[_payee] = deposits[_payee].add(_amount);\n\n    emit Deposited(_payee, _amount);\n  }\n\n  function withdraw(address _payee, ERC20 _RAXTokenWallet) public onlyOwner {\n    uint256 payment = deposits[_payee];\n    assert(_RAXTokenWallet.balanceOf(address(_RAXTokenWallet)) >= payment);\n\n    deposits[_payee] = 0;\n\n    _RAXTokenWallet.transfer(_payee, payment);\n\n    emit Withdrawn(_payee, payment);\n  }\n}\n",
  "sourcePath": "/home/namtq/MyWorkSpace/SamIO/contracts/zeppelin/contracts/payment/EscrowEx.sol",
  "compiler": {
    "name": "solc",
    "version": "0.4.24+commit.e67f0147.Emscripten.clang"
  },
  "schemaVersion": "2.0.1",
  "updatedAt": "2018-10-12T08:02:42.776Z"
}