{
  "contractName": "EscrowEx",
  "abi": [
    {
      "constant": false,
      "inputs": [],
      "name": "renounceOwnership",
      "outputs": [],
      "payable": false,
      "stateMutability": "nonpayable",
      "type": "function"
    },
    {
      "constant": true,
      "inputs": [],
      "name": "owner",
      "outputs": [
        {
          "name": "",
          "type": "address"
        }
      ],
      "payable": false,
      "stateMutability": "view",
      "type": "function"
    },
    {
      "constant": false,
      "inputs": [
        {
          "name": "_newOwner",
          "type": "address"
        }
      ],
      "name": "transferOwnership",
      "outputs": [],
      "payable": false,
      "stateMutability": "nonpayable",
      "type": "function"
    },
    {
      "anonymous": false,
      "inputs": [
        {
          "indexed": true,
          "name": "payee",
          "type": "address"
        },
        {
          "indexed": false,
          "name": "tokenAmount",
          "type": "uint256"
        }
      ],
      "name": "Deposited",
      "type": "event"
    },
    {
      "anonymous": false,
      "inputs": [
        {
          "indexed": true,
          "name": "payee",
          "type": "address"
        },
        {
          "indexed": false,
          "name": "tokenAmount",
          "type": "uint256"
        }
      ],
      "name": "Withdrawn",
      "type": "event"
    },
    {
      "anonymous": false,
      "inputs": [
        {
          "indexed": true,
          "name": "previousOwner",
          "type": "address"
        }
      ],
      "name": "OwnershipRenounced",
      "type": "event"
    },
    {
      "anonymous": false,
      "inputs": [
        {
          "indexed": true,
          "name": "previousOwner",
          "type": "address"
        },
        {
          "indexed": true,
          "name": "newOwner",
          "type": "address"
        }
      ],
      "name": "OwnershipTransferred",
      "type": "event"
    },
    {
      "constant": true,
      "inputs": [
        {
          "name": "_payee",
          "type": "address"
        }
      ],
      "name": "depositsOf",
      "outputs": [
        {
          "name": "",
          "type": "uint256"
        }
      ],
      "payable": false,
      "stateMutability": "view",
      "type": "function"
    },
    {
      "constant": false,
      "inputs": [
        {
          "name": "_payee",
          "type": "address"
        }
      ],
      "name": "deposit",
      "outputs": [],
      "payable": true,
      "stateMutability": "payable",
      "type": "function"
    },
    {
      "constant": false,
      "inputs": [
        {
          "name": "_payee",
          "type": "address"
        },
        {
          "name": "amount",
          "type": "uint256"
        },
        {
          "name": "_token",
          "type": "address"
        }
      ],
      "name": "deposit",
      "outputs": [],
      "payable": false,
      "stateMutability": "nonpayable",
      "type": "function"
    },
    {
      "constant": false,
      "inputs": [
        {
          "name": "_payee",
          "type": "address"
        }
      ],
      "name": "withdraw",
      "outputs": [],
      "payable": false,
      "stateMutability": "nonpayable",
      "type": "function"
    },
    {
      "constant": false,
      "inputs": [
        {
          "name": "token",
          "type": "address"
        },
        {
          "name": "_payee",
          "type": "address"
        }
      ],
      "name": "withdraw",
      "outputs": [],
      "payable": false,
      "stateMutability": "nonpayable",
      "type": "function"
    }
  ],
  "bytecode": "0x608060405260008054600160a060020a0319163317905561077b806100256000396000f30060806040526004361061008d5763ffffffff7c010000000000000000000000000000000000000000000000000000000060003504166351cff8d98114610092578063715018a6146100b55780638da5cb5b146100ca578063e3a9db1a146100fb578063f2fde38b1461012e578063f340fa011461014f578063f45346dc14610163578063f940e3851461018e575b600080fd5b34801561009e57600080fd5b506100b3600160a060020a03600435166101b5565b005b3480156100c157600080fd5b506100b361027a565b3480156100d657600080fd5b506100df6102e6565b60408051600160a060020a039092168252519081900360200190f35b34801561010757600080fd5b5061011c600160a060020a03600435166102f5565b60408051918252519081900360200190f35b34801561013a57600080fd5b506100b3600160a060020a0360043516610310565b6100b3600160a060020a0360043516610333565b34801561016f57600080fd5b506100b3600160a060020a0360043581169060243590604435166103cd565b34801561019a57600080fd5b506100b3600160a060020a0360043581169060243516610502565b60008054600160a060020a031633146101cd57600080fd5b50600160a060020a03811660009081526001602052604090205430318111156101f257fe5b600160a060020a0382166000818152600160205260408082208290555183156108fc0291849190818181858888f19350505050158015610236573d6000803e3d6000fd5b50604080518281529051600160a060020a038416917f7084f5476618d8e60b11ef0d7d3f06914655adb8793e28ff7f018d4c76d505d5919081900360200190a25050565b600054600160a060020a0316331461029157600080fd5b60008054604051600160a060020a03909116917ff8df31144d9c2f0f6b59d69b8b98abd5459d07f2742c4df920b25aae33c6482091a26000805473ffffffffffffffffffffffffffffffffffffffff19169055565b600054600160a060020a031681565b600160a060020a031660009081526002602052604090205490565b600054600160a060020a0316331461032757600080fd5b610330816106bf565b50565b60008054600160a060020a0316331461034b57600080fd5b50600160a060020a0381166000908152600160205260409020543490610377908263ffffffff61073c16565b600160a060020a038316600081815260016020908152604091829020939093558051848152905191927f2da466a7b24304f47e87fa2e1e5a81b9831ce54fec19055ce277ca2f39ba42c492918290030190a25050565b600054600160a060020a031633146103e457600080fd5b604080517f23b872dd000000000000000000000000000000000000000000000000000000008152306004820152600160a060020a038581166024830152604482018590529151918316916323b872dd916064808201926020929091908290030181600087803b15801561045657600080fd5b505af115801561046a573d6000803e3d6000fd5b505050506040513d602081101561048057600080fd5b5050600160a060020a0383166000908152600260205260409020546104ab908363ffffffff61073c16565b600160a060020a038416600081815260026020908152604091829020939093558051858152905191927f2da466a7b24304f47e87fa2e1e5a81b9831ce54fec19055ce277ca2f39ba42c492918290030190a2505050565b60008054600160a060020a0316331461051a57600080fd5b50600160a060020a0380821660009081526002602090815260408083205481517f70a082310000000000000000000000000000000000000000000000000000000081529487166004860181905291519094859492936370a082319360248084019492938390030190829087803b15801561059357600080fd5b505af11580156105a7573d6000803e3d6000fd5b505050506040513d60208110156105bd57600080fd5b505110156105c757fe5b600160a060020a0382811660008181526002602090815260408083205481517fa9059cbb00000000000000000000000000000000000000000000000000000000815260048101959095526024850152519387169363a9059cbb93604480820194918390030190829087803b15801561063e57600080fd5b505af1158015610652573d6000803e3d6000fd5b505050506040513d602081101561066857600080fd5b5050600160a060020a038216600081815260026020908152604080832092909255815184815291517f7084f5476618d8e60b11ef0d7d3f06914655adb8793e28ff7f018d4c76d505d59281900390910190a2505050565b600160a060020a03811615156106d457600080fd5b60008054604051600160a060020a03808516939216917f8be0079c531659141344cd1fd0a4f28419497f9722a3daafe3b4186f6b6457e091a36000805473ffffffffffffffffffffffffffffffffffffffff1916600160a060020a0392909216919091179055565b8181018281101561074957fe5b929150505600a165627a7a72305820a43cbe0dbdb1e28e3ab9f0b6b5d3f1f788848673f69df96675b2fbe8173a5aff0029",
  "source": "pragma solidity ^0.4.23;\n\nimport \"../math/SafeMath.sol\";\nimport \"../ownership/Ownable.sol\";\nimport \"../token/ERC20/SafeERC20.sol\";\nimport \"../token/ERC20/ERC20.sol\";\nimport \"./Escrow.sol\";\n\n\n\n/**\n * @title Escrow\n * @dev Base escrow contract, holds funds destinated to a payee until they\n * withdraw them. The contract that uses the escrow as its payment method\n * should be its owner, and provide public methods redirecting to the escrow's\n * deposit and withdraw.\n */\ncontract EscrowEx is Ownable , Escrow {\n  using SafeMath for uint256;\n  using SafeERC20 for ERC20;\n\n  event Deposited(address indexed payee, uint256 tokenAmount);\n  event Withdrawn(address indexed payee, uint256 tokenAmount);\n\n  mapping(address => uint256) private depositsEx;\n\n  function depositsOf(address _payee) public view returns (uint256) {\n    return depositsEx[_payee];\n  }\n\n\n\n  /**\n  * @dev Stores the sent amount as credit to be withdrawn.\n  * @param _payee The destination address of the funds.\n  */\n  function deposit(address _payee , uint256 amount, ERC20 _token) public onlyOwner {\n      // transfer token\n    _token.transferFrom(address(this), _payee, amount); // transferfrom ... call by rax token\n    depositsEx[_payee] = depositsEx[_payee].add(amount);\n\n    emit Deposited(_payee, amount);\n  }\n\n  /**\n  * @dev Withdraw accumulated balance for a payee.\n  * @param _payee The address whose funds will be withdrawn and transferred to.\n  */\n  function withdraw(ERC20 token, address _payee) public onlyOwner {\n    uint256 payment = depositsEx[_payee];\n    assert(token.balanceOf(address(token)) >= payment);\n\n    token.transfer(_payee, depositsEx[_payee]); // rax token\n    depositsEx[_payee] = 0;\n\n    emit Withdrawn(_payee, payment);\n  }\n}\n",
  "sourcePath": "/home/namtq/Anlab/SamuraiX/contracts/zeppelin/contracts/payment/EscrowEx.sol",
  "compiler": {
    "name": "solc",
    "version": "0.4.24+commit.e67f0147.Emscripten.clang"
  },
  "schemaVersion": "2.0.1",
  "updatedAt": "2018-10-11T03:00:30.707Z"
}