{
  "contractName": "EscrowEx",
  "abi": [
    {
      "constant": false,
      "inputs": [],
      "name": "renounceOwnership",
      "outputs": [],
      "payable": false,
      "stateMutability": "nonpayable",
      "type": "function"
    },
    {
      "constant": true,
      "inputs": [],
      "name": "owner",
      "outputs": [
        {
          "name": "",
          "type": "address"
        }
      ],
      "payable": false,
      "stateMutability": "view",
      "type": "function"
    },
    {
      "constant": false,
      "inputs": [
        {
          "name": "_newOwner",
          "type": "address"
        }
      ],
      "name": "transferOwnership",
      "outputs": [],
      "payable": false,
      "stateMutability": "nonpayable",
      "type": "function"
    },
    {
      "anonymous": false,
      "inputs": [
        {
          "indexed": true,
          "name": "payee",
          "type": "address"
        },
        {
          "indexed": false,
          "name": "weiAmount",
          "type": "uint256"
        }
      ],
      "name": "Deposited",
      "type": "event"
    },
    {
      "anonymous": false,
      "inputs": [
        {
          "indexed": true,
          "name": "payee",
          "type": "address"
        },
        {
          "indexed": false,
          "name": "weiAmount",
          "type": "uint256"
        }
      ],
      "name": "Withdrawn",
      "type": "event"
    },
    {
      "anonymous": false,
      "inputs": [
        {
          "indexed": true,
          "name": "previousOwner",
          "type": "address"
        }
      ],
      "name": "OwnershipRenounced",
      "type": "event"
    },
    {
      "anonymous": false,
      "inputs": [
        {
          "indexed": true,
          "name": "previousOwner",
          "type": "address"
        },
        {
          "indexed": true,
          "name": "newOwner",
          "type": "address"
        }
      ],
      "name": "OwnershipTransferred",
      "type": "event"
    },
    {
      "constant": true,
      "inputs": [
        {
          "name": "_payee",
          "type": "address"
        }
      ],
      "name": "depositsExOf",
      "outputs": [
        {
          "name": "",
          "type": "uint256"
        }
      ],
      "payable": false,
      "stateMutability": "view",
      "type": "function"
    },
    {
      "constant": false,
      "inputs": [
        {
          "name": "_payee",
          "type": "address"
        },
        {
          "name": "amount",
          "type": "uint256"
        }
      ],
      "name": "depositEx",
      "outputs": [],
      "payable": false,
      "stateMutability": "nonpayable",
      "type": "function"
    },
    {
      "constant": false,
      "inputs": [
        {
          "name": "token",
          "type": "address"
        },
        {
          "name": "_payee",
          "type": "address"
        }
      ],
      "name": "withdraw",
      "outputs": [],
      "payable": false,
      "stateMutability": "nonpayable",
      "type": "function"
    }
  ],
  "bytecode": "0x608060405260008054600160a060020a031916331790556104a3806100256000396000f3006080604052600436106100775763ffffffff7c0100000000000000000000000000000000000000000000000000000000600035041663715018a6811461007c5780637bfd294014610093578063850f14fe146100b75780638da5cb5b146100ea578063f2fde38b1461011b578063f940e3851461013c575b600080fd5b34801561008857600080fd5b50610091610163565b005b34801561009f57600080fd5b50610091600160a060020a03600435166024356101cf565b3480156100c357600080fd5b506100d8600160a060020a0360043516610265565b60408051918252519081900360200190f35b3480156100f657600080fd5b506100ff610280565b60408051600160a060020a039092168252519081900360200190f35b34801561012757600080fd5b50610091600160a060020a036004351661028f565b34801561014857600080fd5b50610091600160a060020a03600435811690602435166102b2565b600054600160a060020a0316331461017a57600080fd5b60008054604051600160a060020a03909116917ff8df31144d9c2f0f6b59d69b8b98abd5459d07f2742c4df920b25aae33c6482091a26000805473ffffffffffffffffffffffffffffffffffffffff19169055565b600054600160a060020a031633146101e657600080fd5b600160a060020a03821660009081526001602052604090205461020f908263ffffffff6103e716565b600160a060020a038316600081815260016020908152604091829020939093558051848152905191927f2da466a7b24304f47e87fa2e1e5a81b9831ce54fec19055ce277ca2f39ba42c492918290030190a25050565b600160a060020a031660009081526001602052604090205490565b600054600160a060020a031681565b600054600160a060020a031633146102a657600080fd5b6102af816103fa565b50565b60008054600160a060020a031633146102ca57600080fd5b50600160a060020a03811660009081526001602052604090205430318111156102ef57fe5b600160a060020a0382811660008181526001602090815260408083205481517fa9059cbb00000000000000000000000000000000000000000000000000000000815260048101959095526024850152519387169363a9059cbb93604480820194918390030190829087803b15801561036657600080fd5b505af115801561037a573d6000803e3d6000fd5b505050506040513d602081101561039057600080fd5b5050600160a060020a038216600081815260016020908152604080832092909255815184815291517f7084f5476618d8e60b11ef0d7d3f06914655adb8793e28ff7f018d4c76d505d59281900390910190a2505050565b818101828110156103f457fe5b92915050565b600160a060020a038116151561040f57600080fd5b60008054604051600160a060020a03808516939216917f8be0079c531659141344cd1fd0a4f28419497f9722a3daafe3b4186f6b6457e091a36000805473ffffffffffffffffffffffffffffffffffffffff1916600160a060020a03929092169190911790555600a165627a7a72305820a07bb8f41fd66ae989fa91744e3904f4b954dc76a0fa29e49bf88919dcfe57e30029",
  "source": "pragma solidity ^0.4.23;\n\nimport \"../math/SafeMath.sol\";\nimport \"../ownership/Ownable.sol\";\nimport \"../token/ERC20/SafeERC20.sol\";\nimport \"../token/ERC20/ERC20.sol\";\n\n\n\n/**\n * @title Escrow\n * @dev Base escrow contract, holds funds destinated to a payee until they\n * withdraw them. The contract that uses the escrow as its payment method\n * should be its owner, and provide public methods redirecting to the escrow's\n * deposit and withdraw.\n */\ncontract EscrowEx is Ownable {\n  using SafeMath for uint256;\n  using SafeERC20 for ERC20;\n\n  event Deposited(address indexed payee, uint256 weiAmount);\n  event Withdrawn(address indexed payee, uint256 weiAmount);\n\n  mapping(address => uint256) private depositsEx;\n\n  function depositsExOf(address _payee) public view returns (uint256) {\n    return depositsEx[_payee];\n  }\n\n  /**\n  * @dev Stores the sent amount as credit to be withdrawn.\n  * @param _payee The destination address of the funds.\n  */\n  function depositEx(address _payee , uint256 amount) public onlyOwner {\n    depositsEx[_payee] = depositsEx[_payee].add(amount);\n\n    emit Deposited(_payee, amount);\n  }\n\n  /**\n  * @dev Withdraw accumulated balance for a payee.\n  * @param _payee The address whose funds will be withdrawn and transferred to.\n  */\n  function withdraw(ERC20 token, address _payee) public onlyOwner {\n    uint256 payment = depositsEx[_payee];\n    assert(address(this).balance >= payment);\n\n    token.transfer(_payee, depositsEx[_payee]);\n\n    depositsEx[_payee] = 0;\n\n    emit Withdrawn(_payee, payment);\n  }\n}\n",
  "sourcePath": "/home/namtq/Trainning/git/SamIO/contracts/zeppelin/contracts/payment/EscrowEx.sol",
  "compiler": {
    "name": "solc",
    "version": "0.4.24+commit.e67f0147.Emscripten.clang"
  },
  "schemaVersion": "2.0.1",
  "updatedAt": "2018-10-08T06:54:58.824Z"
}