{
  "contractName": "Escrow",
  "abi": [
    {
      "constant": false,
      "inputs": [],
      "name": "renounceOwnership",
      "outputs": [],
      "payable": false,
      "stateMutability": "nonpayable",
      "type": "function"
    },
    {
      "constant": true,
      "inputs": [],
      "name": "owner",
      "outputs": [
        {
          "name": "",
          "type": "address"
        }
      ],
      "payable": false,
      "stateMutability": "view",
      "type": "function"
    },
    {
      "constant": false,
      "inputs": [
        {
          "name": "_newOwner",
          "type": "address"
        }
      ],
      "name": "transferOwnership",
      "outputs": [],
      "payable": false,
      "stateMutability": "nonpayable",
      "type": "function"
    },
    {
      "anonymous": false,
      "inputs": [
        {
          "indexed": true,
          "name": "payee",
          "type": "address"
        },
        {
          "indexed": false,
          "name": "weiAmount",
          "type": "uint256"
        }
      ],
      "name": "Deposited",
      "type": "event"
    },
    {
      "anonymous": false,
      "inputs": [
        {
          "indexed": true,
          "name": "payee",
          "type": "address"
        },
        {
          "indexed": false,
          "name": "weiAmount",
          "type": "uint256"
        }
      ],
      "name": "Withdrawn",
      "type": "event"
    },
    {
      "anonymous": false,
      "inputs": [
        {
          "indexed": true,
          "name": "previousOwner",
          "type": "address"
        }
      ],
      "name": "OwnershipRenounced",
      "type": "event"
    },
    {
      "anonymous": false,
      "inputs": [
        {
          "indexed": true,
          "name": "previousOwner",
          "type": "address"
        },
        {
          "indexed": true,
          "name": "newOwner",
          "type": "address"
        }
      ],
      "name": "OwnershipTransferred",
      "type": "event"
    },
    {
      "constant": true,
      "inputs": [
        {
          "name": "_payee",
          "type": "address"
        }
      ],
      "name": "depositsOf",
      "outputs": [
        {
          "name": "",
          "type": "uint256"
        }
      ],
      "payable": false,
      "stateMutability": "view",
      "type": "function"
    },
    {
      "constant": false,
      "inputs": [
        {
          "name": "_payee",
          "type": "address"
        }
      ],
      "name": "deposit",
      "outputs": [],
      "payable": true,
      "stateMutability": "payable",
      "type": "function"
    },
    {
      "constant": false,
      "inputs": [
        {
          "name": "_payee",
          "type": "address"
        }
      ],
      "name": "withdraw",
      "outputs": [],
      "payable": false,
      "stateMutability": "nonpayable",
      "type": "function"
    }
  ],
  "bytecode": "0x608060405260008054600160a060020a03191633179055610421806100256000396000f3006080604052600436106100775763ffffffff7c010000000000000000000000000000000000000000000000000000000060003504166351cff8d9811461007c578063715018a61461009f5780638da5cb5b146100b4578063e3a9db1a146100e5578063f2fde38b14610118578063f340fa0114610139575b600080fd5b34801561008857600080fd5b5061009d600160a060020a036004351661014d565b005b3480156100ab57600080fd5b5061009d610212565b3480156100c057600080fd5b506100c961027e565b60408051600160a060020a039092168252519081900360200190f35b3480156100f157600080fd5b50610106600160a060020a036004351661028d565b60408051918252519081900360200190f35b34801561012457600080fd5b5061009d600160a060020a03600435166102a8565b61009d600160a060020a03600435166102cb565b60008054600160a060020a0316331461016557600080fd5b50600160a060020a038116600090815260016020526040902054303181111561018a57fe5b600160a060020a0382166000818152600160205260408082208290555183156108fc0291849190818181858888f193505050501580156101ce573d6000803e3d6000fd5b50604080518281529051600160a060020a038416917f7084f5476618d8e60b11ef0d7d3f06914655adb8793e28ff7f018d4c76d505d5919081900360200190a25050565b600054600160a060020a0316331461022957600080fd5b60008054604051600160a060020a03909116917ff8df31144d9c2f0f6b59d69b8b98abd5459d07f2742c4df920b25aae33c6482091a26000805473ffffffffffffffffffffffffffffffffffffffff19169055565b600054600160a060020a031681565b600160a060020a031660009081526001602052604090205490565b600054600160a060020a031633146102bf57600080fd5b6102c881610365565b50565b60008054600160a060020a031633146102e357600080fd5b50600160a060020a038116600090815260016020526040902054349061030f908263ffffffff6103e216565b600160a060020a038316600081815260016020908152604091829020939093558051848152905191927f2da466a7b24304f47e87fa2e1e5a81b9831ce54fec19055ce277ca2f39ba42c492918290030190a25050565b600160a060020a038116151561037a57600080fd5b60008054604051600160a060020a03808516939216917f8be0079c531659141344cd1fd0a4f28419497f9722a3daafe3b4186f6b6457e091a36000805473ffffffffffffffffffffffffffffffffffffffff1916600160a060020a0392909216919091179055565b818101828110156103ef57fe5b929150505600a165627a7a72305820ff6bb560411abdbd41a7caf4baa675d312e9236a64233d54672a982e23b2a3820029",
  "source": "pragma solidity ^0.4.23;\n\nimport \"../math/SafeMath.sol\";\nimport \"../ownership/Ownable.sol\";\n\n\n/**\n * @title Escrow\n * @dev Base escrow contract, holds funds destinated to a payee until they\n * withdraw them. The contract that uses the escrow as its payment method\n * should be its owner, and provide public methods redirecting to the escrow's\n * deposit and withdraw.\n */\ncontract Escrow is Ownable {\n  using SafeMath for uint256;\n\n  event Deposited(address indexed payee, uint256 weiAmount);\n  event Withdrawn(address indexed payee, uint256 weiAmount);\n\n  mapping(address => uint256) private deposits;\n\n  function depositsOf(address _payee) public view returns (uint256) {\n    return deposits[_payee];\n  }\n\n  /**\n  * @dev Stores the sent amount as credit to be withdrawn.\n  * @param _payee The destination address of the funds.\n  */\n  function deposit(address _payee) public onlyOwner payable {\n    uint256 amount = msg.value;\n    deposits[_payee] = deposits[_payee].add(amount);\n\n    emit Deposited(_payee, amount);\n  }\n\n  /**\n  * @dev Withdraw accumulated balance for a payee.\n  * @param _payee The address whose funds will be withdrawn and transferred to.\n  */\n  function withdraw(address _payee) public onlyOwner {\n    uint256 payment = deposits[_payee];\n    assert(address(this).balance >= payment);\n\n    deposits[_payee] = 0;\n\n    _payee.transfer(payment);\n\n    emit Withdrawn(_payee, payment);\n  }\n}\n",
  "sourcePath": "/home/namtq/Anlab/SamuraiX/contracts/zeppelin/contracts/payment/Escrow.sol",
  "compiler": {
    "name": "solc",
    "version": "0.4.24+commit.e67f0147.Emscripten.clang"
  },
  "schemaVersion": "2.0.1",
  "updatedAt": "2018-10-03T01:42:24.622Z"
}