{
  "contractName": "HasRegistry",
  "abi": [
    {
      "constant": false,
      "inputs": [],
      "name": "renounceOwnership",
      "outputs": [],
      "payable": false,
      "stateMutability": "nonpayable",
      "type": "function"
    },
    {
      "constant": true,
      "inputs": [],
      "name": "registry",
      "outputs": [
        {
          "name": "",
          "type": "address"
        }
      ],
      "payable": false,
      "stateMutability": "view",
      "type": "function"
    },
    {
      "constant": true,
      "inputs": [],
      "name": "owner",
      "outputs": [
        {
          "name": "",
          "type": "address"
        }
      ],
      "payable": false,
      "stateMutability": "view",
      "type": "function"
    },
    {
      "constant": false,
      "inputs": [
        {
          "name": "_newOwner",
          "type": "address"
        }
      ],
      "name": "transferOwnership",
      "outputs": [],
      "payable": false,
      "stateMutability": "nonpayable",
      "type": "function"
    },
    {
      "anonymous": false,
      "inputs": [
        {
          "indexed": true,
          "name": "registry",
          "type": "address"
        }
      ],
      "name": "SetRegistry",
      "type": "event"
    },
    {
      "anonymous": false,
      "inputs": [
        {
          "indexed": true,
          "name": "previousOwner",
          "type": "address"
        }
      ],
      "name": "OwnershipRenounced",
      "type": "event"
    },
    {
      "anonymous": false,
      "inputs": [
        {
          "indexed": true,
          "name": "previousOwner",
          "type": "address"
        },
        {
          "indexed": true,
          "name": "newOwner",
          "type": "address"
        }
      ],
      "name": "OwnershipTransferred",
      "type": "event"
    },
    {
      "constant": false,
      "inputs": [
        {
          "name": "_registry",
          "type": "address"
        }
      ],
      "name": "setRegistry",
      "outputs": [],
      "payable": false,
      "stateMutability": "nonpayable",
      "type": "function"
    }
  ],
  "bytecode": "0x608060405260008054600160a060020a031916331790556102da806100256000396000f30060806040526004361061006c5763ffffffff7c0100000000000000000000000000000000000000000000000000000000600035041663715018a681146100715780637b103999146100885780638da5cb5b146100b9578063a91ee0dc146100ce578063f2fde38b146100ef575b600080fd5b34801561007d57600080fd5b50610086610110565b005b34801561009457600080fd5b5061009d61017c565b60408051600160a060020a039092168252519081900360200190f35b3480156100c557600080fd5b5061009d61018b565b3480156100da57600080fd5b50610086600160a060020a036004351661019a565b3480156100fb57600080fd5b50610086600160a060020a036004351661020e565b600054600160a060020a0316331461012757600080fd5b60008054604051600160a060020a03909116917ff8df31144d9c2f0f6b59d69b8b98abd5459d07f2742c4df920b25aae33c6482091a26000805473ffffffffffffffffffffffffffffffffffffffff19169055565b600154600160a060020a031681565b600054600160a060020a031681565b600054600160a060020a031633146101b157600080fd5b6001805473ffffffffffffffffffffffffffffffffffffffff1916600160a060020a0383811691909117918290556040519116907f278c70ced5f3e0e5eeb385b5ff9cb735748ba00a625147e66065ed48fc1562cd90600090a250565b600054600160a060020a0316331461022557600080fd5b61022e81610231565b50565b600160a060020a038116151561024657600080fd5b60008054604051600160a060020a03808516939216917f8be0079c531659141344cd1fd0a4f28419497f9722a3daafe3b4186f6b6457e091a36000805473ffffffffffffffffffffffffffffffffffffffff1916600160a060020a03929092169190911790555600a165627a7a72305820038cf4e31340ffb25b5121f6d94c9f37c28fc38f126f3ed99ee32f2089cbdbd80029",
  "source": "pragma solidity ^0.4.24;\n\nimport \"./Registry.sol\";\n\n\n// Superclass for contracts that have a registry that can be set by their owners\ncontract HasRegistry is Ownable {\n  Registry public registry;\n\n  event SetRegistry(address indexed registry);\n\n  function setRegistry(Registry _registry) public onlyOwner {\n    registry = _registry;\n    emit SetRegistry(registry);\n  }\n}\n",
  "sourcePath": "/home/namtq/Trainning/git/SamIO/contracts/registry/HasRegistry.sol",
  "compiler": {
    "name": "solc",
    "version": "0.4.24+commit.e67f0147.Emscripten.clang"
  },
  "schemaVersion": "2.0.1",
  "updatedAt": "2018-10-08T06:54:58.857Z"
}