{
  "contractName": "Manageable",
  "abi": [
    {
      "constant": false,
      "inputs": [],
      "name": "renounceOwnership",
      "outputs": [],
      "payable": false,
      "stateMutability": "nonpayable",
      "type": "function"
    },
    {
      "constant": true,
      "inputs": [],
      "name": "registry",
      "outputs": [
        {
          "name": "",
          "type": "address"
        }
      ],
      "payable": false,
      "stateMutability": "view",
      "type": "function"
    },
    {
      "constant": true,
      "inputs": [],
      "name": "owner",
      "outputs": [
        {
          "name": "",
          "type": "address"
        }
      ],
      "payable": false,
      "stateMutability": "view",
      "type": "function"
    },
    {
      "constant": false,
      "inputs": [
        {
          "name": "_registry",
          "type": "address"
        }
      ],
      "name": "setRegistry",
      "outputs": [],
      "payable": false,
      "stateMutability": "nonpayable",
      "type": "function"
    },
    {
      "constant": false,
      "inputs": [
        {
          "name": "_newOwner",
          "type": "address"
        }
      ],
      "name": "transferOwnership",
      "outputs": [],
      "payable": false,
      "stateMutability": "nonpayable",
      "type": "function"
    },
    {
      "anonymous": false,
      "inputs": [
        {
          "indexed": true,
          "name": "registry",
          "type": "address"
        }
      ],
      "name": "SetRegistry",
      "type": "event"
    },
    {
      "anonymous": false,
      "inputs": [
        {
          "indexed": true,
          "name": "previousOwner",
          "type": "address"
        }
      ],
      "name": "OwnershipRenounced",
      "type": "event"
    },
    {
      "anonymous": false,
      "inputs": [
        {
          "indexed": true,
          "name": "previousOwner",
          "type": "address"
        },
        {
          "indexed": true,
          "name": "newOwner",
          "type": "address"
        }
      ],
      "name": "OwnershipTransferred",
      "type": "event"
    },
    {
      "constant": true,
      "inputs": [
        {
          "name": "_operator",
          "type": "address"
        }
      ],
      "name": "isManager",
      "outputs": [
        {
          "name": "",
          "type": "bool"
        }
      ],
      "payable": false,
      "stateMutability": "view",
      "type": "function"
    }
  ],
  "bytecode": "0x608060405260008054600160a060020a031916331790556103bc806100256000396000f3006080604052600436106100775763ffffffff7c0100000000000000000000000000000000000000000000000000000000600035041663715018a6811461007c5780637b103999146100935780638da5cb5b146100c4578063a91ee0dc146100d9578063f2fde38b146100fa578063f3ae24151461011b575b600080fd5b34801561008857600080fd5b50610091610150565b005b34801561009f57600080fd5b506100a86101bc565b60408051600160a060020a039092168252519081900360200190f35b3480156100d057600080fd5b506100a86101cb565b3480156100e557600080fd5b50610091600160a060020a03600435166101da565b34801561010657600080fd5b50610091600160a060020a036004351661024e565b34801561012757600080fd5b5061013c600160a060020a0360043516610271565b604080519115158252519081900360200190f35b600054600160a060020a0316331461016757600080fd5b60008054604051600160a060020a03909116917ff8df31144d9c2f0f6b59d69b8b98abd5459d07f2742c4df920b25aae33c6482091a26000805473ffffffffffffffffffffffffffffffffffffffff19169055565b600154600160a060020a031681565b600054600160a060020a031681565b600054600160a060020a031633146101f157600080fd5b6001805473ffffffffffffffffffffffffffffffffffffffff1916600160a060020a0383811691909117918290556040519116907f278c70ced5f3e0e5eeb385b5ff9cb735748ba00a625147e66065ed48fc1562cd90600090a250565b600054600160a060020a0316331461026557600080fd5b61026e81610313565b50565b600154604080517f1ca451a3000000000000000000000000000000000000000000000000000000008152600160a060020a038481166004830152600060248301819052925192931691631ca451a39160448082019260209290919082900301818787803b1580156102e157600080fd5b505af11580156102f5573d6000803e3d6000fd5b505050506040513d602081101561030b57600080fd5b505192915050565b600160a060020a038116151561032857600080fd5b60008054604051600160a060020a03808516939216917f8be0079c531659141344cd1fd0a4f28419497f9722a3daafe3b4186f6b6457e091a36000805473ffffffffffffffffffffffffffffffffffffffff1916600160a060020a03929092169190911790555600a165627a7a72305820cafbe84e81221fb57b2e6a7fde31d3bc2524f902967ca38983057c760973d1740029",
  "source": "pragma solidity ^0.4.24;\n\nimport \"../registry/HasRegistry.sol\";\n\n\n/**\n * @title Manageable\n * @dev The Manageable contract provides basic authorization control functions\n * for managers. This simplifies the implementation of \"manager permissions\".\n */\ncontract Manageable is HasRegistry {\n  /**\n   * @dev Throws if called by any account that is not in the managers list.\n   */\n  modifier onlyManager() {\n    require(\n      registry.hasAttribute(\n        msg.sender,\n        Attribute.AttributeType.ROLE_MANAGER\n      )\n    );\n    _;\n  }\n\n  /**\n   * @dev Getter to determine if address is a manager\n   */\n  function isManager(address _operator) public view returns (bool) {\n    return registry.hasAttribute(\n      _operator,\n      Attribute.AttributeType.ROLE_MANAGER\n    );\n  }\n}\n",
  "sourcePath": "/home/namtq/Anlab/SamuraiX/contracts/access/Manageable.sol",
  "compiler": {
    "name": "solc",
    "version": "0.4.24+commit.e67f0147.Emscripten.clang"
  },
  "schemaVersion": "2.0.1",
  "updatedAt": "2018-10-03T01:42:24.575Z"
}