{
  "contractName": "NoOwnerEx",
  "abi": [
    {
      "constant": false,
      "inputs": [
        {
          "name": "_contractAddr",
          "type": "address"
        }
      ],
      "name": "reclaimContract",
      "outputs": [],
      "payable": false,
      "stateMutability": "nonpayable",
      "type": "function"
    },
    {
      "constant": false,
      "inputs": [],
      "name": "renounceOwnership",
      "outputs": [],
      "payable": false,
      "stateMutability": "nonpayable",
      "type": "function"
    },
    {
      "constant": true,
      "inputs": [],
      "name": "owner",
      "outputs": [
        {
          "name": "",
          "type": "address"
        }
      ],
      "payable": false,
      "stateMutability": "view",
      "type": "function"
    },
    {
      "constant": true,
      "inputs": [
        {
          "name": "_from",
          "type": "address"
        },
        {
          "name": "_value",
          "type": "uint256"
        },
        {
          "name": "_data",
          "type": "bytes"
        }
      ],
      "name": "tokenFallback",
      "outputs": [],
      "payable": false,
      "stateMutability": "pure",
      "type": "function"
    },
    {
      "constant": false,
      "inputs": [
        {
          "name": "_newOwner",
          "type": "address"
        }
      ],
      "name": "transferOwnership",
      "outputs": [],
      "payable": false,
      "stateMutability": "nonpayable",
      "type": "function"
    },
    {
      "payable": false,
      "stateMutability": "nonpayable",
      "type": "fallback"
    },
    {
      "anonymous": false,
      "inputs": [
        {
          "indexed": true,
          "name": "previousOwner",
          "type": "address"
        }
      ],
      "name": "OwnershipRenounced",
      "type": "event"
    },
    {
      "anonymous": false,
      "inputs": [
        {
          "indexed": true,
          "name": "previousOwner",
          "type": "address"
        },
        {
          "indexed": true,
          "name": "newOwner",
          "type": "address"
        }
      ],
      "name": "OwnershipTransferred",
      "type": "event"
    },
    {
      "constant": false,
      "inputs": [
        {
          "name": "_to",
          "type": "address"
        }
      ],
      "name": "reclaimEther",
      "outputs": [],
      "payable": false,
      "stateMutability": "nonpayable",
      "type": "function"
    },
    {
      "constant": false,
      "inputs": [],
      "name": "reclaimEther",
      "outputs": [],
      "payable": false,
      "stateMutability": "nonpayable",
      "type": "function"
    },
    {
      "constant": false,
      "inputs": [
        {
          "name": "_token",
          "type": "address"
        }
      ],
      "name": "reclaimToken",
      "outputs": [],
      "payable": false,
      "stateMutability": "nonpayable",
      "type": "function"
    },
    {
      "constant": false,
      "inputs": [
        {
          "name": "token",
          "type": "address"
        },
        {
          "name": "_to",
          "type": "address"
        }
      ],
      "name": "reclaimToken",
      "outputs": [],
      "payable": false,
      "stateMutability": "nonpayable",
      "type": "function"
    }
  ],
  "bytecode": "0x608060405260008054600160a060020a03191633179055341561002157600080fd5b6106aa806100306000396000f3006080604052600436106100985763ffffffff7c010000000000000000000000000000000000000000000000000000000060003504166317ffc32081146100a75780632aed7f3f146100ca578063715018a6146100eb57806388ee39cc146101005780638da5cb5b146101275780639a6a30a4146101585780639f727c2714610179578063c0ee0b8a1461018e578063f2fde38b146101bf575b3480156100a457600080fd5b50005b3480156100b357600080fd5b506100c8600160a060020a03600435166101e0565b005b3480156100d657600080fd5b506100c8600160a060020a03600435166102ac565b3480156100f757600080fd5b506100c8610346565b34801561010c57600080fd5b506100c8600160a060020a03600435811690602435166103b2565b34801561013357600080fd5b5061013c610478565b60408051600160a060020a039092168252519081900360200190f35b34801561016457600080fd5b506100c8600160a060020a0360043516610487565b34801561018557600080fd5b506100c86104d4565b34801561019a57600080fd5b506100c860048035600160a060020a0316906024803591604435918201910135610529565b3480156101cb57600080fd5b506100c8600160a060020a036004351661052e565b60008054600160a060020a031633146101f857600080fd5b604080517f70a082310000000000000000000000000000000000000000000000000000000081523060048201529051600160a060020a038416916370a082319160248083019260209291908290030181600087803b15801561025957600080fd5b505af115801561026d573d6000803e3d6000fd5b505050506040513d602081101561028357600080fd5b50516000549091506102a890600160a060020a0384811691168363ffffffff61054e16565b5050565b60008054600160a060020a031633146102c457600080fd5b5060008054604080517ff2fde38b000000000000000000000000000000000000000000000000000000008152600160a060020a039283166004820152905184939284169263f2fde38b926024808201939182900301818387803b15801561032a57600080fd5b505af115801561033e573d6000803e3d6000fd5b505050505050565b600054600160a060020a0316331461035d57600080fd5b60008054604051600160a060020a03909116917ff8df31144d9c2f0f6b59d69b8b98abd5459d07f2742c4df920b25aae33c6482091a26000805473ffffffffffffffffffffffffffffffffffffffff19169055565b60008054600160a060020a031633146103ca57600080fd5b604080517f70a082310000000000000000000000000000000000000000000000000000000081523060048201529051600160a060020a038516916370a082319160248083019260209291908290030181600087803b15801561042b57600080fd5b505af115801561043f573d6000803e3d6000fd5b505050506040513d602081101561045557600080fd5b50519050610473600160a060020a038416838363ffffffff61054e16565b505050565b600054600160a060020a031681565b600054600160a060020a0316331461049e57600080fd5b604051600160a060020a03821690303180156108fc02916000818181858888f193505050501580156102a8573d6000803e3d6000fd5b600054600160a060020a031633146104eb57600080fd5b60008054604051600160a060020a0390911691303180156108fc02929091818181858888f19350505050158015610526573d6000803e3d6000fd5b50565b600080fd5b600054600160a060020a0316331461054557600080fd5b61052681610601565b82600160a060020a031663a9059cbb83836040518363ffffffff167c01000000000000000000000000000000000000000000000000000000000281526004018083600160a060020a0316600160a060020a0316815260200182815260200192505050602060405180830381600087803b1580156105ca57600080fd5b505af11580156105de573d6000803e3d6000fd5b505050506040513d60208110156105f457600080fd5b5051151561047357600080fd5b600160a060020a038116151561061657600080fd5b60008054604051600160a060020a03808516939216917f8be0079c531659141344cd1fd0a4f28419497f9722a3daafe3b4186f6b6457e091a36000805473ffffffffffffffffffffffffffffffffffffffff1916600160a060020a03929092169190911790555600a165627a7a7230582084244e3ea0295a3a4bbe59d05f4adb7cdbd4d6666a32d06169a37151835d50940029",
  "source": "pragma solidity ^0.4.24;\n\nimport \"../zeppelin/contracts/ownership/NoOwner.sol\";\n\n\n/**\n * @title NoOwner Ex\n * @dev Extension for the NoOwner contract, to support a case where\n * this contract's owner can't own ether or tokens.\n * Note that we *do* inherit reclaimContract from NoOwner: This contract\n * does have to own contracts, but it also has to be able to relinquish them\n **/\ncontract NoOwnerEx is NoOwner {\n  function reclaimEther(address _to) external onlyOwner {\n    _to.transfer(address(this).balance);\n  }\n\n  function reclaimToken(ERC20Basic token, address _to) external onlyOwner {\n    uint256 balance = token.balanceOf(this);\n    token.safeTransfer(_to, balance);\n  }\n}\n",
  "sourcePath": "/home/namtq/Anlab/SamuraiX/contracts/ownership/NoOwnerEx.sol",
  "compiler": {
    "name": "solc",
    "version": "0.4.24+commit.e67f0147.Emscripten.clang"
  },
  "schemaVersion": "2.0.1",
  "updatedAt": "2018-09-28T03:23:17.528Z"
}