{
  "contractName": "Operatable",
  "abi": [
    {
      "constant": false,
      "inputs": [],
      "name": "renounceOwnership",
      "outputs": [],
      "payable": false,
      "stateMutability": "nonpayable",
      "type": "function"
    },
    {
      "constant": true,
      "inputs": [],
      "name": "registry",
      "outputs": [
        {
          "name": "",
          "type": "address"
        }
      ],
      "payable": false,
      "stateMutability": "view",
      "type": "function"
    },
    {
      "constant": true,
      "inputs": [],
      "name": "owner",
      "outputs": [
        {
          "name": "",
          "type": "address"
        }
      ],
      "payable": false,
      "stateMutability": "view",
      "type": "function"
    },
    {
      "constant": false,
      "inputs": [
        {
          "name": "_registry",
          "type": "address"
        }
      ],
      "name": "setRegistry",
      "outputs": [],
      "payable": false,
      "stateMutability": "nonpayable",
      "type": "function"
    },
    {
      "constant": false,
      "inputs": [
        {
          "name": "_newOwner",
          "type": "address"
        }
      ],
      "name": "transferOwnership",
      "outputs": [],
      "payable": false,
      "stateMutability": "nonpayable",
      "type": "function"
    },
    {
      "anonymous": false,
      "inputs": [
        {
          "indexed": true,
          "name": "registry",
          "type": "address"
        }
      ],
      "name": "SetRegistry",
      "type": "event"
    },
    {
      "anonymous": false,
      "inputs": [
        {
          "indexed": true,
          "name": "previousOwner",
          "type": "address"
        }
      ],
      "name": "OwnershipRenounced",
      "type": "event"
    },
    {
      "anonymous": false,
      "inputs": [
        {
          "indexed": true,
          "name": "previousOwner",
          "type": "address"
        },
        {
          "indexed": true,
          "name": "newOwner",
          "type": "address"
        }
      ],
      "name": "OwnershipTransferred",
      "type": "event"
    },
    {
      "constant": true,
      "inputs": [
        {
          "name": "_operator",
          "type": "address"
        }
      ],
      "name": "isOperator",
      "outputs": [
        {
          "name": "",
          "type": "bool"
        }
      ],
      "payable": false,
      "stateMutability": "view",
      "type": "function"
    }
  ],
  "bytecode": "0x608060405260008054600160a060020a031916331790556103bf806100256000396000f3006080604052600436106100775763ffffffff7c01000000000000000000000000000000000000000000000000000000006000350416636d70f7ae811461007c578063715018a6146100b15780637b103999146100c85780638da5cb5b146100f9578063a91ee0dc1461010e578063f2fde38b1461012f575b600080fd5b34801561008857600080fd5b5061009d600160a060020a0360043516610150565b604080519115158252519081900360200190f35b3480156100bd57600080fd5b506100c66101f5565b005b3480156100d457600080fd5b506100dd610261565b60408051600160a060020a039092168252519081900360200190f35b34801561010557600080fd5b506100dd610270565b34801561011a57600080fd5b506100c6600160a060020a036004351661027f565b34801561013b57600080fd5b506100c6600160a060020a03600435166102f3565b60018054604080517f1ca451a3000000000000000000000000000000000000000000000000000000008152600160a060020a0385811660048301526024820194909452905160009390921691631ca451a39160448082019260209290919082900301818787803b1580156101c357600080fd5b505af11580156101d7573d6000803e3d6000fd5b505050506040513d60208110156101ed57600080fd5b505192915050565b600054600160a060020a0316331461020c57600080fd5b60008054604051600160a060020a03909116917ff8df31144d9c2f0f6b59d69b8b98abd5459d07f2742c4df920b25aae33c6482091a26000805473ffffffffffffffffffffffffffffffffffffffff19169055565b600154600160a060020a031681565b600054600160a060020a031681565b600054600160a060020a0316331461029657600080fd5b6001805473ffffffffffffffffffffffffffffffffffffffff1916600160a060020a0383811691909117918290556040519116907f278c70ced5f3e0e5eeb385b5ff9cb735748ba00a625147e66065ed48fc1562cd90600090a250565b600054600160a060020a0316331461030a57600080fd5b61031381610316565b50565b600160a060020a038116151561032b57600080fd5b60008054604051600160a060020a03808516939216917f8be0079c531659141344cd1fd0a4f28419497f9722a3daafe3b4186f6b6457e091a36000805473ffffffffffffffffffffffffffffffffffffffff1916600160a060020a03929092169190911790555600a165627a7a7230582077de87f8d2406d994aef1fec4c00cd94010d4bc0aa9a653876a0b511fa20bf810029",
  "source": "pragma solidity ^0.4.24;\n\nimport \"../registry/HasRegistry.sol\";\n\n\n/**\n * @title Operatable\n * @dev The Operatable contract provides basic authorization control functions\n * for operators. This simplifies the implementation of \"operators permissions\".\n */\ncontract Operatable is HasRegistry {\n  /**\n   * @dev Throws if called by any account that is not in the operators list.\n   */\n  modifier onlyOperator() {\n    require(\n      registry.hasAttribute(\n        msg.sender,\n        Attribute.AttributeType.ROLE_OPERATOR\n      )\n    );\n    _;\n  }\n\n  /**\n   * @dev Getter to determine if address is an operator\n   */\n  function isOperator(address _operator) public view returns (bool) {\n    return registry.hasAttribute(\n      _operator,\n      Attribute.AttributeType.ROLE_OPERATOR\n    );\n  }\n}\n",
  "sourcePath": "/home/namtq/Trainning/git/SamIO/contracts/access/Operatable.sol",
  "compiler": {
    "name": "solc",
    "version": "0.4.24+commit.e67f0147.Emscripten.clang"
  },
  "schemaVersion": "2.0.1",
  "updatedAt": "2018-10-08T06:54:58.835Z"
}