{
  "contractName": "PATToken",
  "abi": [
    {
      "constant": true,
      "inputs": [],
      "name": "mintingFinished",
      "outputs": [
        {
          "name": "",
          "type": "bool"
        }
      ],
      "payable": false,
      "stateMutability": "view",
      "type": "function"
    },
    {
      "constant": true,
      "inputs": [],
      "name": "name",
      "outputs": [
        {
          "name": "",
          "type": "string"
        }
      ],
      "payable": false,
      "stateMutability": "view",
      "type": "function"
    },
    {
      "constant": false,
      "inputs": [
        {
          "name": "_spender",
          "type": "address"
        },
        {
          "name": "_value",
          "type": "uint256"
        }
      ],
      "name": "approve",
      "outputs": [
        {
          "name": "",
          "type": "bool"
        }
      ],
      "payable": false,
      "stateMutability": "nonpayable",
      "type": "function"
    },
    {
      "constant": true,
      "inputs": [
        {
          "name": "_owner",
          "type": "address"
        },
        {
          "name": "_spender",
          "type": "address"
        }
      ],
      "name": "delegateAllowance",
      "outputs": [
        {
          "name": "",
          "type": "uint256"
        }
      ],
      "payable": false,
      "stateMutability": "view",
      "type": "function"
    },
    {
      "constant": true,
      "inputs": [],
      "name": "TOTAL_TOKENS",
      "outputs": [
        {
          "name": "",
          "type": "uint256"
        }
      ],
      "payable": false,
      "stateMutability": "view",
      "type": "function"
    },
    {
      "constant": false,
      "inputs": [
        {
          "name": "_token",
          "type": "address"
        }
      ],
      "name": "reclaimToken",
      "outputs": [],
      "payable": false,
      "stateMutability": "nonpayable",
      "type": "function"
    },
    {
      "constant": true,
      "inputs": [],
      "name": "totalSupply",
      "outputs": [
        {
          "name": "",
          "type": "uint256"
        }
      ],
      "payable": false,
      "stateMutability": "view",
      "type": "function"
    },
    {
      "constant": false,
      "inputs": [
        {
          "name": "_newContract",
          "type": "address"
        }
      ],
      "name": "delegateToNewContract",
      "outputs": [],
      "payable": false,
      "stateMutability": "nonpayable",
      "type": "function"
    },
    {
      "constant": false,
      "inputs": [
        {
          "name": "_transferFeeNumerator",
          "type": "uint256"
        },
        {
          "name": "_transferFeeDenominator",
          "type": "uint256"
        }
      ],
      "name": "changeFees",
      "outputs": [],
      "payable": false,
      "stateMutability": "nonpayable",
      "type": "function"
    },
    {
      "constant": false,
      "inputs": [],
      "name": "cancelOwnershipTransfer",
      "outputs": [],
      "payable": false,
      "stateMutability": "nonpayable",
      "type": "function"
    },
    {
      "constant": false,
      "inputs": [
        {
          "name": "_from",
          "type": "address"
        },
        {
          "name": "_to",
          "type": "address"
        },
        {
          "name": "_value",
          "type": "uint256"
        }
      ],
      "name": "transferFrom",
      "outputs": [
        {
          "name": "",
          "type": "bool"
        }
      ],
      "payable": false,
      "stateMutability": "nonpayable",
      "type": "function"
    },
    {
      "constant": true,
      "inputs": [],
      "name": "delegatedFrom",
      "outputs": [
        {
          "name": "",
          "type": "address"
        }
      ],
      "payable": false,
      "stateMutability": "view",
      "type": "function"
    },
    {
      "constant": false,
      "inputs": [
        {
          "name": "_spender",
          "type": "address"
        },
        {
          "name": "_value",
          "type": "uint256"
        },
        {
          "name": "_origSender",
          "type": "address"
        }
      ],
      "name": "delegateApprove",
      "outputs": [
        {
          "name": "",
          "type": "bool"
        }
      ],
      "payable": false,
      "stateMutability": "nonpayable",
      "type": "function"
    },
    {
      "constant": false,
      "inputs": [
        {
          "name": "_contractAddr",
          "type": "address"
        }
      ],
      "name": "reclaimContract",
      "outputs": [],
      "payable": false,
      "stateMutability": "nonpayable",
      "type": "function"
    },
    {
      "constant": true,
      "inputs": [],
      "name": "decimals",
      "outputs": [
        {
          "name": "",
          "type": "uint8"
        }
      ],
      "payable": false,
      "stateMutability": "view",
      "type": "function"
    },
    {
      "constant": true,
      "inputs": [],
      "name": "contactInformation",
      "outputs": [
        {
          "name": "",
          "type": "string"
        }
      ],
      "payable": false,
      "stateMutability": "view",
      "type": "function"
    },
    {
      "constant": true,
      "inputs": [],
      "name": "beneficiary",
      "outputs": [
        {
          "name": "",
          "type": "address"
        }
      ],
      "payable": false,
      "stateMutability": "view",
      "type": "function"
    },
    {
      "constant": false,
      "inputs": [],
      "name": "unpause",
      "outputs": [],
      "payable": false,
      "stateMutability": "nonpayable",
      "type": "function"
    },
    {
      "constant": true,
      "inputs": [
        {
          "name": "_who",
          "type": "address"
        }
      ],
      "name": "delegateBalanceOf",
      "outputs": [
        {
          "name": "",
          "type": "uint256"
        }
      ],
      "payable": false,
      "stateMutability": "view",
      "type": "function"
    },
    {
      "constant": true,
      "inputs": [],
      "name": "varDocsLink",
      "outputs": [
        {
          "name": "",
          "type": "string"
        }
      ],
      "payable": false,
      "stateMutability": "view",
      "type": "function"
    },
    {
      "constant": false,
      "inputs": [
        {
          "name": "_from",
          "type": "address"
        },
        {
          "name": "_to",
          "type": "address"
        },
        {
          "name": "_value",
          "type": "uint256"
        },
        {
          "name": "_origSender",
          "type": "address"
        }
      ],
      "name": "delegateTransferFrom",
      "outputs": [
        {
          "name": "",
          "type": "bool"
        }
      ],
      "payable": false,
      "stateMutability": "nonpayable",
      "type": "function"
    },
    {
      "constant": false,
      "inputs": [],
      "name": "claimOwnership",
      "outputs": [],
      "payable": false,
      "stateMutability": "nonpayable",
      "type": "function"
    },
    {
      "constant": false,
      "inputs": [
        {
          "name": "_link",
          "type": "string"
        }
      ],
      "name": "changeRunningDocuments",
      "outputs": [],
      "payable": false,
      "stateMutability": "nonpayable",
      "type": "function"
    },
    {
      "constant": false,
      "inputs": [
        {
          "name": "_sheet",
          "type": "address"
        }
      ],
      "name": "setBalanceSheet",
      "outputs": [
        {
          "name": "",
          "type": "bool"
        }
      ],
      "payable": false,
      "stateMutability": "nonpayable",
      "type": "function"
    },
    {
      "constant": false,
      "inputs": [
        {
          "name": "_spender",
          "type": "address"
        },
        {
          "name": "_addedValue",
          "type": "uint256"
        },
        {
          "name": "_origSender",
          "type": "address"
        }
      ],
      "name": "delegateIncreaseApproval",
      "outputs": [
        {
          "name": "",
          "type": "bool"
        }
      ],
      "payable": false,
      "stateMutability": "nonpayable",
      "type": "function"
    },
    {
      "constant": true,
      "inputs": [],
      "name": "paused",
      "outputs": [
        {
          "name": "",
          "type": "bool"
        }
      ],
      "payable": false,
      "stateMutability": "view",
      "type": "function"
    },
    {
      "constant": false,
      "inputs": [
        {
          "name": "_addr",
          "type": "address"
        }
      ],
      "name": "setDelegatedFrom",
      "outputs": [],
      "payable": false,
      "stateMutability": "nonpayable",
      "type": "function"
    },
    {
      "constant": false,
      "inputs": [
        {
          "name": "_spender",
          "type": "address"
        },
        {
          "name": "_subtractedValue",
          "type": "uint256"
        }
      ],
      "name": "decreaseApproval",
      "outputs": [
        {
          "name": "",
          "type": "bool"
        }
      ],
      "payable": false,
      "stateMutability": "nonpayable",
      "type": "function"
    },
    {
      "constant": true,
      "inputs": [],
      "name": "getTheNumberOfHolders",
      "outputs": [
        {
          "name": "",
          "type": "uint256"
        }
      ],
      "payable": false,
      "stateMutability": "view",
      "type": "function"
    },
    {
      "constant": false,
      "inputs": [
        {
          "name": "_origSender",
          "type": "address"
        },
        {
          "name": "_value",
          "type": "uint256"
        },
        {
          "name": "_note",
          "type": "string"
        }
      ],
      "name": "delegateBurn",
      "outputs": [],
      "payable": false,
      "stateMutability": "nonpayable",
      "type": "function"
    },
    {
      "constant": true,
      "inputs": [
        {
          "name": "_who",
          "type": "address"
        }
      ],
      "name": "balanceOf",
      "outputs": [
        {
          "name": "",
          "type": "uint256"
        }
      ],
      "payable": false,
      "stateMutability": "view",
      "type": "function"
    },
    {
      "constant": false,
      "inputs": [],
      "name": "renounceOwnership",
      "outputs": [],
      "payable": false,
      "stateMutability": "nonpayable",
      "type": "function"
    },
    {
      "constant": false,
      "inputs": [
        {
          "name": "_value",
          "type": "uint256"
        },
        {
          "name": "_note",
          "type": "string"
        }
      ],
      "name": "burn",
      "outputs": [
        {
          "name": "",
          "type": "bool"
        }
      ],
      "payable": false,
      "stateMutability": "nonpayable",
      "type": "function"
    },
    {
      "constant": true,
      "inputs": [],
      "name": "delegateTotalSupply",
      "outputs": [
        {
          "name": "",
          "type": "uint256"
        }
      ],
      "payable": false,
      "stateMutability": "view",
      "type": "function"
    },
    {
      "constant": false,
      "inputs": [
        {
          "name": "_note",
          "type": "string"
        }
      ],
      "name": "burnAll",
      "outputs": [],
      "payable": false,
      "stateMutability": "nonpayable",
      "type": "function"
    },
    {
      "constant": true,
      "inputs": [],
      "name": "registry",
      "outputs": [
        {
          "name": "",
          "type": "address"
        }
      ],
      "payable": false,
      "stateMutability": "view",
      "type": "function"
    },
    {
      "constant": false,
      "inputs": [],
      "name": "finishMinting",
      "outputs": [
        {
          "name": "",
          "type": "bool"
        }
      ],
      "payable": false,
      "stateMutability": "nonpayable",
      "type": "function"
    },
    {
      "constant": false,
      "inputs": [],
      "name": "pause",
      "outputs": [],
      "payable": false,
      "stateMutability": "nonpayable",
      "type": "function"
    },
    {
      "constant": true,
      "inputs": [
        {
          "name": "_value",
          "type": "uint256"
        }
      ],
      "name": "checkTransferFee",
      "outputs": [
        {
          "name": "",
          "type": "uint256"
        }
      ],
      "payable": false,
      "stateMutability": "view",
      "type": "function"
    },
    {
      "constant": false,
      "inputs": [
        {
          "name": "token",
          "type": "address"
        },
        {
          "name": "_to",
          "type": "address"
        }
      ],
      "name": "reclaimToken",
      "outputs": [],
      "payable": false,
      "stateMutability": "nonpayable",
      "type": "function"
    },
    {
      "constant": true,
      "inputs": [],
      "name": "owner",
      "outputs": [
        {
          "name": "",
          "type": "address"
        }
      ],
      "payable": false,
      "stateMutability": "view",
      "type": "function"
    },
    {
      "constant": true,
      "inputs": [],
      "name": "transferFeeNumerator",
      "outputs": [
        {
          "name": "",
          "type": "uint256"
        }
      ],
      "payable": false,
      "stateMutability": "view",
      "type": "function"
    },
    {
      "constant": false,
      "inputs": [
        {
          "name": "_spender",
          "type": "address"
        },
        {
          "name": "_subtractedValue",
          "type": "uint256"
        },
        {
          "name": "_origSender",
          "type": "address"
        }
      ],
      "name": "delegateDecreaseApproval",
      "outputs": [
        {
          "name": "",
          "type": "bool"
        }
      ],
      "payable": false,
      "stateMutability": "nonpayable",
      "type": "function"
    },
    {
      "constant": true,
      "inputs": [],
      "name": "symbol",
      "outputs": [
        {
          "name": "",
          "type": "string"
        }
      ],
      "payable": false,
      "stateMutability": "view",
      "type": "function"
    },
    {
      "constant": true,
      "inputs": [],
      "name": "fixedDocsLink",
      "outputs": [
        {
          "name": "",
          "type": "string"
        }
      ],
      "payable": false,
      "stateMutability": "view",
      "type": "function"
    },
    {
      "constant": false,
      "inputs": [
        {
          "name": "_beneficiary",
          "type": "address"
        }
      ],
      "name": "changeWallet",
      "outputs": [],
      "payable": false,
      "stateMutability": "nonpayable",
      "type": "function"
    },
    {
      "constant": false,
      "inputs": [
        {
          "name": "_to",
          "type": "address"
        }
      ],
      "name": "reclaimEther",
      "outputs": [],
      "payable": false,
      "stateMutability": "nonpayable",
      "type": "function"
    },
    {
      "constant": false,
      "inputs": [
        {
          "name": "_to",
          "type": "address"
        },
        {
          "name": "_value",
          "type": "uint256"
        },
        {
          "name": "_origSender",
          "type": "address"
        }
      ],
      "name": "delegateTransfer",
      "outputs": [
        {
          "name": "",
          "type": "bool"
        }
      ],
      "payable": false,
      "stateMutability": "nonpayable",
      "type": "function"
    },
    {
      "constant": false,
      "inputs": [],
      "name": "reclaimEther",
      "outputs": [],
      "payable": false,
      "stateMutability": "nonpayable",
      "type": "function"
    },
    {
      "constant": false,
      "inputs": [
        {
          "name": "_to",
          "type": "address"
        },
        {
          "name": "_value",
          "type": "uint256"
        }
      ],
      "name": "transfer",
      "outputs": [
        {
          "name": "",
          "type": "bool"
        }
      ],
      "payable": false,
      "stateMutability": "nonpayable",
      "type": "function"
    },
    {
      "constant": false,
      "inputs": [
        {
          "name": "_registry",
          "type": "address"
        }
      ],
      "name": "setRegistry",
      "outputs": [],
      "payable": false,
      "stateMutability": "nonpayable",
      "type": "function"
    },
    {
      "constant": false,
      "inputs": [
        {
          "name": "_info",
          "type": "string"
        }
      ],
      "name": "setContactInformation",
      "outputs": [],
      "payable": false,
      "stateMutability": "nonpayable",
      "type": "function"
    },
    {
      "constant": true,
      "inputs": [
        {
          "name": "_from",
          "type": "address"
        },
        {
          "name": "_value",
          "type": "uint256"
        },
        {
          "name": "_data",
          "type": "bytes"
        }
      ],
      "name": "tokenFallback",
      "outputs": [],
      "payable": false,
      "stateMutability": "pure",
      "type": "function"
    },
    {
      "constant": true,
      "inputs": [],
      "name": "delegate",
      "outputs": [
        {
          "name": "",
          "type": "address"
        }
      ],
      "payable": false,
      "stateMutability": "view",
      "type": "function"
    },
    {
      "constant": true,
      "inputs": [],
      "name": "transferFeeDenominator",
      "outputs": [
        {
          "name": "",
          "type": "uint256"
        }
      ],
      "payable": false,
      "stateMutability": "view",
      "type": "function"
    },
    {
      "constant": false,
      "inputs": [
        {
          "name": "_spender",
          "type": "address"
        },
        {
          "name": "_addedValue",
          "type": "uint256"
        }
      ],
      "name": "increaseApproval",
      "outputs": [
        {
          "name": "",
          "type": "bool"
        }
      ],
      "payable": false,
      "stateMutability": "nonpayable",
      "type": "function"
    },
    {
      "constant": true,
      "inputs": [
        {
          "name": "_owner",
          "type": "address"
        },
        {
          "name": "_spender",
          "type": "address"
        }
      ],
      "name": "allowance",
      "outputs": [
        {
          "name": "",
          "type": "uint256"
        }
      ],
      "payable": false,
      "stateMutability": "view",
      "type": "function"
    },
    {
      "constant": true,
      "inputs": [],
      "name": "pendingOwner",
      "outputs": [
        {
          "name": "",
          "type": "address"
        }
      ],
      "payable": false,
      "stateMutability": "view",
      "type": "function"
    },
    {
      "constant": true,
      "inputs": [
        {
          "name": "_index",
          "type": "uint256"
        }
      ],
      "name": "getHolder",
      "outputs": [
        {
          "name": "",
          "type": "address"
        }
      ],
      "payable": false,
      "stateMutability": "view",
      "type": "function"
    },
    {
      "constant": true,
      "inputs": [
        {
          "name": "_operator",
          "type": "address"
        }
      ],
      "name": "isManager",
      "outputs": [
        {
          "name": "",
          "type": "bool"
        }
      ],
      "payable": false,
      "stateMutability": "view",
      "type": "function"
    },
    {
      "inputs": [
        {
          "name": "_name",
          "type": "string"
        },
        {
          "name": "_symbol",
          "type": "string"
        },
        {
          "name": "_fixedDocsLink",
          "type": "string"
        },
        {
          "name": "_varDocsLink",
          "type": "string"
        },
        {
          "name": "_wallet",
          "type": "address"
        }
      ],
      "payable": false,
      "stateMutability": "nonpayable",
      "type": "constructor"
    },
    {
      "payable": false,
      "stateMutability": "nonpayable",
      "type": "fallback"
    },
    {
      "anonymous": false,
      "inputs": [
        {
          "indexed": false,
          "name": "newName",
          "type": "string"
        },
        {
          "indexed": false,
          "name": "newSymbol",
          "type": "string"
        }
      ],
      "name": "ChangeTokenName",
      "type": "event"
    },
    {
      "anonymous": false,
      "inputs": [],
      "name": "Pause",
      "type": "event"
    },
    {
      "anonymous": false,
      "inputs": [],
      "name": "Unpause",
      "type": "event"
    },
    {
      "anonymous": false,
      "inputs": [
        {
          "indexed": true,
          "name": "addr",
          "type": "address"
        }
      ],
      "name": "ChangeWallet",
      "type": "event"
    },
    {
      "anonymous": false,
      "inputs": [
        {
          "indexed": false,
          "name": "transferFeeNumerator",
          "type": "uint256"
        },
        {
          "indexed": false,
          "name": "transferFeeDenominator",
          "type": "uint256"
        }
      ],
      "name": "ChangeFees",
      "type": "event"
    },
    {
      "anonymous": false,
      "inputs": [
        {
          "indexed": false,
          "name": "addr",
          "type": "address"
        }
      ],
      "name": "DelegatedFromSet",
      "type": "event"
    },
    {
      "anonymous": false,
      "inputs": [
        {
          "indexed": true,
          "name": "newContract",
          "type": "address"
        }
      ],
      "name": "DelegateToNewContract",
      "type": "event"
    },
    {
      "anonymous": false,
      "inputs": [
        {
          "indexed": true,
          "name": "to",
          "type": "address"
        },
        {
          "indexed": false,
          "name": "value",
          "type": "uint256"
        }
      ],
      "name": "Mint",
      "type": "event"
    },
    {
      "anonymous": false,
      "inputs": [],
      "name": "MintFinished",
      "type": "event"
    },
    {
      "anonymous": false,
      "inputs": [
        {
          "indexed": true,
          "name": "burner",
          "type": "address"
        },
        {
          "indexed": false,
          "name": "value",
          "type": "uint256"
        },
        {
          "indexed": false,
          "name": "note",
          "type": "string"
        }
      ],
      "name": "Burn",
      "type": "event"
    },
    {
      "anonymous": false,
      "inputs": [
        {
          "indexed": true,
          "name": "sheet",
          "type": "address"
        }
      ],
      "name": "BalanceSheetSet",
      "type": "event"
    },
    {
      "anonymous": false,
      "inputs": [
        {
          "indexed": true,
          "name": "owner",
          "type": "address"
        },
        {
          "indexed": true,
          "name": "spender",
          "type": "address"
        },
        {
          "indexed": false,
          "name": "value",
          "type": "uint256"
        }
      ],
      "name": "Approval",
      "type": "event"
    },
    {
      "anonymous": false,
      "inputs": [
        {
          "indexed": true,
          "name": "from",
          "type": "address"
        },
        {
          "indexed": true,
          "name": "to",
          "type": "address"
        },
        {
          "indexed": false,
          "name": "value",
          "type": "uint256"
        }
      ],
      "name": "Transfer",
      "type": "event"
    },
    {
      "anonymous": false,
      "inputs": [
        {
          "indexed": false,
          "name": "token",
          "type": "address"
        },
        {
          "indexed": false,
          "name": "oldLink",
          "type": "string"
        },
        {
          "indexed": false,
          "name": "newLink",
          "type": "string"
        }
      ],
      "name": "UpdateRunningDocuments",
      "type": "event"
    },
    {
      "anonymous": false,
      "inputs": [
        {
          "indexed": true,
          "name": "registry",
          "type": "address"
        }
      ],
      "name": "SetRegistry",
      "type": "event"
    },
    {
      "anonymous": false,
      "inputs": [
        {
          "indexed": true,
          "name": "previousOwner",
          "type": "address"
        }
      ],
      "name": "OwnershipRenounced",
      "type": "event"
    },
    {
      "anonymous": false,
      "inputs": [
        {
          "indexed": true,
          "name": "previousOwner",
          "type": "address"
        },
        {
          "indexed": true,
          "name": "newOwner",
          "type": "address"
        }
      ],
      "name": "OwnershipTransferred",
      "type": "event"
    },
    {
      "constant": false,
      "inputs": [
        {
          "name": "_name",
          "type": "string"
        },
        {
          "name": "_symbol",
          "type": "string"
        }
      ],
      "name": "changeTokenName",
      "outputs": [],
      "payable": false,
      "stateMutability": "nonpayable",
      "type": "function"
    },
    {
      "constant": false,
      "inputs": [
        {
          "name": "_to",
          "type": "address"
        },
        {
          "name": "_amount",
          "type": "uint256"
        }
      ],
      "name": "mint",
      "outputs": [
        {
          "name": "",
          "type": "bool"
        }
      ],
      "payable": false,
      "stateMutability": "nonpayable",
      "type": "function"
    },
    {
      "constant": false,
      "inputs": [
        {
          "name": "_newOwner",
          "type": "address"
        }
      ],
      "name": "transferOwnership",
      "outputs": [],
      "payable": false,
      "stateMutability": "nonpayable",
      "type": "function"
    }
  ],
  "bytecode": "0x6009805460ff191690556000600c55612710600d55600e805460a060020a60ff021916905560c0604052600860808190527f504154546f6b656e00000000000000000000000000000000000000000000000060a09081526200006591600f91906200022e565b506040805180820190915260038082527f50415400000000000000000000000000000000000000000000000000000000006020909201918252620000ac916010916200022e565b50348015620000ba57600080fd5b5060405162004285380380620042858339810160409081528151602080840151928401516060850151608086015160008054600160a060020a031916331790559186018051948701969586019590949101928291859185916200012491600391908501906200022e565b5080516200013a9060049060208401906200022e565b5050341590506200014a57600080fd5b600060065562000159620002b3565b604051809103906000f08015801562000176573d6000803e3d6000fd5b506009805461010060a860020a031916610100600160a060020a0393841602179055600e8054600160a060020a031916929091169190911790558451620001c590600f9060208801906200022e565b508351620001db9060109060208701906200022e565b506040805180820190915260158082527f68747470733a2f2f7261782e65786368616e67652f0000000000000000000000602090920191825262000222916001916200022e565b505050505050620002e4565b828054600181600116156101000203166002900490600052602060002090601f016020900481019282601f106200027157805160ff1916838001178555620002a1565b82800160010185558215620002a1579182015b82811115620002a157825182559160200191906001019062000284565b50620002af929150620002c4565b5090565b6040516104248062003e6183390190565b620002e191905b80821115620002af5760008155600101620002cb565b90565b613b6d80620002f46000396000f3006080604052600436106102d15763ffffffff60e060020a60003504166305d2035b81146102e057806306fdde0314610309578063095ea7b31461039357806309ab8bba146103b75780630b7abf77146103f057806317ffc3201461040557806318160ddd146104285780631d2d84001461043d57806321ecff5b1461045e57806323452b9c1461047957806323b872dd1461048e57806326fe9951146104b8578063296f4000146104e95780632aed7f3f14610514578063313ce5671461053557806336f7ab5e1461056057806338af3eed146105755780633f4ba83a1461058a57806340c10f191461059f57806343a468c8146105c3578063453920cb146105e45780634b7ebc591461067b5780634df6b45d146106905780634e71e0c8146106c1578063533bde83146106d657806354f78dad1461072f578063554249b3146107505780635c975abb1461077b57806361927adb1461079057806366188463146107b157806366ab910a146107d55780636d85059c146107ea57806370a0823114610853578063715018a6146108745780637641e6f31461088957806376e71dd8146108e75780637945b129146108fc5780637b1039991461091c5780637d64bcb4146109315780638456cb5914610946578063874a62f61461095b57806388ee39cc146109735780638da5cb5b1461099a5780638f98ce8f146109af57806393d3173a146109c457806395d89b41146109ef5780639650b1e514610a0457806398b9a2dc14610a195780639a6a30a414610a3a5780639cd1a12114610a5b5780639f727c2714610a86578063a9059cbb14610a9b578063a91ee0dc14610abf578063b967a52e14610ae0578063c0ee0b8a14610b39578063c89e436114610b6a578063d42cfc4114610b7f578063d73dd62314610b94578063dd62ed3e14610bb8578063e30c397814610bdf578063e8a96b4614610bf4578063f2fde38b14610c0c578063f3ae241514610c2d575b3480156102dd57600080fd5b50005b3480156102ec57600080fd5b506102f5610c4e565b604080519115158252519081900360200190f35b34801561031557600080fd5b5061031e610c57565b6040805160208082528351818301528351919283929083019185019080838360005b83811015610358578181015183820152602001610340565b50505050905090810190601f1680156103855780820380516001836020036101000a031916815260200191505b509250505060405180910390f35b34801561039f57600080fd5b506102f5600160a060020a0360043516602435610ce5565b3480156103c357600080fd5b506103de600160a060020a0360043581169060243516610cfc565b60408051918252519081900360200190f35b3480156103fc57600080fd5b506103de610d27565b34801561041157600080fd5b50610426600160a060020a0360043516610d36565b005b34801561043457600080fd5b506103de610e02565b34801561044957600080fd5b50610426600160a060020a0360043516610ea6565b34801561046a57600080fd5b50610426600435602435610f0d565b34801561048557600080fd5b50610426610ff4565b34801561049a57600080fd5b506102f5600160a060020a036004358116906024351660443561102f565b3480156104c457600080fd5b506104cd611050565b60408051600160a060020a039092168252519081900360200190f35b3480156104f557600080fd5b506102f5600160a060020a03600435811690602435906044351661105f565b34801561052057600080fd5b50610426600160a060020a036004351661108e565b34801561054157600080fd5b5061054a611128565b6040805160ff9092168252519081900360200190f35b34801561056c57600080fd5b5061031e61112d565b34801561058157600080fd5b506104cd611187565b34801561059657600080fd5b50610426611196565b3480156105ab57600080fd5b506102f5600160a060020a036004351660243561120e565b3480156105cf57600080fd5b506103de600160a060020a036004351661126f565b3480156105f057600080fd5b506040805160206004803580820135601f810184900484028501840190955284845261042694369492936024939284019190819084018382808284375050604080516020601f89358b018035918201839004830284018301909452808352979a99988101979196509182019450925082915084018382808284375094975061129a9650505050505050565b34801561068757600080fd5b5061031e6113dd565b34801561069c57600080fd5b506102f5600160a060020a036004358116906024358116906044359060643516611438565b3480156106cd57600080fd5b5061042661145e565b3480156106e257600080fd5b506040805160206004803580820135601f81018490048402850184019095528484526104269436949293602493928401919081908401838280828437509497506114d99650505050505050565b34801561073b57600080fd5b506102f5600160a060020a0360043516611742565b34801561075c57600080fd5b506102f5600160a060020a036004358116906024359060443516611824565b34801561078757600080fd5b506102f5611849565b34801561079c57600080fd5b50610426600160a060020a0360043516611859565b3480156107bd57600080fd5b506102f5600160a060020a03600435166024356118c4565b3480156107e157600080fd5b506103de6118d1565b3480156107f657600080fd5b50604080516020600460443581810135601f8101849004840285018401909552848452610426948235600160a060020a031694602480359536959460649492019190819084018382808284375094975061194f9650505050505050565b34801561085f57600080fd5b506103de600160a060020a0360043516611976565b34801561088057600080fd5b50610426611a31565b34801561089557600080fd5b5060408051602060046024803582810135601f81018590048502860185019096528585526102f5958335953695604494919390910191908190840183828082843750949750611a909650505050505050565b3480156108f357600080fd5b506103de611a9d565b34801561090857600080fd5b506104266004803560248101910135611ac4565b34801561092857600080fd5b506104cd611bd8565b34801561093d57600080fd5b506102f5611be7565b34801561095257600080fd5b50610426611c4b565b34801561096757600080fd5b506103de600435611cc8565b34801561097f57600080fd5b50610426600160a060020a0360043581169060243516611cf1565b3480156109a657600080fd5b506104cd611db2565b3480156109bb57600080fd5b506103de611dc1565b3480156109d057600080fd5b506102f5600160a060020a036004358116906024359060443516611dc7565b3480156109fb57600080fd5b5061031e611dec565b348015610a1057600080fd5b5061031e611e47565b348015610a2557600080fd5b50610426600160a060020a0360043516611ea2565b348015610a4657600080fd5b50610426600160a060020a0360043516611fde565b348015610a6757600080fd5b506102f5600160a060020a03600435811690602435906044351661202b565b348015610a9257600080fd5b50610426612050565b348015610aa757600080fd5b506102f5600160a060020a03600435166024356120a5565b348015610acb57600080fd5b50610426600160a060020a03600435166120ba565b348015610aec57600080fd5b506040805160206004803580820135601f81018490048402850184019095528484526104269436949293602493928401919081908401838280828437509497506121219650505050505050565b348015610b4557600080fd5b5061042660048035600160a060020a031690602480359160443591820191013561214b565b348015610b7657600080fd5b506104cd612150565b348015610b8b57600080fd5b506103de61215f565b348015610ba057600080fd5b506102f5600160a060020a0360043516602435612165565b348015610bc457600080fd5b506103de600160a060020a0360043581169060243516612172565b348015610beb57600080fd5b506104cd612236565b348015610c0057600080fd5b506104cd600435612245565b348015610c1857600080fd5b50610426600160a060020a0360043516612300565b348015610c3957600080fd5b506102f5600160a060020a0360043516612336565b60095460ff1681565b600f805460408051602060026001851615610100026000190190941693909304601f81018490048402820184019092528181529291830182828015610cdd5780601f10610cb257610100808354040283529160200191610cdd565b820191906000526020600020905b815481529060010190602001808311610cc057829003601f168201915b505050505081565b6000610cf2838333612390565b5060015b92915050565b600b54600090600160a060020a03163314610d1657600080fd5b610d208383612172565b9392505050565b6a52b7d2dcc80cd2e400000081565b60008054600160a060020a03163314610d4e57600080fd5b604080517f70a082310000000000000000000000000000000000000000000000000000000081523060048201529051600160a060020a038416916370a082319160248083019260209291908290030181600087803b158015610daf57600080fd5b505af1158015610dc3573d6000803e3d6000fd5b505050506040513d6020811015610dd957600080fd5b5051600054909150610dfe90600160a060020a0384811691168363ffffffff6123b216565b5050565b6000610e0c61244c565b1515610e2157610e1a61245d565b9050610ea3565b600a60009054906101000a9004600160a060020a0316600160a060020a03166376e71dd86040518163ffffffff1660e060020a028152600401602060405180830381600087803b158015610e7457600080fd5b505af1158015610e88573d6000803e3d6000fd5b505050506040513d6020811015610e9e57600080fd5b505190505b90565b600054600160a060020a03163314610ebd57600080fd5b600a8054600160a060020a031916600160a060020a0383811691909117918290556040519116907f376b7ed8bfb3c86aceee48f830ab5c007b4aa3ea522fb8784caeb5e33d535b4f90600090a250565b60025460405160e060020a631ca451a30281523360048201818152600160a060020a0390931692631ca451a392600091906024018260ff16815260200192505050602060405180830381600087803b158015610f6857600080fd5b505af1158015610f7c573d6000803e3d6000fd5b505050506040513d6020811015610f9257600080fd5b50511515610f9f57600080fd5b808210610fab57600080fd5b600c829055600d819055604080518381526020810183905281517f0dba25723c12d14a525942a1f517d05faa831a99752d9e8273a56eb021106b7e929181900390910190a15050565b600054600160a060020a0316331461100b57600080fd5b60005460058054600160a060020a031916600160a060020a03909216919091179055565b600061103a83612463565b61104584848461259b565b506001949350505050565b600b54600160a060020a031681565b600b54600090600160a060020a0316331461107957600080fd5b611084848484612390565b5060019392505050565b60008054600160a060020a031633146110a657600080fd5b5060008054604080517ff2fde38b000000000000000000000000000000000000000000000000000000008152600160a060020a039283166004820152905184939284169263f2fde38b926024808201939182900301818387803b15801561110c57600080fd5b505af1158015611120573d6000803e3d6000fd5b505050505050565b601281565b60018054604080516020600284861615610100026000190190941693909304601f81018490048402820184019092528181529291830182828015610cdd5780601f10610cb257610100808354040283529160200191610cdd565b600e54600160a060020a031681565b600054600160a060020a031633146111ad57600080fd5b600e5460a060020a900460ff1615156111c557600080fd5b600e805474ff0000000000000000000000000000000000000000191690556040517f7805862f689e2f13df9f062ff482ad3ad112aca9e0847911ed832e158c525b3390600090a1565b60008054600160a060020a0316331461122657600080fd5b60095460ff161561123657600080fd5b6a52b7d2dcc80cd2e400000061125a8361124e610e02565b9063ffffffff6125a916565b111561126557600080fd5b610d2083836125b6565b600b54600090600160a060020a0316331461128957600080fd5b61129282611976565b90505b919050565b600054600160a060020a031633146112b157600080fd5b81516112c490600f906020850190613aa9565b5080516112d8906010906020840190613aa9565b507f2c586a8161695058b918f15f079ee9cf05427ae067f6ede6ddda358cd6c8c3d28282604051808060200180602001838103835285818151815260200191508051906020019080838360005b8381101561133d578181015183820152602001611325565b50505050905090810190601f16801561136a5780820380516001836020036101000a031916815260200191505b50838103825284518152845160209182019186019080838360005b8381101561139d578181015183820152602001611385565b50505050905090810190601f1680156113ca5780820380516001836020036101000a031916815260200191505b5094505050505060405180910390a15050565b6004805460408051602060026001851615610100026000190190941693909304601f81018490048402820184019092528181529291830182828015610cdd5780601f10610cb257610100808354040283529160200191610cdd565b600b54600090600160a060020a0316331461145257600080fd5b61104585858585612693565b600554600160a060020a0316331461147557600080fd5b60055460008054604051600160a060020a0393841693909116917f8be0079c531659141344cd1fd0a4f28419497f9722a3daafe3b4186f6b6457e091a36005805460008054600160a060020a0319908116600160a060020a03841617909155169055565b60025460405160e060020a631ca451a30281523360048201818152606093600160a060020a031692631ca451a392916000916024018260ff16815260200192505050602060405180830381600087803b15801561153557600080fd5b505af1158015611549573d6000803e3d6000fd5b505050506040513d602081101561155f57600080fd5b5051151561156c57600080fd5b6004805460408051602060026001851615610100026000190190941693909304601f810184900484028201840190925281815292918301828280156115f25780601f106115c7576101008083540402835291602001916115f2565b820191906000526020600020905b8154815290600101906020018083116115d557829003601f168201915b5050855193945061160e93600493506020870192509050613aa9565b507fa3def007e27da3e14a191178bb44f77d314ebee191a34694c9d289a713e29369308260046040518084600160a060020a0316600160a060020a031681526020018060200180602001838103835285818151815260200191508051906020019080838360005b8381101561168d578181015183820152602001611675565b50505050905090810190601f1680156116ba5780820380516001836020036101000a031916815260200191505b5083810382528454600260001961010060018416150201909116048082526020909101908590801561172d5780601f106117025761010080835404028352916020019161172d565b820191906000526020600020905b81548152906001019060200180831161171057829003601f168201915b50509550505050505060405180910390a15050565b60008054600160a060020a0316331461175a57600080fd5b60078054600160a060020a031916600160a060020a038481169190911791829055604080517f4e71e0c800000000000000000000000000000000000000000000000000000000815290519290911691634e71e0c89160048082019260009290919082900301818387803b1580156117d057600080fd5b505af11580156117e4573d6000803e3d6000fd5b5050604051600160a060020a03851692507fa89fb8ab3845cb6919c98b54ca0d8f398df48c64ae04ed309cd7b130539badd49150600090a2506001919050565b600b54600090600160a060020a0316331461183e57600080fd5b6110848484846126bc565b600e5460a060020a900460ff1681565b600054600160a060020a0316331461187057600080fd5b600b8054600160a060020a038316600160a060020a0319909116811790915560408051918252517fbfe4d7336d09daa34377f281e09a6cb0ef6312e715b86532ad83969bc22be5f39181900360200190a150565b6000610cf28383336126de565b60006118dc33612336565b806118f15750600054600160a060020a031633145b15156118fc57600080fd5b600960019054906101000a9004600160a060020a0316600160a060020a0316630870188e6040518163ffffffff1660e060020a028152600401602060405180830381600087803b158015610e7457600080fd5b600b54600160a060020a0316331461196657600080fd5b611971838383612700565b505050565b600061198061244c565b15156119965761198f8261281b565b9050611295565b600a54604080517f43a468c8000000000000000000000000000000000000000000000000000000008152600160a060020a038581166004830152915191909216916343a468c89160248083019260209291908290030181600087803b1580156119fe57600080fd5b505af1158015611a12573d6000803e3d6000fd5b505050506040513d6020811015611a2857600080fd5b50519050611295565b600054600160a060020a03163314611a4857600080fd5b60008054604051600160a060020a03909116917ff8df31144d9c2f0f6b59d69b8b98abd5459d07f2742c4df920b25aae33c6482091a260008054600160a060020a0319169055565b6000610cf2338484612700565b600b54600090600160a060020a03163314611ab757600080fd5b611abf610e02565b905090565b6002546040805160e060020a631ca451a302815233600482015260006024820181905291519192839283928392600160a060020a031691631ca451a39160448082019260209290919082900301818787803b158015611b2257600080fd5b505af1158015611b36573d6000803e3d6000fd5b505050506040513d6020811015611b4c57600080fd5b50511515611b5957600080fd5b611b616118d1565b9350600092505b8383101561112057611b7983612245565b9150611b8482611976565b9050801515611b9257611bcd565b611bcd828288888080601f01602080910402602001604051908101604052809392919081815260200183838082843750612700945050505050565b826001019250611b68565b600254600160a060020a031681565b60008054600160a060020a03163314611bff57600080fd5b60095460ff1615611c0f57600080fd5b6009805460ff191660011790556040517fae5184fba832cb2b1f702aca6117b8d265eaf03ad33eb133f19dde0f5920fa0890600090a150600190565b600054600160a060020a03163314611c6257600080fd5b600e5460a060020a900460ff1615611c7957600080fd5b600e805474ff0000000000000000000000000000000000000000191660a060020a1790556040517f6985a02210a168e66602d3235cb6db0e70f92b3ba4d376a33c0f3d9434bff62590600090a1565b6000611292600d54611ce5600c548561288690919063ffffffff16565b9063ffffffff6128af16565b60008054600160a060020a03163314611d0957600080fd5b604080517f70a082310000000000000000000000000000000000000000000000000000000081523060048201529051600160a060020a038516916370a082319160248083019260209291908290030181600087803b158015611d6a57600080fd5b505af1158015611d7e573d6000803e3d6000fd5b505050506040513d6020811015611d9457600080fd5b50519050611971600160a060020a038416838363ffffffff6123b216565b600054600160a060020a031681565b600c5481565b600b54600090600160a060020a03163314611de157600080fd5b6110848484846126de565b6010805460408051602060026001851615610100026000190190941693909304601f81018490048402820184019092528181529291830182828015610cdd5780601f10610cb257610100808354040283529160200191610cdd565b6003805460408051602060026001851615610100026000190190941693909304601f81018490048402820184019092528181529291830182828015610cdd5780601f10610cb257610100808354040283529160200191610cdd565b60025460405160e060020a631ca451a30281523360048201818152600160a060020a0390931692631ca451a392600091906024018260ff16815260200192505050602060405180830381600087803b158015611efd57600080fd5b505af1158015611f11573d6000803e3d6000fd5b505050506040513d6020811015611f2757600080fd5b50511515611f3457600080fd5b600160a060020a0381161515611f94576040805160e560020a62461bcd02815260206004820152601860248201527f6e65772077616c6c65742063616e6e6f74206265203078300000000000000000604482015290519081900360640190fd5b600e8054600160a060020a031916600160a060020a0383169081179091556040517f5e854bf999fde7f4dc7e1139995b6318400f5cfccb2c8616f7df90e26263ed0590600090a250565b600054600160a060020a03163314611ff557600080fd5b604051600160a060020a03821690303180156108fc02916000818181858888f19350505050158015610dfe573d6000803e3d6000fd5b600b54600090600160a060020a0316331461204557600080fd5b6110848285856128c4565b600054600160a060020a0316331461206757600080fd5b60008054604051600160a060020a0390911691303180156108fc02929091818181858888f193505050501580156120a2573d6000803e3d6000fd5b50565b60006120b083612463565b61108483836128e6565b600054600160a060020a031633146120d157600080fd5b60028054600160a060020a031916600160a060020a0383811691909117918290556040519116907f278c70ced5f3e0e5eeb385b5ff9cb735748ba00a625147e66065ed48fc1562cd90600090a250565b600054600160a060020a0316331461213857600080fd5b8051610dfe906001906020840190613aa9565b600080fd5b600a54600160a060020a031681565b600d5481565b6000610cf28383336126bc565b600061217c61244c565b15156121935761218c83836128f3565b9050610cf6565b600a54604080517f09ab8bba000000000000000000000000000000000000000000000000000000008152600160a060020a0386811660048301528581166024830152915191909216916309ab8bba9160448083019260209291908290030181600087803b15801561220357600080fd5b505af1158015612217573d6000803e3d6000fd5b505050506040513d602081101561222d57600080fd5b50519050610cf6565b600554600160a060020a031681565b600061225033612336565b806122655750600054600160a060020a031633145b151561227057600080fd5b600960019054906101000a9004600160a060020a0316600160a060020a0316635fab6f82836040518263ffffffff1660e060020a02815260040180828152602001915050602060405180830381600087803b1580156122ce57600080fd5b505af11580156122e2573d6000803e3d6000fd5b505050506040513d60208110156122f857600080fd5b505192915050565b600054600160a060020a0316331461231757600080fd5b600160a060020a03811630141561232d57600080fd5b6120a28161291e565b6002546040805160e060020a631ca451a3028152600160a060020a038481166004830152600060248301819052925192931691631ca451a39160448082019260209290919082900301818787803b1580156122ce57600080fd5b600e5460a060020a900460ff16156123a757600080fd5b611971838383612957565b82600160a060020a031663a9059cbb83836040518363ffffffff1660e060020a0281526004018083600160a060020a0316600160a060020a0316815260200182815260200192505050602060405180830381600087803b15801561241557600080fd5b505af1158015612429573d6000803e3d6000fd5b505050506040513d602081101561243f57600080fd5b5051151561197157600080fd5b600a54600160a060020a0316151590565b60065490565b600954604080517f5dbe47e8000000000000000000000000000000000000000000000000000000008152600160a060020a038481166004830152915161010090930490911691635dbe47e8916024808201926020929091908290030181600087803b1580156124d157600080fd5b505af11580156124e5573d6000803e3d6000fd5b505050506040513d60208110156124fb57600080fd5b505115156120a257600954604080517f0a3b0a4f000000000000000000000000000000000000000000000000000000008152600160a060020a038481166004830152915161010090930490911691630a3b0a4f916024808201926020929091908290030181600087803b15801561257157600080fd5b505af1158015612585573d6000803e3d6000fd5b505050506040513d602081101561197157600080fd5b600061108484848433612693565b81810182811015610cf657fe5b600080548190600160a060020a031633146125d057600080fd5b60095460ff16156125e057600080fd5b6125ea84846129e7565b90508015610d2057600954604080517f0a3b0a4f000000000000000000000000000000000000000000000000000000008152600160a060020a038781166004830152915161010090930490911691630a3b0a4f916024808201926020929091908290030181600087803b15801561266057600080fd5b505af1158015612674573d6000803e3d6000fd5b505050506040513d602081101561268a57600080fd5b50509392505050565b600e5460a060020a900460ff16156126aa57600080fd5b6126b684848484612a61565b50505050565b600e5460a060020a900460ff16156126d357600080fd5b611971838383612acd565b600e5460a060020a900460ff16156126f557600080fd5b611971838383612b5d565b61270861244c565b151561271e57612719838383612bed565b611971565b600a546040517f6d85059c000000000000000000000000000000000000000000000000000000008152600160a060020a0385811660048301908152602483018690526060604484019081528551606485015285519290941693636d85059c9388938893889390929091608490910190602085019080838360005b838110156127b0578181015183820152602001612798565b50505050905090810190601f1680156127dd5780820380516001836020036101000a031916815260200191505b50945050505050600060405180830381600087803b1580156127fe57600080fd5b505af1158015612812573d6000803e3d6000fd5b50505050505050565b600754604080517f70a08231000000000000000000000000000000000000000000000000000000008152600160a060020a038481166004830152915160009392909216916370a082319160248082019260209290919082900301818787803b1580156122ce57600080fd5b600082151561289757506000610cf6565b508181028183828115156128a757fe5b0414610cf657fe5b600081838115156128bc57fe5b049392505050565b600e5460a060020a900460ff16156128db57600080fd5b611971838383612ca7565b6000610cf23384846128c4565b600160a060020a03918216600090815260086020908152604080832093909416825291909152205490565b600054600160a060020a0316331461293557600080fd5b60058054600160a060020a031916600160a060020a0392909216919091179055565b61295f61244c565b151561297057612719838383612ce2565b600a54604080517f296f4000000000000000000000000000000000000000000000000000000000008152600160a060020a0386811660048301526024820186905284811660448301529151919092169163296f40009160648083019260209291908290030181600087803b15801561241557600080fd5b60008054600160a060020a031633146129ff57600080fd5b60095460ff1615612a0f57600080fd5b612a198383612d44565b604080518381529051600160a060020a038516917f0f6798a560793a54c3bcfe86a93cde1e73087d944c0ea20544137d4121396885919081900360200190a250600192915050565b600160a060020a0383161515612ac1576040805160e560020a62461bcd02815260206004820152601260248201527f5f746f2061646472657373206973203078300000000000000000000000000000604482015290519081900360640190fd5b6126b684848484612e74565b612ad561244c565b1515612ae657612719838383612f49565b600a54604080517f554249b3000000000000000000000000000000000000000000000000000000008152600160a060020a0386811660048301526024820186905284811660448301529151919092169163554249b39160648083019260209291908290030181600087803b15801561241557600080fd5b612b6561244c565b1515612b7657612719838383612fe5565b600a54604080517f93d3173a000000000000000000000000000000000000000000000000000000008152600160a060020a038681166004830152602482018690528481166044830152915191909216916393d3173a9160648083019260209291908290030181600087803b15801561241557600080fd5b612bf783836130d7565b82600160a060020a03167f47e772fda56eb54ab211642ce5421882c49fc2b7033455982af14588ae4207ff83836040518083815260200180602001828103825283818151815260200191508051906020019080838360005b83811015612c67578181015183820152602001612c4f565b50505050905090810190601f168015612c945780820380516001836020036101000a031916815260200191505b50935050505060405180910390a2505050565b600160a060020a0382161515612cd757612cd1816020604051908101604052806000815250611a90565b50611971565b6119718383836130f8565b600160a060020a03808216600081815260086020908152604080832094881680845294825291829020869055815186815291517f8c5be1e5ebec7d5bd14f71427d1e84f3dd0314c0f7b2291e5b200ac8c7c3b9259281900390910190a3505050565b6002546040805160e060020a631ca451a3028152600160a060020a03858116600483015260036024830152915185939290921691631ca451a3916044808201926020929091908290030181600087803b158015612da057600080fd5b505af1158015612db4573d6000803e3d6000fd5b505050506040513d6020811015612dca57600080fd5b50511515612dd757600080fd5b600280546040805160e060020a631ca451a3028152600160a060020a03878116600483015260248201949094529051869390921691631ca451a3916044808201926020929091908290030181600087803b158015612e3457600080fd5b505af1158015612e48573d6000803e3d6000fd5b505050506040513d6020811015612e5e57600080fd5b505115612e6a57600080fd5b6126b684846132bc565b612e7c61244c565b1515612e9357612e8e848484846133b2565b6126b6565b600a54604080517f4df6b45d000000000000000000000000000000000000000000000000000000008152600160a060020a038781166004830152868116602483015260448201869052848116606483015291519190921691634df6b45d9160848083019260209291908290030181600087803b158015612f1257600080fd5b505af1158015612f26573d6000803e3d6000fd5b505050506040513d6020811015612f3c57600080fd5b505115156126b657600080fd5b600160a060020a03808216600090815260086020908152604080832093871683529290522054612f7f908363ffffffff6125a916565b600160a060020a0382811660008181526008602090815260408083209489168084529482529182902085905581519485529051929391927f8c5be1e5ebec7d5bd14f71427d1e84f3dd0314c0f7b2291e5b200ac8c7c3b9259281900390910190a3505050565b600160a060020a0380821660009081526008602090815260408083209387168352929052205480831061303f57600160a060020a038083166000908152600860209081526040808320938816835292905290812055613076565b61304f818463ffffffff61349e16565b600160a060020a038084166000908152600860209081526040808320938916835292905220555b600160a060020a0382811660008181526008602090815260408083209489168084529482529182902054825190815291517f8c5be1e5ebec7d5bd14f71427d1e84f3dd0314c0f7b2291e5b200ac8c7c3b9259281900390910190a350505050565b600e5460a060020a900460ff16156130ee57600080fd5b610dfe82826134b0565b600280546040805160e060020a631ca451a3028152600160a060020a03878116600483015260248201949094529051869390921691631ca451a3916044808201926020929091908290030181600087803b15801561315557600080fd5b505af1158015613169573d6000803e3d6000fd5b505050506040513d602081101561317f57600080fd5b50511561318b57600080fd5b600280546040805160e060020a631ca451a3028152600160a060020a03878116600483015260248201949094529051869390921691631ca451a3916044808201926020929091908290030181600087803b1580156131e857600080fd5b505af11580156131fc573d6000803e3d6000fd5b505050506040513d602081101561321257600080fd5b50511561321e57600080fd5b6002546040805160e060020a631ca451a3028152600160a060020a03878116600483015260036024830152915187939290921691631ca451a3916044808201926020929091908290030181600087803b15801561327a57600080fd5b505af115801561328e573d6000803e3d6000fd5b505050506040513d60208110156132a457600080fd5b505115156132b157600080fd5b611120868686613607565b600160a060020a03821615156132d157600080fd5b6006546132e4908263ffffffff6125a916565b600655600754604080517f21e5383a000000000000000000000000000000000000000000000000000000008152600160a060020a03858116600483015260248201859052915191909216916321e5383a91604480830192600092919082900301818387803b15801561335557600080fd5b505af1158015613369573d6000803e3d6000fd5b5050604080518481529051600160a060020a0386169350600092507fddf252ad1be2c89b69c2b068fc378daa952ba7f163c4a11628f55a4df523b3ef9181900360200190a35050565b600160a060020a0380851660009081526008602090815260408083209385168352929052205480831115613430576040805160e560020a62461bcd02815260206004820181905260248201527f6e6f7420656e6f75676820616c6c6f77616e636520746f207472616e73666572604482015290519081900360640190fd5b600160a060020a03808616600090815260086020908152604080832093861683529290522054613466908463ffffffff61349e16565b600160a060020a038087166000908152600860209081526040808320938716835292905220556134978585856128c4565b5050505050565b6000828211156134aa57fe5b50900390565b600160a060020a03821615156134c557600080fd5b6134ce82611976565b811115613525576040805160e560020a62461bcd02815260206004820152601a60248201527f6e6f7420656e6f7567682062616c616e636520746f206275726e000000000000604482015290519081900360640190fd5b600754604080517fcf8eeb7e000000000000000000000000000000000000000000000000000000008152600160a060020a038581166004830152602482018590529151919092169163cf8eeb7e91604480830192600092919082900301818387803b15801561359357600080fd5b505af11580156135a7573d6000803e3d6000fd5b50506006546135bf925090508263ffffffff61349e16565b600655604080518281529051600091600160a060020a038516917fddf252ad1be2c89b69c2b068fc378daa952ba7f163c4a11628f55a4df523b3ef9181900360200190a35050565b600080613615858486613634565b9150613627838363ffffffff61349e16565b90506134978585836137a6565b6002546040805160e060020a631ca451a3028152600160a060020a038681166004808401919091526024830152915160009384938493911691631ca451a39160448082019260209290919082900301818787803b15801561369457600080fd5b505af11580156136a8573d6000803e3d6000fd5b505050506040513d60208110156136be57600080fd5b50518061374e57506002546040805160e060020a631ca451a3028152600160a060020a03878116600480840191909152602483015291519190921691631ca451a39160448083019260209291908290030181600087803b15801561372157600080fd5b505af1158015613735573d6000803e3d6000fd5b505050506040513d602081101561374b57600080fd5b50515b9150811561375f576000925061268a565b61377a600d54611ce5600c548861288690919063ffffffff16565b9050600081111561379d57600e5461379d908790600160a060020a0316836137a6565b95945050505050565b6137ae61244c565b15156137bf57612719838383613836565b600a54604080517f9cd1a121000000000000000000000000000000000000000000000000000000008152600160a060020a03858116600483015260248201859052868116604483015291519190921691639cd1a1219160648083019260209291908290030181600087803b15801561241557600080fd5b600160a060020a0382161515613896576040805160e560020a62461bcd02815260206004820152601860248201527f746f20616464726573732063616e6e6f74206265203078300000000000000000604482015290519081900360640190fd5b600160a060020a03831615156138f6576040805160e560020a62461bcd02815260206004820152601a60248201527f66726f6d20616464726573732063616e6e6f7420626520307830000000000000604482015290519081900360640190fd5b6138ff83611976565b811115613956576040805160e560020a62461bcd02815260206004820152601e60248201527f6e6f7420656e6f7567682062616c616e636520746f207472616e736665720000604482015290519081900360640190fd5b600754604080517fcf8eeb7e000000000000000000000000000000000000000000000000000000008152600160a060020a038681166004830152602482018590529151919092169163cf8eeb7e91604480830192600092919082900301818387803b1580156139c457600080fd5b505af11580156139d8573d6000803e3d6000fd5b5050600754604080517f21e5383a000000000000000000000000000000000000000000000000000000008152600160a060020a0387811660048301526024820187905291519190921693506321e5383a9250604480830192600092919082900301818387803b158015613a4a57600080fd5b505af1158015613a5e573d6000803e3d6000fd5b5050604080518481529051600160a060020a038087169450871692507fddf252ad1be2c89b69c2b068fc378daa952ba7f163c4a11628f55a4df523b3ef9181900360200190a3505050565b828054600181600116156101000203166002900490600052602060002090601f016020900481019282601f10613aea57805160ff1916838001178555613b17565b82800160010185558215613b17579182015b82811115613b17578251825591602001919060010190613afc565b50613b23929150613b27565b5090565b610ea391905b80821115613b235760008155600101613b2d5600a165627a7a7230582077652aa68f36f627d31dade0f469d63309ea746faec39b74047fbe6356ddae600029608060405260008054600160a060020a031916331790556103ff806100256000396000f3006080604052600436106100825763ffffffff7c01000000000000000000000000000000000000000000000000000000006000350416630870188e81146100875780630a3b0a4f146100ae5780635dbe47e8146100e35780635fab6f8214610104578063715018a6146101385780638da5cb5b1461014f578063f2fde38b14610164575b600080fd5b34801561009357600080fd5b5061009c610185565b60408051918252519081900360200190f35b3480156100ba57600080fd5b506100cf600160a060020a03600435166101a4565b604080519115158252519081900360200190f35b3480156100ef57600080fd5b506100cf600160a060020a036004351661024b565b34801561011057600080fd5b5061011c600435610269565b60408051600160a060020a039092168252519081900360200190f35b34801561014457600080fd5b5061014d6102b8565b005b34801561015b57600080fd5b5061011c610324565b34801561017057600080fd5b5061014d600160a060020a0360043516610333565b60008054600160a060020a0316331461019d57600080fd5b5060025490565b60008054600160a060020a031633146101bc57600080fd5b6101c58261024b565b156101d257506000610246565b50600160a060020a03811660008181526001602081905260408220805460ff19168217905560028054808301825592527f405787fa12a823e0f2b7631cc41b3ba8828b3321ca811111fa75cd3aa3bb5ace909101805473ffffffffffffffffffffffffffffffffffffffff19169092179091555b919050565b600160a060020a031660009081526001602052604090205460ff1690565b60008054600160a060020a0316331461028157600080fd5b600254821061028f57600080fd5b600280548390811061029d57fe5b600091825260209091200154600160a060020a031692915050565b600054600160a060020a031633146102cf57600080fd5b60008054604051600160a060020a03909116917ff8df31144d9c2f0f6b59d69b8b98abd5459d07f2742c4df920b25aae33c6482091a26000805473ffffffffffffffffffffffffffffffffffffffff19169055565b600054600160a060020a031681565b600054600160a060020a0316331461034a57600080fd5b61035381610356565b50565b600160a060020a038116151561036b57600080fd5b60008054604051600160a060020a03808516939216917f8be0079c531659141344cd1fd0a4f28419497f9722a3daafe3b4186f6b6457e091a36000805473ffffffffffffffffffffffffffffffffffffffff1916600160a060020a03929092169190911790555600a165627a7a72305820d0186d304587235334dd1acbf9e0855977c4839324d88fbc692b966e154f31c90029",
  "source": "pragma solidity ^0.4.24;\n\nimport './zeppelin/contracts/ownership/Contactable.sol';\n\nimport './base-token/PausableToken.sol';\nimport './delegate/CanDelegateToken.sol';\nimport './delegate/DelegateToken.sol';\nimport './AssetInfo.sol';\nimport './BurnableExToken.sol';\nimport './CompliantToken.sol';\nimport './TokenWithFees.sol';\nimport './WithdrawalToken.sol';\n\n\n/**\n * @title PAT token.\n * @dev PAT is a ERC20 token that:\n *  - caps total number at 100 million tokens.\n *  - can pause and unpause token transfer (and authorization) actions.\n *  - mints new tokens when purchased.\n *  - token holders can be distributed profit from asset manager.\n *  - contains real asset information.\n *  - can delegate to a new contract.\n *  - can enforce burning all tokens.\n *  - transferring tokens to 0x0 address is treated as burning.\n *  - transferring tokens with fees are sent to the system wallet.\n *  - attempts to check KYC/AML and Blacklist using Registry.\n *  - attempts to reject ERC20 token transfers to itself and allows token transfer out.\n *  - attempts to reject ether sent and allows any ether held to be transferred out.\n *  - allows the new owner to accept the ownership transfer, the owner can cancel the transfer if needed.\n **/\ncontract PATToken is Contactable, AssetInfo, BurnableExToken, CanDelegateToken, DelegateToken, TokenWithFees, CompliantToken, WithdrawalToken, PausableToken {\n  string public name = \"PATToken\";\n  string public symbol = \"PAT\";\n\n  uint8 public constant decimals = 18;\n  uint256 public constant TOTAL_TOKENS = 100 * (10**6) * (10 ** uint256(decimals));\n\n  event ChangeTokenName(string newName, string newSymbol);\n\n  /**\n   * @param _name Name of this token.\n   * @param _symbol Symbol of this token.\n   */\n  constructor(\n    string _name,\n    string _symbol,\n    string _fixedDocsLink,\n    string _varDocsLink,\n    address _wallet\n  )\n    public\n    AssetInfo(_fixedDocsLink, _varDocsLink)\n    TokenWithFees(_wallet)\n  {\n    name = _name;\n    symbol = _symbol;\n    contactInformation = 'https://rax.exchange/';\n  }\n\n  function changeTokenName(string _name, string _symbol) public onlyOwner {\n    name = _name;\n    symbol = _symbol;\n    emit ChangeTokenName(_name, _symbol);\n  }\n\n  /**\n   * @dev Mints tokens to a beneficiary address.\n   * Cap minting so that totalSupply <= TOTAL_TOKENS.\n   * @param _to Who got the tokens.\n   * @param _amount Amount of tokens.\n   */\n  function mint(\n    address _to,\n    uint256 _amount\n  )\n    public\n    hasMintPermission\n    canMint\n    returns(bool)\n  {\n    require(totalSupply().add(_amount) <= TOTAL_TOKENS);\n\n    return super.mint(_to, _amount);\n  }\n\n  /**\n   * @dev Allows the current owner to transfer control of the contract to a new owner.\n   * @param _newOwner The address to transfer ownership to.\n   */\n  function transferOwnership(address _newOwner) onlyOwner public {\n    // do not allow self ownership\n    require(_newOwner != address(this));\n    super.transferOwnership(_newOwner);\n  }\n}\n",
  "sourcePath": "/home/namtq/Trainning/git/SamIO/contracts/PATToken.sol",
  "compiler": {
    "name": "solc",
    "version": "0.4.24+commit.e67f0147.Emscripten.clang"
  },
  "schemaVersion": "2.0.1",
  "updatedAt": "2018-10-08T06:54:58.832Z"
}