{
  "contractName": "PausableToken",
  "abi": [
    {
      "constant": false,
      "inputs": [
        {
          "name": "_spender",
          "type": "address"
        },
        {
          "name": "_value",
          "type": "uint256"
        }
      ],
      "name": "approve",
      "outputs": [
        {
          "name": "",
          "type": "bool"
        }
      ],
      "payable": false,
      "stateMutability": "nonpayable",
      "type": "function"
    },
    {
      "constant": false,
      "inputs": [
        {
          "name": "_token",
          "type": "address"
        }
      ],
      "name": "reclaimToken",
      "outputs": [],
      "payable": false,
      "stateMutability": "nonpayable",
      "type": "function"
    },
    {
      "constant": true,
      "inputs": [],
      "name": "totalSupply",
      "outputs": [
        {
          "name": "",
          "type": "uint256"
        }
      ],
      "payable": false,
      "stateMutability": "view",
      "type": "function"
    },
    {
      "constant": false,
      "inputs": [],
      "name": "cancelOwnershipTransfer",
      "outputs": [],
      "payable": false,
      "stateMutability": "nonpayable",
      "type": "function"
    },
    {
      "constant": false,
      "inputs": [
        {
          "name": "_from",
          "type": "address"
        },
        {
          "name": "_to",
          "type": "address"
        },
        {
          "name": "_value",
          "type": "uint256"
        }
      ],
      "name": "transferFrom",
      "outputs": [
        {
          "name": "",
          "type": "bool"
        }
      ],
      "payable": false,
      "stateMutability": "nonpayable",
      "type": "function"
    },
    {
      "constant": false,
      "inputs": [
        {
          "name": "_contractAddr",
          "type": "address"
        }
      ],
      "name": "reclaimContract",
      "outputs": [],
      "payable": false,
      "stateMutability": "nonpayable",
      "type": "function"
    },
    {
      "constant": false,
      "inputs": [],
      "name": "unpause",
      "outputs": [],
      "payable": false,
      "stateMutability": "nonpayable",
      "type": "function"
    },
    {
      "constant": false,
      "inputs": [],
      "name": "claimOwnership",
      "outputs": [],
      "payable": false,
      "stateMutability": "nonpayable",
      "type": "function"
    },
    {
      "constant": false,
      "inputs": [
        {
          "name": "_sheet",
          "type": "address"
        }
      ],
      "name": "setBalanceSheet",
      "outputs": [
        {
          "name": "",
          "type": "bool"
        }
      ],
      "payable": false,
      "stateMutability": "nonpayable",
      "type": "function"
    },
    {
      "constant": true,
      "inputs": [],
      "name": "paused",
      "outputs": [
        {
          "name": "",
          "type": "bool"
        }
      ],
      "payable": false,
      "stateMutability": "view",
      "type": "function"
    },
    {
      "constant": false,
      "inputs": [
        {
          "name": "_spender",
          "type": "address"
        },
        {
          "name": "_subtractedValue",
          "type": "uint256"
        }
      ],
      "name": "decreaseApproval",
      "outputs": [
        {
          "name": "",
          "type": "bool"
        }
      ],
      "payable": false,
      "stateMutability": "nonpayable",
      "type": "function"
    },
    {
      "constant": true,
      "inputs": [
        {
          "name": "_owner",
          "type": "address"
        }
      ],
      "name": "balanceOf",
      "outputs": [
        {
          "name": "balance",
          "type": "uint256"
        }
      ],
      "payable": false,
      "stateMutability": "view",
      "type": "function"
    },
    {
      "constant": false,
      "inputs": [],
      "name": "renounceOwnership",
      "outputs": [],
      "payable": false,
      "stateMutability": "nonpayable",
      "type": "function"
    },
    {
      "constant": false,
      "inputs": [],
      "name": "pause",
      "outputs": [],
      "payable": false,
      "stateMutability": "nonpayable",
      "type": "function"
    },
    {
      "constant": false,
      "inputs": [
        {
          "name": "token",
          "type": "address"
        },
        {
          "name": "_to",
          "type": "address"
        }
      ],
      "name": "reclaimToken",
      "outputs": [],
      "payable": false,
      "stateMutability": "nonpayable",
      "type": "function"
    },
    {
      "constant": true,
      "inputs": [],
      "name": "owner",
      "outputs": [
        {
          "name": "",
          "type": "address"
        }
      ],
      "payable": false,
      "stateMutability": "view",
      "type": "function"
    },
    {
      "constant": false,
      "inputs": [
        {
          "name": "_to",
          "type": "address"
        }
      ],
      "name": "reclaimEther",
      "outputs": [],
      "payable": false,
      "stateMutability": "nonpayable",
      "type": "function"
    },
    {
      "constant": false,
      "inputs": [],
      "name": "reclaimEther",
      "outputs": [],
      "payable": false,
      "stateMutability": "nonpayable",
      "type": "function"
    },
    {
      "constant": false,
      "inputs": [
        {
          "name": "_to",
          "type": "address"
        },
        {
          "name": "_value",
          "type": "uint256"
        }
      ],
      "name": "transfer",
      "outputs": [
        {
          "name": "",
          "type": "bool"
        }
      ],
      "payable": false,
      "stateMutability": "nonpayable",
      "type": "function"
    },
    {
      "constant": true,
      "inputs": [
        {
          "name": "_from",
          "type": "address"
        },
        {
          "name": "_value",
          "type": "uint256"
        },
        {
          "name": "_data",
          "type": "bytes"
        }
      ],
      "name": "tokenFallback",
      "outputs": [],
      "payable": false,
      "stateMutability": "pure",
      "type": "function"
    },
    {
      "constant": false,
      "inputs": [
        {
          "name": "_spender",
          "type": "address"
        },
        {
          "name": "_addedValue",
          "type": "uint256"
        }
      ],
      "name": "increaseApproval",
      "outputs": [
        {
          "name": "",
          "type": "bool"
        }
      ],
      "payable": false,
      "stateMutability": "nonpayable",
      "type": "function"
    },
    {
      "constant": true,
      "inputs": [
        {
          "name": "_owner",
          "type": "address"
        },
        {
          "name": "_spender",
          "type": "address"
        }
      ],
      "name": "allowance",
      "outputs": [
        {
          "name": "",
          "type": "uint256"
        }
      ],
      "payable": false,
      "stateMutability": "view",
      "type": "function"
    },
    {
      "constant": true,
      "inputs": [],
      "name": "pendingOwner",
      "outputs": [
        {
          "name": "",
          "type": "address"
        }
      ],
      "payable": false,
      "stateMutability": "view",
      "type": "function"
    },
    {
      "constant": false,
      "inputs": [
        {
          "name": "newOwner",
          "type": "address"
        }
      ],
      "name": "transferOwnership",
      "outputs": [],
      "payable": false,
      "stateMutability": "nonpayable",
      "type": "function"
    },
    {
      "payable": false,
      "stateMutability": "nonpayable",
      "type": "fallback"
    },
    {
      "anonymous": false,
      "inputs": [],
      "name": "Pause",
      "type": "event"
    },
    {
      "anonymous": false,
      "inputs": [],
      "name": "Unpause",
      "type": "event"
    },
    {
      "anonymous": false,
      "inputs": [
        {
          "indexed": true,
          "name": "sheet",
          "type": "address"
        }
      ],
      "name": "BalanceSheetSet",
      "type": "event"
    },
    {
      "anonymous": false,
      "inputs": [
        {
          "indexed": true,
          "name": "owner",
          "type": "address"
        },
        {
          "indexed": true,
          "name": "spender",
          "type": "address"
        },
        {
          "indexed": false,
          "name": "value",
          "type": "uint256"
        }
      ],
      "name": "Approval",
      "type": "event"
    },
    {
      "anonymous": false,
      "inputs": [
        {
          "indexed": true,
          "name": "from",
          "type": "address"
        },
        {
          "indexed": true,
          "name": "to",
          "type": "address"
        },
        {
          "indexed": false,
          "name": "value",
          "type": "uint256"
        }
      ],
      "name": "Transfer",
      "type": "event"
    },
    {
      "anonymous": false,
      "inputs": [
        {
          "indexed": true,
          "name": "previousOwner",
          "type": "address"
        }
      ],
      "name": "OwnershipRenounced",
      "type": "event"
    },
    {
      "anonymous": false,
      "inputs": [
        {
          "indexed": true,
          "name": "previousOwner",
          "type": "address"
        },
        {
          "indexed": true,
          "name": "newOwner",
          "type": "address"
        }
      ],
      "name": "OwnershipTransferred",
      "type": "event"
    }
  ],
  "bytecode": "0x60806040526005805460ff1916905560008054600160a060020a03191633179055341561002b57600080fd5b600060025561128c8061003f6000396000f30060806040526004361061013d5763ffffffff7c0100000000000000000000000000000000000000000000000000000000600035041663095ea7b3811461014c57806317ffc3201461018457806318160ddd146101a757806323452b9c146101ce57806323b872dd146101e35780632aed7f3f1461020d5780633f4ba83a1461022e5780634e71e0c81461024357806354f78dad146102585780635c975abb14610279578063661884631461028e57806370a08231146102b2578063715018a6146102d35780638456cb59146102e857806388ee39cc146102fd5780638da5cb5b146103245780639a6a30a4146103555780639f727c2714610376578063a9059cbb1461038b578063c0ee0b8a146103af578063d73dd623146103e0578063dd62ed3e14610404578063e30c39781461042b578063f2fde38b14610440575b34801561014957600080fd5b50005b34801561015857600080fd5b50610170600160a060020a0360043516602435610461565b604080519115158252519081900360200190f35b34801561019057600080fd5b506101a5600160a060020a0360043516610477565b005b3480156101b357600080fd5b506101bc610543565b60408051918252519081900360200190f35b3480156101da57600080fd5b506101a5610549565b3480156101ef57600080fd5b50610170600160a060020a0360043581169060243516604435610591565b34801561021957600080fd5b506101a5600160a060020a03600435166105a9565b34801561023a57600080fd5b506101a5610643565b34801561024f57600080fd5b506101a56106a0565b34801561026457600080fd5b50610170600160a060020a0360043516610728565b34801561028557600080fd5b50610170610817565b34801561029a57600080fd5b50610170600160a060020a0360043516602435610820565b3480156102be57600080fd5b506101bc600160a060020a036004351661082d565b3480156102df57600080fd5b506101a56108ca565b3480156102f457600080fd5b506101a5610936565b34801561030957600080fd5b506101a5600160a060020a0360043581169060243516610995565b34801561033057600080fd5b50610339610a5b565b60408051600160a060020a039092168252519081900360200190f35b34801561036157600080fd5b506101a5600160a060020a0360043516610a6a565b34801561038257600080fd5b506101a5610ab7565b34801561039757600080fd5b50610170600160a060020a0360043516602435610b0c565b3480156103bb57600080fd5b506101a560048035600160a060020a0316906024803591604435918201910135610b19565b3480156103ec57600080fd5b50610170600160a060020a0360043516602435610b1e565b34801561041057600080fd5b506101bc600160a060020a0360043581169060243516610b2b565b34801561043757600080fd5b50610339610b56565b34801561044c57600080fd5b506101a5600160a060020a0360043516610b65565b600061046e838333610bab565b50600192915050565b60008054600160a060020a0316331461048f57600080fd5b604080517f70a082310000000000000000000000000000000000000000000000000000000081523060048201529051600160a060020a038416916370a082319160248083019260209291908290030181600087803b1580156104f057600080fd5b505af1158015610504573d6000803e3d6000fd5b505050506040513d602081101561051a57600080fd5b505160005490915061053f90600160a060020a0384811691168363ffffffff610bc616565b5050565b60025490565b600054600160a060020a0316331461056057600080fd5b6000546001805473ffffffffffffffffffffffffffffffffffffffff1916600160a060020a03909216919091179055565b600061059f84848433610c79565b5060019392505050565b60008054600160a060020a031633146105c157600080fd5b5060008054604080517ff2fde38b000000000000000000000000000000000000000000000000000000008152600160a060020a039283166004820152905184939284169263f2fde38b926024808201939182900301818387803b15801561062757600080fd5b505af115801561063b573d6000803e3d6000fd5b505050505050565b600054600160a060020a0316331461065a57600080fd5b60055460ff16151561066b57600080fd5b6005805460ff191690556040517f7805862f689e2f13df9f062ff482ad3ad112aca9e0847911ed832e158c525b3390600090a1565b600154600160a060020a031633146106b757600080fd5b60015460008054604051600160a060020a0393841693909116917f8be0079c531659141344cd1fd0a4f28419497f9722a3daafe3b4186f6b6457e091a3600180546000805473ffffffffffffffffffffffffffffffffffffffff19908116600160a060020a03841617909155169055565b60008054600160a060020a0316331461074057600080fd5b6003805473ffffffffffffffffffffffffffffffffffffffff1916600160a060020a038481169190911791829055604080517f4e71e0c800000000000000000000000000000000000000000000000000000000815290519290911691634e71e0c89160048082019260009290919082900301818387803b1580156107c357600080fd5b505af11580156107d7573d6000803e3d6000fd5b5050604051600160a060020a03851692507fa89fb8ab3845cb6919c98b54ca0d8f398df48c64ae04ed309cd7b130539badd49150600090a2506001919050565b60055460ff1681565b600061046e838333610c9b565b600354604080517f70a08231000000000000000000000000000000000000000000000000000000008152600160a060020a038481166004830152915160009392909216916370a082319160248082019260209290919082900301818787803b15801561089857600080fd5b505af11580156108ac573d6000803e3d6000fd5b505050506040513d60208110156108c257600080fd5b505192915050565b600054600160a060020a031633146108e157600080fd5b60008054604051600160a060020a03909116917ff8df31144d9c2f0f6b59d69b8b98abd5459d07f2742c4df920b25aae33c6482091a26000805473ffffffffffffffffffffffffffffffffffffffff19169055565b600054600160a060020a0316331461094d57600080fd5b60055460ff161561095d57600080fd5b6005805460ff191660011790556040517f6985a02210a168e66602d3235cb6db0e70f92b3ba4d376a33c0f3d9434bff62590600090a1565b60008054600160a060020a031633146109ad57600080fd5b604080517f70a082310000000000000000000000000000000000000000000000000000000081523060048201529051600160a060020a038516916370a082319160248083019260209291908290030181600087803b158015610a0e57600080fd5b505af1158015610a22573d6000803e3d6000fd5b505050506040513d6020811015610a3857600080fd5b50519050610a56600160a060020a038416838363ffffffff610bc616565b505050565b600054600160a060020a031681565b600054600160a060020a03163314610a8157600080fd5b604051600160a060020a03821690303180156108fc02916000818181858888f1935050505015801561053f573d6000803e3d6000fd5b600054600160a060020a03163314610ace57600080fd5b60008054604051600160a060020a0390911691303180156108fc02929091818181858888f19350505050158015610b09573d6000803e3d6000fd5b50565b600061046e338484610cb6565b600080fd5b600061046e838333610cd1565b600160a060020a03918216600090815260046020908152604080832093909416825291909152205490565b600154600160a060020a031681565b600054600160a060020a03163314610b7c57600080fd5b6001805473ffffffffffffffffffffffffffffffffffffffff1916600160a060020a0392909216919091179055565b60055460ff1615610bbb57600080fd5b610a56838383610cec565b82600160a060020a031663a9059cbb83836040518363ffffffff167c01000000000000000000000000000000000000000000000000000000000281526004018083600160a060020a0316600160a060020a0316815260200182815260200192505050602060405180830381600087803b158015610c4257600080fd5b505af1158015610c56573d6000803e3d6000fd5b505050506040513d6020811015610c6c57600080fd5b50511515610a5657600080fd5b60055460ff1615610c8957600080fd5b610c9584848484610d4e565b50505050565b60055460ff1615610cab57600080fd5b610a56838383610e3a565b60055460ff1615610cc657600080fd5b610a56838383610f2c565b60055460ff1615610ce157600080fd5b610a5683838361119f565b600160a060020a03808216600081815260046020908152604080832094881680845294825291829020869055815186815291517f8c5be1e5ebec7d5bd14f71427d1e84f3dd0314c0f7b2291e5b200ac8c7c3b9259281900390910190a3505050565b600160a060020a0380851660009081526004602090815260408083209385168352929052205480831115610dcc576040805160e560020a62461bcd02815260206004820181905260248201527f6e6f7420656e6f75676820616c6c6f77616e636520746f207472616e73666572604482015290519081900360640190fd5b600160a060020a03808616600090815260046020908152604080832093861683529290522054610e02908463ffffffff61123b16565b600160a060020a03808716600090815260046020908152604080832093871683529290522055610e33858585610cb6565b5050505050565b600160a060020a03808216600090815260046020908152604080832093871683529290522054808310610e9457600160a060020a038083166000908152600460209081526040808320938816835292905290812055610ecb565b610ea4818463ffffffff61123b16565b600160a060020a038084166000908152600460209081526040808320938916835292905220555b600160a060020a0382811660008181526004602090815260408083209489168084529482529182902054825190815291517f8c5be1e5ebec7d5bd14f71427d1e84f3dd0314c0f7b2291e5b200ac8c7c3b9259281900390910190a350505050565b600160a060020a0382161515610f8c576040805160e560020a62461bcd02815260206004820152601860248201527f746f20616464726573732063616e6e6f74206265203078300000000000000000604482015290519081900360640190fd5b600160a060020a0383161515610fec576040805160e560020a62461bcd02815260206004820152601a60248201527f66726f6d20616464726573732063616e6e6f7420626520307830000000000000604482015290519081900360640190fd5b610ff58361082d565b81111561104c576040805160e560020a62461bcd02815260206004820152601e60248201527f6e6f7420656e6f7567682062616c616e636520746f207472616e736665720000604482015290519081900360640190fd5b600354604080517fcf8eeb7e000000000000000000000000000000000000000000000000000000008152600160a060020a038681166004830152602482018590529151919092169163cf8eeb7e91604480830192600092919082900301818387803b1580156110ba57600080fd5b505af11580156110ce573d6000803e3d6000fd5b5050600354604080517f21e5383a000000000000000000000000000000000000000000000000000000008152600160a060020a0387811660048301526024820187905291519190921693506321e5383a9250604480830192600092919082900301818387803b15801561114057600080fd5b505af1158015611154573d6000803e3d6000fd5b5050604080518481529051600160a060020a038087169450871692507fddf252ad1be2c89b69c2b068fc378daa952ba7f163c4a11628f55a4df523b3ef9181900360200190a3505050565b600160a060020a038082166000908152600460209081526040808320938716835292905220546111d5908363ffffffff61124d16565b600160a060020a0382811660008181526004602090815260408083209489168084529482529182902085905581519485529051929391927f8c5be1e5ebec7d5bd14f71427d1e84f3dd0314c0f7b2291e5b200ac8c7c3b9259281900390910190a3505050565b60008282111561124757fe5b50900390565b8181018281101561125a57fe5b929150505600a165627a7a723058202cbb667e60b94895a1e4ba37a68b20c74b46d8bf033833a8eaeabd3d0e2e7c380029",
  "source": "pragma solidity ^0.4.24;\n\nimport \"../zeppelin/contracts/lifecycle/Pausable.sol\";\n\nimport \"./StandardToken.sol\";\n\n\n/**\n * @title Pausable token\n * @dev StandardToken modified with pausable transfers.\n **/\ncontract PausableToken is StandardToken, Pausable {\n\n  function _transfer(\n    address _from,\n    address _to,\n    uint256 _value\n  )\n    internal\n    whenNotPaused\n  {\n    super._transfer(_from, _to, _value);\n  }\n\n  function _transferFrom(\n    address _from,\n    address _to,\n    uint256 _value,\n    address _spender\n  )\n    internal\n    whenNotPaused\n  {\n    super._transferFrom(_from, _to, _value, _spender);\n  }\n\n  function _approve(\n    address _spender,\n    uint256 _value,\n    address _tokenHolder\n  )\n    internal\n    whenNotPaused\n  {\n    super._approve(_spender, _value, _tokenHolder);\n  }\n\n  function _increaseApproval(\n    address _spender,\n    uint256 _addedValue,\n    address _tokenHolder\n  )\n    internal\n    whenNotPaused\n  {\n    super._increaseApproval(_spender, _addedValue, _tokenHolder);\n  }\n\n  function _decreaseApproval(\n    address _spender,\n    uint256 _subtractedValue,\n    address _tokenHolder\n  )\n    internal\n    whenNotPaused\n  {\n    super._decreaseApproval(_spender, _subtractedValue, _tokenHolder);\n  }\n\n  function _burn(\n    address _burner,\n    uint256 _value\n  )\n    internal\n    whenNotPaused\n  {\n    super._burn(_burner, _value);\n  }\n}\n",
  "sourcePath": "/home/namtq/Anlab/SamuraiX/contracts/base-token/PausableToken.sol",
  "compiler": {
    "name": "solc",
    "version": "0.4.24+commit.e67f0147.Emscripten.clang"
  },
  "schemaVersion": "2.0.1",
  "updatedAt": "2018-10-03T01:42:24.583Z"
}