{
  "contractName": "PullPayment",
  "abi": [
    {
      "inputs": [],
      "payable": false,
      "stateMutability": "nonpayable",
      "type": "constructor"
    },
    {
      "constant": false,
      "inputs": [],
      "name": "withdrawPayments",
      "outputs": [],
      "payable": false,
      "stateMutability": "nonpayable",
      "type": "function"
    },
    {
      "constant": true,
      "inputs": [
        {
          "name": "_dest",
          "type": "address"
        }
      ],
      "name": "payments",
      "outputs": [
        {
          "name": "",
          "type": "uint256"
        }
      ],
      "payable": false,
      "stateMutability": "view",
      "type": "function"
    }
  ],
  "bytecode": "0x608060405234801561001057600080fd5b5061001961005b565b604051809103906000f080158015610035573d6000803e3d6000fd5b5060008054600160a060020a031916600160a060020a039290921691909117905561006b565b6040516104468061028083390190565b6102068061007a6000396000f30060806040526004361061004b5763ffffffff7c01000000000000000000000000000000000000000000000000000000006000350416636103d70b8114610050578063e2982c2114610067575b600080fd5b34801561005c57600080fd5b506100656100a7565b005b34801561007357600080fd5b5061009573ffffffffffffffffffffffffffffffffffffffff60043516610133565b60408051918252519081900360200190f35b60008054604080517f51cff8d900000000000000000000000000000000000000000000000000000000815233600482018190529151919373ffffffffffffffffffffffffffffffffffffffff909316926351cff8d99260248084019382900301818387803b15801561011857600080fd5b505af115801561012c573d6000803e3d6000fd5b5050505050565b60008054604080517fe3a9db1a00000000000000000000000000000000000000000000000000000000815273ffffffffffffffffffffffffffffffffffffffff85811660048301529151919092169163e3a9db1a91602480830192602092919082900301818787803b1580156101a857600080fd5b505af11580156101bc573d6000803e3d6000fd5b505050506040513d60208110156101d257600080fd5b5051929150505600a165627a7a7230582082fea1c8e0ffe4d40e0a75c3e47ee7a3cac19f784c21ff1ffa1e4465dbd0a1830029608060405260008054600160a060020a03191633179055610421806100256000396000f3006080604052600436106100775763ffffffff7c010000000000000000000000000000000000000000000000000000000060003504166351cff8d9811461007c578063715018a61461009f5780638da5cb5b146100b4578063e3a9db1a146100e5578063f2fde38b14610118578063f340fa0114610139575b600080fd5b34801561008857600080fd5b5061009d600160a060020a036004351661014d565b005b3480156100ab57600080fd5b5061009d610212565b3480156100c057600080fd5b506100c961027e565b60408051600160a060020a039092168252519081900360200190f35b3480156100f157600080fd5b50610106600160a060020a036004351661028d565b60408051918252519081900360200190f35b34801561012457600080fd5b5061009d600160a060020a03600435166102a8565b61009d600160a060020a03600435166102cb565b60008054600160a060020a0316331461016557600080fd5b50600160a060020a038116600090815260016020526040902054303181111561018a57fe5b600160a060020a0382166000818152600160205260408082208290555183156108fc0291849190818181858888f193505050501580156101ce573d6000803e3d6000fd5b50604080518281529051600160a060020a038416917f7084f5476618d8e60b11ef0d7d3f06914655adb8793e28ff7f018d4c76d505d5919081900360200190a25050565b600054600160a060020a0316331461022957600080fd5b60008054604051600160a060020a03909116917ff8df31144d9c2f0f6b59d69b8b98abd5459d07f2742c4df920b25aae33c6482091a26000805473ffffffffffffffffffffffffffffffffffffffff19169055565b600054600160a060020a031681565b600160a060020a031660009081526001602052604090205490565b600054600160a060020a031633146102bf57600080fd5b6102c881610365565b50565b60008054600160a060020a031633146102e357600080fd5b50600160a060020a038116600090815260016020526040902054349061030f908263ffffffff6103e216565b600160a060020a038316600081815260016020908152604091829020939093558051848152905191927f2da466a7b24304f47e87fa2e1e5a81b9831ce54fec19055ce277ca2f39ba42c492918290030190a25050565b600160a060020a038116151561037a57600080fd5b60008054604051600160a060020a03808516939216917f8be0079c531659141344cd1fd0a4f28419497f9722a3daafe3b4186f6b6457e091a36000805473ffffffffffffffffffffffffffffffffffffffff1916600160a060020a0392909216919091179055565b818101828110156103ef57fe5b929150505600a165627a7a72305820ff6bb560411abdbd41a7caf4baa675d312e9236a64233d54672a982e23b2a3820029",
  "source": "pragma solidity ^0.4.24;\n\nimport \"./Escrow.sol\";\n\n\n/**\n * @title PullPayment\n * @dev Base contract supporting async send for pull payments. Inherit from this\n * contract and use asyncTransfer instead of send or transfer.\n */\ncontract PullPayment {\n  Escrow private escrow;\n\n  constructor() public {\n    escrow = new Escrow();\n  }\n\n  /**\n  * @dev Withdraw accumulated balance, called by payee.\n  */\n  function withdrawPayments() public {\n    address payee = msg.sender;\n    escrow.withdraw(payee);\n  }\n\n  /**\n  * @dev Returns the credit owed to an address.\n  * @param _dest The creditor's address.\n  */\n  function payments(address _dest) public view returns (uint256) {\n    return escrow.depositsOf(_dest);\n  }\n\n  /**\n  * @dev Called by the payer to store the sent amount as credit to be pulled.\n  * @param _dest The destination address of the funds.\n  * @param _amount The amount to transfer.\n  */\n  function asyncTransfer(address _dest, uint256 _amount) internal {\n    escrow.deposit.value(_amount)(_dest);\n  }\n}\n",
  "sourcePath": "/home/namtq/Anlab/SamuraiX/contracts/zeppelin/contracts/payment/PullPayment.sol",
  "compiler": {
    "name": "solc",
    "version": "0.4.24+commit.e67f0147.Emscripten.clang"
  },
  "schemaVersion": "2.0.1",
  "updatedAt": "2018-09-27T03:51:44.101Z"
}