{
  "contractName": "RefundEscrowEx",
  "abi": [
    {
      "constant": true,
      "inputs": [],
      "name": "beneficiary",
      "outputs": [
        {
          "name": "",
          "type": "address"
        }
      ],
      "payable": false,
      "stateMutability": "view",
      "type": "function"
    },
    {
      "constant": false,
      "inputs": [],
      "name": "renounceOwnership",
      "outputs": [],
      "payable": false,
      "stateMutability": "nonpayable",
      "type": "function"
    },
    {
      "constant": true,
      "inputs": [],
      "name": "owner",
      "outputs": [
        {
          "name": "",
          "type": "address"
        }
      ],
      "payable": false,
      "stateMutability": "view",
      "type": "function"
    },
    {
      "constant": true,
      "inputs": [],
      "name": "state",
      "outputs": [
        {
          "name": "",
          "type": "uint8"
        }
      ],
      "payable": false,
      "stateMutability": "view",
      "type": "function"
    },
    {
      "constant": true,
      "inputs": [
        {
          "name": "_payee",
          "type": "address"
        }
      ],
      "name": "depositsOf",
      "outputs": [
        {
          "name": "",
          "type": "uint256"
        }
      ],
      "payable": false,
      "stateMutability": "view",
      "type": "function"
    },
    {
      "constant": false,
      "inputs": [
        {
          "name": "_newOwner",
          "type": "address"
        }
      ],
      "name": "transferOwnership",
      "outputs": [],
      "payable": false,
      "stateMutability": "nonpayable",
      "type": "function"
    },
    {
      "inputs": [
        {
          "name": "_beneficiary",
          "type": "address"
        }
      ],
      "payable": false,
      "stateMutability": "nonpayable",
      "type": "constructor"
    },
    {
      "anonymous": false,
      "inputs": [],
      "name": "Closed",
      "type": "event"
    },
    {
      "anonymous": false,
      "inputs": [],
      "name": "RefundsEnabled",
      "type": "event"
    },
    {
      "anonymous": false,
      "inputs": [
        {
          "indexed": true,
          "name": "payee",
          "type": "address"
        },
        {
          "indexed": false,
          "name": "tokenAmount",
          "type": "uint256"
        }
      ],
      "name": "Deposited",
      "type": "event"
    },
    {
      "anonymous": false,
      "inputs": [
        {
          "indexed": true,
          "name": "payee",
          "type": "address"
        },
        {
          "indexed": false,
          "name": "tokenAmount",
          "type": "uint256"
        }
      ],
      "name": "Withdrawn",
      "type": "event"
    },
    {
      "anonymous": false,
      "inputs": [
        {
          "indexed": true,
          "name": "previousOwner",
          "type": "address"
        }
      ],
      "name": "OwnershipRenounced",
      "type": "event"
    },
    {
      "anonymous": false,
      "inputs": [
        {
          "indexed": true,
          "name": "previousOwner",
          "type": "address"
        },
        {
          "indexed": true,
          "name": "newOwner",
          "type": "address"
        }
      ],
      "name": "OwnershipTransferred",
      "type": "event"
    },
    {
      "constant": false,
      "inputs": [
        {
          "name": "_payee",
          "type": "address"
        }
      ],
      "name": "deposit",
      "outputs": [],
      "payable": true,
      "stateMutability": "payable",
      "type": "function"
    },
    {
      "constant": false,
      "inputs": [
        {
          "name": "_refundee",
          "type": "address"
        },
        {
          "name": "amount",
          "type": "uint256"
        },
        {
          "name": "_token",
          "type": "address"
        }
      ],
      "name": "deposit",
      "outputs": [],
      "payable": false,
      "stateMutability": "nonpayable",
      "type": "function"
    },
    {
      "constant": false,
      "inputs": [],
      "name": "close",
      "outputs": [],
      "payable": false,
      "stateMutability": "nonpayable",
      "type": "function"
    },
    {
      "constant": false,
      "inputs": [],
      "name": "enableRefunds",
      "outputs": [],
      "payable": false,
      "stateMutability": "nonpayable",
      "type": "function"
    },
    {
      "constant": false,
      "inputs": [],
      "name": "beneficiaryWithdraw",
      "outputs": [],
      "payable": false,
      "stateMutability": "nonpayable",
      "type": "function"
    },
    {
      "constant": true,
      "inputs": [
        {
          "name": "_payee",
          "type": "address"
        }
      ],
      "name": "withdrawalAllowed",
      "outputs": [
        {
          "name": "",
          "type": "bool"
        }
      ],
      "payable": false,
      "stateMutability": "view",
      "type": "function"
    },
    {
      "constant": false,
      "inputs": [
        {
          "name": "_payee",
          "type": "address"
        }
      ],
      "name": "withdraw",
      "outputs": [],
      "payable": false,
      "stateMutability": "nonpayable",
      "type": "function"
    },
    {
      "constant": false,
      "inputs": [
        {
          "name": "_token",
          "type": "address"
        },
        {
          "name": "_payee",
          "type": "address"
        }
      ],
      "name": "withdraw",
      "outputs": [],
      "payable": false,
      "stateMutability": "nonpayable",
      "type": "function"
    }
  ],
  "bytecode": "0x608060405234801561001057600080fd5b50604051602080610a66833981016040525160008054600160a060020a03191633179055600160a060020a038116151561004957600080fd5b60048054600160a060020a031916600160a060020a03929092169190911790556003805460a060020a60ff02191690556109de806100886000396000f3006080604052600436106100cf5763ffffffff7c010000000000000000000000000000000000000000000000000000000060003504166338af3eed81146100d457806343d726d61461010557806351cff8d91461011c578063685ca1941461013d578063715018a6146101725780638c52dc41146101875780638da5cb5b1461019c5780639af6549a146101b1578063c19d93fb146101c6578063e3a9db1a146101ff578063f2fde38b14610232578063f340fa0114610253578063f45346dc14610267578063f940e38514610292575b600080fd5b3480156100e057600080fd5b506100e96102b9565b60408051600160a060020a039092168252519081900360200190f35b34801561011157600080fd5b5061011a6102c8565b005b34801561012857600080fd5b5061011a600160a060020a0360043516610363565b34801561014957600080fd5b5061015e600160a060020a0360043516610428565b604080519115158252519081900360200190f35b34801561017e57600080fd5b5061011a61044b565b34801561019357600080fd5b5061011a6104b7565b3480156101a857600080fd5b506100e9610541565b3480156101bd57600080fd5b5061011a610550565b3480156101d257600080fd5b506101db6106b4565b604051808260028111156101eb57fe5b60ff16815260200191505060405180910390f35b34801561020b57600080fd5b50610220600160a060020a03600435166106c4565b60408051918252519081900360200190f35b34801561023e57600080fd5b5061011a600160a060020a03600435166106df565b61011a600160a060020a0360043516610702565b34801561027357600080fd5b5061011a600160a060020a03600435811690602435906044351661079c565b34801561029e57600080fd5b5061011a600160a060020a03600435811690602435166107d0565b600454600160a060020a031681565b600054600160a060020a031633146102df57600080fd5b600060035460a060020a900460ff1660028111156102f957fe5b1461030357600080fd5b6003805474ff00000000000000000000000000000000000000001916740200000000000000000000000000000000000000001790556040517f1cdde67b72a90f19919ac732a437ac2f7a10fc128d28c2a6e525d89ce5cd9d3a90600090a1565b60008054600160a060020a0316331461037b57600080fd5b50600160a060020a03811660009081526001602052604090205430318111156103a057fe5b600160a060020a0382166000818152600160205260408082208290555183156108fc0291849190818181858888f193505050501580156103e4573d6000803e3d6000fd5b50604080518281529051600160a060020a038416917f7084f5476618d8e60b11ef0d7d3f06914655adb8793e28ff7f018d4c76d505d5919081900360200190a25050565b6000600160035460a060020a900460ff16600281111561044457fe5b1492915050565b600054600160a060020a0316331461046257600080fd5b60008054604051600160a060020a03909116917ff8df31144d9c2f0f6b59d69b8b98abd5459d07f2742c4df920b25aae33c6482091a26000805473ffffffffffffffffffffffffffffffffffffffff19169055565b600054600160a060020a031633146104ce57600080fd5b600060035460a060020a900460ff1660028111156104e857fe5b146104f257600080fd5b6003805474ff0000000000000000000000000000000000000000191660a060020a1790556040517f599d8e5a83cffb867d051598c4d70e805d59802d8081c1c7d6dffc5b6aca2b8990600090a1565b600054600160a060020a031681565b600260035460a060020a900460ff16600281111561056a57fe5b1461057457600080fd5b60035460048054604080517f70a08231000000000000000000000000000000000000000000000000000000008152600160a060020a03948516938101849052905192936323b872dd9385939091169183916370a08231916024808201926020929091908290030181600087803b1580156105ed57600080fd5b505af1158015610601573d6000803e3d6000fd5b505050506040513d602081101561061757600080fd5b5051604080517c010000000000000000000000000000000000000000000000000000000063ffffffff8716028152600160a060020a0394851660048201529290931660248301526044820152905160648083019260209291908290030181600087803b15801561068657600080fd5b505af115801561069a573d6000803e3d6000fd5b505050506040513d60208110156106b057600080fd5b5050565b60035460a060020a900460ff1681565b600160a060020a031660009081526002602052604090205490565b600054600160a060020a031633146106f657600080fd5b6106ff816107ed565b50565b60008054600160a060020a0316331461071a57600080fd5b50600160a060020a0381166000908152600160205260409020543490610746908263ffffffff61086a16565b600160a060020a038316600081815260016020908152604091829020939093558051848152905191927f2da466a7b24304f47e87fa2e1e5a81b9831ce54fec19055ce277ca2f39ba42c492918290030190a25050565b600060035460a060020a900460ff1660028111156107b657fe5b146107c057600080fd5b6107cb83838361087d565b505050565b6107d981610428565b15156107e457600080fd5b6106b081610363565b600160a060020a038116151561080257600080fd5b60008054604051600160a060020a03808516939216917f8be0079c531659141344cd1fd0a4f28419497f9722a3daafe3b4186f6b6457e091a36000805473ffffffffffffffffffffffffffffffffffffffff1916600160a060020a0392909216919091179055565b8181018281101561087757fe5b92915050565b600054600160a060020a0316331461089457600080fd5b604080517f23b872dd000000000000000000000000000000000000000000000000000000008152306004820152600160a060020a038581166024830152604482018590529151918316916323b872dd916064808201926020929091908290030181600087803b15801561090657600080fd5b505af115801561091a573d6000803e3d6000fd5b505050506040513d602081101561093057600080fd5b5050600160a060020a03831660009081526002602052604090205461095b908363ffffffff61086a16565b600160a060020a038416600081815260026020908152604091829020939093558051858152905191927f2da466a7b24304f47e87fa2e1e5a81b9831ce54fec19055ce277ca2f39ba42c492918290030190a25050505600a165627a7a723058206fd30cd34cfe81810f36ba3d4d54e5343870a5b49ccc213491fd0710ee90d4580029",
  "source": "pragma solidity ^0.4.23;\n\nimport \"./EscrowEx.sol\";\nimport \"../ownership/Ownable.sol\";\nimport \"../token/ERC20/SafeERC20.sol\";\n\n/**\n * @title RefundEscrow\n * @dev Escrow that holds funds for a beneficiary, deposited from multiple parties.\n * The contract owner may close the deposit period, and allow for either withdrawal\n * by the beneficiary, or refunds to the depositors.\n */\ncontract RefundEscrowEx is Ownable, EscrowEx {\n  using SafeERC20 for ERC20;\n\n  enum State { Active, Refunding, Closed }\n  event Closed();\n  event RefundsEnabled();\n\n\n\n\n  ERC20 token;\n  State public state;\n  address public beneficiary;\n\n\n  /**\n   * @dev Constructor.\n   * @param _beneficiary The beneficiary of the deposits.\n   */\n  constructor(address _beneficiary) public {\n    require(_beneficiary != address(0));\n    beneficiary = _beneficiary;\n    state = State.Active;\n  }\n\n  /**\n   * @dev Stores funds that may later be refunded.\n   * @param _refundee The address funds will be sent to if a refund occurs.\n   */\n  function deposit(address _refundee, uint256 amount, ERC20 _token) public {\n    require(state == State.Active);\n   super.deposit(_refundee, amount, _token);\n  }\n\n  /**\n   * @dev Allows for the beneficiary to withdraw their funds, rejecting\n   * further deposits.\n   */\n  function close() public onlyOwner {\n    require(state == State.Active);\n    state = State.Closed;\n    emit Closed();\n  }\n\n  /**\n   * @dev Allows for refunds to take place, rejecting further deposits.\n   */\n  function enableRefunds() public onlyOwner {\n    require(state == State.Active);\n    state = State.Refunding;\n    emit RefundsEnabled();\n  }\n\n  /**\n   * @dev Withdraws the beneficiary's funds.\n   */\n  function beneficiaryWithdraw() public {       /////**** token.transfer\n    require(state == State.Closed);\n  //  beneficiary.transfer(address(this).balance); // token,transfer()\n    token.transferFrom(address(token), beneficiary , token.balanceOf(address(token))); // Transfer From(from, to , value) // this is rax token\n  }\n\n  /**\n   * @dev Returns whether refundees can withdraw their deposits (be refunded).\n   */\n  function withdrawalAllowed(address _payee) public view returns (bool) {\n    return state == State.Refunding;\n  }\n  function withdraw(ERC20 _token , address _payee) public {//**\n    require(withdrawalAllowed(_payee));\n    withdraw(_payee);\n  }\n}\n",
  "sourcePath": "/home/namtq/Anlab/SamuraiX/contracts/zeppelin/contracts/payment/RefundEscrowEx.sol",
  "compiler": {
    "name": "solc",
    "version": "0.4.24+commit.e67f0147.Emscripten.clang"
  },
  "schemaVersion": "2.0.1",
  "updatedAt": "2018-10-11T03:00:30.708Z"
}