{
  "contractName": "RefundEscrowEx",
  "abi": [
    {
      "constant": true,
      "inputs": [],
      "name": "beneficiary",
      "outputs": [
        {
          "name": "",
          "type": "address"
        }
      ],
      "payable": false,
      "stateMutability": "view",
      "type": "function"
    },
    {
      "constant": false,
      "inputs": [],
      "name": "close",
      "outputs": [],
      "payable": false,
      "stateMutability": "nonpayable",
      "type": "function"
    },
    {
      "constant": false,
      "inputs": [
        {
          "name": "_payee",
          "type": "address"
        },
        {
          "name": "_amount",
          "type": "uint256"
        }
      ],
      "name": "deposit",
      "outputs": [],
      "payable": false,
      "stateMutability": "nonpayable",
      "type": "function"
    },
    {
      "constant": false,
      "inputs": [
        {
          "name": "_payee",
          "type": "address"
        }
      ],
      "name": "withdraw",
      "outputs": [],
      "payable": false,
      "stateMutability": "nonpayable",
      "type": "function"
    },
    {
      "constant": true,
      "inputs": [
        {
          "name": "_payee",
          "type": "address"
        }
      ],
      "name": "withdrawalAllowed",
      "outputs": [
        {
          "name": "",
          "type": "bool"
        }
      ],
      "payable": false,
      "stateMutability": "view",
      "type": "function"
    },
    {
      "constant": false,
      "inputs": [],
      "name": "renounceOwnership",
      "outputs": [],
      "payable": false,
      "stateMutability": "nonpayable",
      "type": "function"
    },
    {
      "constant": false,
      "inputs": [],
      "name": "enableRefunds",
      "outputs": [],
      "payable": false,
      "stateMutability": "nonpayable",
      "type": "function"
    },
    {
      "constant": true,
      "inputs": [],
      "name": "owner",
      "outputs": [
        {
          "name": "",
          "type": "address"
        }
      ],
      "payable": false,
      "stateMutability": "view",
      "type": "function"
    },
    {
      "constant": true,
      "inputs": [],
      "name": "state",
      "outputs": [
        {
          "name": "",
          "type": "uint8"
        }
      ],
      "payable": false,
      "stateMutability": "view",
      "type": "function"
    },
    {
      "constant": true,
      "inputs": [
        {
          "name": "_payee",
          "type": "address"
        }
      ],
      "name": "depositsOf",
      "outputs": [
        {
          "name": "",
          "type": "uint256"
        }
      ],
      "payable": false,
      "stateMutability": "view",
      "type": "function"
    },
    {
      "constant": false,
      "inputs": [
        {
          "name": "_newOwner",
          "type": "address"
        }
      ],
      "name": "transferOwnership",
      "outputs": [],
      "payable": false,
      "stateMutability": "nonpayable",
      "type": "function"
    },
    {
      "constant": false,
      "inputs": [
        {
          "name": "_refundee",
          "type": "address"
        }
      ],
      "name": "deposit",
      "outputs": [],
      "payable": true,
      "stateMutability": "payable",
      "type": "function"
    },
    {
      "constant": false,
      "inputs": [
        {
          "name": "_payee",
          "type": "address"
        },
        {
          "name": "_RAXTokenWallet",
          "type": "address"
        }
      ],
      "name": "withdraw",
      "outputs": [],
      "payable": false,
      "stateMutability": "nonpayable",
      "type": "function"
    },
    {
      "inputs": [
        {
          "name": "_RAXTokenWallet",
          "type": "address"
        }
      ],
      "payable": false,
      "stateMutability": "nonpayable",
      "type": "constructor"
    },
    {
      "anonymous": false,
      "inputs": [],
      "name": "Closed",
      "type": "event"
    },
    {
      "anonymous": false,
      "inputs": [],
      "name": "RefundsEnabled",
      "type": "event"
    },
    {
      "anonymous": false,
      "inputs": [
        {
          "indexed": true,
          "name": "payee",
          "type": "address"
        },
        {
          "indexed": false,
          "name": "weiAmount",
          "type": "uint256"
        }
      ],
      "name": "Deposited",
      "type": "event"
    },
    {
      "anonymous": false,
      "inputs": [
        {
          "indexed": true,
          "name": "payee",
          "type": "address"
        },
        {
          "indexed": false,
          "name": "weiAmount",
          "type": "uint256"
        }
      ],
      "name": "Withdrawn",
      "type": "event"
    },
    {
      "anonymous": false,
      "inputs": [
        {
          "indexed": true,
          "name": "previousOwner",
          "type": "address"
        }
      ],
      "name": "OwnershipRenounced",
      "type": "event"
    },
    {
      "anonymous": false,
      "inputs": [
        {
          "indexed": true,
          "name": "previousOwner",
          "type": "address"
        },
        {
          "indexed": true,
          "name": "newOwner",
          "type": "address"
        }
      ],
      "name": "OwnershipTransferred",
      "type": "event"
    },
    {
      "constant": false,
      "inputs": [],
      "name": "beneficiaryWithdraw",
      "outputs": [],
      "payable": false,
      "stateMutability": "nonpayable",
      "type": "function"
    }
  ],
  "bytecode": "0x608060405234801561001057600080fd5b506040516020806109e6833981016040525160008054600160a060020a0319163317905580600160a060020a038116151561004a57600080fd5b6003805460ff19600160a060020a03939093166101000261010060a860020a03199091161791909116905550610961806100856000396000f3006080604052600436106100cf5763ffffffff7c010000000000000000000000000000000000000000000000000000000060003504166338af3eed81146100d457806343d726d61461010557806347e7ef241461011c57806351cff8d914610140578063685ca19414610161578063715018a6146101965780638c52dc41146101ab5780638da5cb5b146101c05780639af6549a146101d5578063c19d93fb146101ea578063e3a9db1a14610223578063f2fde38b14610256578063f340fa0114610277578063f940e3851461028b575b600080fd5b3480156100e057600080fd5b506100e96102b2565b60408051600160a060020a039092168252519081900360200190f35b34801561011157600080fd5b5061011a6102c6565b005b34801561012857600080fd5b5061011a600160a060020a0360043516602435610332565b34801561014c57600080fd5b5061011a600160a060020a03600435166103c8565b34801561016d57600080fd5b50610182600160a060020a03600435166103e8565b604080519115158252519081900360200190f35b3480156101a257600080fd5b5061011a610404565b3480156101b757600080fd5b5061011a610470565b3480156101cc57600080fd5b506100e96104dc565b3480156101e157600080fd5b5061011a6104eb565b3480156101f657600080fd5b506101ff61050a565b6040518082600281111561020f57fe5b60ff16815260200191505060405180910390f35b34801561022f57600080fd5b50610244600160a060020a0360043516610513565b60408051918252519081900360200190f35b34801561026257600080fd5b5061011a600160a060020a036004351661052e565b61011a600160a060020a036004351661054e565b34801561029757600080fd5b5061011a600160a060020a0360043581169060243516610574565b6003546101009004600160a060020a031681565b600054600160a060020a031633146102dd57600080fd5b600060035460ff1660028111156102f057fe5b146102fa57600080fd5b6003805460ff191660021790556040517f1cdde67b72a90f19919ac732a437ac2f7a10fc128d28c2a6e525d89ce5cd9d3a90600090a1565b600054600160a060020a0316331461034957600080fd5b600160a060020a038216600090815260026020526040902054610372908263ffffffff61059616565b600160a060020a038316600081815260026020908152604091829020939093558051848152905191927f2da466a7b24304f47e87fa2e1e5a81b9831ce54fec19055ce277ca2f39ba42c492918290030190a25050565b6103d1816103e8565b15156103dc57600080fd5b6103e5816105a9565b50565b6000600160035460ff1660028111156103fd57fe5b1492915050565b600054600160a060020a0316331461041b57600080fd5b60008054604051600160a060020a03909116917ff8df31144d9c2f0f6b59d69b8b98abd5459d07f2742c4df920b25aae33c6482091a26000805473ffffffffffffffffffffffffffffffffffffffff19169055565b600054600160a060020a0316331461048757600080fd5b600060035460ff16600281111561049a57fe5b146104a457600080fd5b6003805460ff191660011790556040517f599d8e5a83cffb867d051598c4d70e805d59802d8081c1c7d6dffc5b6aca2b8990600090a1565b600054600160a060020a031681565b600260035460ff1660028111156104fe57fe5b1461050857600080fd5b565b60035460ff1681565b600160a060020a031660009081526001602052604090205490565b600054600160a060020a0316331461054557600080fd5b6103e58161066e565b600060035460ff16600281111561056157fe5b1461056b57600080fd5b6103e5816106eb565b61057d826103e8565b151561058857600080fd5b6105928282610785565b5050565b818101828110156105a357fe5b92915050565b60008054600160a060020a031633146105c157600080fd5b50600160a060020a03811660009081526001602052604090205430318111156105e657fe5b600160a060020a0382166000818152600160205260408082208290555183156108fc0291849190818181858888f1935050505015801561062a573d6000803e3d6000fd5b50604080518281529051600160a060020a038416917f7084f5476618d8e60b11ef0d7d3f06914655adb8793e28ff7f018d4c76d505d5919081900360200190a25050565b600160a060020a038116151561068357600080fd5b60008054604051600160a060020a03808516939216917f8be0079c531659141344cd1fd0a4f28419497f9722a3daafe3b4186f6b6457e091a36000805473ffffffffffffffffffffffffffffffffffffffff1916600160a060020a0392909216919091179055565b60008054600160a060020a0316331461070357600080fd5b50600160a060020a038116600090815260016020526040902054349061072f908263ffffffff61059616565b600160a060020a038316600081815260016020908152604091829020939093558051848152905191927f2da466a7b24304f47e87fa2e1e5a81b9831ce54fec19055ce277ca2f39ba42c492918290030190a25050565b60008054600160a060020a0316331461079d57600080fd5b50600160a060020a0380831660009081526002602090815260408083205481517f70a082310000000000000000000000000000000000000000000000000000000081529486166004860181905291519094859492936370a082319360248084019492938390030190829087803b15801561081657600080fd5b505af115801561082a573d6000803e3d6000fd5b505050506040513d602081101561084057600080fd5b5051101561084a57fe5b600160a060020a03808416600081815260026020908152604080832083905580517fa9059cbb000000000000000000000000000000000000000000000000000000008152600481019490945260248401869052519386169363a9059cbb93604480820194918390030190829087803b1580156108c557600080fd5b505af11580156108d9573d6000803e3d6000fd5b505050506040513d60208110156108ef57600080fd5b5050604080518281529051600160a060020a038516917f7084f5476618d8e60b11ef0d7d3f06914655adb8793e28ff7f018d4c76d505d5919081900360200190a25050505600a165627a7a723058206eebc5a947212cdd8df0ba0388a10ec30d65551bcef96cfed23bbf42f363e53a0029",
  "source": "pragma solidity ^0.4.24;\n\nimport \"./RefundEscrow.sol\";\nimport \"./ConditionalEscrowEx.sol\";\n\n\ncontract RefundEscrowEx is ConditionalEscrowEx, RefundEscrow {\n  constructor(ERC20 _RAXTokenWallet)\n    RefundEscrow(address(_RAXTokenWallet))\n    public\n  {\n\n  }\n\n  function beneficiaryWithdraw() public {\n    require(state == State.Closed);\n  }\n}\n",
  "sourcePath": "/home/namtq/MyWorkSpace/SamIO/contracts/zeppelin/contracts/payment/RefundEscrowEx.sol",
  "compiler": {
    "name": "solc",
    "version": "0.4.24+commit.e67f0147.Emscripten.clang"
  },
  "schemaVersion": "2.0.1",
  "updatedAt": "2018-10-12T01:39:19.147Z"
}