{
  "contractName": "RefundEscrowEx",
  "abi": [
    {
      "constant": true,
      "inputs": [],
      "name": "beneficiary",
      "outputs": [
        {
          "name": "",
          "type": "address"
        }
      ],
      "payable": false,
      "stateMutability": "view",
      "type": "function"
    },
    {
      "constant": false,
      "inputs": [],
      "name": "renounceOwnership",
      "outputs": [],
      "payable": false,
      "stateMutability": "nonpayable",
      "type": "function"
    },
    {
      "constant": true,
      "inputs": [
        {
          "name": "_payee",
          "type": "address"
        }
      ],
      "name": "depositsExOf",
      "outputs": [
        {
          "name": "",
          "type": "uint256"
        }
      ],
      "payable": false,
      "stateMutability": "view",
      "type": "function"
    },
    {
      "constant": true,
      "inputs": [],
      "name": "owner",
      "outputs": [
        {
          "name": "",
          "type": "address"
        }
      ],
      "payable": false,
      "stateMutability": "view",
      "type": "function"
    },
    {
      "constant": true,
      "inputs": [],
      "name": "state",
      "outputs": [
        {
          "name": "",
          "type": "uint8"
        }
      ],
      "payable": false,
      "stateMutability": "view",
      "type": "function"
    },
    {
      "constant": false,
      "inputs": [
        {
          "name": "_newOwner",
          "type": "address"
        }
      ],
      "name": "transferOwnership",
      "outputs": [],
      "payable": false,
      "stateMutability": "nonpayable",
      "type": "function"
    },
    {
      "inputs": [
        {
          "name": "_beneficiary",
          "type": "address"
        }
      ],
      "payable": false,
      "stateMutability": "nonpayable",
      "type": "constructor"
    },
    {
      "anonymous": false,
      "inputs": [],
      "name": "Closed",
      "type": "event"
    },
    {
      "anonymous": false,
      "inputs": [],
      "name": "RefundsEnabled",
      "type": "event"
    },
    {
      "anonymous": false,
      "inputs": [
        {
          "indexed": true,
          "name": "payee",
          "type": "address"
        },
        {
          "indexed": false,
          "name": "weiAmount",
          "type": "uint256"
        }
      ],
      "name": "Deposited",
      "type": "event"
    },
    {
      "anonymous": false,
      "inputs": [
        {
          "indexed": true,
          "name": "payee",
          "type": "address"
        },
        {
          "indexed": false,
          "name": "weiAmount",
          "type": "uint256"
        }
      ],
      "name": "Withdrawn",
      "type": "event"
    },
    {
      "anonymous": false,
      "inputs": [
        {
          "indexed": true,
          "name": "previousOwner",
          "type": "address"
        }
      ],
      "name": "OwnershipRenounced",
      "type": "event"
    },
    {
      "anonymous": false,
      "inputs": [
        {
          "indexed": true,
          "name": "previousOwner",
          "type": "address"
        },
        {
          "indexed": true,
          "name": "newOwner",
          "type": "address"
        }
      ],
      "name": "OwnershipTransferred",
      "type": "event"
    },
    {
      "constant": false,
      "inputs": [
        {
          "name": "_refundee",
          "type": "address"
        }
      ],
      "name": "depositEx",
      "outputs": [],
      "payable": false,
      "stateMutability": "nonpayable",
      "type": "function"
    },
    {
      "constant": false,
      "inputs": [
        {
          "name": "_payee",
          "type": "address"
        },
        {
          "name": "amount",
          "type": "uint256"
        }
      ],
      "name": "depositEx",
      "outputs": [],
      "payable": false,
      "stateMutability": "nonpayable",
      "type": "function"
    },
    {
      "constant": false,
      "inputs": [],
      "name": "close",
      "outputs": [],
      "payable": false,
      "stateMutability": "nonpayable",
      "type": "function"
    },
    {
      "constant": false,
      "inputs": [],
      "name": "enableRefunds",
      "outputs": [],
      "payable": false,
      "stateMutability": "nonpayable",
      "type": "function"
    },
    {
      "constant": false,
      "inputs": [],
      "name": "beneficiaryWithdraw",
      "outputs": [],
      "payable": false,
      "stateMutability": "nonpayable",
      "type": "function"
    },
    {
      "constant": true,
      "inputs": [
        {
          "name": "_payee",
          "type": "address"
        }
      ],
      "name": "withdrawalAllowed",
      "outputs": [
        {
          "name": "",
          "type": "bool"
        }
      ],
      "payable": false,
      "stateMutability": "view",
      "type": "function"
    },
    {
      "constant": false,
      "inputs": [
        {
          "name": "_payee",
          "type": "address"
        }
      ],
      "name": "withdraw",
      "outputs": [],
      "payable": false,
      "stateMutability": "nonpayable",
      "type": "function"
    },
    {
      "constant": false,
      "inputs": [
        {
          "name": "token",
          "type": "address"
        },
        {
          "name": "_payee",
          "type": "address"
        }
      ],
      "name": "withdraw",
      "outputs": [],
      "payable": false,
      "stateMutability": "nonpayable",
      "type": "function"
    }
  ],
  "bytecode": "0x608060405234801561001057600080fd5b50604051602080610831833981016040525160008054600160a060020a03191633179055600160a060020a038116151561004957600080fd5b6002805460ff19600160a060020a03939093166101000261010060a860020a0319909116179190911690556107ae806100836000396000f3006080604052600436106100cf5763ffffffff7c010000000000000000000000000000000000000000000000000000000060003504166338af3eed81146100d45780633e6c07481461010557806343d726d61461012857806351cff8d91461013d578063685ca1941461015e578063715018a6146101935780637bfd2940146101a8578063850f14fe146101cc5780638c52dc41146101ff5780638da5cb5b146102145780639af6549a14610229578063c19d93fb1461023e578063f2fde38b14610277578063f940e38514610298575b600080fd5b3480156100e057600080fd5b506100e96102bf565b60408051600160a060020a039092168252519081900360200190f35b34801561011157600080fd5b50610126600160a060020a03600435166102d3565b005b34801561013457600080fd5b506101266102fc565b34801561014957600080fd5b50610126600160a060020a0360043516610367565b34801561016a57600080fd5b5061017f600160a060020a0360043516610384565b604080519115158252519081900360200190f35b34801561019f57600080fd5b506101266103a0565b3480156101b457600080fd5b50610126600160a060020a036004351660243561040c565b3480156101d857600080fd5b506101ed600160a060020a03600435166104a2565b60408051918252519081900360200190f35b34801561020b57600080fd5b506101266104bd565b34801561022057600080fd5b506100e9610529565b34801561023557600080fd5b50610126610538565b34801561024a57600080fd5b50610253610594565b6040518082600281111561026357fe5b60ff16815260200191505060405180910390f35b34801561028357600080fd5b50610126600160a060020a036004351661059d565b3480156102a457600080fd5b50610126600160a060020a03600435811690602435166105bd565b6002546101009004600160a060020a031681565b60006002805460ff16908111156102e657fe5b146102f057600080fd5b6102f9816102d3565b50565b600054600160a060020a0316331461031357600080fd5b60006002805460ff169081111561032657fe5b1461033057600080fd5b6002805460ff1916811790556040517f1cdde67b72a90f19919ac732a437ac2f7a10fc128d28c2a6e525d89ce5cd9d3a90600090a1565b61037081610384565b151561037b57600080fd5b6102f981610367565b600060016002805460ff169081111561039957fe5b1492915050565b600054600160a060020a031633146103b757600080fd5b60008054604051600160a060020a03909116917ff8df31144d9c2f0f6b59d69b8b98abd5459d07f2742c4df920b25aae33c6482091a26000805473ffffffffffffffffffffffffffffffffffffffff19169055565b600054600160a060020a0316331461042357600080fd5b600160a060020a03821660009081526001602052604090205461044c908263ffffffff6106f216565b600160a060020a038316600081815260016020908152604091829020939093558051848152905191927f2da466a7b24304f47e87fa2e1e5a81b9831ce54fec19055ce277ca2f39ba42c492918290030190a25050565b600160a060020a031660009081526001602052604090205490565b600054600160a060020a031633146104d457600080fd5b60006002805460ff16908111156104e757fe5b146104f157600080fd5b6002805460ff191660011790556040517f599d8e5a83cffb867d051598c4d70e805d59802d8081c1c7d6dffc5b6aca2b8990600090a1565b600054600160a060020a031681565b6002805460ff168181111561054957fe5b1461055357600080fd5b600254604051600160a060020a036101009092049190911690303180156108fc02916000818181858888f193505050501580156102f9573d6000803e3d6000fd5b60025460ff1681565b600054600160a060020a031633146105b457600080fd5b6102f981610705565b60008054600160a060020a031633146105d557600080fd5b50600160a060020a03811660009081526001602052604090205430318111156105fa57fe5b600160a060020a0382811660008181526001602090815260408083205481517fa9059cbb00000000000000000000000000000000000000000000000000000000815260048101959095526024850152519387169363a9059cbb93604480820194918390030190829087803b15801561067157600080fd5b505af1158015610685573d6000803e3d6000fd5b505050506040513d602081101561069b57600080fd5b5050600160a060020a038216600081815260016020908152604080832092909255815184815291517f7084f5476618d8e60b11ef0d7d3f06914655adb8793e28ff7f018d4c76d505d59281900390910190a2505050565b818101828110156106ff57fe5b92915050565b600160a060020a038116151561071a57600080fd5b60008054604051600160a060020a03808516939216917f8be0079c531659141344cd1fd0a4f28419497f9722a3daafe3b4186f6b6457e091a36000805473ffffffffffffffffffffffffffffffffffffffff1916600160a060020a03929092169190911790555600a165627a7a723058203f758b3699f9b2ffd41278c92953df0b5029bb77c42c03da41cf43838a84f2340029",
  "source": "pragma solidity ^0.4.23;\n\nimport \"./EscrowEx.sol\";\nimport \"../ownership/Ownable.sol\";\n\n\n/**\n * @title RefundEscrow\n * @dev Escrow that holds funds for a beneficiary, deposited from multiple parties.\n * The contract owner may close the deposit period, and allow for either withdrawal\n * by the beneficiary, or refunds to the depositors.\n */\ncontract RefundEscrowEx is Ownable, EscrowEx {\n  enum State { Active, Refunding, Closed }\n\n  event Closed();\n  event RefundsEnabled();\n\n\n  State public state;\n  address public beneficiary;\n\n\n  /**\n   * @dev Constructor.\n   * @param _beneficiary The beneficiary of the deposits.\n   */\n  constructor(address _beneficiary) public {\n    require(_beneficiary != address(0));\n    beneficiary = _beneficiary;\n    state = State.Active;\n  }\n\n  /**\n   * @dev Stores funds that may later be refunded.\n   * @param _refundee The address funds will be sent to if a refund occurs.\n   */\n  function depositEx(address _refundee) public  {\n    require(state == State.Active);\n    depositEx(_refundee);\n  }\n\n  /**\n   * @dev Allows for the beneficiary to withdraw their funds, rejecting\n   * further deposits.\n   */\n  function close() public onlyOwner {\n    require(state == State.Active);\n    state = State.Closed;\n    emit Closed();\n  }\n\n  /**\n   * @dev Allows for refunds to take place, rejecting further deposits.\n   */\n  function enableRefunds() public onlyOwner {\n    require(state == State.Active);\n    state = State.Refunding;\n    emit RefundsEnabled();\n  }\n\n  /**\n   * @dev Withdraws the beneficiary's funds.\n   */\n  function beneficiaryWithdraw() public {\n    require(state == State.Closed);\n    beneficiary.transfer(address(this).balance);\n  }\n\n  /**\n   * @dev Returns whether refundees can withdraw their deposits (be refunded).\n   */\n  function withdrawalAllowed(address _payee) public view returns (bool) {\n    return state == State.Refunding;\n  }\n  function withdraw(address _payee) public {\n    require(withdrawalAllowed(_payee));\n    withdraw(_payee);\n  }\n}\n",
  "sourcePath": "/home/namtq/Trainning/git/SamIO/contracts/zeppelin/contracts/payment/RefundEscrowEx.sol",
  "compiler": {
    "name": "solc",
    "version": "0.4.24+commit.e67f0147.Emscripten.clang"
  },
  "schemaVersion": "2.0.1",
  "updatedAt": "2018-10-08T06:54:58.826Z"
}