{
  "contractName": "Registry",
  "abi": [
    {
      "constant": false,
      "inputs": [],
      "name": "cancelOwnershipTransfer",
      "outputs": [],
      "payable": false,
      "stateMutability": "nonpayable",
      "type": "function"
    },
    {
      "constant": false,
      "inputs": [],
      "name": "claimOwnership",
      "outputs": [],
      "payable": false,
      "stateMutability": "nonpayable",
      "type": "function"
    },
    {
      "constant": false,
      "inputs": [],
      "name": "renounceOwnership",
      "outputs": [],
      "payable": false,
      "stateMutability": "nonpayable",
      "type": "function"
    },
    {
      "constant": true,
      "inputs": [],
      "name": "owner",
      "outputs": [
        {
          "name": "",
          "type": "address"
        }
      ],
      "payable": false,
      "stateMutability": "view",
      "type": "function"
    },
    {
      "constant": true,
      "inputs": [],
      "name": "pendingOwner",
      "outputs": [
        {
          "name": "",
          "type": "address"
        }
      ],
      "payable": false,
      "stateMutability": "view",
      "type": "function"
    },
    {
      "constant": false,
      "inputs": [
        {
          "name": "newOwner",
          "type": "address"
        }
      ],
      "name": "transferOwnership",
      "outputs": [],
      "payable": false,
      "stateMutability": "nonpayable",
      "type": "function"
    },
    {
      "constant": true,
      "inputs": [],
      "name": "accessManager",
      "outputs": [
        {
          "name": "",
          "type": "address"
        }
      ],
      "payable": false,
      "stateMutability": "view",
      "type": "function"
    },
    {
      "inputs": [],
      "payable": false,
      "stateMutability": "nonpayable",
      "type": "constructor"
    },
    {
      "anonymous": false,
      "inputs": [
        {
          "indexed": true,
          "name": "who",
          "type": "address"
        },
        {
          "indexed": false,
          "name": "attribute",
          "type": "uint8"
        },
        {
          "indexed": false,
          "name": "enable",
          "type": "bool"
        },
        {
          "indexed": false,
          "name": "notes",
          "type": "string"
        },
        {
          "indexed": true,
          "name": "adminAddr",
          "type": "address"
        }
      ],
      "name": "SetAttribute",
      "type": "event"
    },
    {
      "anonymous": false,
      "inputs": [
        {
          "indexed": true,
          "name": "oldManager",
          "type": "address"
        },
        {
          "indexed": true,
          "name": "newManager",
          "type": "address"
        }
      ],
      "name": "SetManager",
      "type": "event"
    },
    {
      "anonymous": false,
      "inputs": [
        {
          "indexed": true,
          "name": "previousOwner",
          "type": "address"
        }
      ],
      "name": "OwnershipRenounced",
      "type": "event"
    },
    {
      "anonymous": false,
      "inputs": [
        {
          "indexed": true,
          "name": "previousOwner",
          "type": "address"
        },
        {
          "indexed": true,
          "name": "newOwner",
          "type": "address"
        }
      ],
      "name": "OwnershipTransferred",
      "type": "event"
    },
    {
      "constant": false,
      "inputs": [
        {
          "name": "_who",
          "type": "address"
        },
        {
          "name": "_attribute",
          "type": "uint8"
        },
        {
          "name": "_notes",
          "type": "string"
        }
      ],
      "name": "setAttribute",
      "outputs": [],
      "payable": false,
      "stateMutability": "nonpayable",
      "type": "function"
    },
    {
      "constant": false,
      "inputs": [
        {
          "name": "_who",
          "type": "address"
        },
        {
          "name": "_attribute",
          "type": "uint8"
        },
        {
          "name": "_notes",
          "type": "string"
        }
      ],
      "name": "clearAttribute",
      "outputs": [],
      "payable": false,
      "stateMutability": "nonpayable",
      "type": "function"
    },
    {
      "constant": true,
      "inputs": [
        {
          "name": "_who",
          "type": "address"
        },
        {
          "name": "_attribute",
          "type": "uint8"
        }
      ],
      "name": "hasAttribute",
      "outputs": [
        {
          "name": "",
          "type": "bool"
        }
      ],
      "payable": false,
      "stateMutability": "view",
      "type": "function"
    },
    {
      "constant": true,
      "inputs": [
        {
          "name": "_who",
          "type": "address"
        }
      ],
      "name": "getAttributes",
      "outputs": [
        {
          "name": "",
          "type": "uint256"
        }
      ],
      "payable": false,
      "stateMutability": "view",
      "type": "function"
    },
    {
      "constant": false,
      "inputs": [
        {
          "name": "_accessManager",
          "type": "address"
        }
      ],
      "name": "setManager",
      "outputs": [],
      "payable": false,
      "stateMutability": "nonpayable",
      "type": "function"
    }
  ],
  "bytecode": "0x608060405234801561001057600080fd5b5060008054600160a060020a0319163317905561002b61006d565b604051809103906000f080158015610047573d6000803e3d6000fd5b5060038054600160a060020a031916600160a060020a039290921691909117905561007d565b604051610342806109ee83390190565b6109628061008c6000396000f3006080604052600436106100b95763ffffffff7c01000000000000000000000000000000000000000000000000000000006000350416631ca451a381146100be57806323423fd7146100f957806323452b9c146101675780633eb869f51461017c578063446d5aa4146101e85780634e71e0c81461021b578063715018a6146102305780638da5cb5b14610245578063d0ebdbe714610276578063e30c397814610297578063f2fde38b146102ac578063fdcb6068146102cd575b600080fd5b3480156100ca57600080fd5b506100e5600160a060020a036004351660ff602435166102e2565b604080519115158252519081900360200190f35b34801561010557600080fd5b50604080516020600460443581810135601f8101849004840285018401909552848452610165948235600160a060020a0316946024803560ff169536959460649492019190819084018382808284375094975061031c9650505050505050565b005b34801561017357600080fd5b50610165610519565b34801561018857600080fd5b50604080516020600460443581810135601f8101849004840285018401909552848452610165948235600160a060020a0316946024803560ff16953695946064949201919081908401838280828437509497506105619650505050505050565b3480156101f457600080fd5b50610209600160a060020a03600435166106d4565b60408051918252519081900360200190f35b34801561022757600080fd5b5061016561070c565b34801561023c57600080fd5b50610165610794565b34801561025157600080fd5b5061025a610800565b60408051600160a060020a039092168252519081900360200190f35b34801561028257600080fd5b50610165600160a060020a036004351661080f565b3480156102a357600080fd5b5061025a61088f565b3480156102b857600080fd5b50610165600160a060020a036004351661089e565b3480156102d957600080fd5b5061025a6108e4565b60006103156102f0836108f3565b600160a060020a0385166000908152600260205260409020549063ffffffff61090716565b9392505050565b6003546040517f755fe57a000000000000000000000000000000000000000000000000000000008152600160a060020a0385811660048301908152600093849392169163755fe57a9188918891339160240183600581111561037a57fe5b60ff16815260200182600160a060020a0316600160a060020a031681526020019350505050602060405180830381600087803b1580156103b957600080fd5b505af11580156103cd573d6000803e3d6000fd5b505050506040513d60208110156103e357600080fd5b505191508115156103f357600080fd5b50600160a060020a03841660009081526002602090815260409182902054825191820190925280610433610426876108f3565b849063ffffffff61091516565b9052600160a060020a0386166000818152600260205260408082209351909355915133927f08914d067c2d79c9074e2227630fa66bf156091959971364b03c94eb584c05b49188919088908084600581111561048b57fe5b60ff1681526020018315151515815260200180602001828103825283818151815260200191508051906020019080838360005b838110156104d65781810151838201526020016104be565b50505050905090810190601f1680156105035780820380516001836020036101000a031916815260200191505b5094505050505060405180910390a35050505050565b600054600160a060020a0316331461053057600080fd5b6000546001805473ffffffffffffffffffffffffffffffffffffffff1916600160a060020a03909216919091179055565b6003546040517f755fe57a000000000000000000000000000000000000000000000000000000008152600160a060020a0385811660048301908152600093849392169163755fe57a918891889133916024018360058111156105bf57fe5b60ff16815260200182600160a060020a0316600160a060020a031681526020019350505050602060405180830381600087803b1580156105fe57600080fd5b505af1158015610612573d6000803e3d6000fd5b505050506040513d602081101561062857600080fd5b5051915081151561063857600080fd5b50600160a060020a0384166000908152600260209081526040918290205482519182019092528061067861066b876108f3565b849063ffffffff61091d16565b9052600160a060020a03861660008181526002602052604090819020925190925590513391907f08914d067c2d79c9074e2227630fa66bf156091959971364b03c94eb584c05b490879060019088908084600581111561048b57fe5b60006106de610924565b5050600160a060020a0316600090815260026020908152604091829020825191820190925290549081905290565b600154600160a060020a0316331461072357600080fd5b60015460008054604051600160a060020a0393841693909116917f8be0079c531659141344cd1fd0a4f28419497f9722a3daafe3b4186f6b6457e091a3600180546000805473ffffffffffffffffffffffffffffffffffffffff19908116600160a060020a03841617909155169055565b600054600160a060020a031633146107ab57600080fd5b60008054604051600160a060020a03909116917ff8df31144d9c2f0f6b59d69b8b98abd5459d07f2742c4df920b25aae33c6482091a26000805473ffffffffffffffffffffffffffffffffffffffff19169055565b600054600160a060020a031681565b600054600160a060020a0316331461082657600080fd5b600354604051600160a060020a038084169216907f8d235c6c97ff1b07a41b6b8ac6ea040a6a6b411b20a0f02f02946fa45590bcfc90600090a36003805473ffffffffffffffffffffffffffffffffffffffff1916600160a060020a0392909216919091179055565b600154600160a060020a031681565b600054600160a060020a031633146108b557600080fd5b6001805473ffffffffffffffffffffffffffffffffffffffff1916600160a060020a0392909216919091179055565b600354600160a060020a031681565b600081600581111561090157fe5b92915050565b60020a900460019081161490565b60020a191690565b60020a1790565b604080516020810190915260008152905600a165627a7a72305820ccb9f641918987604c7e10be5aefa6dd4c65b8731f98daf479dd0a6393170c370029608060405234801561001057600080fd5b50610322806100206000396000f3006080604052600436106100405763ffffffff7c0100000000000000000000000000000000000000000000000000000000600035041663755fe57a8114610045575b600080fd5b34801561005157600080fd5b5061008073ffffffffffffffffffffffffffffffffffffffff60043581169060ff602435169060443516610094565b604080519115158252519081900360200190f35b6000803390508073ffffffffffffffffffffffffffffffffffffffff16638da5cb5b6040518163ffffffff167c0100000000000000000000000000000000000000000000000000000000028152600401602060405180830381600087803b1580156100fe57600080fd5b505af1158015610112573d6000803e3d6000fd5b505050506040513d602081101561012857600080fd5b505173ffffffffffffffffffffffffffffffffffffffff8481169116141561015357600191506102ee565b6040517f1ca451a300000000000000000000000000000000000000000000000000000000815273ffffffffffffffffffffffffffffffffffffffff8481166004830190815290831691631ca451a3918691600091906024018260ff16815260200192505050602060405180830381600087803b1580156101d257600080fd5b505af11580156101e6573d6000803e3d6000fd5b505050506040513d60208110156101fc57600080fd5b50511561021957600184600581111561021157fe5b1491506102ee565b604080517f1ca451a300000000000000000000000000000000000000000000000000000000815273ffffffffffffffffffffffffffffffffffffffff858116600483015260016024830152915191831691631ca451a3916044808201926020929091908290030181600087803b15801561029257600080fd5b505af11580156102a6573d6000803e3d6000fd5b505050506040513d60208110156102bc57600080fd5b5051156102ee5760018460058111156102d157fe5b141580156102eb575060008460058111156102e857fe5b14155b91505b5093925050505600a165627a7a723058207dcd60cf48eb014286ea54e8b6028cefb2192fd0fa7eb675e237a80b60f3faac0029",
  "source": "pragma solidity ^0.4.24;\n\nimport \"../ownership/ClaimableEx.sol\";\nimport \"../utils/BitManipulation.sol\";\nimport \"./Attribute.sol\";\nimport \"./DefaultRegistryAccessManager.sol\";\nimport \"./RegistryAccessManager.sol\";\n\n\ncontract Registry is ClaimableEx {\n  using BitManipulation for uint256;\n\n  struct AttributeData {\n    uint256 value;\n  }\n\n  // Stores arbitrary attributes for users. An example use case is an ERC20\n  // token that requires its users to go through a KYC/AML check - in this case\n  // a validator can set an account's \"hasPassedKYC/AML\" attribute to 1 to indicate\n  // that account can use the token. This mapping stores that value (1, in the\n  // example) as well as which validator last set the value and at what time,\n  // so that e.g. the check can be renewed at appropriate intervals.\n  mapping(address => AttributeData) private attributes;\n\n  // The logic governing who is allowed to set what attributes is abstracted as\n  // this accessManager, so that it may be replaced by the owner as needed.\n  RegistryAccessManager public accessManager;\n\n  event SetAttribute(\n    address indexed who,\n    Attribute.AttributeType attribute,\n    bool enable,\n    string notes,\n    address indexed adminAddr\n  );\n\n  event SetManager(\n    address indexed oldManager,\n    address indexed newManager\n  );\n\n  constructor() public {\n    accessManager = new DefaultRegistryAccessManager();\n  }\n\n  // Writes are allowed only if the accessManager approves\n  function setAttribute(\n    address _who,\n    Attribute.AttributeType _attribute,\n    string _notes\n  )\n    public\n  {\n    bool _canWrite = accessManager.confirmWrite(\n      _who,\n      _attribute,\n      msg.sender\n    );\n    require(_canWrite);\n\n    // Get value of previous attribute before setting new attribute\n    uint256 _tempVal = attributes[_who].value;\n\n    attributes[_who] = AttributeData(\n      _tempVal.setBit(Attribute.toUint256(_attribute))\n    );\n\n    emit SetAttribute(_who, _attribute, true, _notes, msg.sender);\n  }\n\n  function clearAttribute(\n    address _who,\n    Attribute.AttributeType _attribute,\n    string _notes\n  )\n    public\n  {\n    bool _canWrite = accessManager.confirmWrite(\n      _who,\n      _attribute,\n      msg.sender\n    );\n    require(_canWrite);\n\n    // Get value of previous attribute before setting new attribute\n    uint256 _tempVal = attributes[_who].value;\n\n    attributes[_who] = AttributeData(\n      _tempVal.clearBit(Attribute.toUint256(_attribute))\n    );\n\n    emit SetAttribute(_who, _attribute, false, _notes, msg.sender);\n  }\n\n  // Returns true if the uint256 value stored for this attribute is non-zero\n  function hasAttribute(\n    address _who,\n    Attribute.AttributeType _attribute\n  )\n    public\n    view\n    returns (bool)\n  {\n    return attributes[_who].value.checkBit(Attribute.toUint256(_attribute));\n  }\n\n  // Returns the exact value of the attribute, as well as its metadata\n  function getAttributes(\n    address _who\n  )\n    public\n    view\n    returns (uint256)\n  {\n    AttributeData memory _data = attributes[_who];\n    return _data.value;\n  }\n\n  function setManager(RegistryAccessManager _accessManager) public onlyOwner {\n    emit SetManager(accessManager, _accessManager);\n    accessManager = _accessManager;\n  }\n}\n",
  "sourcePath": "/home/namtq/Anlab/SamuraiX/contracts/registry/Registry.sol",
  "compiler": {
    "name": "solc",
    "version": "0.4.24+commit.e67f0147.Emscripten.clang"
  },
  "schemaVersion": "2.0.1",
  "updatedAt": "2018-10-04T01:58:28.655Z"
}