{
  "contractName": "SplitPayment",
  "abi": [
    {
      "constant": true,
      "inputs": [],
      "name": "totalShares",
      "outputs": [
        {
          "name": "",
          "type": "uint256"
        }
      ],
      "payable": false,
      "stateMutability": "view",
      "type": "function"
    },
    {
      "constant": true,
      "inputs": [
        {
          "name": "",
          "type": "uint256"
        }
      ],
      "name": "payees",
      "outputs": [
        {
          "name": "",
          "type": "address"
        }
      ],
      "payable": false,
      "stateMutability": "view",
      "type": "function"
    },
    {
      "constant": true,
      "inputs": [
        {
          "name": "",
          "type": "address"
        }
      ],
      "name": "released",
      "outputs": [
        {
          "name": "",
          "type": "uint256"
        }
      ],
      "payable": false,
      "stateMutability": "view",
      "type": "function"
    },
    {
      "constant": true,
      "inputs": [
        {
          "name": "",
          "type": "address"
        }
      ],
      "name": "shares",
      "outputs": [
        {
          "name": "",
          "type": "uint256"
        }
      ],
      "payable": false,
      "stateMutability": "view",
      "type": "function"
    },
    {
      "constant": true,
      "inputs": [],
      "name": "totalReleased",
      "outputs": [
        {
          "name": "",
          "type": "uint256"
        }
      ],
      "payable": false,
      "stateMutability": "view",
      "type": "function"
    },
    {
      "inputs": [
        {
          "name": "_payees",
          "type": "address[]"
        },
        {
          "name": "_shares",
          "type": "uint256[]"
        }
      ],
      "payable": true,
      "stateMutability": "payable",
      "type": "constructor"
    },
    {
      "payable": true,
      "stateMutability": "payable",
      "type": "fallback"
    },
    {
      "constant": false,
      "inputs": [],
      "name": "claim",
      "outputs": [],
      "payable": false,
      "stateMutability": "nonpayable",
      "type": "function"
    }
  ],
  "bytecode": "0x60806040526000805560006001556040516104e93803806104e98339810160405280516020820151820180519190920180519092916000911461004157600080fd5b5060005b825181101561009d57610095838281518110151561005f57fe5b90602001906020020151838381518110151561007757fe5b906020019060200201516100a5640100000000026401000000009004565b600101610045565b505050610176565b600160a060020a03821615156100ba57600080fd5b600081116100c757600080fd5b600160a060020a038216600090815260026020526040902054156100ea57600080fd5b60048054600181019091557f8a35acfbc15ff81a39ae7d344fd709f28e8600b4aa8c65c6b64bfe7fe36bd19b018054600160a060020a031916600160a060020a03841690811790915560009081526002602052604081208290555461015c908264010000000061016381026102d51704565b6000555050565b8181018281101561017057fe5b92915050565b610364806101856000396000f3006080604052600436106100775763ffffffff7c01000000000000000000000000000000000000000000000000000000006000350416633a98ef3981146100795780634e71d92d146100a057806363037b0c146100b55780639852595c146100e9578063ce7c2ac21461010a578063e33b7de31461012b575b005b34801561008557600080fd5b5061008e610140565b60408051918252519081900360200190f35b3480156100ac57600080fd5b50610077610146565b3480156100c157600080fd5b506100cd600435610283565b60408051600160a060020a039092168252519081900360200190f35b3480156100f557600080fd5b5061008e600160a060020a03600435166102ab565b34801561011657600080fd5b5061008e600160a060020a03600435166102bd565b34801561013757600080fd5b5061008e6102cf565b60005481565b336000818152600260205260408120548190811061016357600080fd5b6001546101789030319063ffffffff6102d516565b600160a060020a038416600090815260036020908152604080832054835460029093529220549294506101d3926101c791906101bb90879063ffffffff6102e816565b9063ffffffff61031116565b9063ffffffff61032616565b90508015156101e157600080fd5b30318111156101ef57600080fd5b600160a060020a038316600090815260036020526040902054610218908263ffffffff6102d516565b600160a060020a038416600090815260036020526040902055600154610244908263ffffffff6102d516565b600155604051600160a060020a0384169082156108fc029083906000818181858888f1935050505015801561027d573d6000803e3d6000fd5b50505050565b600480548290811061029157fe5b600091825260209091200154600160a060020a0316905081565b60036020526000908152604090205481565b60026020526000908152604090205481565b60015481565b818101828110156102e257fe5b92915050565b60008215156102f9575060006102e2565b5081810281838281151561030957fe5b04146102e257fe5b6000818381151561031e57fe5b049392505050565b60008282111561033257fe5b509003905600a165627a7a72305820beb108d14c6071320636cb0877b7ec747bcc28cc5eb2eca24c1dcc077a0107f50029",
  "source": "pragma solidity ^0.4.24;\n\nimport \"../math/SafeMath.sol\";\n\n\n/**\n * @title SplitPayment\n * @dev Base contract that supports multiple payees claiming funds sent to this contract\n * according to the proportion they own.\n */\ncontract SplitPayment {\n  using SafeMath for uint256;\n\n  uint256 public totalShares = 0;\n  uint256 public totalReleased = 0;\n\n  mapping(address => uint256) public shares;\n  mapping(address => uint256) public released;\n  address[] public payees;\n\n  /**\n   * @dev Constructor\n   */\n  constructor(address[] _payees, uint256[] _shares) public payable {\n    require(_payees.length == _shares.length);\n\n    for (uint256 i = 0; i < _payees.length; i++) {\n      addPayee(_payees[i], _shares[i]);\n    }\n  }\n\n  /**\n   * @dev payable fallback\n   */\n  function () external payable {}\n\n  /**\n   * @dev Claim your share of the balance.\n   */\n  function claim() public {\n    address payee = msg.sender;\n\n    require(shares[payee] > 0);\n\n    uint256 totalReceived = address(this).balance.add(totalReleased);\n    uint256 payment = totalReceived.mul(\n      shares[payee]).div(\n        totalShares).sub(\n          released[payee]\n    );\n\n    require(payment != 0);\n    require(address(this).balance >= payment);\n\n    released[payee] = released[payee].add(payment);\n    totalReleased = totalReleased.add(payment);\n\n    payee.transfer(payment);\n  }\n\n  /**\n   * @dev Add a new payee to the contract.\n   * @param _payee The address of the payee to add.\n   * @param _shares The number of shares owned by the payee.\n   */\n  function addPayee(address _payee, uint256 _shares) internal {\n    require(_payee != address(0));\n    require(_shares > 0);\n    require(shares[_payee] == 0);\n\n    payees.push(_payee);\n    shares[_payee] = _shares;\n    totalShares = totalShares.add(_shares);\n  }\n}\n",
  "sourcePath": "/home/namtq/Anlab/SamuraiX/contracts/zeppelin/contracts/payment/SplitPayment.sol",
  "compiler": {
    "name": "solc",
    "version": "0.4.24+commit.e67f0147.Emscripten.clang"
  },
  "schemaVersion": "2.0.1",
  "updatedAt": "2018-09-27T03:51:44.102Z"
}