{
  "contractName": "StandardToken",
  "abi": [
    {
      "constant": false,
      "inputs": [
        {
          "name": "_token",
          "type": "address"
        }
      ],
      "name": "reclaimToken",
      "outputs": [],
      "payable": false,
      "stateMutability": "nonpayable",
      "type": "function"
    },
    {
      "constant": false,
      "inputs": [],
      "name": "cancelOwnershipTransfer",
      "outputs": [],
      "payable": false,
      "stateMutability": "nonpayable",
      "type": "function"
    },
    {
      "constant": false,
      "inputs": [
        {
          "name": "_contractAddr",
          "type": "address"
        }
      ],
      "name": "reclaimContract",
      "outputs": [],
      "payable": false,
      "stateMutability": "nonpayable",
      "type": "function"
    },
    {
      "constant": false,
      "inputs": [],
      "name": "claimOwnership",
      "outputs": [],
      "payable": false,
      "stateMutability": "nonpayable",
      "type": "function"
    },
    {
      "constant": false,
      "inputs": [],
      "name": "renounceOwnership",
      "outputs": [],
      "payable": false,
      "stateMutability": "nonpayable",
      "type": "function"
    },
    {
      "constant": false,
      "inputs": [
        {
          "name": "token",
          "type": "address"
        },
        {
          "name": "_to",
          "type": "address"
        }
      ],
      "name": "reclaimToken",
      "outputs": [],
      "payable": false,
      "stateMutability": "nonpayable",
      "type": "function"
    },
    {
      "constant": true,
      "inputs": [],
      "name": "owner",
      "outputs": [
        {
          "name": "",
          "type": "address"
        }
      ],
      "payable": false,
      "stateMutability": "view",
      "type": "function"
    },
    {
      "constant": false,
      "inputs": [
        {
          "name": "_to",
          "type": "address"
        }
      ],
      "name": "reclaimEther",
      "outputs": [],
      "payable": false,
      "stateMutability": "nonpayable",
      "type": "function"
    },
    {
      "constant": false,
      "inputs": [],
      "name": "reclaimEther",
      "outputs": [],
      "payable": false,
      "stateMutability": "nonpayable",
      "type": "function"
    },
    {
      "constant": true,
      "inputs": [
        {
          "name": "_from",
          "type": "address"
        },
        {
          "name": "_value",
          "type": "uint256"
        },
        {
          "name": "_data",
          "type": "bytes"
        }
      ],
      "name": "tokenFallback",
      "outputs": [],
      "payable": false,
      "stateMutability": "pure",
      "type": "function"
    },
    {
      "constant": true,
      "inputs": [],
      "name": "pendingOwner",
      "outputs": [
        {
          "name": "",
          "type": "address"
        }
      ],
      "payable": false,
      "stateMutability": "view",
      "type": "function"
    },
    {
      "constant": false,
      "inputs": [
        {
          "name": "newOwner",
          "type": "address"
        }
      ],
      "name": "transferOwnership",
      "outputs": [],
      "payable": false,
      "stateMutability": "nonpayable",
      "type": "function"
    },
    {
      "inputs": [],
      "payable": false,
      "stateMutability": "nonpayable",
      "type": "constructor"
    },
    {
      "payable": false,
      "stateMutability": "nonpayable",
      "type": "fallback"
    },
    {
      "anonymous": false,
      "inputs": [
        {
          "indexed": true,
          "name": "sheet",
          "type": "address"
        }
      ],
      "name": "BalanceSheetSet",
      "type": "event"
    },
    {
      "anonymous": false,
      "inputs": [
        {
          "indexed": true,
          "name": "owner",
          "type": "address"
        },
        {
          "indexed": true,
          "name": "spender",
          "type": "address"
        },
        {
          "indexed": false,
          "name": "value",
          "type": "uint256"
        }
      ],
      "name": "Approval",
      "type": "event"
    },
    {
      "anonymous": false,
      "inputs": [
        {
          "indexed": true,
          "name": "from",
          "type": "address"
        },
        {
          "indexed": true,
          "name": "to",
          "type": "address"
        },
        {
          "indexed": false,
          "name": "value",
          "type": "uint256"
        }
      ],
      "name": "Transfer",
      "type": "event"
    },
    {
      "anonymous": false,
      "inputs": [
        {
          "indexed": true,
          "name": "previousOwner",
          "type": "address"
        }
      ],
      "name": "OwnershipRenounced",
      "type": "event"
    },
    {
      "anonymous": false,
      "inputs": [
        {
          "indexed": true,
          "name": "previousOwner",
          "type": "address"
        },
        {
          "indexed": true,
          "name": "newOwner",
          "type": "address"
        }
      ],
      "name": "OwnershipTransferred",
      "type": "event"
    },
    {
      "constant": true,
      "inputs": [],
      "name": "totalSupply",
      "outputs": [
        {
          "name": "",
          "type": "uint256"
        }
      ],
      "payable": false,
      "stateMutability": "view",
      "type": "function"
    },
    {
      "constant": true,
      "inputs": [
        {
          "name": "_owner",
          "type": "address"
        }
      ],
      "name": "balanceOf",
      "outputs": [
        {
          "name": "balance",
          "type": "uint256"
        }
      ],
      "payable": false,
      "stateMutability": "view",
      "type": "function"
    },
    {
      "constant": false,
      "inputs": [
        {
          "name": "_sheet",
          "type": "address"
        }
      ],
      "name": "setBalanceSheet",
      "outputs": [
        {
          "name": "",
          "type": "bool"
        }
      ],
      "payable": false,
      "stateMutability": "nonpayable",
      "type": "function"
    },
    {
      "constant": false,
      "inputs": [
        {
          "name": "_to",
          "type": "address"
        },
        {
          "name": "_value",
          "type": "uint256"
        }
      ],
      "name": "transfer",
      "outputs": [
        {
          "name": "",
          "type": "bool"
        }
      ],
      "payable": false,
      "stateMutability": "nonpayable",
      "type": "function"
    },
    {
      "constant": false,
      "inputs": [
        {
          "name": "_from",
          "type": "address"
        },
        {
          "name": "_to",
          "type": "address"
        },
        {
          "name": "_value",
          "type": "uint256"
        }
      ],
      "name": "transferFrom",
      "outputs": [
        {
          "name": "",
          "type": "bool"
        }
      ],
      "payable": false,
      "stateMutability": "nonpayable",
      "type": "function"
    },
    {
      "constant": false,
      "inputs": [
        {
          "name": "_spender",
          "type": "address"
        },
        {
          "name": "_value",
          "type": "uint256"
        }
      ],
      "name": "approve",
      "outputs": [
        {
          "name": "",
          "type": "bool"
        }
      ],
      "payable": false,
      "stateMutability": "nonpayable",
      "type": "function"
    },
    {
      "constant": true,
      "inputs": [
        {
          "name": "_owner",
          "type": "address"
        },
        {
          "name": "_spender",
          "type": "address"
        }
      ],
      "name": "allowance",
      "outputs": [
        {
          "name": "",
          "type": "uint256"
        }
      ],
      "payable": false,
      "stateMutability": "view",
      "type": "function"
    },
    {
      "constant": false,
      "inputs": [
        {
          "name": "_spender",
          "type": "address"
        },
        {
          "name": "_addedValue",
          "type": "uint256"
        }
      ],
      "name": "increaseApproval",
      "outputs": [
        {
          "name": "",
          "type": "bool"
        }
      ],
      "payable": false,
      "stateMutability": "nonpayable",
      "type": "function"
    },
    {
      "constant": false,
      "inputs": [
        {
          "name": "_spender",
          "type": "address"
        },
        {
          "name": "_subtractedValue",
          "type": "uint256"
        }
      ],
      "name": "decreaseApproval",
      "outputs": [
        {
          "name": "",
          "type": "bool"
        }
      ],
      "payable": false,
      "stateMutability": "nonpayable",
      "type": "function"
    }
  ],
  "bytecode": "0x608060405234801561001057600080fd5b5060008054600160a060020a03191633179055341561002e57600080fd5b60006002556110d9806100426000396000f30060806040526004361061011c5763ffffffff7c0100000000000000000000000000000000000000000000000000000000600035041663095ea7b3811461012b57806317ffc3201461016357806318160ddd1461018657806323452b9c146101ad57806323b872dd146101c25780632aed7f3f146101ec5780634e71e0c81461020d57806354f78dad14610222578063661884631461024357806370a0823114610267578063715018a61461028857806388ee39cc1461029d5780638da5cb5b146102c45780639a6a30a4146102f55780639f727c2714610316578063a9059cbb1461032b578063c0ee0b8a1461034f578063d73dd62314610380578063dd62ed3e146103a4578063e30c3978146103cb578063f2fde38b146103e0575b34801561012857600080fd5b50005b34801561013757600080fd5b5061014f600160a060020a0360043516602435610401565b604080519115158252519081900360200190f35b34801561016f57600080fd5b50610184600160a060020a0360043516610417565b005b34801561019257600080fd5b5061019b6104e3565b60408051918252519081900360200190f35b3480156101b957600080fd5b506101846104e9565b3480156101ce57600080fd5b5061014f600160a060020a0360043581169060243516604435610531565b3480156101f857600080fd5b50610184600160a060020a0360043516610549565b34801561021957600080fd5b506101846105e3565b34801561022e57600080fd5b5061014f600160a060020a036004351661066b565b34801561024f57600080fd5b5061014f600160a060020a036004351660243561075a565b34801561027357600080fd5b5061019b600160a060020a0360043516610767565b34801561029457600080fd5b50610184610804565b3480156102a957600080fd5b50610184600160a060020a0360043581169060243516610870565b3480156102d057600080fd5b506102d9610936565b60408051600160a060020a039092168252519081900360200190f35b34801561030157600080fd5b50610184600160a060020a0360043516610945565b34801561032257600080fd5b50610184610992565b34801561033757600080fd5b5061014f600160a060020a03600435166024356109e7565b34801561035b57600080fd5b5061018460048035600160a060020a03169060248035916044359182019101356109f4565b34801561038c57600080fd5b5061014f600160a060020a03600435166024356109f9565b3480156103b057600080fd5b5061019b600160a060020a0360043581169060243516610a06565b3480156103d757600080fd5b506102d9610a31565b3480156103ec57600080fd5b50610184600160a060020a0360043516610a40565b600061040e838333610a86565b50600192915050565b60008054600160a060020a0316331461042f57600080fd5b604080517f70a082310000000000000000000000000000000000000000000000000000000081523060048201529051600160a060020a038416916370a082319160248083019260209291908290030181600087803b15801561049057600080fd5b505af11580156104a4573d6000803e3d6000fd5b505050506040513d60208110156104ba57600080fd5b50516000549091506104df90600160a060020a0384811691168363ffffffff610ae816565b5050565b60025490565b600054600160a060020a0316331461050057600080fd5b6000546001805473ffffffffffffffffffffffffffffffffffffffff1916600160a060020a03909216919091179055565b600061053f84848433610b9b565b5060019392505050565b60008054600160a060020a0316331461056157600080fd5b5060008054604080517ff2fde38b000000000000000000000000000000000000000000000000000000008152600160a060020a039283166004820152905184939284169263f2fde38b926024808201939182900301818387803b1580156105c757600080fd5b505af11580156105db573d6000803e3d6000fd5b505050505050565b600154600160a060020a031633146105fa57600080fd5b60015460008054604051600160a060020a0393841693909116917f8be0079c531659141344cd1fd0a4f28419497f9722a3daafe3b4186f6b6457e091a3600180546000805473ffffffffffffffffffffffffffffffffffffffff19908116600160a060020a03841617909155169055565b60008054600160a060020a0316331461068357600080fd5b6003805473ffffffffffffffffffffffffffffffffffffffff1916600160a060020a038481169190911791829055604080517f4e71e0c800000000000000000000000000000000000000000000000000000000815290519290911691634e71e0c89160048082019260009290919082900301818387803b15801561070657600080fd5b505af115801561071a573d6000803e3d6000fd5b5050604051600160a060020a03851692507fa89fb8ab3845cb6919c98b54ca0d8f398df48c64ae04ed309cd7b130539badd49150600090a2506001919050565b600061040e838333610c87565b600354604080517f70a08231000000000000000000000000000000000000000000000000000000008152600160a060020a038481166004830152915160009392909216916370a082319160248082019260209290919082900301818787803b1580156107d257600080fd5b505af11580156107e6573d6000803e3d6000fd5b505050506040513d60208110156107fc57600080fd5b505192915050565b600054600160a060020a0316331461081b57600080fd5b60008054604051600160a060020a03909116917ff8df31144d9c2f0f6b59d69b8b98abd5459d07f2742c4df920b25aae33c6482091a26000805473ffffffffffffffffffffffffffffffffffffffff19169055565b60008054600160a060020a0316331461088857600080fd5b604080517f70a082310000000000000000000000000000000000000000000000000000000081523060048201529051600160a060020a038516916370a082319160248083019260209291908290030181600087803b1580156108e957600080fd5b505af11580156108fd573d6000803e3d6000fd5b505050506040513d602081101561091357600080fd5b50519050610931600160a060020a038416838363ffffffff610ae816565b505050565b600054600160a060020a031681565b600054600160a060020a0316331461095c57600080fd5b604051600160a060020a03821690303180156108fc02916000818181858888f193505050501580156104df573d6000803e3d6000fd5b600054600160a060020a031633146109a957600080fd5b60008054604051600160a060020a0390911691303180156108fc02929091818181858888f193505050501580156109e4573d6000803e3d6000fd5b50565b600061040e338484610d79565b600080fd5b600061040e838333610fec565b600160a060020a03918216600090815260046020908152604080832093909416825291909152205490565b600154600160a060020a031681565b600054600160a060020a03163314610a5757600080fd5b6001805473ffffffffffffffffffffffffffffffffffffffff1916600160a060020a0392909216919091179055565b600160a060020a03808216600081815260046020908152604080832094881680845294825291829020869055815186815291517f8c5be1e5ebec7d5bd14f71427d1e84f3dd0314c0f7b2291e5b200ac8c7c3b9259281900390910190a3505050565b82600160a060020a031663a9059cbb83836040518363ffffffff167c01000000000000000000000000000000000000000000000000000000000281526004018083600160a060020a0316600160a060020a0316815260200182815260200192505050602060405180830381600087803b158015610b6457600080fd5b505af1158015610b78573d6000803e3d6000fd5b505050506040513d6020811015610b8e57600080fd5b5051151561093157600080fd5b600160a060020a0380851660009081526004602090815260408083209385168352929052205480831115610c19576040805160e560020a62461bcd02815260206004820181905260248201527f6e6f7420656e6f75676820616c6c6f77616e636520746f207472616e73666572604482015290519081900360640190fd5b600160a060020a03808616600090815260046020908152604080832093861683529290522054610c4f908463ffffffff61108816565b600160a060020a03808716600090815260046020908152604080832093871683529290522055610c80858585610d79565b5050505050565b600160a060020a03808216600090815260046020908152604080832093871683529290522054808310610ce157600160a060020a038083166000908152600460209081526040808320938816835292905290812055610d18565b610cf1818463ffffffff61108816565b600160a060020a038084166000908152600460209081526040808320938916835292905220555b600160a060020a0382811660008181526004602090815260408083209489168084529482529182902054825190815291517f8c5be1e5ebec7d5bd14f71427d1e84f3dd0314c0f7b2291e5b200ac8c7c3b9259281900390910190a350505050565b600160a060020a0382161515610dd9576040805160e560020a62461bcd02815260206004820152601860248201527f746f20616464726573732063616e6e6f74206265203078300000000000000000604482015290519081900360640190fd5b600160a060020a0383161515610e39576040805160e560020a62461bcd02815260206004820152601a60248201527f66726f6d20616464726573732063616e6e6f7420626520307830000000000000604482015290519081900360640190fd5b610e4283610767565b811115610e99576040805160e560020a62461bcd02815260206004820152601e60248201527f6e6f7420656e6f7567682062616c616e636520746f207472616e736665720000604482015290519081900360640190fd5b600354604080517fcf8eeb7e000000000000000000000000000000000000000000000000000000008152600160a060020a038681166004830152602482018590529151919092169163cf8eeb7e91604480830192600092919082900301818387803b158015610f0757600080fd5b505af1158015610f1b573d6000803e3d6000fd5b5050600354604080517f21e5383a000000000000000000000000000000000000000000000000000000008152600160a060020a0387811660048301526024820187905291519190921693506321e5383a9250604480830192600092919082900301818387803b158015610f8d57600080fd5b505af1158015610fa1573d6000803e3d6000fd5b5050604080518481529051600160a060020a038087169450871692507fddf252ad1be2c89b69c2b068fc378daa952ba7f163c4a11628f55a4df523b3ef9181900360200190a3505050565b600160a060020a03808216600090815260046020908152604080832093871683529290522054611022908363ffffffff61109a16565b600160a060020a0382811660008181526004602090815260408083209489168084529482529182902085905581519485529051929391927f8c5be1e5ebec7d5bd14f71427d1e84f3dd0314c0f7b2291e5b200ac8c7c3b9259281900390910190a3505050565b60008282111561109457fe5b50900390565b818101828110156110a757fe5b929150505600a165627a7a72305820e4ed56dbd2ef0e38bef3fa2b8e97dc343ec33332ce3252b300aeb8707ae8e2f10029",
  "source": "pragma solidity ^0.4.24;\n\nimport \"../zeppelin/contracts/math/SafeMath.sol\";\nimport \"../zeppelin/contracts/token/ERC20/ERC20.sol\";\n\nimport \"../ownership/ClaimableEx.sol\";\nimport \"../ownership/NoOwnerEx.sol\";\nimport \"./BalanceSheet.sol\";\n\n\n/**\n * @title Standard ERC20 token\n *\n * @dev Implementation of the basic standard token.\n * A version of OpenZeppelin's StandardToken whose balances mapping has been replaced\n * with a separate BalanceSheet contract. Most useful in combination with e.g.\n * HasNoContracts because then it can relinquish its balance sheet to a new\n * version of the token, removing the need to copy over balances.\n **/\ncontract StandardToken is ClaimableEx, NoOwnerEx, ERC20 {\n  using SafeMath for uint256;\n\n  uint256 totalSupply_;\n\n  BalanceSheet private balances;\n  event BalanceSheetSet(address indexed sheet);\n\n  mapping (address => mapping (address => uint256)) private allowed;\n\n  constructor() public {\n    totalSupply_ = 0;\n  }\n\n  /**\n   * @dev Total number of tokens in existence\n   */\n  function totalSupply() public view returns (uint256) {\n    return totalSupply_;\n  }\n\n  /**\n   * @dev Gets the balance of the specified address.\n   * @param _owner The address to query the the balance of.\n   * @return An uint256 representing the amount owned by the passed address.\n   */\n  function balanceOf(address _owner) public view returns (uint256 balance) {\n    return balances.balanceOf(_owner);\n  }\n\n  /**\n   * @dev Claim ownership of the BalanceSheet contract\n   * @param _sheet The address of the BalanceSheet to claim.\n   */\n  function setBalanceSheet(address _sheet) public onlyOwner returns (bool) {\n    balances = BalanceSheet(_sheet);\n    balances.claimOwnership();\n    emit BalanceSheetSet(_sheet);\n    return true;\n  }\n\n  /**\n   * @dev Transfer token for a specified address\n   * @param _to The address to transfer to.\n   * @param _value The amount to be transferred.\n   */\n  function transfer(address _to, uint256 _value) public returns (bool) {\n    _transfer(msg.sender, _to, _value);\n    return true;\n  }\n\n  /**\n   * @dev Transfer tokens from one address to another\n   * @param _from The address which you want to send tokens from\n   * @param _to The address which you want to transfer to\n   * @param _value The amount of tokens to be transferred\n   */\n  function transferFrom(\n    address _from,\n    address _to,\n    uint256 _value\n  )\n    public\n    returns (bool)\n  {\n    _transferFrom(_from, _to, _value, msg.sender);\n    return true;\n  }\n\n  /**\n   * @dev Approve the passed address to spend the specified amount of tokens on behalf of msg.sender.\n   *\n   * Beware that changing an allowance with this method brings the risk that someone may use both the old\n   * and the new allowance by unfortunate transaction ordering. One possible solution to mitigate this\n   * race condition is to first reduce the spender's allowance to 0 and set the desired value afterwards:\n   * https://github.com/ethereum/EIPs/issues/20#issuecomment-263524729\n   * @param _spender The address which will spend the funds.\n   * @param _value The amount of tokens to be spent.\n   */\n  function approve(address _spender, uint256 _value) public returns (bool) {\n    _approve(_spender, _value, msg.sender);\n    return true;\n  }\n\n  /**\n   * @dev Function to check the amount of tokens that an owner allowed to a spender.\n   * @param _owner address The address which owns the funds.\n   * @param _spender address The address which will spend the funds.\n   * @return A uint256 specifying the amount of tokens still available for the spender.\n   */\n  function allowance(\n    address _owner,\n    address _spender\n  )\n    public\n    view\n    returns (uint256)\n  {\n    return allowed[_owner][_spender];\n  }\n\n  /**\n   * @dev Increase the amount of tokens that an owner allowed to a spender.\n   *\n   * approve should be called when allowed[_spender] == 0. To increment\n   * allowed value is better to use this function to avoid 2 calls (and wait until\n   * the first transaction is mined)\n   * @param _spender The address which will spend the funds.\n   * @param _addedValue The amount of tokens to increase the allowance by.\n   */\n  function increaseApproval(\n    address _spender,\n    uint _addedValue\n  )\n    public\n    returns (bool)\n  {\n    _increaseApproval(_spender, _addedValue, msg.sender);\n    return true;\n  }\n\n  /**\n   * @dev Decrease the amount of tokens that an owner allowed to a spender.\n   *\n   * approve should be called when allowed[_spender] == 0. To decrement\n   * allowed value is better to use this function to avoid 2 calls (and wait until\n   * the first transaction is mined)\n   * @param _spender The address which will spend the funds.\n   * @param _subtractedValue The amount of tokens to decrease the allowance by.\n   */\n  function decreaseApproval(\n    address _spender,\n    uint _subtractedValue\n  )\n    public\n    returns (bool)\n  {\n    _decreaseApproval(_spender, _subtractedValue, msg.sender);\n    return true;\n  }\n\n  function _approve(\n    address _spender,\n    uint256 _value,\n    address _tokenHolder\n  )\n    internal\n  {\n    allowed[_tokenHolder][_spender] = _value;\n\n    emit Approval(_tokenHolder, _spender, _value);\n  }\n\n  /**\n   * @dev Internal function that burns an amount of the token of a given\n   * account.\n   * @param _burner The account whose tokens will be burnt.\n   * @param _value The amount that will be burnt.\n   */\n  function _burn(address _burner, uint256 _value) internal {\n    require(_burner != 0);\n    require(_value <= balanceOf(_burner), \"not enough balance to burn\");\n\n    // no need to require value <= totalSupply, since that would imply the\n    // sender's balance is greater than the totalSupply, which *should* be an assertion failure\n    balances.subBalance(_burner, _value);\n    totalSupply_ = totalSupply_.sub(_value);\n\n    emit Transfer(_burner, address(0), _value);\n  }\n\n  function _decreaseApproval(\n    address _spender,\n    uint256 _subtractedValue,\n    address _tokenHolder\n  )\n    internal\n  {\n    uint256 _oldValue = allowed[_tokenHolder][_spender];\n    if (_subtractedValue >= _oldValue) {\n      allowed[_tokenHolder][_spender] = 0;\n    } else {\n      allowed[_tokenHolder][_spender] = _oldValue.sub(_subtractedValue);\n    }\n\n    emit Approval(_tokenHolder, _spender, allowed[_tokenHolder][_spender]);\n  }\n\n  function _increaseApproval(\n    address _spender,\n    uint256 _addedValue,\n    address _tokenHolder\n  )\n    internal\n  {\n    allowed[_tokenHolder][_spender] = (\n      allowed[_tokenHolder][_spender].add(_addedValue));\n\n    emit Approval(_tokenHolder, _spender, allowed[_tokenHolder][_spender]);\n  }\n\n  /**\n   * @dev Internal function that mints an amount of the token and assigns it to\n   * an account. This encapsulates the modification of balances such that the\n   * proper events are emitted.\n   * @param _account The account that will receive the created tokens.\n   * @param _amount The amount that will be created.\n   */\n  function _mint(address _account, uint256 _amount) internal {\n    require(_account != 0);\n\n    totalSupply_ = totalSupply_.add(_amount);\n    balances.addBalance(_account, _amount);\n\n    emit Transfer(address(0), _account, _amount);\n  }\n\n  function _transfer(address _from, address _to, uint256 _value) internal {\n    require(_to != address(0), \"to address cannot be 0x0\");\n     require(_from != address(0),\"from address cannot be 0x0\");\n     require(_value <= balanceOf(_from), \"not enough balance to transfer\");\n\n    /* SafeMath.sub will throw if there is not enough balance. */\n    balances.subBalance(_from, _value);\n    balances.addBalance(_to, _value);\n\n    emit Transfer(_from, _to, _value);\n  }\n\n  function _transferFrom(\n    address _from,\n    address _to,\n    uint256 _value,\n    address _spender\n  )\n    internal\n  {\n    uint256 _allowed = allowed[_from][_spender];\n    require(_value <= _allowed, \"not enough allowance to transfer\");\n\n    allowed[_from][_spender] = allowed[_from][_spender].sub(_value);\n    _transfer(_from, _to, _value);\n  }\n}\n",
  "sourcePath": "/home/namtq/Anlab/SamuraiX/contracts/base-token/StandardToken.sol",
  "compiler": {
    "name": "solc",
    "version": "0.4.24+commit.e67f0147.Emscripten.clang"
  },
  "schemaVersion": "2.0.1",
  "updatedAt": "2018-10-03T01:42:24.593Z"
}