{
  "contractName": "TokenWithFees",
  "abi": [
    {
      "constant": false,
      "inputs": [
        {
          "name": "_spender",
          "type": "address"
        },
        {
          "name": "_value",
          "type": "uint256"
        }
      ],
      "name": "approve",
      "outputs": [
        {
          "name": "",
          "type": "bool"
        }
      ],
      "payable": false,
      "stateMutability": "nonpayable",
      "type": "function"
    },
    {
      "constant": false,
      "inputs": [
        {
          "name": "_token",
          "type": "address"
        }
      ],
      "name": "reclaimToken",
      "outputs": [],
      "payable": false,
      "stateMutability": "nonpayable",
      "type": "function"
    },
    {
      "constant": true,
      "inputs": [],
      "name": "totalSupply",
      "outputs": [
        {
          "name": "",
          "type": "uint256"
        }
      ],
      "payable": false,
      "stateMutability": "view",
      "type": "function"
    },
    {
      "constant": false,
      "inputs": [],
      "name": "cancelOwnershipTransfer",
      "outputs": [],
      "payable": false,
      "stateMutability": "nonpayable",
      "type": "function"
    },
    {
      "constant": false,
      "inputs": [
        {
          "name": "_from",
          "type": "address"
        },
        {
          "name": "_to",
          "type": "address"
        },
        {
          "name": "_value",
          "type": "uint256"
        }
      ],
      "name": "transferFrom",
      "outputs": [
        {
          "name": "",
          "type": "bool"
        }
      ],
      "payable": false,
      "stateMutability": "nonpayable",
      "type": "function"
    },
    {
      "constant": false,
      "inputs": [
        {
          "name": "_contractAddr",
          "type": "address"
        }
      ],
      "name": "reclaimContract",
      "outputs": [],
      "payable": false,
      "stateMutability": "nonpayable",
      "type": "function"
    },
    {
      "constant": true,
      "inputs": [],
      "name": "beneficiary",
      "outputs": [
        {
          "name": "",
          "type": "address"
        }
      ],
      "payable": false,
      "stateMutability": "view",
      "type": "function"
    },
    {
      "constant": false,
      "inputs": [],
      "name": "claimOwnership",
      "outputs": [],
      "payable": false,
      "stateMutability": "nonpayable",
      "type": "function"
    },
    {
      "constant": false,
      "inputs": [
        {
          "name": "_sheet",
          "type": "address"
        }
      ],
      "name": "setBalanceSheet",
      "outputs": [
        {
          "name": "",
          "type": "bool"
        }
      ],
      "payable": false,
      "stateMutability": "nonpayable",
      "type": "function"
    },
    {
      "constant": false,
      "inputs": [
        {
          "name": "_spender",
          "type": "address"
        },
        {
          "name": "_subtractedValue",
          "type": "uint256"
        }
      ],
      "name": "decreaseApproval",
      "outputs": [
        {
          "name": "",
          "type": "bool"
        }
      ],
      "payable": false,
      "stateMutability": "nonpayable",
      "type": "function"
    },
    {
      "constant": true,
      "inputs": [
        {
          "name": "_owner",
          "type": "address"
        }
      ],
      "name": "balanceOf",
      "outputs": [
        {
          "name": "balance",
          "type": "uint256"
        }
      ],
      "payable": false,
      "stateMutability": "view",
      "type": "function"
    },
    {
      "constant": false,
      "inputs": [],
      "name": "renounceOwnership",
      "outputs": [],
      "payable": false,
      "stateMutability": "nonpayable",
      "type": "function"
    },
    {
      "constant": true,
      "inputs": [],
      "name": "registry",
      "outputs": [
        {
          "name": "",
          "type": "address"
        }
      ],
      "payable": false,
      "stateMutability": "view",
      "type": "function"
    },
    {
      "constant": false,
      "inputs": [
        {
          "name": "token",
          "type": "address"
        },
        {
          "name": "_to",
          "type": "address"
        }
      ],
      "name": "reclaimToken",
      "outputs": [],
      "payable": false,
      "stateMutability": "nonpayable",
      "type": "function"
    },
    {
      "constant": true,
      "inputs": [],
      "name": "owner",
      "outputs": [
        {
          "name": "",
          "type": "address"
        }
      ],
      "payable": false,
      "stateMutability": "view",
      "type": "function"
    },
    {
      "constant": true,
      "inputs": [],
      "name": "transferFeeNumerator",
      "outputs": [
        {
          "name": "",
          "type": "uint256"
        }
      ],
      "payable": false,
      "stateMutability": "view",
      "type": "function"
    },
    {
      "constant": false,
      "inputs": [
        {
          "name": "_to",
          "type": "address"
        }
      ],
      "name": "reclaimEther",
      "outputs": [],
      "payable": false,
      "stateMutability": "nonpayable",
      "type": "function"
    },
    {
      "constant": false,
      "inputs": [],
      "name": "reclaimEther",
      "outputs": [],
      "payable": false,
      "stateMutability": "nonpayable",
      "type": "function"
    },
    {
      "constant": false,
      "inputs": [
        {
          "name": "_to",
          "type": "address"
        },
        {
          "name": "_value",
          "type": "uint256"
        }
      ],
      "name": "transfer",
      "outputs": [
        {
          "name": "",
          "type": "bool"
        }
      ],
      "payable": false,
      "stateMutability": "nonpayable",
      "type": "function"
    },
    {
      "constant": false,
      "inputs": [
        {
          "name": "_registry",
          "type": "address"
        }
      ],
      "name": "setRegistry",
      "outputs": [],
      "payable": false,
      "stateMutability": "nonpayable",
      "type": "function"
    },
    {
      "constant": true,
      "inputs": [
        {
          "name": "_from",
          "type": "address"
        },
        {
          "name": "_value",
          "type": "uint256"
        },
        {
          "name": "_data",
          "type": "bytes"
        }
      ],
      "name": "tokenFallback",
      "outputs": [],
      "payable": false,
      "stateMutability": "pure",
      "type": "function"
    },
    {
      "constant": true,
      "inputs": [],
      "name": "transferFeeDenominator",
      "outputs": [
        {
          "name": "",
          "type": "uint256"
        }
      ],
      "payable": false,
      "stateMutability": "view",
      "type": "function"
    },
    {
      "constant": false,
      "inputs": [
        {
          "name": "_spender",
          "type": "address"
        },
        {
          "name": "_addedValue",
          "type": "uint256"
        }
      ],
      "name": "increaseApproval",
      "outputs": [
        {
          "name": "",
          "type": "bool"
        }
      ],
      "payable": false,
      "stateMutability": "nonpayable",
      "type": "function"
    },
    {
      "constant": true,
      "inputs": [
        {
          "name": "_owner",
          "type": "address"
        },
        {
          "name": "_spender",
          "type": "address"
        }
      ],
      "name": "allowance",
      "outputs": [
        {
          "name": "",
          "type": "uint256"
        }
      ],
      "payable": false,
      "stateMutability": "view",
      "type": "function"
    },
    {
      "constant": true,
      "inputs": [],
      "name": "pendingOwner",
      "outputs": [
        {
          "name": "",
          "type": "address"
        }
      ],
      "payable": false,
      "stateMutability": "view",
      "type": "function"
    },
    {
      "constant": false,
      "inputs": [
        {
          "name": "newOwner",
          "type": "address"
        }
      ],
      "name": "transferOwnership",
      "outputs": [],
      "payable": false,
      "stateMutability": "nonpayable",
      "type": "function"
    },
    {
      "constant": true,
      "inputs": [
        {
          "name": "_operator",
          "type": "address"
        }
      ],
      "name": "isManager",
      "outputs": [
        {
          "name": "",
          "type": "bool"
        }
      ],
      "payable": false,
      "stateMutability": "view",
      "type": "function"
    },
    {
      "inputs": [
        {
          "name": "_wallet",
          "type": "address"
        }
      ],
      "payable": false,
      "stateMutability": "nonpayable",
      "type": "constructor"
    },
    {
      "payable": false,
      "stateMutability": "nonpayable",
      "type": "fallback"
    },
    {
      "anonymous": false,
      "inputs": [
        {
          "indexed": true,
          "name": "addr",
          "type": "address"
        }
      ],
      "name": "ChangeWallet",
      "type": "event"
    },
    {
      "anonymous": false,
      "inputs": [
        {
          "indexed": false,
          "name": "transferFeeNumerator",
          "type": "uint256"
        },
        {
          "indexed": false,
          "name": "transferFeeDenominator",
          "type": "uint256"
        }
      ],
      "name": "ChangeFees",
      "type": "event"
    },
    {
      "anonymous": false,
      "inputs": [
        {
          "indexed": true,
          "name": "sheet",
          "type": "address"
        }
      ],
      "name": "BalanceSheetSet",
      "type": "event"
    },
    {
      "anonymous": false,
      "inputs": [
        {
          "indexed": true,
          "name": "owner",
          "type": "address"
        },
        {
          "indexed": true,
          "name": "spender",
          "type": "address"
        },
        {
          "indexed": false,
          "name": "value",
          "type": "uint256"
        }
      ],
      "name": "Approval",
      "type": "event"
    },
    {
      "anonymous": false,
      "inputs": [
        {
          "indexed": true,
          "name": "from",
          "type": "address"
        },
        {
          "indexed": true,
          "name": "to",
          "type": "address"
        },
        {
          "indexed": false,
          "name": "value",
          "type": "uint256"
        }
      ],
      "name": "Transfer",
      "type": "event"
    },
    {
      "anonymous": false,
      "inputs": [
        {
          "indexed": true,
          "name": "registry",
          "type": "address"
        }
      ],
      "name": "SetRegistry",
      "type": "event"
    },
    {
      "anonymous": false,
      "inputs": [
        {
          "indexed": true,
          "name": "previousOwner",
          "type": "address"
        }
      ],
      "name": "OwnershipRenounced",
      "type": "event"
    },
    {
      "anonymous": false,
      "inputs": [
        {
          "indexed": true,
          "name": "previousOwner",
          "type": "address"
        },
        {
          "indexed": true,
          "name": "newOwner",
          "type": "address"
        }
      ],
      "name": "OwnershipTransferred",
      "type": "event"
    },
    {
      "constant": true,
      "inputs": [
        {
          "name": "_value",
          "type": "uint256"
        }
      ],
      "name": "checkTransferFee",
      "outputs": [
        {
          "name": "",
          "type": "uint256"
        }
      ],
      "payable": false,
      "stateMutability": "view",
      "type": "function"
    },
    {
      "constant": false,
      "inputs": [
        {
          "name": "_transferFeeNumerator",
          "type": "uint256"
        },
        {
          "name": "_transferFeeDenominator",
          "type": "uint256"
        }
      ],
      "name": "changeFees",
      "outputs": [],
      "payable": false,
      "stateMutability": "nonpayable",
      "type": "function"
    },
    {
      "constant": false,
      "inputs": [
        {
          "name": "_beneficiary",
          "type": "address"
        }
      ],
      "name": "changeWallet",
      "outputs": [],
      "payable": false,
      "stateMutability": "nonpayable",
      "type": "function"
    }
  ],
  "bytecode": "0x6080604052600060065561271060075534801561001b57600080fd5b5060405160208061177d833981016040525160008054600160a060020a03191633179055341561004a57600080fd5b600060035560088054600160a060020a03909216600160a060020a03199092169190911790556116fe8061007f6000396000f30060806040526004361061017f5763ffffffff7c0100000000000000000000000000000000000000000000000000000000600035041663095ea7b3811461018e57806317ffc320146101c657806318160ddd146101e957806321ecff5b1461021057806323452b9c1461022b57806323b872dd146102405780632aed7f3f1461026a57806338af3eed1461028b5780634e71e0c8146102bc57806354f78dad146102d157806366188463146102f257806370a0823114610316578063715018a6146103375780637b1039991461034c578063874a62f61461036157806388ee39cc146103795780638da5cb5b146103a05780638f98ce8f146103b557806398b9a2dc146103ca5780639a6a30a4146103eb5780639f727c271461040c578063a9059cbb14610421578063a91ee0dc14610445578063c0ee0b8a14610466578063d42cfc4114610497578063d73dd623146104ac578063dd62ed3e146104d0578063e30c3978146104f7578063f2fde38b1461050c578063f3ae24151461052d575b34801561018b57600080fd5b50005b34801561019a57600080fd5b506101b2600160a060020a036004351660243561054e565b604080519115158252519081900360200190f35b3480156101d257600080fd5b506101e7600160a060020a0360043516610565565b005b3480156101f557600080fd5b506101fe610631565b60408051918252519081900360200190f35b34801561021c57600080fd5b506101e7600435602435610637565b34801561023757600080fd5b506101e761071e565b34801561024c57600080fd5b506101b2600160a060020a0360043581169060243516604435610759565b34801561027657600080fd5b506101e7600160a060020a0360043516610771565b34801561029757600080fd5b506102a061080b565b60408051600160a060020a039092168252519081900360200190f35b3480156102c857600080fd5b506101e761081a565b3480156102dd57600080fd5b506101b2600160a060020a0360043516610895565b3480156102fe57600080fd5b506101b2600160a060020a0360043516602435610973565b34801561032257600080fd5b506101fe600160a060020a0360043516610980565b34801561034357600080fd5b506101e7610a1f565b34801561035857600080fd5b506102a0610a7e565b34801561036d57600080fd5b506101fe600435610a8d565b34801561038557600080fd5b506101e7600160a060020a0360043581169060243516610ab6565b3480156103ac57600080fd5b506102a0610b7c565b3480156103c157600080fd5b506101fe610b8b565b3480156103d657600080fd5b506101e7600160a060020a0360043516610b91565b3480156103f757600080fd5b506101e7600160a060020a0360043516610ccd565b34801561041857600080fd5b506101e7610d1a565b34801561042d57600080fd5b506101b2600160a060020a0360043516602435610d6f565b34801561045157600080fd5b506101e7600160a060020a0360043516610d7c565b34801561047257600080fd5b506101e760048035600160a060020a0316906024803591604435918201910135610de3565b3480156104a357600080fd5b506101fe610de8565b3480156104b857600080fd5b506101b2600160a060020a0360043516602435610dee565b3480156104dc57600080fd5b506101fe600160a060020a0360043581169060243516610dfb565b34801561050357600080fd5b506102a0610e26565b34801561051857600080fd5b506101e7600160a060020a0360043516610e35565b34801561053957600080fd5b506101b2600160a060020a0360043516610e6e565b600061055b838333610ec8565b5060015b92915050565b60008054600160a060020a0316331461057d57600080fd5b604080517f70a082310000000000000000000000000000000000000000000000000000000081523060048201529051600160a060020a038416916370a082319160248083019260209291908290030181600087803b1580156105de57600080fd5b505af11580156105f2573d6000803e3d6000fd5b505050506040513d602081101561060857600080fd5b505160005490915061062d90600160a060020a0384811691168363ffffffff610f2a16565b5050565b60035490565b60015460405160e060020a631ca451a30281523360048201818152600160a060020a0390931692631ca451a392600091906024018260ff16815260200192505050602060405180830381600087803b15801561069257600080fd5b505af11580156106a6573d6000803e3d6000fd5b505050506040513d60208110156106bc57600080fd5b505115156106c957600080fd5b8082106106d557600080fd5b60068290556007819055604080518381526020810183905281517f0dba25723c12d14a525942a1f517d05faa831a99752d9e8273a56eb021106b7e929181900390910190a15050565b600054600160a060020a0316331461073557600080fd5b60005460028054600160a060020a031916600160a060020a03909216919091179055565b600061076784848433610fdd565b5060019392505050565b60008054600160a060020a0316331461078957600080fd5b5060008054604080517ff2fde38b000000000000000000000000000000000000000000000000000000008152600160a060020a039283166004820152905184939284169263f2fde38b926024808201939182900301818387803b1580156107ef57600080fd5b505af1158015610803573d6000803e3d6000fd5b505050505050565b600854600160a060020a031681565b600254600160a060020a0316331461083157600080fd5b60025460008054604051600160a060020a0393841693909116917f8be0079c531659141344cd1fd0a4f28419497f9722a3daafe3b4186f6b6457e091a36002805460008054600160a060020a0319908116600160a060020a03841617909155169055565b60008054600160a060020a031633146108ad57600080fd5b60048054600160a060020a031916600160a060020a0384811691909117808355604080517f4e71e0c800000000000000000000000000000000000000000000000000000000815290519190921692634e71e0c89280820192600092909182900301818387803b15801561091f57600080fd5b505af1158015610933573d6000803e3d6000fd5b5050604051600160a060020a03851692507fa89fb8ab3845cb6919c98b54ca0d8f398df48c64ae04ed309cd7b130539badd49150600090a2506001919050565b600061055b8383336110c9565b60048054604080517f70a08231000000000000000000000000000000000000000000000000000000008152600160a060020a03858116948201949094529051600093909216916370a082319160248082019260209290919082900301818787803b1580156109ed57600080fd5b505af1158015610a01573d6000803e3d6000fd5b505050506040513d6020811015610a1757600080fd5b505192915050565b600054600160a060020a03163314610a3657600080fd5b60008054604051600160a060020a03909116917ff8df31144d9c2f0f6b59d69b8b98abd5459d07f2742c4df920b25aae33c6482091a260008054600160a060020a0319169055565b600154600160a060020a031681565b600061055f600754610aaa600654856111bb90919063ffffffff16565b9063ffffffff6111e416565b60008054600160a060020a03163314610ace57600080fd5b604080517f70a082310000000000000000000000000000000000000000000000000000000081523060048201529051600160a060020a038516916370a082319160248083019260209291908290030181600087803b158015610b2f57600080fd5b505af1158015610b43573d6000803e3d6000fd5b505050506040513d6020811015610b5957600080fd5b50519050610b77600160a060020a038416838363ffffffff610f2a16565b505050565b600054600160a060020a031681565b60065481565b60015460405160e060020a631ca451a30281523360048201818152600160a060020a0390931692631ca451a392600091906024018260ff16815260200192505050602060405180830381600087803b158015610bec57600080fd5b505af1158015610c00573d6000803e3d6000fd5b505050506040513d6020811015610c1657600080fd5b50511515610c2357600080fd5b600160a060020a0381161515610c83576040805160e560020a62461bcd02815260206004820152601860248201527f6e65772077616c6c65742063616e6e6f74206265203078300000000000000000604482015290519081900360640190fd5b60088054600160a060020a031916600160a060020a0383169081179091556040517f5e854bf999fde7f4dc7e1139995b6318400f5cfccb2c8616f7df90e26263ed0590600090a250565b600054600160a060020a03163314610ce457600080fd5b604051600160a060020a03821690303180156108fc02916000818181858888f1935050505015801561062d573d6000803e3d6000fd5b600054600160a060020a03163314610d3157600080fd5b60008054604051600160a060020a0390911691303180156108fc02929091818181858888f19350505050158015610d6c573d6000803e3d6000fd5b50565b600061055b3384846111f9565b600054600160a060020a03163314610d9357600080fd5b60018054600160a060020a031916600160a060020a0383811691909117918290556040519116907f278c70ced5f3e0e5eeb385b5ff9cb735748ba00a625147e66065ed48fc1562cd90600090a250565b600080fd5b60075481565b600061055b838333611226565b600160a060020a03918216600090815260056020908152604080832093909416825291909152205490565b600254600160a060020a031681565b600054600160a060020a03163314610e4c57600080fd5b60028054600160a060020a031916600160a060020a0392909216919091179055565b6001546040805160e060020a631ca451a3028152600160a060020a038481166004830152600060248301819052925192931691631ca451a39160448082019260209290919082900301818787803b1580156109ed57600080fd5b600160a060020a03808216600081815260056020908152604080832094881680845294825291829020869055815186815291517f8c5be1e5ebec7d5bd14f71427d1e84f3dd0314c0f7b2291e5b200ac8c7c3b9259281900390910190a3505050565b82600160a060020a031663a9059cbb83836040518363ffffffff167c01000000000000000000000000000000000000000000000000000000000281526004018083600160a060020a0316600160a060020a0316815260200182815260200192505050602060405180830381600087803b158015610fa657600080fd5b505af1158015610fba573d6000803e3d6000fd5b505050506040513d6020811015610fd057600080fd5b50511515610b7757600080fd5b600160a060020a038085166000908152600560209081526040808320938516835292905220548083111561105b576040805160e560020a62461bcd02815260206004820181905260248201527f6e6f7420656e6f75676820616c6c6f77616e636520746f207472616e73666572604482015290519081900360640190fd5b600160a060020a03808616600090815260056020908152604080832093861683529290522054611091908463ffffffff6112c216565b600160a060020a038087166000908152600560209081526040808320938716835292905220556110c28585856111f9565b5050505050565b600160a060020a0380821660009081526005602090815260408083209387168352929052205480831061112357600160a060020a03808316600090815260056020908152604080832093881683529290529081205561115a565b611133818463ffffffff6112c216565b600160a060020a038084166000908152600560209081526040808320938916835292905220555b600160a060020a0382811660008181526005602090815260408083209489168084529482529182902054825190815291517f8c5be1e5ebec7d5bd14f71427d1e84f3dd0314c0f7b2291e5b200ac8c7c3b9259281900390910190a350505050565b60008215156111cc5750600061055f565b508181028183828115156111dc57fe5b041461055f57fe5b600081838115156111f157fe5b049392505050565b6000806112078584866112d4565b9150611219838363ffffffff6112c216565b90506110c285858361144a565b600160a060020a0380821660009081526005602090815260408083209387168352929052205461125c908363ffffffff6116c516565b600160a060020a0382811660008181526005602090815260408083209489168084529482529182902085905581519485529051929391927f8c5be1e5ebec7d5bd14f71427d1e84f3dd0314c0f7b2291e5b200ac8c7c3b9259281900390910190a3505050565b6000828211156112ce57fe5b50900390565b6001546040805160e060020a631ca451a3028152600160a060020a038681166004808401919091526024830152915160009384938493911691631ca451a39160448082019260209290919082900301818787803b15801561133457600080fd5b505af1158015611348573d6000803e3d6000fd5b505050506040513d602081101561135e57600080fd5b5051806113ee57506001546040805160e060020a631ca451a3028152600160a060020a03878116600480840191909152602483015291519190921691631ca451a39160448083019260209291908290030181600087803b1580156113c157600080fd5b505af11580156113d5573d6000803e3d6000fd5b505050506040513d60208110156113eb57600080fd5b50515b915081156113ff5760009250611441565b61141a600754610aaa600654886111bb90919063ffffffff16565b9050600081111561143d5760085461143d908790600160a060020a03168361144a565b8092505b50509392505050565b600160a060020a03821615156114aa576040805160e560020a62461bcd02815260206004820152601860248201527f746f20616464726573732063616e6e6f74206265203078300000000000000000604482015290519081900360640190fd5b600160a060020a038316151561150a576040805160e560020a62461bcd02815260206004820152601a60248201527f66726f6d20616464726573732063616e6e6f7420626520307830000000000000604482015290519081900360640190fd5b61151383610980565b81111561156a576040805160e560020a62461bcd02815260206004820152601e60248201527f6e6f7420656e6f7567682062616c616e636520746f207472616e736665720000604482015290519081900360640190fd5b60048054604080517fcf8eeb7e000000000000000000000000000000000000000000000000000000008152600160a060020a0387811694820194909452602481018590529051929091169163cf8eeb7e9160448082019260009290919082900301818387803b1580156115dc57600080fd5b505af11580156115f0573d6000803e3d6000fd5b505060048054604080517f21e5383a000000000000000000000000000000000000000000000000000000008152600160a060020a03888116948201949094526024810187905290519290911693506321e5383a925060448082019260009290919082900301818387803b15801561166657600080fd5b505af115801561167a573d6000803e3d6000fd5b5050604080518481529051600160a060020a038087169450871692507fddf252ad1be2c89b69c2b068fc378daa952ba7f163c4a11628f55a4df523b3ef9181900360200190a3505050565b8181018281101561055f57fe00a165627a7a723058203757af52a61f6cd4172c770138f3ed001f2088b8e0bfed42dbf2cf936f78a2430029",
  "source": "pragma solidity ^0.4.24;\n\nimport \"./access/Manageable.sol\";\nimport \"./base-token/StandardToken.sol\";\n\n\n/**\n * @title TokenWithFees.\n * @dev This contract allows for transaction fees to be assessed on transfer.\n **/\ncontract TokenWithFees is Manageable, StandardToken {\n  uint256 public transferFeeNumerator = 0;\n  uint256 public transferFeeDenominator = 10000;\n  // All transaction fees are paid to this address.\n  address public beneficiary;\n\n  event ChangeWallet(address indexed addr);\n  event ChangeFees(uint256 transferFeeNumerator,\n                   uint256 transferFeeDenominator);\n\n  constructor(address _wallet) public {\n    beneficiary = _wallet;\n  }\n\n  // transfer and transferFrom both call this function, so pay fee here.\n  // E.g. if A transfers 1000 tokens to B, B will receive 999 tokens,\n  // and the system wallet will receive 1 token.\n  function _transfer(address _from, address _to, uint256 _value) internal {\n    uint256 _fee = _payFee(_from, _value, _to);\n    uint256 _remaining = _value.sub(_fee);\n    super._transfer(_from, _to, _remaining);\n  }\n\n  function _payFee(\n    address _payer,\n    uint256 _value,\n    address _otherParticipant\n  )\n    internal\n    returns (uint256)\n  {\n    // This check allows accounts to be whitelisted and not have to pay transaction fees.\n    bool _shouldBeFree = (\n      registry.hasAttribute(_payer, Attribute.AttributeType.NO_FEES) ||\n      registry.hasAttribute(_otherParticipant, Attribute.AttributeType.NO_FEES)\n    );\n    if (_shouldBeFree) {\n      return 0;\n    }\n\n    uint256 _fee = _value.mul(transferFeeNumerator).div(transferFeeDenominator);\n    if (_fee > 0) {\n      super._transfer(_payer, beneficiary, _fee);\n    }\n    return _fee;\n  }\n\n  function checkTransferFee(uint256 _value) public view returns (uint256) {\n    return _value.mul(transferFeeNumerator).div(transferFeeDenominator);\n  }\n\n  function changeFees(\n    uint256 _transferFeeNumerator,\n    uint256 _transferFeeDenominator\n  )\n    public\n    onlyManager\n  {\n    require(_transferFeeNumerator < _transferFeeDenominator);\n    transferFeeNumerator = _transferFeeNumerator;\n    transferFeeDenominator = _transferFeeDenominator;\n\n    emit ChangeFees(transferFeeNumerator, transferFeeDenominator);\n  }\n\n  /**\n   * @dev Change address of the wallet where the fees will be sent to.\n   * @param _beneficiary The new wallet address.\n   */\n  function changeWallet(address _beneficiary) public onlyManager {\n    require(_beneficiary != address(0), \"new wallet cannot be 0x0\");\n    beneficiary = _beneficiary;\n\n    emit ChangeWallet(_beneficiary);\n  }\n}\n",
  "sourcePath": "/home/namtq/Anlab/SamuraiX/contracts/TokenWithFees.sol",
  "compiler": {
    "name": "solc",
    "version": "0.4.24+commit.e67f0147.Emscripten.clang"
  },
  "schemaVersion": "2.0.1",
  "updatedAt": "2018-10-08T03:06:05.170Z"
}