{
  "contractName": "TraceableToken",
  "abi": [
    {
      "constant": true,
      "inputs": [],
      "name": "mintingFinished",
      "outputs": [
        {
          "name": "",
          "type": "bool"
        }
      ],
      "payable": false,
      "stateMutability": "view",
      "type": "function"
    },
    {
      "constant": false,
      "inputs": [
        {
          "name": "_spender",
          "type": "address"
        },
        {
          "name": "_value",
          "type": "uint256"
        }
      ],
      "name": "approve",
      "outputs": [
        {
          "name": "",
          "type": "bool"
        }
      ],
      "payable": false,
      "stateMutability": "nonpayable",
      "type": "function"
    },
    {
      "constant": false,
      "inputs": [
        {
          "name": "_token",
          "type": "address"
        }
      ],
      "name": "reclaimToken",
      "outputs": [],
      "payable": false,
      "stateMutability": "nonpayable",
      "type": "function"
    },
    {
      "constant": true,
      "inputs": [],
      "name": "totalSupply",
      "outputs": [
        {
          "name": "",
          "type": "uint256"
        }
      ],
      "payable": false,
      "stateMutability": "view",
      "type": "function"
    },
    {
      "constant": false,
      "inputs": [],
      "name": "cancelOwnershipTransfer",
      "outputs": [],
      "payable": false,
      "stateMutability": "nonpayable",
      "type": "function"
    },
    {
      "constant": false,
      "inputs": [
        {
          "name": "_contractAddr",
          "type": "address"
        }
      ],
      "name": "reclaimContract",
      "outputs": [],
      "payable": false,
      "stateMutability": "nonpayable",
      "type": "function"
    },
    {
      "constant": false,
      "inputs": [],
      "name": "claimOwnership",
      "outputs": [],
      "payable": false,
      "stateMutability": "nonpayable",
      "type": "function"
    },
    {
      "constant": false,
      "inputs": [
        {
          "name": "_sheet",
          "type": "address"
        }
      ],
      "name": "setBalanceSheet",
      "outputs": [
        {
          "name": "",
          "type": "bool"
        }
      ],
      "payable": false,
      "stateMutability": "nonpayable",
      "type": "function"
    },
    {
      "constant": false,
      "inputs": [
        {
          "name": "_spender",
          "type": "address"
        },
        {
          "name": "_subtractedValue",
          "type": "uint256"
        }
      ],
      "name": "decreaseApproval",
      "outputs": [
        {
          "name": "",
          "type": "bool"
        }
      ],
      "payable": false,
      "stateMutability": "nonpayable",
      "type": "function"
    },
    {
      "constant": true,
      "inputs": [
        {
          "name": "_owner",
          "type": "address"
        }
      ],
      "name": "balanceOf",
      "outputs": [
        {
          "name": "balance",
          "type": "uint256"
        }
      ],
      "payable": false,
      "stateMutability": "view",
      "type": "function"
    },
    {
      "constant": false,
      "inputs": [],
      "name": "renounceOwnership",
      "outputs": [],
      "payable": false,
      "stateMutability": "nonpayable",
      "type": "function"
    },
    {
      "constant": true,
      "inputs": [],
      "name": "registry",
      "outputs": [
        {
          "name": "",
          "type": "address"
        }
      ],
      "payable": false,
      "stateMutability": "view",
      "type": "function"
    },
    {
      "constant": false,
      "inputs": [],
      "name": "finishMinting",
      "outputs": [
        {
          "name": "",
          "type": "bool"
        }
      ],
      "payable": false,
      "stateMutability": "nonpayable",
      "type": "function"
    },
    {
      "constant": false,
      "inputs": [
        {
          "name": "token",
          "type": "address"
        },
        {
          "name": "_to",
          "type": "address"
        }
      ],
      "name": "reclaimToken",
      "outputs": [],
      "payable": false,
      "stateMutability": "nonpayable",
      "type": "function"
    },
    {
      "constant": true,
      "inputs": [],
      "name": "owner",
      "outputs": [
        {
          "name": "",
          "type": "address"
        }
      ],
      "payable": false,
      "stateMutability": "view",
      "type": "function"
    },
    {
      "constant": false,
      "inputs": [
        {
          "name": "_to",
          "type": "address"
        }
      ],
      "name": "reclaimEther",
      "outputs": [],
      "payable": false,
      "stateMutability": "nonpayable",
      "type": "function"
    },
    {
      "constant": false,
      "inputs": [],
      "name": "reclaimEther",
      "outputs": [],
      "payable": false,
      "stateMutability": "nonpayable",
      "type": "function"
    },
    {
      "constant": false,
      "inputs": [
        {
          "name": "_registry",
          "type": "address"
        }
      ],
      "name": "setRegistry",
      "outputs": [],
      "payable": false,
      "stateMutability": "nonpayable",
      "type": "function"
    },
    {
      "constant": true,
      "inputs": [
        {
          "name": "_from",
          "type": "address"
        },
        {
          "name": "_value",
          "type": "uint256"
        },
        {
          "name": "_data",
          "type": "bytes"
        }
      ],
      "name": "tokenFallback",
      "outputs": [],
      "payable": false,
      "stateMutability": "pure",
      "type": "function"
    },
    {
      "constant": false,
      "inputs": [
        {
          "name": "_spender",
          "type": "address"
        },
        {
          "name": "_addedValue",
          "type": "uint256"
        }
      ],
      "name": "increaseApproval",
      "outputs": [
        {
          "name": "",
          "type": "bool"
        }
      ],
      "payable": false,
      "stateMutability": "nonpayable",
      "type": "function"
    },
    {
      "constant": true,
      "inputs": [
        {
          "name": "_owner",
          "type": "address"
        },
        {
          "name": "_spender",
          "type": "address"
        }
      ],
      "name": "allowance",
      "outputs": [
        {
          "name": "",
          "type": "uint256"
        }
      ],
      "payable": false,
      "stateMutability": "view",
      "type": "function"
    },
    {
      "constant": true,
      "inputs": [],
      "name": "pendingOwner",
      "outputs": [
        {
          "name": "",
          "type": "address"
        }
      ],
      "payable": false,
      "stateMutability": "view",
      "type": "function"
    },
    {
      "constant": false,
      "inputs": [
        {
          "name": "newOwner",
          "type": "address"
        }
      ],
      "name": "transferOwnership",
      "outputs": [],
      "payable": false,
      "stateMutability": "nonpayable",
      "type": "function"
    },
    {
      "constant": true,
      "inputs": [
        {
          "name": "_operator",
          "type": "address"
        }
      ],
      "name": "isManager",
      "outputs": [
        {
          "name": "",
          "type": "bool"
        }
      ],
      "payable": false,
      "stateMutability": "view",
      "type": "function"
    },
    {
      "inputs": [],
      "payable": false,
      "stateMutability": "nonpayable",
      "type": "constructor"
    },
    {
      "payable": false,
      "stateMutability": "nonpayable",
      "type": "fallback"
    },
    {
      "anonymous": false,
      "inputs": [
        {
          "indexed": true,
          "name": "to",
          "type": "address"
        },
        {
          "indexed": false,
          "name": "value",
          "type": "uint256"
        }
      ],
      "name": "Mint",
      "type": "event"
    },
    {
      "anonymous": false,
      "inputs": [],
      "name": "MintFinished",
      "type": "event"
    },
    {
      "anonymous": false,
      "inputs": [
        {
          "indexed": true,
          "name": "sheet",
          "type": "address"
        }
      ],
      "name": "BalanceSheetSet",
      "type": "event"
    },
    {
      "anonymous": false,
      "inputs": [
        {
          "indexed": true,
          "name": "owner",
          "type": "address"
        },
        {
          "indexed": true,
          "name": "spender",
          "type": "address"
        },
        {
          "indexed": false,
          "name": "value",
          "type": "uint256"
        }
      ],
      "name": "Approval",
      "type": "event"
    },
    {
      "anonymous": false,
      "inputs": [
        {
          "indexed": true,
          "name": "from",
          "type": "address"
        },
        {
          "indexed": true,
          "name": "to",
          "type": "address"
        },
        {
          "indexed": false,
          "name": "value",
          "type": "uint256"
        }
      ],
      "name": "Transfer",
      "type": "event"
    },
    {
      "anonymous": false,
      "inputs": [
        {
          "indexed": true,
          "name": "registry",
          "type": "address"
        }
      ],
      "name": "SetRegistry",
      "type": "event"
    },
    {
      "anonymous": false,
      "inputs": [
        {
          "indexed": true,
          "name": "previousOwner",
          "type": "address"
        }
      ],
      "name": "OwnershipRenounced",
      "type": "event"
    },
    {
      "anonymous": false,
      "inputs": [
        {
          "indexed": true,
          "name": "previousOwner",
          "type": "address"
        },
        {
          "indexed": true,
          "name": "newOwner",
          "type": "address"
        }
      ],
      "name": "OwnershipTransferred",
      "type": "event"
    },
    {
      "constant": false,
      "inputs": [
        {
          "name": "_to",
          "type": "address"
        },
        {
          "name": "_amount",
          "type": "uint256"
        }
      ],
      "name": "mint",
      "outputs": [
        {
          "name": "",
          "type": "bool"
        }
      ],
      "payable": false,
      "stateMutability": "nonpayable",
      "type": "function"
    },
    {
      "constant": false,
      "inputs": [
        {
          "name": "_to",
          "type": "address"
        },
        {
          "name": "_value",
          "type": "uint256"
        }
      ],
      "name": "transfer",
      "outputs": [
        {
          "name": "",
          "type": "bool"
        }
      ],
      "payable": false,
      "stateMutability": "nonpayable",
      "type": "function"
    },
    {
      "constant": false,
      "inputs": [
        {
          "name": "_from",
          "type": "address"
        },
        {
          "name": "_to",
          "type": "address"
        },
        {
          "name": "_value",
          "type": "uint256"
        }
      ],
      "name": "transferFrom",
      "outputs": [
        {
          "name": "",
          "type": "bool"
        }
      ],
      "payable": false,
      "stateMutability": "nonpayable",
      "type": "function"
    },
    {
      "constant": true,
      "inputs": [],
      "name": "getTheNumberOfHolders",
      "outputs": [
        {
          "name": "",
          "type": "uint256"
        }
      ],
      "payable": false,
      "stateMutability": "view",
      "type": "function"
    },
    {
      "constant": true,
      "inputs": [
        {
          "name": "_index",
          "type": "uint256"
        }
      ],
      "name": "getHolder",
      "outputs": [
        {
          "name": "",
          "type": "address"
        }
      ],
      "payable": false,
      "stateMutability": "view",
      "type": "function"
    }
  ],
  "bytecode": "0x60806040526006805460ff1916905534801561001a57600080fd5b5060008054600160a060020a03191633179055341561003857600080fd5b600060035561004561008d565b604051809103906000f080158015610061573d6000803e3d6000fd5b50600660016101000a815481600160a060020a030219169083600160a060020a0316021790555061009d565b604051610424806118db83390190565b61182f806100ac6000396000f30060806040526004361061015b5763ffffffff60e060020a60003504166305d2035b811461016a578063095ea7b31461019357806317ffc320146101b757806318160ddd146101da57806323452b9c1461020157806323b872dd146102165780632aed7f3f1461024057806340c10f19146102615780634e71e0c81461028557806354f78dad1461029a57806366188463146102bb57806366ab910a146102df57806370a08231146102f4578063715018a6146103155780637b1039991461032a5780637d64bcb41461035b57806388ee39cc146103705780638da5cb5b146103975780639a6a30a4146103ac5780639f727c27146103cd578063a9059cbb146103e2578063a91ee0dc14610406578063c0ee0b8a14610427578063d73dd62314610458578063dd62ed3e1461047c578063e30c3978146104a3578063e8a96b46146104b8578063f2fde38b146104d0578063f3ae2415146104f1575b34801561016757600080fd5b50005b34801561017657600080fd5b5061017f610512565b604080519115158252519081900360200190f35b34801561019f57600080fd5b5061017f600160a060020a036004351660243561051b565b3480156101c357600080fd5b506101d8600160a060020a0360043516610531565b005b3480156101e657600080fd5b506101ef6105fd565b60408051918252519081900360200190f35b34801561020d57600080fd5b506101d8610603565b34801561022257600080fd5b5061017f600160a060020a036004358116906024351660443561064b565b34801561024c57600080fd5b506101d8600160a060020a036004351661066c565b34801561026d57600080fd5b5061017f600160a060020a0360043516602435610706565b34801561029157600080fd5b506101d86107e4565b3480156102a657600080fd5b5061017f600160a060020a036004351661086c565b3480156102c757600080fd5b5061017f600160a060020a0360043516602435610957565b3480156102eb57600080fd5b506101ef610964565b34801561030057600080fd5b506101ef600160a060020a0360043516610a13565b34801561032157600080fd5b506101d8610ab2565b34801561033657600080fd5b5061033f610b1e565b60408051600160a060020a039092168252519081900360200190f35b34801561036757600080fd5b5061017f610b2d565b34801561037c57600080fd5b506101d8600160a060020a0360043581169060243516610b91565b3480156103a357600080fd5b5061033f610c57565b3480156103b857600080fd5b506101d8600160a060020a0360043516610c66565b3480156103d957600080fd5b506101d8610cb3565b3480156103ee57600080fd5b5061017f600160a060020a0360043516602435610d08565b34801561041257600080fd5b506101d8600160a060020a0360043516610d27565b34801561043357600080fd5b506101d860048035600160a060020a0316906024803591604435918201910135610d9b565b34801561046457600080fd5b5061017f600160a060020a0360043516602435610da0565b34801561048857600080fd5b506101ef600160a060020a0360043581169060243516610dad565b3480156104af57600080fd5b5061033f610dd8565b3480156104c457600080fd5b5061033f600435610de7565b3480156104dc57600080fd5b506101d8600160a060020a0360043516610e70565b3480156104fd57600080fd5b5061017f600160a060020a0360043516610eb6565b60065460ff1681565b6000610528838333610f26565b50600192915050565b60008054600160a060020a0316331461054957600080fd5b604080517f70a082310000000000000000000000000000000000000000000000000000000081523060048201529051600160a060020a038416916370a082319160248083019260209291908290030181600087803b1580156105aa57600080fd5b505af11580156105be573d6000803e3d6000fd5b505050506040513d60208110156105d457600080fd5b50516000549091506105f990600160a060020a0384811691168363ffffffff610f8816565b5050565b60035490565b600054600160a060020a0316331461061a57600080fd5b6000546002805473ffffffffffffffffffffffffffffffffffffffff1916600160a060020a03909216919091179055565b600061065683611022565b61066184848461115a565b506001949350505050565b60008054600160a060020a0316331461068457600080fd5b5060008054604080517ff2fde38b000000000000000000000000000000000000000000000000000000008152600160a060020a039283166004820152905184939284169263f2fde38b926024808201939182900301818387803b1580156106ea57600080fd5b505af11580156106fe573d6000803e3d6000fd5b505050505050565b600080548190600160a060020a0316331461072057600080fd5b60065460ff161561073057600080fd5b61073a8484611168565b905080156107dd57600654604080517f0a3b0a4f000000000000000000000000000000000000000000000000000000008152600160a060020a038781166004830152915161010090930490911691630a3b0a4f916024808201926020929091908290030181600087803b1580156107b057600080fd5b505af11580156107c4573d6000803e3d6000fd5b505050506040513d60208110156107da57600080fd5b50505b9392505050565b600254600160a060020a031633146107fb57600080fd5b60025460008054604051600160a060020a0393841693909116917f8be0079c531659141344cd1fd0a4f28419497f9722a3daafe3b4186f6b6457e091a3600280546000805473ffffffffffffffffffffffffffffffffffffffff19908116600160a060020a03841617909155169055565b60008054600160a060020a0316331461088457600080fd5b6004805473ffffffffffffffffffffffffffffffffffffffff1916600160a060020a0384811691909117808355604080517f4e71e0c800000000000000000000000000000000000000000000000000000000815290519190921692634e71e0c89280820192600092909182900301818387803b15801561090357600080fd5b505af1158015610917573d6000803e3d6000fd5b5050604051600160a060020a03851692507fa89fb8ab3845cb6919c98b54ca0d8f398df48c64ae04ed309cd7b130539badd49150600090a2506001919050565b60006105288383336111e2565b600061096f33610eb6565b806109845750600054600160a060020a031633145b151561098f57600080fd5b600660019054906101000a9004600160a060020a0316600160a060020a0316630870188e6040518163ffffffff1660e060020a028152600401602060405180830381600087803b1580156109e257600080fd5b505af11580156109f6573d6000803e3d6000fd5b505050506040513d6020811015610a0c57600080fd5b5051905090565b60048054604080517f70a08231000000000000000000000000000000000000000000000000000000008152600160a060020a03858116948201949094529051600093909216916370a082319160248082019260209290919082900301818787803b158015610a8057600080fd5b505af1158015610a94573d6000803e3d6000fd5b505050506040513d6020811015610aaa57600080fd5b505192915050565b600054600160a060020a03163314610ac957600080fd5b60008054604051600160a060020a03909116917ff8df31144d9c2f0f6b59d69b8b98abd5459d07f2742c4df920b25aae33c6482091a26000805473ffffffffffffffffffffffffffffffffffffffff19169055565b600154600160a060020a031681565b60008054600160a060020a03163314610b4557600080fd5b60065460ff1615610b5557600080fd5b6006805460ff191660011790556040517fae5184fba832cb2b1f702aca6117b8d265eaf03ad33eb133f19dde0f5920fa0890600090a150600190565b60008054600160a060020a03163314610ba957600080fd5b604080517f70a082310000000000000000000000000000000000000000000000000000000081523060048201529051600160a060020a038516916370a082319160248083019260209291908290030181600087803b158015610c0a57600080fd5b505af1158015610c1e573d6000803e3d6000fd5b505050506040513d6020811015610c3457600080fd5b50519050610c52600160a060020a038416838363ffffffff610f8816565b505050565b600054600160a060020a031681565b600054600160a060020a03163314610c7d57600080fd5b604051600160a060020a03821690303180156108fc02916000818181858888f193505050501580156105f9573d6000803e3d6000fd5b600054600160a060020a03163314610cca57600080fd5b60008054604051600160a060020a0390911691303180156108fc02929091818181858888f19350505050158015610d05573d6000803e3d6000fd5b50565b6000610d1383611022565b610d1d83836112d4565b5060019392505050565b600054600160a060020a03163314610d3e57600080fd5b6001805473ffffffffffffffffffffffffffffffffffffffff1916600160a060020a0383811691909117918290556040519116907f278c70ced5f3e0e5eeb385b5ff9cb735748ba00a625147e66065ed48fc1562cd90600090a250565b600080fd5b60006105288383336112e1565b600160a060020a03918216600090815260056020908152604080832093909416825291909152205490565b600254600160a060020a031681565b6000610df233610eb6565b80610e075750600054600160a060020a031633145b1515610e1257600080fd5b600660019054906101000a9004600160a060020a0316600160a060020a0316635fab6f82836040518263ffffffff1660e060020a02815260040180828152602001915050602060405180830381600087803b158015610a8057600080fd5b600054600160a060020a03163314610e8757600080fd5b6002805473ffffffffffffffffffffffffffffffffffffffff1916600160a060020a0392909216919091179055565b600154604080517f1ca451a3000000000000000000000000000000000000000000000000000000008152600160a060020a038481166004830152600060248301819052925192931691631ca451a39160448082019260209290919082900301818787803b158015610a8057600080fd5b600160a060020a03808216600081815260056020908152604080832094881680845294825291829020869055815186815291517f8c5be1e5ebec7d5bd14f71427d1e84f3dd0314c0f7b2291e5b200ac8c7c3b9259281900390910190a3505050565b82600160a060020a031663a9059cbb83836040518363ffffffff1660e060020a0281526004018083600160a060020a0316600160a060020a0316815260200182815260200192505050602060405180830381600087803b158015610feb57600080fd5b505af1158015610fff573d6000803e3d6000fd5b505050506040513d602081101561101557600080fd5b50511515610c5257600080fd5b600654604080517f5dbe47e8000000000000000000000000000000000000000000000000000000008152600160a060020a038481166004830152915161010090930490911691635dbe47e8916024808201926020929091908290030181600087803b15801561109057600080fd5b505af11580156110a4573d6000803e3d6000fd5b505050506040513d60208110156110ba57600080fd5b50511515610d0557600654604080517f0a3b0a4f000000000000000000000000000000000000000000000000000000008152600160a060020a038481166004830152915161010090930490911691630a3b0a4f916024808201926020929091908290030181600087803b15801561113057600080fd5b505af1158015611144573d6000803e3d6000fd5b505050506040513d6020811015610c5257600080fd5b6000610d1d8484843361137d565b60008054600160a060020a0316331461118057600080fd5b60065460ff161561119057600080fd5b61119a8383611469565b604080518381529051600160a060020a038516917f0f6798a560793a54c3bcfe86a93cde1e73087d944c0ea20544137d4121396885919081900360200190a250600192915050565b600160a060020a0380821660009081526005602090815260408083209387168352929052205480831061123c57600160a060020a038083166000908152600560209081526040808320938816835292905290812055611273565b61124c818463ffffffff61156316565b600160a060020a038084166000908152600560209081526040808320938916835292905220555b600160a060020a0382811660008181526005602090815260408083209489168084529482529182902054825190815291517f8c5be1e5ebec7d5bd14f71427d1e84f3dd0314c0f7b2291e5b200ac8c7c3b9259281900390910190a350505050565b6000610528338484611575565b600160a060020a03808216600090815260056020908152604080832093871683529290522054611317908363ffffffff6117f016565b600160a060020a0382811660008181526005602090815260408083209489168084529482529182902085905581519485529051929391927f8c5be1e5ebec7d5bd14f71427d1e84f3dd0314c0f7b2291e5b200ac8c7c3b9259281900390910190a3505050565b600160a060020a03808516600090815260056020908152604080832093851683529290522054808311156113fb576040805160e560020a62461bcd02815260206004820181905260248201527f6e6f7420656e6f75676820616c6c6f77616e636520746f207472616e73666572604482015290519081900360640190fd5b600160a060020a03808616600090815260056020908152604080832093861683529290522054611431908463ffffffff61156316565b600160a060020a03808716600090815260056020908152604080832093871683529290522055611462858585611575565b5050505050565b600160a060020a038216151561147e57600080fd5b600354611491908263ffffffff6117f016565b60035560048054604080517f21e5383a000000000000000000000000000000000000000000000000000000008152600160a060020a038681169482019490945260248101859052905192909116916321e5383a9160448082019260009290919082900301818387803b15801561150657600080fd5b505af115801561151a573d6000803e3d6000fd5b5050604080518481529051600160a060020a0386169350600092507fddf252ad1be2c89b69c2b068fc378daa952ba7f163c4a11628f55a4df523b3ef9181900360200190a35050565b60008282111561156f57fe5b50900390565b600160a060020a03821615156115d5576040805160e560020a62461bcd02815260206004820152601860248201527f746f20616464726573732063616e6e6f74206265203078300000000000000000604482015290519081900360640190fd5b600160a060020a0383161515611635576040805160e560020a62461bcd02815260206004820152601a60248201527f66726f6d20616464726573732063616e6e6f7420626520307830000000000000604482015290519081900360640190fd5b61163e83610a13565b811115611695576040805160e560020a62461bcd02815260206004820152601e60248201527f6e6f7420656e6f7567682062616c616e636520746f207472616e736665720000604482015290519081900360640190fd5b60048054604080517fcf8eeb7e000000000000000000000000000000000000000000000000000000008152600160a060020a0387811694820194909452602481018590529051929091169163cf8eeb7e9160448082019260009290919082900301818387803b15801561170757600080fd5b505af115801561171b573d6000803e3d6000fd5b505060048054604080517f21e5383a000000000000000000000000000000000000000000000000000000008152600160a060020a03888116948201949094526024810187905290519290911693506321e5383a925060448082019260009290919082900301818387803b15801561179157600080fd5b505af11580156117a5573d6000803e3d6000fd5b5050604080518481529051600160a060020a038087169450871692507fddf252ad1be2c89b69c2b068fc378daa952ba7f163c4a11628f55a4df523b3ef9181900360200190a3505050565b818101828110156117fd57fe5b929150505600a165627a7a72305820cdb29bb81d93da639a30c64eb8d494b132fddbb7317e41d9c512381f6fc01ed20029608060405260008054600160a060020a031916331790556103ff806100256000396000f3006080604052600436106100825763ffffffff7c01000000000000000000000000000000000000000000000000000000006000350416630870188e81146100875780630a3b0a4f146100ae5780635dbe47e8146100e35780635fab6f8214610104578063715018a6146101385780638da5cb5b1461014f578063f2fde38b14610164575b600080fd5b34801561009357600080fd5b5061009c610185565b60408051918252519081900360200190f35b3480156100ba57600080fd5b506100cf600160a060020a03600435166101a4565b604080519115158252519081900360200190f35b3480156100ef57600080fd5b506100cf600160a060020a036004351661024b565b34801561011057600080fd5b5061011c600435610269565b60408051600160a060020a039092168252519081900360200190f35b34801561014457600080fd5b5061014d6102b8565b005b34801561015b57600080fd5b5061011c610324565b34801561017057600080fd5b5061014d600160a060020a0360043516610333565b60008054600160a060020a0316331461019d57600080fd5b5060025490565b60008054600160a060020a031633146101bc57600080fd5b6101c58261024b565b156101d257506000610246565b50600160a060020a03811660008181526001602081905260408220805460ff19168217905560028054808301825592527f405787fa12a823e0f2b7631cc41b3ba8828b3321ca811111fa75cd3aa3bb5ace909101805473ffffffffffffffffffffffffffffffffffffffff19169092179091555b919050565b600160a060020a031660009081526001602052604090205460ff1690565b60008054600160a060020a0316331461028157600080fd5b600254821061028f57600080fd5b600280548390811061029d57fe5b600091825260209091200154600160a060020a031692915050565b600054600160a060020a031633146102cf57600080fd5b60008054604051600160a060020a03909116917ff8df31144d9c2f0f6b59d69b8b98abd5459d07f2742c4df920b25aae33c6482091a26000805473ffffffffffffffffffffffffffffffffffffffff19169055565b600054600160a060020a031681565b600054600160a060020a0316331461034a57600080fd5b61035381610356565b50565b600160a060020a038116151561036b57600080fd5b60008054604051600160a060020a03808516939216917f8be0079c531659141344cd1fd0a4f28419497f9722a3daafe3b4186f6b6457e091a36000805473ffffffffffffffffffffffffffffffffffffffff1916600160a060020a03929092169190911790555600a165627a7a72305820d0186d304587235334dd1acbf9e0855977c4839324d88fbc692b966e154f31c90029",
  "source": "pragma solidity ^0.4.24;\n\nimport './access/Manageable.sol';\nimport './base-token/MintableToken.sol';\nimport './utils/AddressSet.sol';\n\n\n/**\n * @title Traceable token.\n * @dev This contract allows a sub-class token contract to run a loop through its all holders.\n **/\ncontract TraceableToken is Manageable, MintableToken {\n  AddressSet private holderSet;\n\n  constructor() public {\n    holderSet = new AddressSet();\n  }\n\n  /**\n   * @dev Throws if called by any account that is neither a manager nor the owner.\n   */\n  modifier canTrace() {\n    require(isManager(msg.sender) || msg.sender == owner);\n    _;\n  }\n\n  /**\n   * @dev Mints tokens to a beneficiary address. The target address should be\n   * added to the token holders list if needed.\n   * @param _to Who got the tokens.\n   * @param _amount Amount of tokens.\n   */\n  function mint(\n    address _to,\n    uint256 _amount\n  )\n    public\n    hasMintPermission\n    canMint\n    returns (bool)\n  {\n    bool suc = super.mint(_to, _amount);\n    if (suc) holderSet.add(_to);\n\n    return suc;\n  }\n\n  function transfer(address _to, uint256 _value) public returns (bool) {\n    _checkTransferTarget(_to);\n\n    super.transfer(_to, _value);\n    return true;\n  }\n\n  function transferFrom(\n    address _from,\n    address _to,\n    uint256 _value\n  )\n    public\n    returns (bool)\n  {\n    _checkTransferTarget(_to);\n\n    super.transferFrom(_from, _to, _value);\n    return true;\n  }\n\n  function getTheNumberOfHolders() public canTrace view returns (uint256) {\n    return holderSet.getTheNumberOfElements();\n  }\n\n  function getHolder(uint256 _index) public canTrace view returns (address) {\n    return holderSet.elementAt(_index);\n  }\n\n  function _checkTransferTarget(address _to) internal {\n    if (!holderSet.contains(_to)) {\n      holderSet.add(_to);\n    }\n  }\n}\n",
  "sourcePath": "/home/namtq/Trainning/git/SamIO/contracts/TraceableToken.sol",
  "compiler": {
    "name": "solc",
    "version": "0.4.24+commit.e67f0147.Emscripten.clang"
  },
  "schemaVersion": "2.0.1",
  "updatedAt": "2018-10-08T06:54:58.834Z"
}