{
  "contractName": "WithdrawalToken",
  "abi": [
    {
      "constant": false,
      "inputs": [
        {
          "name": "_spender",
          "type": "address"
        },
        {
          "name": "_value",
          "type": "uint256"
        }
      ],
      "name": "approve",
      "outputs": [
        {
          "name": "",
          "type": "bool"
        }
      ],
      "payable": false,
      "stateMutability": "nonpayable",
      "type": "function"
    },
    {
      "constant": false,
      "inputs": [
        {
          "name": "_token",
          "type": "address"
        }
      ],
      "name": "reclaimToken",
      "outputs": [],
      "payable": false,
      "stateMutability": "nonpayable",
      "type": "function"
    },
    {
      "constant": true,
      "inputs": [],
      "name": "totalSupply",
      "outputs": [
        {
          "name": "",
          "type": "uint256"
        }
      ],
      "payable": false,
      "stateMutability": "view",
      "type": "function"
    },
    {
      "constant": false,
      "inputs": [],
      "name": "cancelOwnershipTransfer",
      "outputs": [],
      "payable": false,
      "stateMutability": "nonpayable",
      "type": "function"
    },
    {
      "constant": false,
      "inputs": [
        {
          "name": "_from",
          "type": "address"
        },
        {
          "name": "_to",
          "type": "address"
        },
        {
          "name": "_value",
          "type": "uint256"
        }
      ],
      "name": "transferFrom",
      "outputs": [
        {
          "name": "",
          "type": "bool"
        }
      ],
      "payable": false,
      "stateMutability": "nonpayable",
      "type": "function"
    },
    {
      "constant": false,
      "inputs": [
        {
          "name": "_contractAddr",
          "type": "address"
        }
      ],
      "name": "reclaimContract",
      "outputs": [],
      "payable": false,
      "stateMutability": "nonpayable",
      "type": "function"
    },
    {
      "constant": false,
      "inputs": [],
      "name": "claimOwnership",
      "outputs": [],
      "payable": false,
      "stateMutability": "nonpayable",
      "type": "function"
    },
    {
      "constant": false,
      "inputs": [
        {
          "name": "_sheet",
          "type": "address"
        }
      ],
      "name": "setBalanceSheet",
      "outputs": [
        {
          "name": "",
          "type": "bool"
        }
      ],
      "payable": false,
      "stateMutability": "nonpayable",
      "type": "function"
    },
    {
      "constant": false,
      "inputs": [
        {
          "name": "_spender",
          "type": "address"
        },
        {
          "name": "_subtractedValue",
          "type": "uint256"
        }
      ],
      "name": "decreaseApproval",
      "outputs": [
        {
          "name": "",
          "type": "bool"
        }
      ],
      "payable": false,
      "stateMutability": "nonpayable",
      "type": "function"
    },
    {
      "constant": true,
      "inputs": [
        {
          "name": "_owner",
          "type": "address"
        }
      ],
      "name": "balanceOf",
      "outputs": [
        {
          "name": "balance",
          "type": "uint256"
        }
      ],
      "payable": false,
      "stateMutability": "view",
      "type": "function"
    },
    {
      "constant": false,
      "inputs": [],
      "name": "renounceOwnership",
      "outputs": [],
      "payable": false,
      "stateMutability": "nonpayable",
      "type": "function"
    },
    {
      "constant": false,
      "inputs": [
        {
          "name": "_value",
          "type": "uint256"
        },
        {
          "name": "_note",
          "type": "string"
        }
      ],
      "name": "burn",
      "outputs": [
        {
          "name": "",
          "type": "bool"
        }
      ],
      "payable": false,
      "stateMutability": "nonpayable",
      "type": "function"
    },
    {
      "constant": false,
      "inputs": [
        {
          "name": "token",
          "type": "address"
        },
        {
          "name": "_to",
          "type": "address"
        }
      ],
      "name": "reclaimToken",
      "outputs": [],
      "payable": false,
      "stateMutability": "nonpayable",
      "type": "function"
    },
    {
      "constant": true,
      "inputs": [],
      "name": "owner",
      "outputs": [
        {
          "name": "",
          "type": "address"
        }
      ],
      "payable": false,
      "stateMutability": "view",
      "type": "function"
    },
    {
      "constant": false,
      "inputs": [
        {
          "name": "_to",
          "type": "address"
        }
      ],
      "name": "reclaimEther",
      "outputs": [],
      "payable": false,
      "stateMutability": "nonpayable",
      "type": "function"
    },
    {
      "constant": false,
      "inputs": [],
      "name": "reclaimEther",
      "outputs": [],
      "payable": false,
      "stateMutability": "nonpayable",
      "type": "function"
    },
    {
      "constant": false,
      "inputs": [
        {
          "name": "_to",
          "type": "address"
        },
        {
          "name": "_value",
          "type": "uint256"
        }
      ],
      "name": "transfer",
      "outputs": [
        {
          "name": "",
          "type": "bool"
        }
      ],
      "payable": false,
      "stateMutability": "nonpayable",
      "type": "function"
    },
    {
      "constant": true,
      "inputs": [
        {
          "name": "_from",
          "type": "address"
        },
        {
          "name": "_value",
          "type": "uint256"
        },
        {
          "name": "_data",
          "type": "bytes"
        }
      ],
      "name": "tokenFallback",
      "outputs": [],
      "payable": false,
      "stateMutability": "pure",
      "type": "function"
    },
    {
      "constant": false,
      "inputs": [
        {
          "name": "_spender",
          "type": "address"
        },
        {
          "name": "_addedValue",
          "type": "uint256"
        }
      ],
      "name": "increaseApproval",
      "outputs": [
        {
          "name": "",
          "type": "bool"
        }
      ],
      "payable": false,
      "stateMutability": "nonpayable",
      "type": "function"
    },
    {
      "constant": true,
      "inputs": [
        {
          "name": "_owner",
          "type": "address"
        },
        {
          "name": "_spender",
          "type": "address"
        }
      ],
      "name": "allowance",
      "outputs": [
        {
          "name": "",
          "type": "uint256"
        }
      ],
      "payable": false,
      "stateMutability": "view",
      "type": "function"
    },
    {
      "constant": true,
      "inputs": [],
      "name": "pendingOwner",
      "outputs": [
        {
          "name": "",
          "type": "address"
        }
      ],
      "payable": false,
      "stateMutability": "view",
      "type": "function"
    },
    {
      "constant": false,
      "inputs": [
        {
          "name": "newOwner",
          "type": "address"
        }
      ],
      "name": "transferOwnership",
      "outputs": [],
      "payable": false,
      "stateMutability": "nonpayable",
      "type": "function"
    },
    {
      "payable": false,
      "stateMutability": "nonpayable",
      "type": "fallback"
    },
    {
      "anonymous": false,
      "inputs": [
        {
          "indexed": true,
          "name": "burner",
          "type": "address"
        },
        {
          "indexed": false,
          "name": "value",
          "type": "uint256"
        },
        {
          "indexed": false,
          "name": "note",
          "type": "string"
        }
      ],
      "name": "Burn",
      "type": "event"
    },
    {
      "anonymous": false,
      "inputs": [
        {
          "indexed": true,
          "name": "sheet",
          "type": "address"
        }
      ],
      "name": "BalanceSheetSet",
      "type": "event"
    },
    {
      "anonymous": false,
      "inputs": [
        {
          "indexed": true,
          "name": "owner",
          "type": "address"
        },
        {
          "indexed": true,
          "name": "spender",
          "type": "address"
        },
        {
          "indexed": false,
          "name": "value",
          "type": "uint256"
        }
      ],
      "name": "Approval",
      "type": "event"
    },
    {
      "anonymous": false,
      "inputs": [
        {
          "indexed": true,
          "name": "from",
          "type": "address"
        },
        {
          "indexed": true,
          "name": "to",
          "type": "address"
        },
        {
          "indexed": false,
          "name": "value",
          "type": "uint256"
        }
      ],
      "name": "Transfer",
      "type": "event"
    },
    {
      "anonymous": false,
      "inputs": [
        {
          "indexed": true,
          "name": "previousOwner",
          "type": "address"
        }
      ],
      "name": "OwnershipRenounced",
      "type": "event"
    },
    {
      "anonymous": false,
      "inputs": [
        {
          "indexed": true,
          "name": "previousOwner",
          "type": "address"
        },
        {
          "indexed": true,
          "name": "newOwner",
          "type": "address"
        }
      ],
      "name": "OwnershipTransferred",
      "type": "event"
    }
  ],
  "bytecode": "0x608060405260008054600160a060020a03191633179055341561002157600080fd5b600060025561140d806100356000396000f3006080604052600436106101275763ffffffff7c0100000000000000000000000000000000000000000000000000000000600035041663095ea7b3811461013657806317ffc3201461016e57806318160ddd1461019157806323452b9c146101b857806323b872dd146101cd5780632aed7f3f146101f75780634e71e0c81461021857806354f78dad1461022d578063661884631461024e57806370a0823114610272578063715018a6146102935780637641e6f3146102a857806388ee39cc146103065780638da5cb5b1461032d5780639a6a30a41461035e5780639f727c271461037f578063a9059cbb14610394578063c0ee0b8a146103b8578063d73dd623146103e9578063dd62ed3e1461040d578063e30c397814610434578063f2fde38b14610449575b34801561013357600080fd5b50005b34801561014257600080fd5b5061015a600160a060020a036004351660243561046a565b604080519115158252519081900360200190f35b34801561017a57600080fd5b5061018f600160a060020a0360043516610480565b005b34801561019d57600080fd5b506101a661054c565b60408051918252519081900360200190f35b3480156101c457600080fd5b5061018f610552565b3480156101d957600080fd5b5061015a600160a060020a036004358116906024351660443561059a565b34801561020357600080fd5b5061018f600160a060020a03600435166105b2565b34801561022457600080fd5b5061018f61064c565b34801561023957600080fd5b5061015a600160a060020a03600435166106d4565b34801561025a57600080fd5b5061015a600160a060020a03600435166024356107c3565b34801561027e57600080fd5b506101a6600160a060020a03600435166107d0565b34801561029f57600080fd5b5061018f61086d565b3480156102b457600080fd5b5060408051602060046024803582810135601f810185900485028601850190965285855261015a9583359536956044949193909101919081908401838280828437509497506108d99650505050505050565b34801561031257600080fd5b5061018f600160a060020a03600435811690602435166108e6565b34801561033957600080fd5b506103426109ac565b60408051600160a060020a039092168252519081900360200190f35b34801561036a57600080fd5b5061018f600160a060020a03600435166109bb565b34801561038b57600080fd5b5061018f610a08565b3480156103a057600080fd5b5061015a600160a060020a0360043516602435610a5d565b3480156103c457600080fd5b5061018f60048035600160a060020a0316906024803591604435918201910135610a6a565b3480156103f557600080fd5b5061015a600160a060020a0360043516602435610a6f565b34801561041957600080fd5b506101a6600160a060020a0360043581169060243516610a7c565b34801561044057600080fd5b50610342610aa7565b34801561045557600080fd5b5061018f600160a060020a0360043516610ab6565b6000610477838333610afc565b50600192915050565b60008054600160a060020a0316331461049857600080fd5b604080517f70a082310000000000000000000000000000000000000000000000000000000081523060048201529051600160a060020a038416916370a082319160248083019260209291908290030181600087803b1580156104f957600080fd5b505af115801561050d573d6000803e3d6000fd5b505050506040513d602081101561052357600080fd5b505160005490915061054890600160a060020a0384811691168363ffffffff610b5e16565b5050565b60025490565b600054600160a060020a0316331461056957600080fd5b6000546001805473ffffffffffffffffffffffffffffffffffffffff1916600160a060020a03909216919091179055565b60006105a884848433610c11565b5060019392505050565b60008054600160a060020a031633146105ca57600080fd5b5060008054604080517ff2fde38b000000000000000000000000000000000000000000000000000000008152600160a060020a039283166004820152905184939284169263f2fde38b926024808201939182900301818387803b15801561063057600080fd5b505af1158015610644573d6000803e3d6000fd5b505050505050565b600154600160a060020a0316331461066357600080fd5b60015460008054604051600160a060020a0393841693909116917f8be0079c531659141344cd1fd0a4f28419497f9722a3daafe3b4186f6b6457e091a3600180546000805473ffffffffffffffffffffffffffffffffffffffff19908116600160a060020a03841617909155169055565b60008054600160a060020a031633146106ec57600080fd5b6003805473ffffffffffffffffffffffffffffffffffffffff1916600160a060020a038481169190911791829055604080517f4e71e0c800000000000000000000000000000000000000000000000000000000815290519290911691634e71e0c89160048082019260009290919082900301818387803b15801561076f57600080fd5b505af1158015610783573d6000803e3d6000fd5b5050604051600160a060020a03851692507fa89fb8ab3845cb6919c98b54ca0d8f398df48c64ae04ed309cd7b130539badd49150600090a2506001919050565b6000610477838333610c83565b600354604080517f70a08231000000000000000000000000000000000000000000000000000000008152600160a060020a038481166004830152915160009392909216916370a082319160248082019260209290919082900301818787803b15801561083b57600080fd5b505af115801561084f573d6000803e3d6000fd5b505050506040513d602081101561086557600080fd5b505192915050565b600054600160a060020a0316331461088457600080fd5b60008054604051600160a060020a03909116917ff8df31144d9c2f0f6b59d69b8b98abd5459d07f2742c4df920b25aae33c6482091a26000805473ffffffffffffffffffffffffffffffffffffffff19169055565b6000610477338484610d75565b60008054600160a060020a031633146108fe57600080fd5b604080517f70a082310000000000000000000000000000000000000000000000000000000081523060048201529051600160a060020a038516916370a082319160248083019260209291908290030181600087803b15801561095f57600080fd5b505af1158015610973573d6000803e3d6000fd5b505050506040513d602081101561098957600080fd5b505190506109a7600160a060020a038416838363ffffffff610b5e16565b505050565b600054600160a060020a031681565b600054600160a060020a031633146109d257600080fd5b604051600160a060020a03821690303180156108fc02916000818181858888f19350505050158015610548573d6000803e3d6000fd5b600054600160a060020a03163314610a1f57600080fd5b60008054604051600160a060020a0390911691303180156108fc02929091818181858888f19350505050158015610a5a573d6000803e3d6000fd5b50565b6000610477338484610e2f565b600080fd5b6000610477838333610e6a565b600160a060020a03918216600090815260046020908152604080832093909416825291909152205490565b600154600160a060020a031681565b600054600160a060020a03163314610acd57600080fd5b6001805473ffffffffffffffffffffffffffffffffffffffff1916600160a060020a0392909216919091179055565b600160a060020a03808216600081815260046020908152604080832094881680845294825291829020869055815186815291517f8c5be1e5ebec7d5bd14f71427d1e84f3dd0314c0f7b2291e5b200ac8c7c3b9259281900390910190a3505050565b82600160a060020a031663a9059cbb83836040518363ffffffff167c01000000000000000000000000000000000000000000000000000000000281526004018083600160a060020a0316600160a060020a0316815260200182815260200192505050602060405180830381600087803b158015610bda57600080fd5b505af1158015610bee573d6000803e3d6000fd5b505050506040513d6020811015610c0457600080fd5b505115156109a757600080fd5b600160a060020a0383161515610c71576040805160e560020a62461bcd02815260206004820152601260248201527f5f746f2061646472657373206973203078300000000000000000000000000000604482015290519081900360640190fd5b610c7d84848484610f06565b50505050565b600160a060020a03808216600090815260046020908152604080832093871683529290522054808310610cdd57600160a060020a038083166000908152600460209081526040808320938816835292905290812055610d14565b610ced818463ffffffff610ff216565b600160a060020a038084166000908152600460209081526040808320938916835292905220555b600160a060020a0382811660008181526004602090815260408083209489168084529482529182902054825190815291517f8c5be1e5ebec7d5bd14f71427d1e84f3dd0314c0f7b2291e5b200ac8c7c3b9259281900390910190a350505050565b610d7f8383611004565b82600160a060020a03167f47e772fda56eb54ab211642ce5421882c49fc2b7033455982af14588ae4207ff83836040518083815260200180602001828103825283818151815260200191508051906020019080838360005b83811015610def578181015183820152602001610dd7565b50505050905090810190601f168015610e1c5780820380516001836020036101000a031916815260200191505b50935050505060405180910390a2505050565b600160a060020a0382161515610e5f57610e598160206040519081016040528060008152506108d9565b506109a7565b6109a783838361115b565b600160a060020a03808216600090815260046020908152604080832093871683529290522054610ea0908363ffffffff6113ce16565b600160a060020a0382811660008181526004602090815260408083209489168084529482529182902085905581519485529051929391927f8c5be1e5ebec7d5bd14f71427d1e84f3dd0314c0f7b2291e5b200ac8c7c3b9259281900390910190a3505050565b600160a060020a0380851660009081526004602090815260408083209385168352929052205480831115610f84576040805160e560020a62461bcd02815260206004820181905260248201527f6e6f7420656e6f75676820616c6c6f77616e636520746f207472616e73666572604482015290519081900360640190fd5b600160a060020a03808616600090815260046020908152604080832093861683529290522054610fba908463ffffffff610ff216565b600160a060020a03808716600090815260046020908152604080832093871683529290522055610feb858585610e2f565b5050505050565b600082821115610ffe57fe5b50900390565b600160a060020a038216151561101957600080fd5b611022826107d0565b811115611079576040805160e560020a62461bcd02815260206004820152601a60248201527f6e6f7420656e6f7567682062616c616e636520746f206275726e000000000000604482015290519081900360640190fd5b600354604080517fcf8eeb7e000000000000000000000000000000000000000000000000000000008152600160a060020a038581166004830152602482018590529151919092169163cf8eeb7e91604480830192600092919082900301818387803b1580156110e757600080fd5b505af11580156110fb573d6000803e3d6000fd5b5050600254611113925090508263ffffffff610ff216565b600255604080518281529051600091600160a060020a038516917fddf252ad1be2c89b69c2b068fc378daa952ba7f163c4a11628f55a4df523b3ef9181900360200190a35050565b600160a060020a03821615156111bb576040805160e560020a62461bcd02815260206004820152601860248201527f746f20616464726573732063616e6e6f74206265203078300000000000000000604482015290519081900360640190fd5b600160a060020a038316151561121b576040805160e560020a62461bcd02815260206004820152601a60248201527f66726f6d20616464726573732063616e6e6f7420626520307830000000000000604482015290519081900360640190fd5b611224836107d0565b81111561127b576040805160e560020a62461bcd02815260206004820152601e60248201527f6e6f7420656e6f7567682062616c616e636520746f207472616e736665720000604482015290519081900360640190fd5b600354604080517fcf8eeb7e000000000000000000000000000000000000000000000000000000008152600160a060020a038681166004830152602482018590529151919092169163cf8eeb7e91604480830192600092919082900301818387803b1580156112e957600080fd5b505af11580156112fd573d6000803e3d6000fd5b5050600354604080517f21e5383a000000000000000000000000000000000000000000000000000000008152600160a060020a0387811660048301526024820187905291519190921693506321e5383a9250604480830192600092919082900301818387803b15801561136f57600080fd5b505af1158015611383573d6000803e3d6000fd5b5050604080518481529051600160a060020a038087169450871692507fddf252ad1be2c89b69c2b068fc378daa952ba7f163c4a11628f55a4df523b3ef9181900360200190a3505050565b818101828110156113db57fe5b929150505600a165627a7a723058205fdc233794af81735bc9cfa7603e98296010af62434d07e0b6e9bde3ab02b1540029",
  "source": "pragma solidity ^0.4.24;\n\nimport \"./base-token/BurnableToken.sol\";\n\n\n// This allows a token to treat transfer(0x0, value) as burn(value). This\n// is useful for users of standard wallet programs which have transfer\n// functionality built in but not the ability to burn.\ncontract WithdrawalToken is BurnableToken {\n  function _transfer(address _from, address _to, uint256 _value) internal {\n    if (_to == address(0)) {\n      burn(_value, '');\n    } else {\n      super._transfer(_from, _to, _value);\n    }\n  }\n\n  // StandardToken's transferFrom doesn't have to check for\n  // _to != 0x0, but we do because we redirect 0x0 transfers to burns, but\n  // we do not redirect transferFrom\n  function _transferFrom(\n    address _from,\n    address _to,\n    uint256 _value,\n    address _spender\n  ) internal {\n    require(_to != address(0), \"_to address is 0x0\");\n    super._transferFrom(_from, _to, _value, _spender);\n  }\n}\n",
  "sourcePath": "/home/namtq/Anlab/SamuraiX/contracts/WithdrawalToken.sol",
  "compiler": {
    "name": "solc",
    "version": "0.4.24+commit.e67f0147.Emscripten.clang"
  },
  "schemaVersion": "2.0.1",
  "updatedAt": "2018-09-28T03:23:17.517Z"
}